{"contracts/AutoReinvestBotV5.sol":{"AutoReinvestBotV5":{"abi":[{"inputs":[{"internalType":"address","name":"_WLD","type":"address"},{"internalType":"address","name":"_H2O","type":"address"},{"internalType":"address","name":"_BTCH2O","type":"address"}],"stateMutability":"nonpayable","type":"constructor"},{"inputs":[],"name":"ReentrancyGuardReentrantCall","type":"error"},{"inputs":[{"internalType":"address","name":"token","type":"address"}],"name":"SafeERC20FailedOperation","type":"error"},{"anonymous":false,"inputs":[{"indexed":false,"internalType":"string","name":"key","type":"string"},{"indexed":false,"internalType":"uint256","name":"value","type":"uint256"}],"name":"ConfigUpdated","type":"event"},{"anonymous":false,"inputs":[{"indexed":true,"internalType":"uint256","name":"tokenId","type":"uint256"},{"indexed":false,"internalType":"uint256","name":"amount0","type":"uint256"},{"indexed":false,"internalType":"uint256","name":"amount1","type":"uint256"}],"name":"FeesCollected","type":"event"},{"anonymous":false,"inputs":[{"indexed":true,"internalType":"uint256","name":"tokenId","type":"uint256"},{"indexed":false,"internalType":"uint128","name":"liquidity","type":"uint128"}],"name":"LiquidityAdded","type":"event"},{"anonymous":false,"inputs":[{"indexed":true,"internalType":"address","name":"owner","type":"address"}],"name":"OwnerAdded","type":"event"},{"anonymous":false,"inputs":[{"indexed":true,"internalType":"address","name":"owner","type":"address"}],"name":"OwnerRemoved","type":"event"},{"anonymous":false,"inputs":[{"indexed":false,"internalType":"bool","name":"isPaused","type":"bool"}],"name":"Paused","type":"event"},{"anonymous":false,"inputs":[{"indexed":true,"internalType":"uint256","name":"tokenId","type":"uint256"}],"name":"PositionAdded","type":"event"},{"anonymous":false,"inputs":[{"indexed":true,"internalType":"uint256","name":"tokenId","type":"uint256"}],"name":"PositionRemoved","type":"event"},{"anonymous":false,"inputs":[{"indexed":false,"internalType":"uint256","name":"timestamp","type":"uint256"},{"indexed":false,"internalType":"uint256","name":"totalWLD","type":"uint256"}],"name":"ReinvestCompleted","type":"event"},{"anonymous":false,"inputs":[{"indexed":true,"internalType":"address","name":"token","type":"address"},{"indexed":true,"internalType":"address","name":"to","type":"address"},{"indexed":false,"internalType":"uint256","name":"amount","type":"uint256"}],"name":"ReserveWithdrawn","type":"event"},{"anonymous":false,"inputs":[{"indexed":true,"internalType":"address","name":"tokenIn","type":"address"},{"indexed":true,"internalType":"address","name":"tokenOut","type":"address"},{"indexed":false,"internalType":"uint256","name":"amountIn","type":"uint256"},{"indexed":false,"internalType":"uint256","name":"amountOut","type":"uint256"}],"name":"Swapped","type":"event"},{"inputs":[],"name":"BTCH2O","outputs":[{"internalType":"address","name":"","type":"address"}],"stateMutability":"view","type":"function"},{"inputs":[],"name":"H2O","outputs":[{"internalType":"address","name":"","type":"address"}],"stateMutability":"view","type":"function"},{"inputs":[],"name":"POSITION_MANAGER","outputs":[{"internalType":"address","name":"","type":"address"}],"stateMutability":"view","type":"function"},{"inputs":[],"name":"SWAP_ROUTER","outputs":[{"internalType":"address","name":"","type":"address"}],"stateMutability":"view","type":"function"},{"inputs":[],"name":"UNISWAP_FACTORY","outputs":[{"internalType":"address","name":"","type":"address"}],"stateMutability":"view","type":"function"},{"inputs":[],"name":"WLD","outputs":[{"internalType":"address","name":"","type":"address"}],"stateMutability":"view","type":"function"},{"inputs":[{"internalType":"address","name":"newOwner","type":"address"}],"name":"addOwner","outputs":[],"stateMutability":"nonpayable","type":"function"},{"inputs":[{"internalType":"uint256","name":"tokenId","type":"uint256"}],"name":"addPosition","outputs":[],"stateMutability":"nonpayable","type":"function"},{"inputs":[],"name":"btch2oShareBps","outputs":[{"internalType":"uint256","name":"","type":"uint256"}],"stateMutability":"view","type":"function"},{"inputs":[{"internalType":"uint256[]","name":"tokenIds","type":"uint256[]"},{"internalType":"uint256","name":"deadline","type":"uint256"}],"name":"collectFees","outputs":[],"stateMutability":"nonpayable","type":"function"},{"inputs":[],"name":"getConfig","outputs":[{"internalType":"uint256","name":"_slippageBps","type":"uint256"},{"internalType":"uint256","name":"_reinvestIntervalSecs","type":"uint256"},{"internalType":"uint256","name":"_reserveFeeBps","type":"uint256"},{"internalType":"uint256","name":"_h2oShareBps","type":"uint256"},{"internalType":"uint256","name":"_btch2oShareBps","type":"uint256"},{"internalType":"bool","name":"_paused","type":"bool"},{"internalType":"uint256","name":"_lastReinvestAt","type":"uint256"}],"stateMutability":"view","type":"function"},{"inputs":[],"name":"getManagedPositions","outputs":[{"internalType":"uint256[]","name":"","type":"uint256[]"}],"stateMutability":"view","type":"function"},{"inputs":[],"name":"getOwners","outputs":[{"internalType":"address[]","name":"","type":"address[]"}],"stateMutability":"view","type":"function"},{"inputs":[{"internalType":"uint256","name":"tokenId","type":"uint256"}],"name":"getPosition","outputs":[{"internalType":"address","name":"token0","type":"address"},{"internalType":"address","name":"token1","type":"address"},{"internalType":"uint24","name":"fee","type":"uint24"},{"internalType":"int24","name":"tickLower","type":"int24"},{"internalType":"int24","name":"tickUpper","type":"int24"},{"internalType":"uint128","name":"liquidity","type":"uint128"},{"internalType":"uint128","name":"tokensOwed0","type":"uint128"},{"internalType":"uint128","name":"tokensOwed1","type":"uint128"},{"internalType":"bool","name":"managed","type":"bool"},{"internalType":"bool","name":"isInRange","type":"bool"}],"stateMutability":"view","type":"function"},{"inputs":[],"name":"getReserves","outputs":[{"internalType":"uint256","name":"wldReserve","type":"uint256"},{"internalType":"uint256","name":"h2oReserve","type":"uint256"},{"internalType":"uint256","name":"btch2oReserve","type":"uint256"}],"stateMutability":"view","type":"function"},{"inputs":[],"name":"h2oShareBps","outputs":[{"internalType":"uint256","name":"","type":"uint256"}],"stateMutability":"view","type":"function"},{"inputs":[{"internalType":"uint256","name":"","type":"uint256"}],"name":"inRange","outputs":[{"internalType":"bool","name":"","type":"bool"}],"stateMutability":"view","type":"function"},{"inputs":[{"internalType":"uint256","name":"","type":"uint256"}],"name":"isManaged","outputs":[{"internalType":"bool","name":"","type":"bool"}],"stateMutability":"view","type":"function"},{"inputs":[{"internalType":"address","name":"","type":"address"}],"name":"isOwner","outputs":[{"internalType":"bool","name":"","type":"bool"}],"stateMutability":"view","type":"function"},{"inputs":[],"name":"lastReinvestAt","outputs":[{"internalType":"uint256","name":"","type":"uint256"}],"stateMutability":"view","type":"function"},{"inputs":[{"internalType":"uint256","name":"","type":"uint256"}],"name":"managedPositions","outputs":[{"internalType":"uint256","name":"","type":"uint256"}],"stateMutability":"view","type":"function"},{"inputs":[{"internalType":"uint256","name":"","type":"uint256"}],"name":"ownerList","outputs":[{"internalType":"address","name":"","type":"address"}],"stateMutability":"view","type":"function"},{"inputs":[],"name":"paused","outputs":[{"internalType":"bool","name":"","type":"bool"}],"stateMutability":"view","type":"function"},{"inputs":[],"name":"primaryOwner","outputs":[{"internalType":"address","name":"","type":"address"}],"stateMutability":"view","type":"function"},{"inputs":[],"name":"reinvestIntervalSecs","outputs":[{"internalType":"uint256","name":"","type":"uint256"}],"stateMutability":"view","type":"function"},{"inputs":[{"internalType":"address","name":"owner","type":"address"}],"name":"removeOwner","outputs":[],"stateMutability":"nonpayable","type":"function"},{"inputs":[{"internalType":"uint256","name":"tokenId","type":"uint256"}],"name":"removePosition","outputs":[],"stateMutability":"nonpayable","type":"function"},{"inputs":[{"internalType":"address","name":"","type":"address"}],"name":"reserve","outputs":[{"internalType":"uint256","name":"","type":"uint256"}],"stateMutability":"view","type":"function"},{"inputs":[],"name":"reserveFeeBps","outputs":[{"internalType":"uint256","name":"","type":"uint256"}],"stateMutability":"view","type":"function"},{"inputs":[{"internalType":"uint256","name":"_h2oShareBps","type":"uint256"},{"internalType":"uint256","name":"_btch2oShareBps","type":"uint256"}],"name":"setDistribution","outputs":[],"stateMutability":"nonpayable","type":"function"},{"inputs":[{"internalType":"bool","name":"_paused","type":"bool"}],"name":"setPaused","outputs":[],"stateMutability":"nonpayable","type":"function"},{"inputs":[{"internalType":"uint256","name":"secs","type":"uint256"}],"name":"setReinvestInterval","outputs":[],"stateMutability":"nonpayable","type":"function"},{"inputs":[{"internalType":"uint256","name":"bps","type":"uint256"}],"name":"setReserveFeeBps","outputs":[],"stateMutability":"nonpayable","type":"function"},{"inputs":[{"internalType":"uint256","name":"bps","type":"uint256"}],"name":"setSlippage","outputs":[],"stateMutability":"nonpayable","type":"function"},{"inputs":[],"name":"slippageBps","outputs":[{"internalType":"uint256","name":"","type":"uint256"}],"stateMutability":"view","type":"function"},{"inputs":[{"internalType":"uint256[]","name":"tokenIds","type":"uint256[]"}],"name":"updateRanges","outputs":[],"stateMutability":"nonpayable","type":"function"},{"inputs":[{"internalType":"address","name":"token","type":"address"},{"internalType":"address","name":"to","type":"address"}],"name":"withdrawAll","outputs":[],"stateMutability":"nonpayable","type":"function"},{"inputs":[{"internalType":"address","name":"token","type":"address"},{"internalType":"uint256","name":"amount","type":"uint256"},{"internalType":"address","name":"to","type":"address"}],"name":"withdrawReserve","outputs":[],"stateMutability":"nonpayable","type":"function"}],"evm":{"bytecode":{"linkReferences":{},"object":"60e034620001e557601f62002a1f38819003918201601f19168301916001600160401b03831184841017620001ea57808492606094604052833981010312620001e5576200004d8162000200565b906200006a6040620000626020840162000200565b920162000200565b9160017f9b779b17422d0df92223018b32b4d1fa46e071723d6817e2486d003becc55f005560805260a05260c05260018060a01b03196000903381835416178255338252600160205260408220600160ff1982541617905560025468010000000000000000811015620001d1576001810180600255811015620001bd57600283527f405787fa12a823e0f2b7631cc41b3ba8828b3321ca811111fa75cd3aa3bb5ace0180549091163317905560035561012c60045560c8600555610fa0600655610bb860075560405161280990816200021682396080518181816105700152818161150401528181611ad501528181611c4001528181611c6901528181611e9001528181611f3201528181611f850152612106015260a0518181816101da0152818161153401528181611c8a01528181611e6f0152611f64015260c051818181610a600152818161155d0152611f110152f35b634e487b7160e01b83526032600452602483fd5b634e487b7160e01b83526041600452602483fd5b600080fd5b634e487b7160e01b600052604160045260246000fd5b51906001600160a01b0382168203620001e55756fe608060408181526004918236101561001657600080fd5b600092833560e01c9182630902f1ac146114e35750816309cae2c8146113c057816310a135ca1461131757816316c38b3c146112a6578163173825d9146110ce5781631bea83fe1461109f5781631d8d7c6614610fae5781632f54bf6e14610f7057816335e9327714610f515781633cd57d6114610f3257816340ec97c614610f055781634b41cb2714610e6057816355b6cce114610e33578163578c71d914610e145781635c975abb14610df057816365db657914610dd15781637065cb4814610c8757816382f8fe7814610bd45781638d95c2cf14610b9b5781638e10be3314610b7357816398fb86d314610b54578163a0e67e2b14610a8f578163acb4767014610a4b578163c006ee2d1461096f578163c046742214610822578163c3f909d4146107cb578163c60058931461079c578163c74c0fac1461076d578163ce8021de1461074f578163d2d6a87214610644578163d7759e6a1461059f578163de061d661461055b578163def79ab51461051a578163e75179a4146104e2578163eb02c301146103a1578163f0fa55a9146102f9578163f18dba261461020d575063feaa524d146101c757600080fd5b34610209578160031936011261020957517f00000000000000000000000000000000000000000000000000000000000000006001600160a01b03168152602090f35b5080fd5b83915034610209578260031936011261020957803560243591338452600160205261023d60ff868620541661165e565b61271061024a8484611703565b116102c157508360809282849360065581600755825190838252600b848301526a68326f536861726542707360a81b606083015260208201526000805160206127b4833981519152948591a1600e8251928084528301526d62746368326f536861726542707360901b60608301526020820152a180f35b606490602086519162461bcd60e51b8352820152601260248201527153686172657320657863656564203130302560701b6044820152fd5b90503461039d57602036600319011261039d57803590338452600160205261032660ff848620541661165e565b612710821161036f57506000805160206127b48339815191529181608092600355600b8251928084528301526a736c69707061676542707360a81b60608301526020820152a180f35b606490602084519162461bcd60e51b835282015260086024820152674d6178203130302560c01b6044820152fd5b8280fd5b8284346104df5760203660031901126104df578235908183519463133f757160e31b8652850152610180808560248173ec12a9f9a09f50550686363766cc153d03c27b5e5afa80156104d5576101409583948496859086918793889589988a98610482575b50509062ffffff918952600a60205260ff8381818c2054169a600b6020522054169983519b60018060a01b038092168d521660208c0152169089015260020b606088015260020b60808701526001600160801b03928380921660a08801521660c08601521660e084015215156101008301521515610120820152f35b9550955096505097505062ffffff95506104b19250803d106104ce575b6104a981836116cb565b810190611790565b979e989d909b979a509298509296939593949392508e9050610406565b503d61049f565b84513d84823e3d90fd5b80fd5b5050346102095760203660031901126102095760209181906001600160a01b0361050a61158e565b168152600d845220549051908152f35b90503461039d57602036600319011261039d5735916002548310156104df57506105456020926115a9565b905491519160018060a01b039160031b1c168152f35b505034610209578160031936011261020957517f00000000000000000000000000000000000000000000000000000000000000006001600160a01b03168152602090f35b9190503461039d57602091826003193601126106405780359067ffffffffffffffff821161063c576105d39136910161162d565b913385526001845260ff906105ec82828820541661165e565b855b8481106105f9578680f35b8061060861061e92878761174a565b358852600a875283838920541661062357611699565b6105ee565b61063761063182888861174a565b3561184f565b611699565b8480fd5b8380fd5b9190503461039d57602036600319011261039d57813591338452600160205261067260ff838620541661165e565b828452600a60205260ff828520541661071b57600c5490600160401b8210156107085750826106aa8260016106c39401600c556115f6565b90919082549060031b91821b91600019901b1916179055565b818352600a6020528220805460ff191660011790556106e18161184f565b7f3d0a2b1c6f8e72f333688e33b7fc1767f042d33eaef1d3b5db5968567033e91f8280a280f35b634e487b7160e01b855260419052602484fd5b6020606492519162461bcd60e51b8352820152600f60248201526e105b1c9958591e481b585b9859d959608a1b6044820152fd5b90503461039d578260031936011261039d5760209250549051908152f35b50503461020957816003193601126102095760209051737a5028bda40e7b173c278c5342087826455ea25a8152f35b5050346102095781600319360112610209576020905173091ad9e2e6e5ed44c1c66db50e49a601f9f36cf68152f35b9190503461039d578260031936011261039d5760e092506003549154906005546006546007549160ff6008541693600954958151978852602088015286015260608501526080840152151560a083015260c0820152f35b90503461039d57602036600319011261039d579081359182913385526001908160205261085460ff828820541661165e565b838652600a60205261086b60ff8288205416611710565b838652600a6020528520805460ff1916905584815b6108ae575b85847f8dab17171ceb83acca6e0d86e9c8b6d3f2eec3a1ec6a5a2f9a3f1b7e17ad10358280a280f35b600c805480831015610968576108c3836115f6565b969054600397881b1c146108e95750506108df91929350611699565b9083929181610880565b925092906000199283810190811161095557906106aa61090b610917936115f6565b905490881b1c916115f6565b8254908115610942575081019261092d846115f6565b81939154921b1b191690555580388080610885565b634e487b7160e01b875260319052602486fd5b634e487b7160e01b885260118352602488fd5b5050610885565b90503461039d578160031936011261039d57803567ffffffffffffffff81116106405761099f903690830161162d565b909133855260016020526109b860ff858720541661165e565b60ff60085416610a13577f9b779b17422d0df92223018b32b4d1fa46e071723d6817e2486d003becc55f00936002855414610a06576002855585600186610a026024358789611a9e565b5580f35b51633ee5aeb560e01b8152fd5b606490602085519162461bcd60e51b8352820152601260248201527110dbdb9d1c9858dd081a5cc81c185d5cd95960721b6044820152fd5b505034610209578160031936011261020957517f00000000000000000000000000000000000000000000000000000000000000006001600160a01b03168152602090f35b8284346104df57806003193601126104df579080519182906002549182855260208095018093600284527f405787fa12a823e0f2b7631cc41b3ba8828b3321ca811111fa75cd3aa3bb5ace90845b818110610b375750505081610af39103826116cb565b83519485948186019282875251809352850193925b828110610b1757505050500390f35b83516001600160a01b031685528695509381019392810192600101610b08565b82546001600160a01b031684529288019260019283019201610add565b5050346102095781600319360112610209576020906006549051908152f35b505034610209578160031936011261020957905490516001600160a01b039091168152602090f35b90503461039d57602036600319011261039d573591600c548310156104df5750610bc66020926115f6565b91905490519160031b1c8152f35b8284346104df57806003193601126104df57908051918290600c549182855260208095018093600c84527fdf6966c971051c3d54ec59162606531493a51404a002842f56009d7e5cf4a8c790845b818110610c735750505081610c389103826116cb565b83519485948186019282875251809352850193925b828110610c5c57505050500390f35b835185528695509381019392810192600101610c4d565b825484529288019260019283019201610c22565b838334610209576020908160031936011261039d57610ca461158e565b9033845260018352610cbb60ff828620541661165e565b6001600160a01b038216928315610da0578385526001815260ff8286205416610d6e57600190848652528320600160ff19825416179055600254600160401b811015610d5b5790610d15826001610d3494016002556115a9565b90919082549060031b9160018060a01b03809116831b921b1916179055565b7f994a936646fe87ffe4f1e469d3d6aa417d6b855598397f323de5b449f765f0c38280a280f35b634e487b7160e01b845260418552602484fd5b8590606492519162461bcd60e51b8352820152600d60248201526c20b63932b0b23c9037bbb732b960991b6044820152fd5b8590606492519162461bcd60e51b8352820152600c60248201526b5a65726f206164647265737360a01b6044820152fd5b5050346102095781600319360112610209576020906005549051908152f35b50503461020957816003193601126102095760209060ff6008541690519015158152f35b5050346102095781600319360112610209576020906003549051908152f35b90503461039d57602036600319011261039d578160209360ff92358152600a855220541690519015158152f35b90503461039d57602036600319011261039d578035903384526001602052610e8d60ff848620541661165e565b6107d08211610ed857506000805160206127b48339815191529181608092600555600d8251928084528301526c7265736572766546656542707360981b60608301526020820152a180f35b606490602084519162461bcd60e51b835282015260076024820152664d61782032302560c81b6044820152fd5b90503461039d57602036600319011261039d578160209360ff92358152600b855220541690519015158152f35b5050346102095781600319360112610209576020906009549051908152f35b5050346102095781600319360112610209576020906007549051908152f35b5050346102095760203660031901126102095760209160ff9082906001600160a01b03610f9b61158e565b1681526001855220541690519015158152f35b90503461039d57606036600319011261039d57610fc961158e565b6001600160a01b03604435818116946024359390929086830361109b573388526001602052610ffd60ff858a20541661165e565b1693848752600d602052838388205410611061575091602091611059827fde13184e8cbb6eccbcecfc796bf8820e5ffde0534c01b4fabed4b05982964a4495878a52600d8652838a206110518382546116be565b905587612732565b51908152a380f35b606490602084519162461bcd60e51b83528201526014602482015273496e73756666696369656e74207265736572766560601b6044820152fd5b8780fd5b5050346102095781600319360112610209576020905173ec12a9f9a09f50550686363766cc153d03c27b5e8152f35b90503461039d57602036600319011261039d576110e961158e565b83546001600160a01b039081169290913384900361126e57821692831461122b578285526001938460205261112360ff828820541661165e565b83865260208590528520805460ff1916905584845b611166575b85847f58619076adf5bb0943d100ef88d52d7c3fd691b19d3a9071b555b651fbf418da8280a280f35b6002805480831015611224579084918661117f856115a9565b949054600395861b1c16146111a05750505061119a90611699565b84611138565b9290949391959650600019928381019081116112115790610d15856111c76111d4946115a9565b9054908a1b1c16916115a9565b83549081156111fe575001926111e9846115a9565b81939154921b1b19169055558038808061113d565b634e487b7160e01b885260319052602487fd5b634e487b7160e01b895260118352602489fd5b505061113d565b606490602085519162461bcd60e51b8352820152601b60248201527f43616e6e6f742072656d6f7665207072696d617279206f776e657200000000006044820152fd5b845162461bcd60e51b8152602081840152601260248201527127b7363c90383934b6b0b93c9037bbb732b960711b6044820152606490fd5b90503461039d57602036600319011261039d57359081151580920361039d577f0e2fb031ee032dc02d8011dc50b816eb450cf856abd8261680dac74f72165bd2916020913385526001835261130060ff828720541661165e565b60ff196008541660ff83161760085551908152a180f35b90503461039d57602036600319011261039d57803590338452600160205261134460ff848620541661165e565b603c82106113935791816080926000805160206127b483398151915294556014825192808452830152737265696e76657374496e74657276616c5365637360601b60608301526020820152a180f35b606490602084519162461bcd60e51b835282015260076024820152664d696e2036307360c81b6044820152fd5b90503461039d578160031936011261039d576113da61158e565b6001600160a01b03602435818116949093918585036114df573387526020936001855261140c60ff848a20541661165e565b16938151926370a0823160e01b845230818501528484602481895afa9384156114d55788946114a6575b50831561146d575090611059837fde13184e8cbb6eccbcecfc796bf8820e5ffde0534c01b4fabed4b05982964a4495949387612732565b825162461bcd60e51b815290810185905260136024820152724e6f7468696e6720746f20776974686472617760681b6044820152606490fd5b9093508481813d83116114ce575b6114be81836116cb565b8101031261109b57519238611436565b503d6114b4565b83513d8a823e3d90fd5b8680fd5b8490843461039d578260031936011261039d579160609260018060a01b03807f0000000000000000000000000000000000000000000000000000000000000000168352600d602052818084205493827f000000000000000000000000000000000000000000000000000000000000000016815281812054927f000000000000000000000000000000000000000000000000000000000000000016815220549284526020840152820152f35b600435906001600160a01b03821682036115a457565b600080fd5b6002548110156115e05760026000527f405787fa12a823e0f2b7631cc41b3ba8828b3321ca811111fa75cd3aa3bb5ace0190600090565b634e487b7160e01b600052603260045260246000fd5b600c548110156115e057600c6000527fdf6966c971051c3d54ec59162606531493a51404a002842f56009d7e5cf4a8c70190600090565b9181601f840112156115a45782359167ffffffffffffffff83116115a4576020808501948460051b0101116115a457565b1561166557565b60405162461bcd60e51b815260206004820152600c60248201526b2737ba1030b71037bbb732b960a11b6044820152606490fd5b60001981146116a85760010190565b634e487b7160e01b600052601160045260246000fd5b919082039182116116a857565b90601f8019910116810190811067ffffffffffffffff8211176116ed57604052565b634e487b7160e01b600052604160045260246000fd5b919082018092116116a857565b1561171757565b60405162461bcd60e51b815260206004820152600b60248201526a139bdd081b585b9859d95960aa1b6044820152606490fd5b91908110156115e05760051b0190565b51906001600160a01b03821682036115a457565b51908160020b82036115a457565b51906001600160801b03821682036115a457565b9190826101809103126115a45781516bffffffffffffffffffffffff811681036115a457916117c16020820161175a565b916117ce6040830161175a565b916117db6060820161175a565b91608082015162ffffff811681036115a457916117fa60a0820161176e565b9161180760c0830161176e565b9161181460e0820161177c565b91610100820151916101208101519161183d610160611836610140850161177c565b930161177c565b90565b519061ffff821682036115a457565b6040805163133f757160e31b81526004810183905261018092838260248173ec12a9f9a09f50550686363766cc153d03c27b5e5afa938415611a80576000928390849085938698611a46575b50508551630b4c774160e11b81526001600160a01b039586166004820152918516602483015262ffffff166044820152602093908481606481737a5028bda40e7b173c278c5342087826455ea25a5afa908115611a0457908291600091611a0f575b5016908161190f575b50505050505050565b60e0600492875193848092633850c7bd851b82525afa908115611a045760009161197f575b50905060020b9060020b8112159485611970575b505090600b91600052526000209060ff80198354169115151617905538808080808080611906565b60020b12159350600b38611948565b60e0833d82116119fc575b8161199760e093836116cb565b81010312610209578251908116036104df5760c06119b686840161176e565b926119c2888201611840565b506119cf60608201611840565b506119dc60808201611840565b506119e960a08201611840565b500151801515036104df57508038611934565b3d915061198a565b86513d6000823e3d90fd5b91508582813d8311611a3f575b611a2681836116cb565b810103126104df5750611a39829161175a565b386118fd565b503d611a1c565b9250925050611a6892955062ffffff9350803d106104ce576104a981836116cb565b5050505050945097945091949091969296903861189b565b83513d6000823e3d90fd5b818102929181159184041417156116a857565b600092835b838110611fb757508315611fb157611b3b92612710611b40611b1582611acb6005548a611a8b565b0460018060a01b037f000000000000000000000000000000000000000000000000000000000000000016600052600d6020526040600020611b0d828254611703565b9055886116be565b82611b2260065483611a8b565b04968793611b3260075484611a8b565b049384926116be565b6116be565b948381611f5e575b905081611f0b575b505083151580611f02575b611b9a575b5050505060407fc9ad57538c87a56b42547ba3335109c64ed9619d5cf403928283e46967b80c4491426009558151904282526020820152a1565b8015611eec5760005b818110611bb05750611b60565b611bbb81838661174a565b35600052600b60205260ff6040600020541680611ee1575b611be6575b611be190611699565b611ba3565b611bf181838661174a565b3560405163133f757160e31b81528160048201526101808160248173ec12a9f9a09f50550686363766cc153d03c27b5e5afa908115611e6157600091611eb4575b506001600160a01b039081167f000000000000000000000000000000000000000000000000000000000000000090911603611e6d577f00000000000000000000000000000000000000000000000000000000000000007f00000000000000000000000000000000000000000000000000000000000000005b611cbf8589046001600160a01b0384166124cd565b611cd48589046001600160a01b0383166124cd565b604051918260c081011067ffffffffffffffff60c0850111176116ed5760c0830160405283835260208301868a04815260408401878b048152606085016000815260808601916000835260a08701938b85526040519763219f5d1760e01b89525160048901525160248801525160448701525160648601525160848501525160a484015260608360c481600073ec12a9f9a09f50550686363766cc153d03c27b5e5af1928315611e6157600093611dee575b50611be19493927f9204f5f210613c88bbfedbcf63911b917a440c100afc438464fca61b3d9e6cdd92602092611dd79190611dc9906001600160a01b03166125d7565b6001600160a01b03166125d7565b6001600160801b0360405191168152a29050611bd8565b90926060823d606011611e59575b81611e09606093836116cb565b810103126104df5750611be1949392611dd77f9204f5f210613c88bbfedbcf63911b917a440c100afc438464fca61b3d9e6cdd93611dc9611e4b60209561177c565b969798505093505090611d86565b3d9150611dfc565b6040513d6000823e3d90fd5b7f00000000000000000000000000000000000000000000000000000000000000007f0000000000000000000000000000000000000000000000000000000000000000611caa565b611ecf91506101803d610180116104ce576104a981836116cb565b50505050505050505091505038611c32565b508185041515611bd3565b634e487b7160e01b600052601260045260246000fd5b50801515611b5b565b611f56917f00000000000000000000000000000000000000000000000000000000000000007f00000000000000000000000000000000000000000000000000000000000000006121f2565b503882611b50565b611fa9917f00000000000000000000000000000000000000000000000000000000000000007f00000000000000000000000000000000000000000000000000000000000000006121f2565b503883611b48565b50505050565b93611fc385858561174a565b35806000526020600a8152604091611fe160ff846000205416611710565b825163133f757160e31b8152600480820183905293610180929160249073ec12a9f9a09f50550686363766cc153d03c27b5e9085818481855afa9586156121e7576000966121bc575b50508251916080830183811067ffffffffffffffff8211176121a8578452848352308784019081526001600160801b0384860181815260608601828152875163fc6f786560e01b815296519b87019b909b5291516001600160a01b0316928501929092525181166044840152965190961660648201529481908690815a608492600091f193841561219d576000958695612147575b50917fa54e6c2fc0861aa9c991b26891d71059d517983b9e84b91020f42609c452eb9d82869461213a99976121349997955191888352820152a26001600160a01b039081167f00000000000000000000000000000000000000000000000000000000000000009091160361213f575090611703565b94611699565b611aa3565b905090611703565b959094508186813d8311612196575b61216081836116cb565b810103126104df5750845194840151937fa54e6c2fc0861aa9c991b26891d71059d517983b9e84b91020f42609c452eb9d6120bf565b503d612156565b50513d6000823e3d90fd5b50634e487b7160e01b600090815260418952fd5b6121d3929650803d106104ce576104a981836116cb565b50505050505050505091505093388061202a565b84513d6000823e3d90fd5b93929190600091604091825163095ea7b360e01b8552602073091ad9e2e6e5ed44c1c66db50e49a601f9f36cf698896004528460245260018060a01b03169560448180895af1906001600051148216156124be575b84521561243e575b60035460008161240b57505060005b835191610100830183811067ffffffffffffffff8211176116ed5785528583526001600160a01b039081166020808501828152610bb88689019081523060608801908152608088019b8c5260a0880189815260c08901978852600060e08a018181528c5163414bf38960e01b81529a51891660048c01529451881660248b0152925162ffffff1660448a01529051861660648901529a516084880152995160a4870152935160c4860152925190911660e48401529582906101049082908b5af1908115611a80576000916123d9575b5080966020600085519263095ea7b360e01b82526004528060245260448180895af1906001600051148216156123ca575b845215612396575b825191825260208201527fa078c4190abe07940190effc1846be0ccf03ad6007bc9e93f9697d0b460befbb9190a3565b61239f84612676565b156123b2576123ad84612676565b612366575b8251635274afe760e01b815260048101859052602490fd5b90853b15153d1516169061235e565b906020823d602011612403575b816123f3602093836116cb565b810103126104df5750513861232d565b3d91506123e6565b6127109182039082821161242a57506124249084611a8b565b0461225e565b634e487b7160e01b81526011600452602490fd5b61244784612676565b156123b2576000602084519163095ea7b360e01b8152896004528460245260448180895af160016000511481161561249e575b81855215612488575061224f565b635274afe760e01b815260048101859052602490fd5b60018115166124b457853b15153d15161661247a565b503d6000823e3d90fd5b90853b15153d15161690612247565b60006040519263095ea7b360e01b93848352602073ec12a9f9a09f50550686363766cc153d03c27b5e93846004528360245260448180885af1906001600051148216156125c8575b604052156125235750505050565b61252c836126e7565b156125a7579060209160009160405195835260045260245260448180855af1600160005114811615612587575b8260405215612569578080611fb1565b635274afe760e01b82526001600160a01b0316600482015260249150fd5b600181151661259d57813b15153d151616612559565b823d6000823e3d90fd5b604051635274afe760e01b81526001600160a01b0384166004820152602490fd5b90843b15153d15161690612515565b600060206040519163095ea7b360e01b815273ec12a9f9a09f50550686363766cc153d03c27b5e6004528060245260448180865af190600160005114821615612667575b604052156126265750565b61262f816126e7565b156126455761263d816126e7565b156126455750565b604051635274afe760e01b81526001600160a01b039091166004820152602490fd5b90823b15153d1516169061261b565b9060405160009263095ea7b360e01b845273091ad9e2e6e5ed44c1c66db50e49a601f9f36cf66004528360245260208460448180855af19360018151148516156126c2575b5050604052565b600185939515166126dd57503b15153d1516169138806126bb565b84903d90823e3d90fd5b9060405160009263095ea7b360e01b845273ec12a9f9a09f50550686363766cc153d03c27b5e6004528360245260208460448180855af19360018151148516156126c2575050604052565b60405163a9059cbb60e01b60009081526001600160a01b039384166004526024949094529260209060448180855af1600160005114811615612793575b836040521561277d57505050565b635274afe760e01b835216600482015260249150fd5b60018115166127a957813b15153d15161661276f565b833d6000823e3d90fdfe12c9dccd129ff783f1c8228eacdfa8e334ddecb7ec5c9a79ec662a4aed3d012aa2646970667358221220b5e950a74f5bd11b2e265b5b539b9f8911a513c74232b7046b2b052bc1e41ea064736f6c63430008140033","opcodes":"PUSH1 0xE0 CALLVALUE PUSH3 0x1E5 JUMPI PUSH1 0x1F PUSH3 0x2A1F CODESIZE DUP2 SWAP1 SUB SWAP2 DUP3 ADD PUSH1 0x1F NOT AND DUP4 ADD SWAP2 PUSH1 0x1 PUSH1 0x1 PUSH1 0x40 SHL SUB DUP4 GT DUP5 DUP5 LT OR PUSH3 0x1EA JUMPI DUP1 DUP5 SWAP3 PUSH1 0x60 SWAP5 PUSH1 0x40 MSTORE DUP4 CODECOPY DUP2 ADD SUB SLT PUSH3 0x1E5 JUMPI PUSH3 0x4D DUP2 PUSH3 0x200 JUMP JUMPDEST SWAP1 PUSH3 0x6A PUSH1 0x40 PUSH3 0x62 PUSH1 0x20 DUP5 ADD PUSH3 0x200 JUMP JUMPDEST SWAP3 ADD PUSH3 0x200 JUMP JUMPDEST SWAP2 PUSH1 0x1 PUSH32 0x9B779B17422D0DF92223018B32B4D1FA46E071723D6817E2486D003BECC55F00 SSTORE PUSH1 0x80 MSTORE PUSH1 0xA0 MSTORE PUSH1 0xC0 MSTORE PUSH1 0x1 DUP1 PUSH1 0xA0 SHL SUB NOT PUSH1 0x0 SWAP1 CALLER DUP2 DUP4 SLOAD AND OR DUP3 SSTORE CALLER DUP3 MSTORE PUSH1 0x1 PUSH1 0x20 MSTORE PUSH1 0x40 DUP3 KECCAK256 PUSH1 0x1 PUSH1 0xFF NOT DUP3 SLOAD AND OR SWAP1 SSTORE PUSH1 0x2 SLOAD PUSH9 0x10000000000000000 DUP2 LT ISZERO PUSH3 0x1D1 JUMPI PUSH1 0x1 DUP2 ADD DUP1 PUSH1 0x2 SSTORE DUP2 LT ISZERO PUSH3 0x1BD JUMPI PUSH1 0x2 DUP4 MSTORE PUSH32 0x405787FA12A823E0F2B7631CC41B3BA8828B3321CA811111FA75CD3AA3BB5ACE ADD DUP1 SLOAD SWAP1 SWAP2 AND CALLER OR SWAP1 SSTORE PUSH1 0x3 SSTORE PUSH2 0x12C PUSH1 0x4 SSTORE PUSH1 0xC8 PUSH1 0x5 SSTORE PUSH2 0xFA0 PUSH1 0x6 SSTORE PUSH2 0xBB8 PUSH1 0x7 SSTORE PUSH1 0x40 MLOAD PUSH2 0x2809 SWAP1 DUP2 PUSH3 0x216 DUP3 CODECOPY PUSH1 0x80 MLOAD DUP2 DUP2 DUP2 PUSH2 0x570 ADD MSTORE DUP2 DUP2 PUSH2 0x1504 ADD MSTORE DUP2 DUP2 PUSH2 0x1AD5 ADD MSTORE DUP2 DUP2 PUSH2 0x1C40 ADD MSTORE DUP2 DUP2 PUSH2 0x1C69 ADD MSTORE DUP2 DUP2 PUSH2 0x1E90 ADD MSTORE DUP2 DUP2 PUSH2 0x1F32 ADD MSTORE DUP2 DUP2 PUSH2 0x1F85 ADD MSTORE PUSH2 0x2106 ADD MSTORE PUSH1 0xA0 MLOAD DUP2 DUP2 DUP2 PUSH2 0x1DA ADD MSTORE DUP2 DUP2 PUSH2 0x1534 ADD MSTORE DUP2 DUP2 PUSH2 0x1C8A ADD MSTORE DUP2 DUP2 PUSH2 0x1E6F ADD MSTORE PUSH2 0x1F64 ADD MSTORE PUSH1 0xC0 MLOAD DUP2 DUP2 DUP2 PUSH2 0xA60 ADD MSTORE DUP2 DUP2 PUSH2 0x155D ADD MSTORE PUSH2 0x1F11 ADD MSTORE RETURN JUMPDEST PUSH4 0x4E487B71 PUSH1 0xE0 SHL DUP4 MSTORE PUSH1 0x32 PUSH1 0x4 MSTORE PUSH1 0x24 DUP4 REVERT JUMPDEST PUSH4 0x4E487B71 PUSH1 0xE0 SHL DUP4 MSTORE PUSH1 0x41 PUSH1 0x4 MSTORE PUSH1 0x24 DUP4 REVERT JUMPDEST PUSH1 0x0 DUP1 REVERT JUMPDEST PUSH4 0x4E487B71 PUSH1 0xE0 SHL PUSH1 0x0 MSTORE PUSH1 0x41 PUSH1 0x4 MSTORE PUSH1 0x24 PUSH1 0x0 REVERT JUMPDEST MLOAD SWAP1 PUSH1 0x1 PUSH1 0x1 PUSH1 0xA0 SHL SUB DUP3 AND DUP3 SUB PUSH3 0x1E5 JUMPI JUMP INVALID PUSH1 0x80 PUSH1 0x40 DUP2 DUP2 MSTORE PUSH1 0x4 SWAP2 DUP3 CALLDATASIZE LT ISZERO PUSH2 0x16 JUMPI PUSH1 0x0 DUP1 REVERT JUMPDEST PUSH1 0x0 SWAP3 DUP4 CALLDATALOAD PUSH1 0xE0 SHR SWAP2 DUP3 PUSH4 0x902F1AC EQ PUSH2 0x14E3 JUMPI POP DUP2 PUSH4 0x9CAE2C8 EQ PUSH2 0x13C0 JUMPI DUP2 PUSH4 0x10A135CA EQ PUSH2 0x1317 JUMPI DUP2 PUSH4 0x16C38B3C EQ PUSH2 0x12A6 JUMPI DUP2 PUSH4 0x173825D9 EQ PUSH2 0x10CE JUMPI DUP2 PUSH4 0x1BEA83FE EQ PUSH2 0x109F JUMPI DUP2 PUSH4 0x1D8D7C66 EQ PUSH2 0xFAE JUMPI DUP2 PUSH4 0x2F54BF6E EQ PUSH2 0xF70 JUMPI DUP2 PUSH4 0x35E93277 EQ PUSH2 0xF51 JUMPI DUP2 PUSH4 0x3CD57D61 EQ PUSH2 0xF32 JUMPI DUP2 PUSH4 0x40EC97C6 EQ PUSH2 0xF05 JUMPI DUP2 PUSH4 0x4B41CB27 EQ PUSH2 0xE60 JUMPI DUP2 PUSH4 0x55B6CCE1 EQ PUSH2 0xE33 JUMPI DUP2 PUSH4 0x578C71D9 EQ PUSH2 0xE14 JUMPI DUP2 PUSH4 0x5C975ABB EQ PUSH2 0xDF0 JUMPI DUP2 PUSH4 0x65DB6579 EQ PUSH2 0xDD1 JUMPI DUP2 PUSH4 0x7065CB48 EQ PUSH2 0xC87 JUMPI DUP2 PUSH4 0x82F8FE78 EQ PUSH2 0xBD4 JUMPI DUP2 PUSH4 0x8D95C2CF EQ PUSH2 0xB9B JUMPI DUP2 PUSH4 0x8E10BE33 EQ PUSH2 0xB73 JUMPI DUP2 PUSH4 0x98FB86D3 EQ PUSH2 0xB54 JUMPI DUP2 PUSH4 0xA0E67E2B EQ PUSH2 0xA8F JUMPI DUP2 PUSH4 0xACB47670 EQ PUSH2 0xA4B JUMPI DUP2 PUSH4 0xC006EE2D EQ PUSH2 0x96F JUMPI DUP2 PUSH4 0xC0467422 EQ PUSH2 0x822 JUMPI DUP2 PUSH4 0xC3F909D4 EQ PUSH2 0x7CB JUMPI DUP2 PUSH4 0xC6005893 EQ PUSH2 0x79C JUMPI DUP2 PUSH4 0xC74C0FAC EQ PUSH2 0x76D JUMPI DUP2 PUSH4 0xCE8021DE EQ PUSH2 0x74F JUMPI DUP2 PUSH4 0xD2D6A872 EQ PUSH2 0x644 JUMPI DUP2 PUSH4 0xD7759E6A EQ PUSH2 0x59F JUMPI DUP2 PUSH4 0xDE061D66 EQ PUSH2 0x55B JUMPI DUP2 PUSH4 0xDEF79AB5 EQ PUSH2 0x51A JUMPI DUP2 PUSH4 0xE75179A4 EQ PUSH2 0x4E2 JUMPI DUP2 PUSH4 0xEB02C301 EQ PUSH2 0x3A1 JUMPI DUP2 PUSH4 0xF0FA55A9 EQ PUSH2 0x2F9 JUMPI DUP2 PUSH4 0xF18DBA26 EQ PUSH2 0x20D JUMPI POP PUSH4 0xFEAA524D EQ PUSH2 0x1C7 JUMPI PUSH1 0x0 DUP1 REVERT JUMPDEST CALLVALUE PUSH2 0x209 JUMPI DUP2 PUSH1 0x3 NOT CALLDATASIZE ADD SLT PUSH2 0x209 JUMPI MLOAD PUSH32 0x0 PUSH1 0x1 PUSH1 0x1 PUSH1 0xA0 SHL SUB AND DUP2 MSTORE PUSH1 0x20 SWAP1 RETURN JUMPDEST POP DUP1 REVERT JUMPDEST DUP4 SWAP2 POP CALLVALUE PUSH2 0x209 JUMPI DUP3 PUSH1 0x3 NOT CALLDATASIZE ADD SLT PUSH2 0x209 JUMPI DUP1 CALLDATALOAD PUSH1 0x24 CALLDATALOAD SWAP2 CALLER DUP5 MSTORE PUSH1 0x1 PUSH1 0x20 MSTORE PUSH2 0x23D PUSH1 0xFF DUP7 DUP7 KECCAK256 SLOAD AND PUSH2 0x165E JUMP JUMPDEST PUSH2 0x2710 PUSH2 0x24A DUP5 DUP5 PUSH2 0x1703 JUMP JUMPDEST GT PUSH2 0x2C1 JUMPI POP DUP4 PUSH1 0x80 SWAP3 DUP3 DUP5 SWAP4 PUSH1 0x6 SSTORE DUP2 PUSH1 0x7 SSTORE DUP3 MLOAD SWAP1 DUP4 DUP3 MSTORE PUSH1 0xB DUP5 DUP4 ADD MSTORE PUSH11 0x68326F5368617265427073 PUSH1 0xA8 SHL PUSH1 0x60 DUP4 ADD MSTORE PUSH1 0x20 DUP3 ADD MSTORE PUSH1 0x0 DUP1 MLOAD PUSH1 0x20 PUSH2 0x27B4 DUP4 CODECOPY DUP2 MLOAD SWAP2 MSTORE SWAP5 DUP6 SWAP2 LOG1 PUSH1 0xE DUP3 MLOAD SWAP3 DUP1 DUP5 MSTORE DUP4 ADD MSTORE PUSH14 0x62746368326F5368617265427073 PUSH1 0x90 SHL PUSH1 0x60 DUP4 ADD MSTORE PUSH1 0x20 DUP3 ADD MSTORE LOG1 DUP1 RETURN JUMPDEST PUSH1 0x64 SWAP1 PUSH1 0x20 DUP7 MLOAD SWAP2 PUSH3 0x461BCD PUSH1 0xE5 SHL DUP4 MSTORE DUP3 ADD MSTORE PUSH1 0x12 PUSH1 0x24 DUP3 ADD MSTORE PUSH18 0x536861726573206578636565642031303025 PUSH1 0x70 SHL PUSH1 0x44 DUP3 ADD MSTORE REVERT JUMPDEST SWAP1 POP CALLVALUE PUSH2 0x39D JUMPI PUSH1 0x20 CALLDATASIZE PUSH1 0x3 NOT ADD SLT PUSH2 0x39D JUMPI DUP1 CALLDATALOAD SWAP1 CALLER DUP5 MSTORE PUSH1 0x1 PUSH1 0x20 MSTORE PUSH2 0x326 PUSH1 0xFF DUP5 DUP7 KECCAK256 SLOAD AND PUSH2 0x165E JUMP JUMPDEST PUSH2 0x2710 DUP3 GT PUSH2 0x36F JUMPI POP PUSH1 0x0 DUP1 MLOAD PUSH1 0x20 PUSH2 0x27B4 DUP4 CODECOPY DUP2 MLOAD SWAP2 MSTORE SWAP2 DUP2 PUSH1 0x80 SWAP3 PUSH1 0x3 SSTORE PUSH1 0xB DUP3 MLOAD SWAP3 DUP1 DUP5 MSTORE DUP4 ADD MSTORE PUSH11 0x736C697070616765427073 PUSH1 0xA8 SHL PUSH1 0x60 DUP4 ADD MSTORE PUSH1 0x20 DUP3 ADD MSTORE LOG1 DUP1 RETURN JUMPDEST PUSH1 0x64 SWAP1 PUSH1 0x20 DUP5 MLOAD SWAP2 PUSH3 0x461BCD PUSH1 0xE5 SHL DUP4 MSTORE DUP3 ADD MSTORE PUSH1 0x8 PUSH1 0x24 DUP3 ADD MSTORE PUSH8 0x4D61782031303025 PUSH1 0xC0 SHL PUSH1 0x44 DUP3 ADD MSTORE REVERT JUMPDEST DUP3 DUP1 REVERT JUMPDEST DUP3 DUP5 CALLVALUE PUSH2 0x4DF JUMPI PUSH1 0x20 CALLDATASIZE PUSH1 0x3 NOT ADD SLT PUSH2 0x4DF JUMPI DUP3 CALLDATALOAD SWAP1 DUP2 DUP4 MLOAD SWAP5 PUSH4 0x133F7571 PUSH1 0xE3 SHL DUP7 MSTORE DUP6 ADD MSTORE PUSH2 0x180 DUP1 DUP6 PUSH1 0x24 DUP2 PUSH20 0xEC12A9F9A09F50550686363766CC153D03C27B5E GAS STATICCALL DUP1 ISZERO PUSH2 0x4D5 JUMPI PUSH2 0x140 SWAP6 DUP4 SWAP5 DUP5 SWAP7 DUP6 SWAP1 DUP7 SWAP2 DUP8 SWAP4 DUP9 SWAP6 DUP10 SWAP9 DUP11 SWAP9 PUSH2 0x482 JUMPI JUMPDEST POP POP SWAP1 PUSH3 0xFFFFFF SWAP2 DUP10 MSTORE PUSH1 0xA PUSH1 0x20 MSTORE PUSH1 0xFF DUP4 DUP2 DUP2 DUP13 KECCAK256 SLOAD AND SWAP11 PUSH1 0xB PUSH1 0x20 MSTORE KECCAK256 SLOAD AND SWAP10 DUP4 MLOAD SWAP12 PUSH1 0x1 DUP1 PUSH1 0xA0 SHL SUB DUP1 SWAP3 AND DUP14 MSTORE AND PUSH1 0x20 DUP13 ADD MSTORE AND SWAP1 DUP10 ADD MSTORE PUSH1 0x2 SIGNEXTEND PUSH1 0x60 DUP9 ADD MSTORE PUSH1 0x2 SIGNEXTEND PUSH1 0x80 DUP8 ADD MSTORE PUSH1 0x1 PUSH1 0x1 PUSH1 0x80 SHL SUB SWAP3 DUP4 DUP1 SWAP3 AND PUSH1 0xA0 DUP9 ADD MSTORE AND PUSH1 0xC0 DUP7 ADD MSTORE AND PUSH1 0xE0 DUP5 ADD MSTORE ISZERO ISZERO PUSH2 0x100 DUP4 ADD MSTORE ISZERO ISZERO PUSH2 0x120 DUP3 ADD MSTORE RETURN JUMPDEST SWAP6 POP SWAP6 POP SWAP7 POP POP SWAP8 POP POP PUSH3 0xFFFFFF SWAP6 POP PUSH2 0x4B1 SWAP3 POP DUP1 RETURNDATASIZE LT PUSH2 0x4CE JUMPI JUMPDEST PUSH2 0x4A9 DUP2 DUP4 PUSH2 0x16CB JUMP JUMPDEST DUP2 ADD SWAP1 PUSH2 0x1790 JUMP JUMPDEST SWAP8 SWAP15 SWAP9 SWAP14 SWAP1 SWAP12 SWAP8 SWAP11 POP SWAP3 SWAP9 POP SWAP3 SWAP7 SWAP4 SWAP6 SWAP4 SWAP5 SWAP4 SWAP3 POP DUP15 SWAP1 POP PUSH2 0x406 JUMP JUMPDEST POP RETURNDATASIZE PUSH2 0x49F JUMP JUMPDEST DUP5 MLOAD RETURNDATASIZE DUP5 DUP3 RETURNDATACOPY RETURNDATASIZE SWAP1 REVERT JUMPDEST DUP1 REVERT JUMPDEST POP POP CALLVALUE PUSH2 0x209 JUMPI PUSH1 0x20 CALLDATASIZE PUSH1 0x3 NOT ADD SLT PUSH2 0x209 JUMPI PUSH1 0x20 SWAP2 DUP2 SWAP1 PUSH1 0x1 PUSH1 0x1 PUSH1 0xA0 SHL SUB PUSH2 0x50A PUSH2 0x158E JUMP JUMPDEST AND DUP2 MSTORE PUSH1 0xD DUP5 MSTORE KECCAK256 SLOAD SWAP1 MLOAD SWAP1 DUP2 MSTORE RETURN JUMPDEST SWAP1 POP CALLVALUE PUSH2 0x39D JUMPI PUSH1 0x20 CALLDATASIZE PUSH1 0x3 NOT ADD SLT PUSH2 0x39D JUMPI CALLDATALOAD SWAP2 PUSH1 0x2 SLOAD DUP4 LT ISZERO PUSH2 0x4DF JUMPI POP PUSH2 0x545 PUSH1 0x20 SWAP3 PUSH2 0x15A9 JUMP JUMPDEST SWAP1 SLOAD SWAP2 MLOAD SWAP2 PUSH1 0x1 DUP1 PUSH1 0xA0 SHL SUB SWAP2 PUSH1 0x3 SHL SHR AND DUP2 MSTORE RETURN JUMPDEST POP POP CALLVALUE PUSH2 0x209 JUMPI DUP2 PUSH1 0x3 NOT CALLDATASIZE ADD SLT PUSH2 0x209 JUMPI MLOAD PUSH32 0x0 PUSH1 0x1 PUSH1 0x1 PUSH1 0xA0 SHL SUB AND DUP2 MSTORE PUSH1 0x20 SWAP1 RETURN JUMPDEST SWAP2 SWAP1 POP CALLVALUE PUSH2 0x39D JUMPI PUSH1 0x20 SWAP2 DUP3 PUSH1 0x3 NOT CALLDATASIZE ADD SLT PUSH2 0x640 JUMPI DUP1 CALLDATALOAD SWAP1 PUSH8 0xFFFFFFFFFFFFFFFF DUP3 GT PUSH2 0x63C JUMPI PUSH2 0x5D3 SWAP2 CALLDATASIZE SWAP2 ADD PUSH2 0x162D JUMP JUMPDEST SWAP2 CALLER DUP6 MSTORE PUSH1 0x1 DUP5 MSTORE PUSH1 0xFF SWAP1 PUSH2 0x5EC DUP3 DUP3 DUP9 KECCAK256 SLOAD AND PUSH2 0x165E JUMP JUMPDEST DUP6 JUMPDEST DUP5 DUP2 LT PUSH2 0x5F9 JUMPI DUP7 DUP1 RETURN JUMPDEST DUP1 PUSH2 0x608 PUSH2 0x61E SWAP3 DUP8 DUP8 PUSH2 0x174A JUMP JUMPDEST CALLDATALOAD DUP9 MSTORE PUSH1 0xA DUP8 MSTORE DUP4 DUP4 DUP10 KECCAK256 SLOAD AND PUSH2 0x623 JUMPI PUSH2 0x1699 JUMP JUMPDEST PUSH2 0x5EE JUMP JUMPDEST PUSH2 0x637 PUSH2 0x631 DUP3 DUP9 DUP9 PUSH2 0x174A JUMP JUMPDEST CALLDATALOAD PUSH2 0x184F JUMP JUMPDEST PUSH2 0x1699 JUMP JUMPDEST DUP5 DUP1 REVERT JUMPDEST DUP4 DUP1 REVERT JUMPDEST SWAP2 SWAP1 POP CALLVALUE PUSH2 0x39D JUMPI PUSH1 0x20 CALLDATASIZE PUSH1 0x3 NOT ADD SLT PUSH2 0x39D JUMPI DUP2 CALLDATALOAD SWAP2 CALLER DUP5 MSTORE PUSH1 0x1 PUSH1 0x20 MSTORE PUSH2 0x672 PUSH1 0xFF DUP4 DUP7 KECCAK256 SLOAD AND PUSH2 0x165E JUMP JUMPDEST DUP3 DUP5 MSTORE PUSH1 0xA PUSH1 0x20 MSTORE PUSH1 0xFF DUP3 DUP6 KECCAK256 SLOAD AND PUSH2 0x71B JUMPI PUSH1 0xC SLOAD SWAP1 PUSH1 0x1 PUSH1 0x40 SHL DUP3 LT ISZERO PUSH2 0x708 JUMPI POP DUP3 PUSH2 0x6AA DUP3 PUSH1 0x1 PUSH2 0x6C3 SWAP5 ADD PUSH1 0xC SSTORE PUSH2 0x15F6 JUMP JUMPDEST SWAP1 SWAP2 SWAP1 DUP3 SLOAD SWAP1 PUSH1 0x3 SHL SWAP2 DUP3 SHL SWAP2 PUSH1 0x0 NOT SWAP1 SHL NOT AND OR SWAP1 SSTORE JUMP JUMPDEST DUP2 DUP4 MSTORE PUSH1 0xA PUSH1 0x20 MSTORE DUP3 KECCAK256 DUP1 SLOAD PUSH1 0xFF NOT AND PUSH1 0x1 OR SWAP1 SSTORE PUSH2 0x6E1 DUP2 PUSH2 0x184F JUMP JUMPDEST PUSH32 0x3D0A2B1C6F8E72F333688E33B7FC1767F042D33EAEF1D3B5DB5968567033E91F DUP3 DUP1 LOG2 DUP1 RETURN JUMPDEST PUSH4 0x4E487B71 PUSH1 0xE0 SHL DUP6 MSTORE PUSH1 0x41 SWAP1 MSTORE PUSH1 0x24 DUP5 REVERT JUMPDEST PUSH1 0x20 PUSH1 0x64 SWAP3 MLOAD SWAP2 PUSH3 0x461BCD PUSH1 0xE5 SHL DUP4 MSTORE DUP3 ADD MSTORE PUSH1 0xF PUSH1 0x24 DUP3 ADD MSTORE PUSH15 0x105B1C9958591E481B585B9859D959 PUSH1 0x8A SHL PUSH1 0x44 DUP3 ADD MSTORE REVERT JUMPDEST SWAP1 POP CALLVALUE PUSH2 0x39D JUMPI DUP3 PUSH1 0x3 NOT CALLDATASIZE ADD SLT PUSH2 0x39D JUMPI PUSH1 0x20 SWAP3 POP SLOAD SWAP1 MLOAD SWAP1 DUP2 MSTORE RETURN JUMPDEST POP POP CALLVALUE PUSH2 0x209 JUMPI DUP2 PUSH1 0x3 NOT CALLDATASIZE ADD SLT PUSH2 0x209 JUMPI PUSH1 0x20 SWAP1 MLOAD PUSH20 0x7A5028BDA40E7B173C278C5342087826455EA25A DUP2 MSTORE RETURN JUMPDEST POP POP CALLVALUE PUSH2 0x209 JUMPI DUP2 PUSH1 0x3 NOT CALLDATASIZE ADD SLT PUSH2 0x209 JUMPI PUSH1 0x20 SWAP1 MLOAD PUSH20 0x91AD9E2E6E5ED44C1C66DB50E49A601F9F36CF6 DUP2 MSTORE RETURN JUMPDEST SWAP2 SWAP1 POP CALLVALUE PUSH2 0x39D JUMPI DUP3 PUSH1 0x3 NOT CALLDATASIZE ADD SLT PUSH2 0x39D JUMPI PUSH1 0xE0 SWAP3 POP PUSH1 0x3 SLOAD SWAP2 SLOAD SWAP1 PUSH1 0x5 SLOAD PUSH1 0x6 SLOAD PUSH1 0x7 SLOAD SWAP2 PUSH1 0xFF PUSH1 0x8 SLOAD AND SWAP4 PUSH1 0x9 SLOAD SWAP6 DUP2 MLOAD SWAP8 DUP9 MSTORE PUSH1 0x20 DUP9 ADD MSTORE DUP7 ADD MSTORE PUSH1 0x60 DUP6 ADD MSTORE PUSH1 0x80 DUP5 ADD MSTORE ISZERO ISZERO PUSH1 0xA0 DUP4 ADD MSTORE PUSH1 0xC0 DUP3 ADD MSTORE RETURN JUMPDEST SWAP1 POP CALLVALUE PUSH2 0x39D JUMPI PUSH1 0x20 CALLDATASIZE PUSH1 0x3 NOT ADD SLT PUSH2 0x39D JUMPI SWAP1 DUP2 CALLDATALOAD SWAP2 DUP3 SWAP2 CALLER DUP6 MSTORE PUSH1 0x1 SWAP1 DUP2 PUSH1 0x20 MSTORE PUSH2 0x854 PUSH1 0xFF DUP3 DUP9 KECCAK256 SLOAD AND PUSH2 0x165E JUMP JUMPDEST DUP4 DUP7 MSTORE PUSH1 0xA PUSH1 0x20 MSTORE PUSH2 0x86B PUSH1 0xFF DUP3 DUP9 KECCAK256 SLOAD AND PUSH2 0x1710 JUMP JUMPDEST DUP4 DUP7 MSTORE PUSH1 0xA PUSH1 0x20 MSTORE DUP6 KECCAK256 DUP1 SLOAD PUSH1 0xFF NOT AND SWAP1 SSTORE DUP5 DUP2 JUMPDEST PUSH2 0x8AE JUMPI JUMPDEST DUP6 DUP5 PUSH32 0x8DAB17171CEB83ACCA6E0D86E9C8B6D3F2EEC3A1EC6A5A2F9A3F1B7E17AD1035 DUP3 DUP1 LOG2 DUP1 RETURN JUMPDEST PUSH1 0xC DUP1 SLOAD DUP1 DUP4 LT ISZERO PUSH2 0x968 JUMPI PUSH2 0x8C3 DUP4 PUSH2 0x15F6 JUMP JUMPDEST SWAP7 SWAP1 SLOAD PUSH1 0x3 SWAP8 DUP9 SHL SHR EQ PUSH2 0x8E9 JUMPI POP POP PUSH2 0x8DF SWAP2 SWAP3 SWAP4 POP PUSH2 0x1699 JUMP JUMPDEST SWAP1 DUP4 SWAP3 SWAP2 DUP2 PUSH2 0x880 JUMP JUMPDEST SWAP3 POP SWAP3 SWAP1 PUSH1 0x0 NOT SWAP3 DUP4 DUP2 ADD SWAP1 DUP2 GT PUSH2 0x955 JUMPI SWAP1 PUSH2 0x6AA PUSH2 0x90B PUSH2 0x917 SWAP4 PUSH2 0x15F6 JUMP JUMPDEST SWAP1 SLOAD SWAP1 DUP9 SHL SHR SWAP2 PUSH2 0x15F6 JUMP JUMPDEST DUP3 SLOAD SWAP1 DUP2 ISZERO PUSH2 0x942 JUMPI POP DUP2 ADD SWAP3 PUSH2 0x92D DUP5 PUSH2 0x15F6 JUMP JUMPDEST DUP2 SWAP4 SWAP2 SLOAD SWAP3 SHL SHL NOT AND SWAP1 SSTORE SSTORE DUP1 CODESIZE DUP1 DUP1 PUSH2 0x885 JUMP JUMPDEST PUSH4 0x4E487B71 PUSH1 0xE0 SHL DUP8 MSTORE PUSH1 0x31 SWAP1 MSTORE PUSH1 0x24 DUP7 REVERT JUMPDEST PUSH4 0x4E487B71 PUSH1 0xE0 SHL DUP9 MSTORE PUSH1 0x11 DUP4 MSTORE PUSH1 0x24 DUP9 REVERT JUMPDEST POP POP PUSH2 0x885 JUMP JUMPDEST SWAP1 POP CALLVALUE PUSH2 0x39D JUMPI DUP2 PUSH1 0x3 NOT CALLDATASIZE ADD SLT PUSH2 0x39D JUMPI DUP1 CALLDATALOAD PUSH8 0xFFFFFFFFFFFFFFFF DUP2 GT PUSH2 0x640 JUMPI PUSH2 0x99F SWAP1 CALLDATASIZE SWAP1 DUP4 ADD PUSH2 0x162D JUMP JUMPDEST SWAP1 SWAP2 CALLER DUP6 MSTORE PUSH1 0x1 PUSH1 0x20 MSTORE PUSH2 0x9B8 PUSH1 0xFF DUP6 DUP8 KECCAK256 SLOAD AND PUSH2 0x165E JUMP JUMPDEST PUSH1 0xFF PUSH1 0x8 SLOAD AND PUSH2 0xA13 JUMPI PUSH32 0x9B779B17422D0DF92223018B32B4D1FA46E071723D6817E2486D003BECC55F00 SWAP4 PUSH1 0x2 DUP6 SLOAD EQ PUSH2 0xA06 JUMPI PUSH1 0x2 DUP6 SSTORE DUP6 PUSH1 0x1 DUP7 PUSH2 0xA02 PUSH1 0x24 CALLDATALOAD DUP8 DUP10 PUSH2 0x1A9E JUMP JUMPDEST SSTORE DUP1 RETURN JUMPDEST MLOAD PUSH4 0x3EE5AEB5 PUSH1 0xE0 SHL DUP2 MSTORE REVERT JUMPDEST PUSH1 0x64 SWAP1 PUSH1 0x20 DUP6 MLOAD SWAP2 PUSH3 0x461BCD PUSH1 0xE5 SHL DUP4 MSTORE DUP3 ADD MSTORE PUSH1 0x12 PUSH1 0x24 DUP3 ADD MSTORE PUSH18 0x10DBDB9D1C9858DD081A5CC81C185D5CD959 PUSH1 0x72 SHL PUSH1 0x44 DUP3 ADD MSTORE REVERT JUMPDEST POP POP CALLVALUE PUSH2 0x209 JUMPI DUP2 PUSH1 0x3 NOT CALLDATASIZE ADD SLT PUSH2 0x209 JUMPI MLOAD PUSH32 0x0 PUSH1 0x1 PUSH1 0x1 PUSH1 0xA0 SHL SUB AND DUP2 MSTORE PUSH1 0x20 SWAP1 RETURN JUMPDEST DUP3 DUP5 CALLVALUE PUSH2 0x4DF JUMPI DUP1 PUSH1 0x3 NOT CALLDATASIZE ADD SLT PUSH2 0x4DF JUMPI SWAP1 DUP1 MLOAD SWAP2 DUP3 SWAP1 PUSH1 0x2 SLOAD SWAP2 DUP3 DUP6 MSTORE PUSH1 0x20 DUP1 SWAP6 ADD DUP1 SWAP4 PUSH1 0x2 DUP5 MSTORE PUSH32 0x405787FA12A823E0F2B7631CC41B3BA8828B3321CA811111FA75CD3AA3BB5ACE SWAP1 DUP5 JUMPDEST DUP2 DUP2 LT PUSH2 0xB37 JUMPI POP POP POP DUP2 PUSH2 0xAF3 SWAP2 SUB DUP3 PUSH2 0x16CB JUMP JUMPDEST DUP4 MLOAD SWAP5 DUP6 SWAP5 DUP2 DUP7 ADD SWAP3 DUP3 DUP8 MSTORE MLOAD DUP1 SWAP4 MSTORE DUP6 ADD SWAP4 SWAP3 JUMPDEST DUP3 DUP2 LT PUSH2 0xB17 JUMPI POP POP POP POP SUB SWAP1 RETURN JUMPDEST DUP4 MLOAD PUSH1 0x1 PUSH1 0x1 PUSH1 0xA0 SHL SUB AND DUP6 MSTORE DUP7 SWAP6 POP SWAP4 DUP2 ADD SWAP4 SWAP3 DUP2 ADD SWAP3 PUSH1 0x1 ADD PUSH2 0xB08 JUMP JUMPDEST DUP3 SLOAD PUSH1 0x1 PUSH1 0x1 PUSH1 0xA0 SHL SUB AND DUP5 MSTORE SWAP3 DUP9 ADD SWAP3 PUSH1 0x1 SWAP3 DUP4 ADD SWAP3 ADD PUSH2 0xADD JUMP JUMPDEST POP POP CALLVALUE PUSH2 0x209 JUMPI DUP2 PUSH1 0x3 NOT CALLDATASIZE ADD SLT PUSH2 0x209 JUMPI PUSH1 0x20 SWAP1 PUSH1 0x6 SLOAD SWAP1 MLOAD SWAP1 DUP2 MSTORE RETURN JUMPDEST POP POP CALLVALUE PUSH2 0x209 JUMPI DUP2 PUSH1 0x3 NOT CALLDATASIZE ADD SLT PUSH2 0x209 JUMPI SWAP1 SLOAD SWAP1 MLOAD PUSH1 0x1 PUSH1 0x1 PUSH1 0xA0 SHL SUB SWAP1 SWAP2 AND DUP2 MSTORE PUSH1 0x20 SWAP1 RETURN JUMPDEST SWAP1 POP CALLVALUE PUSH2 0x39D JUMPI PUSH1 0x20 CALLDATASIZE PUSH1 0x3 NOT ADD SLT PUSH2 0x39D JUMPI CALLDATALOAD SWAP2 PUSH1 0xC SLOAD DUP4 LT ISZERO PUSH2 0x4DF JUMPI POP PUSH2 0xBC6 PUSH1 0x20 SWAP3 PUSH2 0x15F6 JUMP JUMPDEST SWAP2 SWAP1 SLOAD SWAP1 MLOAD SWAP2 PUSH1 0x3 SHL SHR DUP2 MSTORE RETURN JUMPDEST DUP3 DUP5 CALLVALUE PUSH2 0x4DF JUMPI DUP1 PUSH1 0x3 NOT CALLDATASIZE ADD SLT PUSH2 0x4DF JUMPI SWAP1 DUP1 MLOAD SWAP2 DUP3 SWAP1 PUSH1 0xC SLOAD SWAP2 DUP3 DUP6 MSTORE PUSH1 0x20 DUP1 SWAP6 ADD DUP1 SWAP4 PUSH1 0xC DUP5 MSTORE PUSH32 0xDF6966C971051C3D54EC59162606531493A51404A002842F56009D7E5CF4A8C7 SWAP1 DUP5 JUMPDEST DUP2 DUP2 LT PUSH2 0xC73 JUMPI POP POP POP DUP2 PUSH2 0xC38 SWAP2 SUB DUP3 PUSH2 0x16CB JUMP JUMPDEST DUP4 MLOAD SWAP5 DUP6 SWAP5 DUP2 DUP7 ADD SWAP3 DUP3 DUP8 MSTORE MLOAD DUP1 SWAP4 MSTORE DUP6 ADD SWAP4 SWAP3 JUMPDEST DUP3 DUP2 LT PUSH2 0xC5C JUMPI POP POP POP POP SUB SWAP1 RETURN JUMPDEST DUP4 MLOAD DUP6 MSTORE DUP7 SWAP6 POP SWAP4 DUP2 ADD SWAP4 SWAP3 DUP2 ADD SWAP3 PUSH1 0x1 ADD PUSH2 0xC4D JUMP JUMPDEST DUP3 SLOAD DUP5 MSTORE SWAP3 DUP9 ADD SWAP3 PUSH1 0x1 SWAP3 DUP4 ADD SWAP3 ADD PUSH2 0xC22 JUMP JUMPDEST DUP4 DUP4 CALLVALUE PUSH2 0x209 JUMPI PUSH1 0x20 SWAP1 DUP2 PUSH1 0x3 NOT CALLDATASIZE ADD SLT PUSH2 0x39D JUMPI PUSH2 0xCA4 PUSH2 0x158E JUMP JUMPDEST SWAP1 CALLER DUP5 MSTORE PUSH1 0x1 DUP4 MSTORE PUSH2 0xCBB PUSH1 0xFF DUP3 DUP7 KECCAK256 SLOAD AND PUSH2 0x165E JUMP JUMPDEST PUSH1 0x1 PUSH1 0x1 PUSH1 0xA0 SHL SUB DUP3 AND SWAP3 DUP4 ISZERO PUSH2 0xDA0 JUMPI DUP4 DUP6 MSTORE PUSH1 0x1 DUP2 MSTORE PUSH1 0xFF DUP3 DUP7 KECCAK256 SLOAD AND PUSH2 0xD6E JUMPI PUSH1 0x1 SWAP1 DUP5 DUP7 MSTORE MSTORE DUP4 KECCAK256 PUSH1 0x1 PUSH1 0xFF NOT DUP3 SLOAD AND OR SWAP1 SSTORE PUSH1 0x2 SLOAD PUSH1 0x1 PUSH1 0x40 SHL DUP2 LT ISZERO PUSH2 0xD5B JUMPI SWAP1 PUSH2 0xD15 DUP3 PUSH1 0x1 PUSH2 0xD34 SWAP5 ADD PUSH1 0x2 SSTORE PUSH2 0x15A9 JUMP JUMPDEST SWAP1 SWAP2 SWAP1 DUP3 SLOAD SWAP1 PUSH1 0x3 SHL SWAP2 PUSH1 0x1 DUP1 PUSH1 0xA0 SHL SUB DUP1 SWAP2 AND DUP4 SHL SWAP3 SHL NOT AND OR SWAP1 SSTORE JUMP JUMPDEST PUSH32 0x994A936646FE87FFE4F1E469D3D6AA417D6B855598397F323DE5B449F765F0C3 DUP3 DUP1 LOG2 DUP1 RETURN JUMPDEST PUSH4 0x4E487B71 PUSH1 0xE0 SHL DUP5 MSTORE PUSH1 0x41 DUP6 MSTORE PUSH1 0x24 DUP5 REVERT JUMPDEST DUP6 SWAP1 PUSH1 0x64 SWAP3 MLOAD SWAP2 PUSH3 0x461BCD PUSH1 0xE5 SHL DUP4 MSTORE DUP3 ADD MSTORE PUSH1 0xD PUSH1 0x24 DUP3 ADD MSTORE PUSH13 0x20B63932B0B23C9037BBB732B9 PUSH1 0x99 SHL PUSH1 0x44 DUP3 ADD MSTORE REVERT JUMPDEST DUP6 SWAP1 PUSH1 0x64 SWAP3 MLOAD SWAP2 PUSH3 0x461BCD PUSH1 0xE5 SHL DUP4 MSTORE DUP3 ADD MSTORE PUSH1 0xC PUSH1 0x24 DUP3 ADD MSTORE PUSH12 0x5A65726F2061646472657373 PUSH1 0xA0 SHL PUSH1 0x44 DUP3 ADD MSTORE REVERT JUMPDEST POP POP CALLVALUE PUSH2 0x209 JUMPI DUP2 PUSH1 0x3 NOT CALLDATASIZE ADD SLT PUSH2 0x209 JUMPI PUSH1 0x20 SWAP1 PUSH1 0x5 SLOAD SWAP1 MLOAD SWAP1 DUP2 MSTORE RETURN JUMPDEST POP POP CALLVALUE PUSH2 0x209 JUMPI DUP2 PUSH1 0x3 NOT CALLDATASIZE ADD SLT PUSH2 0x209 JUMPI PUSH1 0x20 SWAP1 PUSH1 0xFF PUSH1 0x8 SLOAD AND SWAP1 MLOAD SWAP1 ISZERO ISZERO DUP2 MSTORE RETURN JUMPDEST POP POP CALLVALUE PUSH2 0x209 JUMPI DUP2 PUSH1 0x3 NOT CALLDATASIZE ADD SLT PUSH2 0x209 JUMPI PUSH1 0x20 SWAP1 PUSH1 0x3 SLOAD SWAP1 MLOAD SWAP1 DUP2 MSTORE RETURN JUMPDEST SWAP1 POP CALLVALUE PUSH2 0x39D JUMPI PUSH1 0x20 CALLDATASIZE PUSH1 0x3 NOT ADD SLT PUSH2 0x39D JUMPI DUP2 PUSH1 0x20 SWAP4 PUSH1 0xFF SWAP3 CALLDATALOAD DUP2 MSTORE PUSH1 0xA DUP6 MSTORE KECCAK256 SLOAD AND SWAP1 MLOAD SWAP1 ISZERO ISZERO DUP2 MSTORE RETURN JUMPDEST SWAP1 POP CALLVALUE PUSH2 0x39D JUMPI PUSH1 0x20 CALLDATASIZE PUSH1 0x3 NOT ADD SLT PUSH2 0x39D JUMPI DUP1 CALLDATALOAD SWAP1 CALLER DUP5 MSTORE PUSH1 0x1 PUSH1 0x20 MSTORE PUSH2 0xE8D PUSH1 0xFF DUP5 DUP7 KECCAK256 SLOAD AND PUSH2 0x165E JUMP JUMPDEST PUSH2 0x7D0 DUP3 GT PUSH2 0xED8 JUMPI POP PUSH1 0x0 DUP1 MLOAD PUSH1 0x20 PUSH2 0x27B4 DUP4 CODECOPY DUP2 MLOAD SWAP2 MSTORE SWAP2 DUP2 PUSH1 0x80 SWAP3 PUSH1 0x5 SSTORE PUSH1 0xD DUP3 MLOAD SWAP3 DUP1 DUP5 MSTORE DUP4 ADD MSTORE PUSH13 0x72657365727665466565427073 PUSH1 0x98 SHL PUSH1 0x60 DUP4 ADD MSTORE PUSH1 0x20 DUP3 ADD MSTORE LOG1 DUP1 RETURN JUMPDEST PUSH1 0x64 SWAP1 PUSH1 0x20 DUP5 MLOAD SWAP2 PUSH3 0x461BCD PUSH1 0xE5 SHL DUP4 MSTORE DUP3 ADD MSTORE PUSH1 0x7 PUSH1 0x24 DUP3 ADD MSTORE PUSH7 0x4D617820323025 PUSH1 0xC8 SHL PUSH1 0x44 DUP3 ADD MSTORE REVERT JUMPDEST SWAP1 POP CALLVALUE PUSH2 0x39D JUMPI PUSH1 0x20 CALLDATASIZE PUSH1 0x3 NOT ADD SLT PUSH2 0x39D JUMPI DUP2 PUSH1 0x20 SWAP4 PUSH1 0xFF SWAP3 CALLDATALOAD DUP2 MSTORE PUSH1 0xB DUP6 MSTORE KECCAK256 SLOAD AND SWAP1 MLOAD SWAP1 ISZERO ISZERO DUP2 MSTORE RETURN JUMPDEST POP POP CALLVALUE PUSH2 0x209 JUMPI DUP2 PUSH1 0x3 NOT CALLDATASIZE ADD SLT PUSH2 0x209 JUMPI PUSH1 0x20 SWAP1 PUSH1 0x9 SLOAD SWAP1 MLOAD SWAP1 DUP2 MSTORE RETURN JUMPDEST POP POP CALLVALUE PUSH2 0x209 JUMPI DUP2 PUSH1 0x3 NOT CALLDATASIZE ADD SLT PUSH2 0x209 JUMPI PUSH1 0x20 SWAP1 PUSH1 0x7 SLOAD SWAP1 MLOAD SWAP1 DUP2 MSTORE RETURN JUMPDEST POP POP CALLVALUE PUSH2 0x209 JUMPI PUSH1 0x20 CALLDATASIZE PUSH1 0x3 NOT ADD SLT PUSH2 0x209 JUMPI PUSH1 0x20 SWAP2 PUSH1 0xFF SWAP1 DUP3 SWAP1 PUSH1 0x1 PUSH1 0x1 PUSH1 0xA0 SHL SUB PUSH2 0xF9B PUSH2 0x158E JUMP JUMPDEST AND DUP2 MSTORE PUSH1 0x1 DUP6 MSTORE KECCAK256 SLOAD AND SWAP1 MLOAD SWAP1 ISZERO ISZERO DUP2 MSTORE RETURN JUMPDEST SWAP1 POP CALLVALUE PUSH2 0x39D JUMPI PUSH1 0x60 CALLDATASIZE PUSH1 0x3 NOT ADD SLT PUSH2 0x39D JUMPI PUSH2 0xFC9 PUSH2 0x158E JUMP JUMPDEST PUSH1 0x1 PUSH1 0x1 PUSH1 0xA0 SHL SUB PUSH1 0x44 CALLDATALOAD DUP2 DUP2 AND SWAP5 PUSH1 0x24 CALLDATALOAD SWAP4 SWAP1 SWAP3 SWAP1 DUP7 DUP4 SUB PUSH2 0x109B JUMPI CALLER DUP9 MSTORE PUSH1 0x1 PUSH1 0x20 MSTORE PUSH2 0xFFD PUSH1 0xFF DUP6 DUP11 KECCAK256 SLOAD AND PUSH2 0x165E JUMP JUMPDEST AND SWAP4 DUP5 DUP8 MSTORE PUSH1 0xD PUSH1 0x20 MSTORE DUP4 DUP4 DUP9 KECCAK256 SLOAD LT PUSH2 0x1061 JUMPI POP SWAP2 PUSH1 0x20 SWAP2 PUSH2 0x1059 DUP3 PUSH32 0xDE13184E8CBB6ECCBCECFC796BF8820E5FFDE0534C01B4FABED4B05982964A44 SWAP6 DUP8 DUP11 MSTORE PUSH1 0xD DUP7 MSTORE DUP4 DUP11 KECCAK256 PUSH2 0x1051 DUP4 DUP3 SLOAD PUSH2 0x16BE JUMP JUMPDEST SWAP1 SSTORE DUP8 PUSH2 0x2732 JUMP JUMPDEST MLOAD SWAP1 DUP2 MSTORE LOG3 DUP1 RETURN JUMPDEST PUSH1 0x64 SWAP1 PUSH1 0x20 DUP5 MLOAD SWAP2 PUSH3 0x461BCD PUSH1 0xE5 SHL DUP4 MSTORE DUP3 ADD MSTORE PUSH1 0x14 PUSH1 0x24 DUP3 ADD MSTORE PUSH20 0x496E73756666696369656E742072657365727665 PUSH1 0x60 SHL PUSH1 0x44 DUP3 ADD MSTORE REVERT JUMPDEST DUP8 DUP1 REVERT JUMPDEST POP POP CALLVALUE PUSH2 0x209 JUMPI DUP2 PUSH1 0x3 NOT CALLDATASIZE ADD SLT PUSH2 0x209 JUMPI PUSH1 0x20 SWAP1 MLOAD PUSH20 0xEC12A9F9A09F50550686363766CC153D03C27B5E DUP2 MSTORE RETURN JUMPDEST SWAP1 POP CALLVALUE PUSH2 0x39D JUMPI PUSH1 0x20 CALLDATASIZE PUSH1 0x3 NOT ADD SLT PUSH2 0x39D JUMPI PUSH2 0x10E9 PUSH2 0x158E JUMP JUMPDEST DUP4 SLOAD PUSH1 0x1 PUSH1 0x1 PUSH1 0xA0 SHL SUB SWAP1 DUP2 AND SWAP3 SWAP1 SWAP2 CALLER DUP5 SWAP1 SUB PUSH2 0x126E JUMPI DUP3 AND SWAP3 DUP4 EQ PUSH2 0x122B JUMPI DUP3 DUP6 MSTORE PUSH1 0x1 SWAP4 DUP5 PUSH1 0x20 MSTORE PUSH2 0x1123 PUSH1 0xFF DUP3 DUP9 KECCAK256 SLOAD AND PUSH2 0x165E JUMP JUMPDEST DUP4 DUP7 MSTORE PUSH1 0x20 DUP6 SWAP1 MSTORE DUP6 KECCAK256 DUP1 SLOAD PUSH1 0xFF NOT AND SWAP1 SSTORE DUP5 DUP5 JUMPDEST PUSH2 0x1166 JUMPI JUMPDEST DUP6 DUP5 PUSH32 0x58619076ADF5BB0943D100EF88D52D7C3FD691B19D3A9071B555B651FBF418DA DUP3 DUP1 LOG2 DUP1 RETURN JUMPDEST PUSH1 0x2 DUP1 SLOAD DUP1 DUP4 LT ISZERO PUSH2 0x1224 JUMPI SWAP1 DUP5 SWAP2 DUP7 PUSH2 0x117F DUP6 PUSH2 0x15A9 JUMP JUMPDEST SWAP5 SWAP1 SLOAD PUSH1 0x3 SWAP6 DUP7 SHL SHR AND EQ PUSH2 0x11A0 JUMPI POP POP POP PUSH2 0x119A SWAP1 PUSH2 0x1699 JUMP JUMPDEST DUP5 PUSH2 0x1138 JUMP JUMPDEST SWAP3 SWAP1 SWAP5 SWAP4 SWAP2 SWAP6 SWAP7 POP PUSH1 0x0 NOT SWAP3 DUP4 DUP2 ADD SWAP1 DUP2 GT PUSH2 0x1211 JUMPI SWAP1 PUSH2 0xD15 DUP6 PUSH2 0x11C7 PUSH2 0x11D4 SWAP5 PUSH2 0x15A9 JUMP JUMPDEST SWAP1 SLOAD SWAP1 DUP11 SHL SHR AND SWAP2 PUSH2 0x15A9 JUMP JUMPDEST DUP4 SLOAD SWAP1 DUP2 ISZERO PUSH2 0x11FE JUMPI POP ADD SWAP3 PUSH2 0x11E9 DUP5 PUSH2 0x15A9 JUMP JUMPDEST DUP2 SWAP4 SWAP2 SLOAD SWAP3 SHL SHL NOT AND SWAP1 SSTORE SSTORE DUP1 CODESIZE DUP1 DUP1 PUSH2 0x113D JUMP JUMPDEST PUSH4 0x4E487B71 PUSH1 0xE0 SHL DUP9 MSTORE PUSH1 0x31 SWAP1 MSTORE PUSH1 0x24 DUP8 REVERT JUMPDEST PUSH4 0x4E487B71 PUSH1 0xE0 SHL DUP10 MSTORE PUSH1 0x11 DUP4 MSTORE PUSH1 0x24 DUP10 REVERT JUMPDEST POP POP PUSH2 0x113D JUMP JUMPDEST PUSH1 0x64 SWAP1 PUSH1 0x20 DUP6 MLOAD SWAP2 PUSH3 0x461BCD PUSH1 0xE5 SHL DUP4 MSTORE DUP3 ADD MSTORE PUSH1 0x1B PUSH1 0x24 DUP3 ADD MSTORE PUSH32 0x43616E6E6F742072656D6F7665207072696D617279206F776E65720000000000 PUSH1 0x44 DUP3 ADD MSTORE REVERT JUMPDEST DUP5 MLOAD PUSH3 0x461BCD PUSH1 0xE5 SHL DUP2 MSTORE PUSH1 0x20 DUP2 DUP5 ADD MSTORE PUSH1 0x12 PUSH1 0x24 DUP3 ADD MSTORE PUSH18 0x27B7363C90383934B6B0B93C9037BBB732B9 PUSH1 0x71 SHL PUSH1 0x44 DUP3 ADD MSTORE PUSH1 0x64 SWAP1 REVERT JUMPDEST SWAP1 POP CALLVALUE PUSH2 0x39D JUMPI PUSH1 0x20 CALLDATASIZE PUSH1 0x3 NOT ADD SLT PUSH2 0x39D JUMPI CALLDATALOAD SWAP1 DUP2 ISZERO ISZERO DUP1 SWAP3 SUB PUSH2 0x39D JUMPI PUSH32 0xE2FB031EE032DC02D8011DC50B816EB450CF856ABD8261680DAC74F72165BD2 SWAP2 PUSH1 0x20 SWAP2 CALLER DUP6 MSTORE PUSH1 0x1 DUP4 MSTORE PUSH2 0x1300 PUSH1 0xFF DUP3 DUP8 KECCAK256 SLOAD AND PUSH2 0x165E JUMP JUMPDEST PUSH1 0xFF NOT PUSH1 0x8 SLOAD AND PUSH1 0xFF DUP4 AND OR PUSH1 0x8 SSTORE MLOAD SWAP1 DUP2 MSTORE LOG1 DUP1 RETURN JUMPDEST SWAP1 POP CALLVALUE PUSH2 0x39D JUMPI PUSH1 0x20 CALLDATASIZE PUSH1 0x3 NOT ADD SLT PUSH2 0x39D JUMPI DUP1 CALLDATALOAD SWAP1 CALLER DUP5 MSTORE PUSH1 0x1 PUSH1 0x20 MSTORE PUSH2 0x1344 PUSH1 0xFF DUP5 DUP7 KECCAK256 SLOAD AND PUSH2 0x165E JUMP JUMPDEST PUSH1 0x3C DUP3 LT PUSH2 0x1393 JUMPI SWAP2 DUP2 PUSH1 0x80 SWAP3 PUSH1 0x0 DUP1 MLOAD PUSH1 0x20 PUSH2 0x27B4 DUP4 CODECOPY DUP2 MLOAD SWAP2 MSTORE SWAP5 SSTORE PUSH1 0x14 DUP3 MLOAD SWAP3 DUP1 DUP5 MSTORE DUP4 ADD MSTORE PUSH20 0x7265696E76657374496E74657276616C53656373 PUSH1 0x60 SHL PUSH1 0x60 DUP4 ADD MSTORE PUSH1 0x20 DUP3 ADD MSTORE LOG1 DUP1 RETURN JUMPDEST PUSH1 0x64 SWAP1 PUSH1 0x20 DUP5 MLOAD SWAP2 PUSH3 0x461BCD PUSH1 0xE5 SHL DUP4 MSTORE DUP3 ADD MSTORE PUSH1 0x7 PUSH1 0x24 DUP3 ADD MSTORE PUSH7 0x4D696E20363073 PUSH1 0xC8 SHL PUSH1 0x44 DUP3 ADD MSTORE REVERT JUMPDEST SWAP1 POP CALLVALUE PUSH2 0x39D JUMPI DUP2 PUSH1 0x3 NOT CALLDATASIZE ADD SLT PUSH2 0x39D JUMPI PUSH2 0x13DA PUSH2 0x158E JUMP JUMPDEST PUSH1 0x1 PUSH1 0x1 PUSH1 0xA0 SHL SUB PUSH1 0x24 CALLDATALOAD DUP2 DUP2 AND SWAP5 SWAP1 SWAP4 SWAP2 DUP6 DUP6 SUB PUSH2 0x14DF JUMPI CALLER DUP8 MSTORE PUSH1 0x20 SWAP4 PUSH1 0x1 DUP6 MSTORE PUSH2 0x140C PUSH1 0xFF DUP5 DUP11 KECCAK256 SLOAD AND PUSH2 0x165E JUMP JUMPDEST AND SWAP4 DUP2 MLOAD SWAP3 PUSH4 0x70A08231 PUSH1 0xE0 SHL DUP5 MSTORE ADDRESS DUP2 DUP6 ADD MSTORE DUP5 DUP5 PUSH1 0x24 DUP2 DUP10 GAS STATICCALL SWAP4 DUP5 ISZERO PUSH2 0x14D5 JUMPI DUP9 SWAP5 PUSH2 0x14A6 JUMPI JUMPDEST POP DUP4 ISZERO PUSH2 0x146D JUMPI POP SWAP1 PUSH2 0x1059 DUP4 PUSH32 0xDE13184E8CBB6ECCBCECFC796BF8820E5FFDE0534C01B4FABED4B05982964A44 SWAP6 SWAP5 SWAP4 DUP8 PUSH2 0x2732 JUMP JUMPDEST DUP3 MLOAD PUSH3 0x461BCD PUSH1 0xE5 SHL DUP2 MSTORE SWAP1 DUP2 ADD DUP6 SWAP1 MSTORE PUSH1 0x13 PUSH1 0x24 DUP3 ADD MSTORE PUSH19 0x4E6F7468696E6720746F207769746864726177 PUSH1 0x68 SHL PUSH1 0x44 DUP3 ADD MSTORE PUSH1 0x64 SWAP1 REVERT JUMPDEST SWAP1 SWAP4 POP DUP5 DUP2 DUP2 RETURNDATASIZE DUP4 GT PUSH2 0x14CE JUMPI JUMPDEST PUSH2 0x14BE DUP2 DUP4 PUSH2 0x16CB JUMP JUMPDEST DUP2 ADD SUB SLT PUSH2 0x109B JUMPI MLOAD SWAP3 CODESIZE PUSH2 0x1436 JUMP JUMPDEST POP RETURNDATASIZE PUSH2 0x14B4 JUMP JUMPDEST DUP4 MLOAD RETURNDATASIZE DUP11 DUP3 RETURNDATACOPY RETURNDATASIZE SWAP1 REVERT JUMPDEST DUP7 DUP1 REVERT JUMPDEST DUP5 SWAP1 DUP5 CALLVALUE PUSH2 0x39D JUMPI DUP3 PUSH1 0x3 NOT CALLDATASIZE ADD SLT PUSH2 0x39D JUMPI SWAP2 PUSH1 0x60 SWAP3 PUSH1 0x1 DUP1 PUSH1 0xA0 SHL SUB DUP1 PUSH32 0x0 AND DUP4 MSTORE PUSH1 0xD PUSH1 0x20 MSTORE DUP2 DUP1 DUP5 KECCAK256 SLOAD SWAP4 DUP3 PUSH32 0x0 AND DUP2 MSTORE DUP2 DUP2 KECCAK256 SLOAD SWAP3 PUSH32 0x0 AND DUP2 MSTORE KECCAK256 SLOAD SWAP3 DUP5 MSTORE PUSH1 0x20 DUP5 ADD MSTORE DUP3 ADD MSTORE RETURN JUMPDEST PUSH1 0x4 CALLDATALOAD SWAP1 PUSH1 0x1 PUSH1 0x1 PUSH1 0xA0 SHL SUB DUP3 AND DUP3 SUB PUSH2 0x15A4 JUMPI JUMP JUMPDEST PUSH1 0x0 DUP1 REVERT JUMPDEST PUSH1 0x2 SLOAD DUP2 LT ISZERO PUSH2 0x15E0 JUMPI PUSH1 0x2 PUSH1 0x0 MSTORE PUSH32 0x405787FA12A823E0F2B7631CC41B3BA8828B3321CA811111FA75CD3AA3BB5ACE ADD SWAP1 PUSH1 0x0 SWAP1 JUMP JUMPDEST PUSH4 0x4E487B71 PUSH1 0xE0 SHL PUSH1 0x0 MSTORE PUSH1 0x32 PUSH1 0x4 MSTORE PUSH1 0x24 PUSH1 0x0 REVERT JUMPDEST PUSH1 0xC SLOAD DUP2 LT ISZERO PUSH2 0x15E0 JUMPI PUSH1 0xC PUSH1 0x0 MSTORE PUSH32 0xDF6966C971051C3D54EC59162606531493A51404A002842F56009D7E5CF4A8C7 ADD SWAP1 PUSH1 0x0 SWAP1 JUMP JUMPDEST SWAP2 DUP2 PUSH1 0x1F DUP5 ADD SLT ISZERO PUSH2 0x15A4 JUMPI DUP3 CALLDATALOAD SWAP2 PUSH8 0xFFFFFFFFFFFFFFFF DUP4 GT PUSH2 0x15A4 JUMPI PUSH1 0x20 DUP1 DUP6 ADD SWAP5 DUP5 PUSH1 0x5 SHL ADD ADD GT PUSH2 0x15A4 JUMPI JUMP JUMPDEST ISZERO PUSH2 0x1665 JUMPI JUMP JUMPDEST PUSH1 0x40 MLOAD PUSH3 0x461BCD PUSH1 0xE5 SHL DUP2 MSTORE PUSH1 0x20 PUSH1 0x4 DUP3 ADD MSTORE PUSH1 0xC PUSH1 0x24 DUP3 ADD MSTORE PUSH12 0x2737BA1030B71037BBB732B9 PUSH1 0xA1 SHL PUSH1 0x44 DUP3 ADD MSTORE PUSH1 0x64 SWAP1 REVERT JUMPDEST PUSH1 0x0 NOT DUP2 EQ PUSH2 0x16A8 JUMPI PUSH1 0x1 ADD SWAP1 JUMP JUMPDEST PUSH4 0x4E487B71 PUSH1 0xE0 SHL PUSH1 0x0 MSTORE PUSH1 0x11 PUSH1 0x4 MSTORE PUSH1 0x24 PUSH1 0x0 REVERT JUMPDEST SWAP2 SWAP1 DUP3 SUB SWAP2 DUP3 GT PUSH2 0x16A8 JUMPI JUMP JUMPDEST SWAP1 PUSH1 0x1F DUP1 NOT SWAP2 ADD AND DUP2 ADD SWAP1 DUP2 LT PUSH8 0xFFFFFFFFFFFFFFFF DUP3 GT OR PUSH2 0x16ED JUMPI PUSH1 0x40 MSTORE JUMP JUMPDEST PUSH4 0x4E487B71 PUSH1 0xE0 SHL PUSH1 0x0 MSTORE PUSH1 0x41 PUSH1 0x4 MSTORE PUSH1 0x24 PUSH1 0x0 REVERT JUMPDEST SWAP2 SWAP1 DUP3 ADD DUP1 SWAP3 GT PUSH2 0x16A8 JUMPI JUMP JUMPDEST ISZERO PUSH2 0x1717 JUMPI JUMP JUMPDEST PUSH1 0x40 MLOAD PUSH3 0x461BCD PUSH1 0xE5 SHL DUP2 MSTORE PUSH1 0x20 PUSH1 0x4 DUP3 ADD MSTORE PUSH1 0xB PUSH1 0x24 DUP3 ADD MSTORE PUSH11 0x139BDD081B585B9859D959 PUSH1 0xAA SHL PUSH1 0x44 DUP3 ADD MSTORE PUSH1 0x64 SWAP1 REVERT JUMPDEST SWAP2 SWAP1 DUP2 LT ISZERO PUSH2 0x15E0 JUMPI PUSH1 0x5 SHL ADD SWAP1 JUMP JUMPDEST MLOAD SWAP1 PUSH1 0x1 PUSH1 0x1 PUSH1 0xA0 SHL SUB DUP3 AND DUP3 SUB PUSH2 0x15A4 JUMPI JUMP JUMPDEST MLOAD SWAP1 DUP2 PUSH1 0x2 SIGNEXTEND DUP3 SUB PUSH2 0x15A4 JUMPI JUMP JUMPDEST MLOAD SWAP1 PUSH1 0x1 PUSH1 0x1 PUSH1 0x80 SHL SUB DUP3 AND DUP3 SUB PUSH2 0x15A4 JUMPI JUMP JUMPDEST SWAP2 SWAP1 DUP3 PUSH2 0x180 SWAP2 SUB SLT PUSH2 0x15A4 JUMPI DUP2 MLOAD PUSH12 0xFFFFFFFFFFFFFFFFFFFFFFFF DUP2 AND DUP2 SUB PUSH2 0x15A4 JUMPI SWAP2 PUSH2 0x17C1 PUSH1 0x20 DUP3 ADD PUSH2 0x175A JUMP JUMPDEST SWAP2 PUSH2 0x17CE PUSH1 0x40 DUP4 ADD PUSH2 0x175A JUMP JUMPDEST SWAP2 PUSH2 0x17DB PUSH1 0x60 DUP3 ADD PUSH2 0x175A JUMP JUMPDEST SWAP2 PUSH1 0x80 DUP3 ADD MLOAD PUSH3 0xFFFFFF DUP2 AND DUP2 SUB PUSH2 0x15A4 JUMPI SWAP2 PUSH2 0x17FA PUSH1 0xA0 DUP3 ADD PUSH2 0x176E JUMP JUMPDEST SWAP2 PUSH2 0x1807 PUSH1 0xC0 DUP4 ADD PUSH2 0x176E JUMP JUMPDEST SWAP2 PUSH2 0x1814 PUSH1 0xE0 DUP3 ADD PUSH2 0x177C JUMP JUMPDEST SWAP2 PUSH2 0x100 DUP3 ADD MLOAD SWAP2 PUSH2 0x120 DUP2 ADD MLOAD SWAP2 PUSH2 0x183D PUSH2 0x160 PUSH2 0x1836 PUSH2 0x140 DUP6 ADD PUSH2 0x177C JUMP JUMPDEST SWAP4 ADD PUSH2 0x177C JUMP JUMPDEST SWAP1 JUMP JUMPDEST MLOAD SWAP1 PUSH2 0xFFFF DUP3 AND DUP3 SUB PUSH2 0x15A4 JUMPI JUMP JUMPDEST PUSH1 0x40 DUP1 MLOAD PUSH4 0x133F7571 PUSH1 0xE3 SHL DUP2 MSTORE PUSH1 0x4 DUP2 ADD DUP4 SWAP1 MSTORE PUSH2 0x180 SWAP3 DUP4 DUP3 PUSH1 0x24 DUP2 PUSH20 0xEC12A9F9A09F50550686363766CC153D03C27B5E GAS STATICCALL SWAP4 DUP5 ISZERO PUSH2 0x1A80 JUMPI PUSH1 0x0 SWAP3 DUP4 SWAP1 DUP5 SWAP1 DUP6 SWAP4 DUP7 SWAP9 PUSH2 0x1A46 JUMPI JUMPDEST POP POP DUP6 MLOAD PUSH4 0xB4C7741 PUSH1 0xE1 SHL DUP2 MSTORE PUSH1 0x1 PUSH1 0x1 PUSH1 0xA0 SHL SUB SWAP6 DUP7 AND PUSH1 0x4 DUP3 ADD MSTORE SWAP2 DUP6 AND PUSH1 0x24 DUP4 ADD MSTORE PUSH3 0xFFFFFF AND PUSH1 0x44 DUP3 ADD MSTORE PUSH1 0x20 SWAP4 SWAP1 DUP5 DUP2 PUSH1 0x64 DUP2 PUSH20 0x7A5028BDA40E7B173C278C5342087826455EA25A GAS STATICCALL SWAP1 DUP2 ISZERO PUSH2 0x1A04 JUMPI SWAP1 DUP3 SWAP2 PUSH1 0x0 SWAP2 PUSH2 0x1A0F JUMPI JUMPDEST POP AND SWAP1 DUP2 PUSH2 0x190F JUMPI JUMPDEST POP POP POP POP POP POP POP JUMP JUMPDEST PUSH1 0xE0 PUSH1 0x4 SWAP3 DUP8 MLOAD SWAP4 DUP5 DUP1 SWAP3 PUSH4 0x3850C7BD DUP6 SHL DUP3 MSTORE GAS STATICCALL SWAP1 DUP2 ISZERO PUSH2 0x1A04 JUMPI PUSH1 0x0 SWAP2 PUSH2 0x197F JUMPI JUMPDEST POP SWAP1 POP PUSH1 0x2 SIGNEXTEND SWAP1 PUSH1 0x2 SIGNEXTEND DUP2 SLT ISZERO SWAP5 DUP6 PUSH2 0x1970 JUMPI JUMPDEST POP POP SWAP1 PUSH1 0xB SWAP2 PUSH1 0x0 MSTORE MSTORE PUSH1 0x0 KECCAK256 SWAP1 PUSH1 0xFF DUP1 NOT DUP4 SLOAD AND SWAP2 ISZERO ISZERO AND OR SWAP1 SSTORE CODESIZE DUP1 DUP1 DUP1 DUP1 DUP1 DUP1 PUSH2 0x1906 JUMP JUMPDEST PUSH1 0x2 SIGNEXTEND SLT ISZERO SWAP4 POP PUSH1 0xB CODESIZE PUSH2 0x1948 JUMP JUMPDEST PUSH1 0xE0 DUP4 RETURNDATASIZE DUP3 GT PUSH2 0x19FC JUMPI JUMPDEST DUP2 PUSH2 0x1997 PUSH1 0xE0 SWAP4 DUP4 PUSH2 0x16CB JUMP JUMPDEST DUP2 ADD SUB SLT PUSH2 0x209 JUMPI DUP3 MLOAD SWAP1 DUP2 AND SUB PUSH2 0x4DF JUMPI PUSH1 0xC0 PUSH2 0x19B6 DUP7 DUP5 ADD PUSH2 0x176E JUMP JUMPDEST SWAP3 PUSH2 0x19C2 DUP9 DUP3 ADD PUSH2 0x1840 JUMP JUMPDEST POP PUSH2 0x19CF PUSH1 0x60 DUP3 ADD PUSH2 0x1840 JUMP JUMPDEST POP PUSH2 0x19DC PUSH1 0x80 DUP3 ADD PUSH2 0x1840 JUMP JUMPDEST POP PUSH2 0x19E9 PUSH1 0xA0 DUP3 ADD PUSH2 0x1840 JUMP JUMPDEST POP ADD MLOAD DUP1 ISZERO ISZERO SUB PUSH2 0x4DF JUMPI POP DUP1 CODESIZE PUSH2 0x1934 JUMP JUMPDEST RETURNDATASIZE SWAP2 POP PUSH2 0x198A JUMP JUMPDEST DUP7 MLOAD RETURNDATASIZE PUSH1 0x0 DUP3 RETURNDATACOPY RETURNDATASIZE SWAP1 REVERT JUMPDEST SWAP2 POP DUP6 DUP3 DUP2 RETURNDATASIZE DUP4 GT PUSH2 0x1A3F JUMPI JUMPDEST PUSH2 0x1A26 DUP2 DUP4 PUSH2 0x16CB JUMP JUMPDEST DUP2 ADD SUB SLT PUSH2 0x4DF JUMPI POP PUSH2 0x1A39 DUP3 SWAP2 PUSH2 0x175A JUMP JUMPDEST CODESIZE PUSH2 0x18FD JUMP JUMPDEST POP RETURNDATASIZE PUSH2 0x1A1C JUMP JUMPDEST SWAP3 POP SWAP3 POP POP PUSH2 0x1A68 SWAP3 SWAP6 POP PUSH3 0xFFFFFF SWAP4 POP DUP1 RETURNDATASIZE LT PUSH2 0x4CE JUMPI PUSH2 0x4A9 DUP2 DUP4 PUSH2 0x16CB JUMP JUMPDEST POP POP POP POP POP SWAP5 POP SWAP8 SWAP5 POP SWAP2 SWAP5 SWAP1 SWAP2 SWAP7 SWAP3 SWAP7 SWAP1 CODESIZE PUSH2 0x189B JUMP JUMPDEST DUP4 MLOAD RETURNDATASIZE PUSH1 0x0 DUP3 RETURNDATACOPY RETURNDATASIZE SWAP1 REVERT JUMPDEST DUP2 DUP2 MUL SWAP3 SWAP2 DUP2 ISZERO SWAP2 DUP5 DIV EQ OR ISZERO PUSH2 0x16A8 JUMPI JUMP JUMPDEST PUSH1 0x0 SWAP3 DUP4 JUMPDEST DUP4 DUP2 LT PUSH2 0x1FB7 JUMPI POP DUP4 ISZERO PUSH2 0x1FB1 JUMPI PUSH2 0x1B3B SWAP3 PUSH2 0x2710 PUSH2 0x1B40 PUSH2 0x1B15 DUP3 PUSH2 0x1ACB PUSH1 0x5 SLOAD DUP11 PUSH2 0x1A8B JUMP JUMPDEST DIV PUSH1 0x1 DUP1 PUSH1 0xA0 SHL SUB PUSH32 0x0 AND PUSH1 0x0 MSTORE PUSH1 0xD PUSH1 0x20 MSTORE PUSH1 0x40 PUSH1 0x0 KECCAK256 PUSH2 0x1B0D DUP3 DUP3 SLOAD PUSH2 0x1703 JUMP JUMPDEST SWAP1 SSTORE DUP9 PUSH2 0x16BE JUMP JUMPDEST DUP3 PUSH2 0x1B22 PUSH1 0x6 SLOAD DUP4 PUSH2 0x1A8B JUMP JUMPDEST DIV SWAP7 DUP8 SWAP4 PUSH2 0x1B32 PUSH1 0x7 SLOAD DUP5 PUSH2 0x1A8B JUMP JUMPDEST DIV SWAP4 DUP5 SWAP3 PUSH2 0x16BE JUMP JUMPDEST PUSH2 0x16BE JUMP JUMPDEST SWAP5 DUP4 DUP2 PUSH2 0x1F5E JUMPI JUMPDEST SWAP1 POP DUP2 PUSH2 0x1F0B JUMPI JUMPDEST POP POP DUP4 ISZERO ISZERO DUP1 PUSH2 0x1F02 JUMPI JUMPDEST PUSH2 0x1B9A JUMPI JUMPDEST POP POP POP POP PUSH1 0x40 PUSH32 0xC9AD57538C87A56B42547BA3335109C64ED9619D5CF403928283E46967B80C44 SWAP2 TIMESTAMP PUSH1 0x9 SSTORE DUP2 MLOAD SWAP1 TIMESTAMP DUP3 MSTORE PUSH1 0x20 DUP3 ADD MSTORE LOG1 JUMP JUMPDEST DUP1 ISZERO PUSH2 0x1EEC JUMPI PUSH1 0x0 JUMPDEST DUP2 DUP2 LT PUSH2 0x1BB0 JUMPI POP PUSH2 0x1B60 JUMP JUMPDEST PUSH2 0x1BBB DUP2 DUP4 DUP7 PUSH2 0x174A JUMP JUMPDEST CALLDATALOAD PUSH1 0x0 MSTORE PUSH1 0xB PUSH1 0x20 MSTORE PUSH1 0xFF PUSH1 0x40 PUSH1 0x0 KECCAK256 SLOAD AND DUP1 PUSH2 0x1EE1 JUMPI JUMPDEST PUSH2 0x1BE6 JUMPI JUMPDEST PUSH2 0x1BE1 SWAP1 PUSH2 0x1699 JUMP JUMPDEST PUSH2 0x1BA3 JUMP JUMPDEST PUSH2 0x1BF1 DUP2 DUP4 DUP7 PUSH2 0x174A JUMP JUMPDEST CALLDATALOAD PUSH1 0x40 MLOAD PUSH4 0x133F7571 PUSH1 0xE3 SHL DUP2 MSTORE DUP2 PUSH1 0x4 DUP3 ADD MSTORE PUSH2 0x180 DUP2 PUSH1 0x24 DUP2 PUSH20 0xEC12A9F9A09F50550686363766CC153D03C27B5E GAS STATICCALL SWAP1 DUP2 ISZERO PUSH2 0x1E61 JUMPI PUSH1 0x0 SWAP2 PUSH2 0x1EB4 JUMPI JUMPDEST POP PUSH1 0x1 PUSH1 0x1 PUSH1 0xA0 SHL SUB SWAP1 DUP2 AND PUSH32 0x0 SWAP1 SWAP2 AND SUB PUSH2 0x1E6D JUMPI PUSH32 0x0 PUSH32 0x0 JUMPDEST PUSH2 0x1CBF DUP6 DUP10 DIV PUSH1 0x1 PUSH1 0x1 PUSH1 0xA0 SHL SUB DUP5 AND PUSH2 0x24CD JUMP JUMPDEST PUSH2 0x1CD4 DUP6 DUP10 DIV PUSH1 0x1 PUSH1 0x1 PUSH1 0xA0 SHL SUB DUP4 AND PUSH2 0x24CD JUMP JUMPDEST PUSH1 0x40 MLOAD SWAP2 DUP3 PUSH1 0xC0 DUP2 ADD LT PUSH8 0xFFFFFFFFFFFFFFFF PUSH1 0xC0 DUP6 ADD GT OR PUSH2 0x16ED JUMPI PUSH1 0xC0 DUP4 ADD PUSH1 0x40 MSTORE DUP4 DUP4 MSTORE PUSH1 0x20 DUP4 ADD DUP7 DUP11 DIV DUP2 MSTORE PUSH1 0x40 DUP5 ADD DUP8 DUP12 DIV DUP2 MSTORE PUSH1 0x60 DUP6 ADD PUSH1 0x0 DUP2 MSTORE PUSH1 0x80 DUP7 ADD SWAP2 PUSH1 0x0 DUP4 MSTORE PUSH1 0xA0 DUP8 ADD SWAP4 DUP12 DUP6 MSTORE PUSH1 0x40 MLOAD SWAP8 PUSH4 0x219F5D17 PUSH1 0xE0 SHL DUP10 MSTORE MLOAD PUSH1 0x4 DUP10 ADD MSTORE MLOAD PUSH1 0x24 DUP9 ADD MSTORE MLOAD PUSH1 0x44 DUP8 ADD MSTORE MLOAD PUSH1 0x64 DUP7 ADD MSTORE MLOAD PUSH1 0x84 DUP6 ADD MSTORE MLOAD PUSH1 0xA4 DUP5 ADD MSTORE PUSH1 0x60 DUP4 PUSH1 0xC4 DUP2 PUSH1 0x0 PUSH20 0xEC12A9F9A09F50550686363766CC153D03C27B5E GAS CALL SWAP3 DUP4 ISZERO PUSH2 0x1E61 JUMPI PUSH1 0x0 SWAP4 PUSH2 0x1DEE JUMPI JUMPDEST POP PUSH2 0x1BE1 SWAP5 SWAP4 SWAP3 PUSH32 0x9204F5F210613C88BBFEDBCF63911B917A440C100AFC438464FCA61B3D9E6CDD SWAP3 PUSH1 0x20 SWAP3 PUSH2 0x1DD7 SWAP2 SWAP1 PUSH2 0x1DC9 SWAP1 PUSH1 0x1 PUSH1 0x1 PUSH1 0xA0 SHL SUB AND PUSH2 0x25D7 JUMP JUMPDEST PUSH1 0x1 PUSH1 0x1 PUSH1 0xA0 SHL SUB AND PUSH2 0x25D7 JUMP JUMPDEST PUSH1 0x1 PUSH1 0x1 PUSH1 0x80 SHL SUB PUSH1 0x40 MLOAD SWAP2 AND DUP2 MSTORE LOG2 SWAP1 POP PUSH2 0x1BD8 JUMP JUMPDEST SWAP1 SWAP3 PUSH1 0x60 DUP3 RETURNDATASIZE PUSH1 0x60 GT PUSH2 0x1E59 JUMPI JUMPDEST DUP2 PUSH2 0x1E09 PUSH1 0x60 SWAP4 DUP4 PUSH2 0x16CB JUMP JUMPDEST DUP2 ADD SUB SLT PUSH2 0x4DF JUMPI POP PUSH2 0x1BE1 SWAP5 SWAP4 SWAP3 PUSH2 0x1DD7 PUSH32 0x9204F5F210613C88BBFEDBCF63911B917A440C100AFC438464FCA61B3D9E6CDD SWAP4 PUSH2 0x1DC9 PUSH2 0x1E4B PUSH1 0x20 SWAP6 PUSH2 0x177C JUMP JUMPDEST SWAP7 SWAP8 SWAP9 POP POP SWAP4 POP POP SWAP1 PUSH2 0x1D86 JUMP JUMPDEST RETURNDATASIZE SWAP2 POP PUSH2 0x1DFC JUMP JUMPDEST PUSH1 0x40 MLOAD RETURNDATASIZE PUSH1 0x0 DUP3 RETURNDATACOPY RETURNDATASIZE SWAP1 REVERT JUMPDEST PUSH32 0x0 PUSH32 0x0 PUSH2 0x1CAA JUMP JUMPDEST PUSH2 0x1ECF SWAP2 POP PUSH2 0x180 RETURNDATASIZE PUSH2 0x180 GT PUSH2 0x4CE JUMPI PUSH2 0x4A9 DUP2 DUP4 PUSH2 0x16CB JUMP JUMPDEST POP POP POP POP POP POP POP POP POP SWAP2 POP POP CODESIZE PUSH2 0x1C32 JUMP JUMPDEST POP DUP2 DUP6 DIV ISZERO ISZERO PUSH2 0x1BD3 JUMP JUMPDEST PUSH4 0x4E487B71 PUSH1 0xE0 SHL PUSH1 0x0 MSTORE PUSH1 0x12 PUSH1 0x4 MSTORE PUSH1 0x24 PUSH1 0x0 REVERT JUMPDEST POP DUP1 ISZERO ISZERO PUSH2 0x1B5B JUMP JUMPDEST PUSH2 0x1F56 SWAP2 PUSH32 0x0 PUSH32 0x0 PUSH2 0x21F2 JUMP JUMPDEST POP CODESIZE DUP3 PUSH2 0x1B50 JUMP JUMPDEST PUSH2 0x1FA9 SWAP2 PUSH32 0x0 PUSH32 0x0 PUSH2 0x21F2 JUMP JUMPDEST POP CODESIZE DUP4 PUSH2 0x1B48 JUMP JUMPDEST POP POP POP POP JUMP JUMPDEST SWAP4 PUSH2 0x1FC3 DUP6 DUP6 DUP6 PUSH2 0x174A JUMP JUMPDEST CALLDATALOAD DUP1 PUSH1 0x0 MSTORE PUSH1 0x20 PUSH1 0xA DUP2 MSTORE PUSH1 0x40 SWAP2 PUSH2 0x1FE1 PUSH1 0xFF DUP5 PUSH1 0x0 KECCAK256 SLOAD AND PUSH2 0x1710 JUMP JUMPDEST DUP3 MLOAD PUSH4 0x133F7571 PUSH1 0xE3 SHL DUP2 MSTORE PUSH1 0x4 DUP1 DUP3 ADD DUP4 SWAP1 MSTORE SWAP4 PUSH2 0x180 SWAP3 SWAP2 PUSH1 0x24 SWAP1 PUSH20 0xEC12A9F9A09F50550686363766CC153D03C27B5E SWAP1 DUP6 DUP2 DUP5 DUP2 DUP6 GAS STATICCALL SWAP6 DUP7 ISZERO PUSH2 0x21E7 JUMPI PUSH1 0x0 SWAP7 PUSH2 0x21BC JUMPI JUMPDEST POP POP DUP3 MLOAD SWAP2 PUSH1 0x80 DUP4 ADD DUP4 DUP2 LT PUSH8 0xFFFFFFFFFFFFFFFF DUP3 GT OR PUSH2 0x21A8 JUMPI DUP5 MSTORE DUP5 DUP4 MSTORE ADDRESS DUP8 DUP5 ADD SWAP1 DUP2 MSTORE PUSH1 0x1 PUSH1 0x1 PUSH1 0x80 SHL SUB DUP5 DUP7 ADD DUP2 DUP2 MSTORE PUSH1 0x60 DUP7 ADD DUP3 DUP2 MSTORE DUP8 MLOAD PUSH4 0xFC6F7865 PUSH1 0xE0 SHL DUP2 MSTORE SWAP7 MLOAD SWAP12 DUP8 ADD SWAP12 SWAP1 SWAP12 MSTORE SWAP2 MLOAD PUSH1 0x1 PUSH1 0x1 PUSH1 0xA0 SHL SUB AND SWAP3 DUP6 ADD SWAP3 SWAP1 SWAP3 MSTORE MLOAD DUP2 AND PUSH1 0x44 DUP5 ADD MSTORE SWAP7 MLOAD SWAP1 SWAP7 AND PUSH1 0x64 DUP3 ADD MSTORE SWAP5 DUP2 SWAP1 DUP7 SWAP1 DUP2 GAS PUSH1 0x84 SWAP3 PUSH1 0x0 SWAP2 CALL SWAP4 DUP5 ISZERO PUSH2 0x219D JUMPI PUSH1 0x0 SWAP6 DUP7 SWAP6 PUSH2 0x2147 JUMPI JUMPDEST POP SWAP2 PUSH32 0xA54E6C2FC0861AA9C991B26891D71059D517983B9E84B91020F42609C452EB9D DUP3 DUP7 SWAP5 PUSH2 0x213A SWAP10 SWAP8 PUSH2 0x2134 SWAP10 SWAP8 SWAP6 MLOAD SWAP2 DUP9 DUP4 MSTORE DUP3 ADD MSTORE LOG2 PUSH1 0x1 PUSH1 0x1 PUSH1 0xA0 SHL SUB SWAP1 DUP2 AND PUSH32 0x0 SWAP1 SWAP2 AND SUB PUSH2 0x213F JUMPI POP SWAP1 PUSH2 0x1703 JUMP JUMPDEST SWAP5 PUSH2 0x1699 JUMP JUMPDEST PUSH2 0x1AA3 JUMP JUMPDEST SWAP1 POP SWAP1 PUSH2 0x1703 JUMP JUMPDEST SWAP6 SWAP1 SWAP5 POP DUP2 DUP7 DUP2 RETURNDATASIZE DUP4 GT PUSH2 0x2196 JUMPI JUMPDEST PUSH2 0x2160 DUP2 DUP4 PUSH2 0x16CB JUMP JUMPDEST DUP2 ADD SUB SLT PUSH2 0x4DF JUMPI POP DUP5 MLOAD SWAP5 DUP5 ADD MLOAD SWAP4 PUSH32 0xA54E6C2FC0861AA9C991B26891D71059D517983B9E84B91020F42609C452EB9D PUSH2 0x20BF JUMP JUMPDEST POP RETURNDATASIZE PUSH2 0x2156 JUMP JUMPDEST POP MLOAD RETURNDATASIZE PUSH1 0x0 DUP3 RETURNDATACOPY RETURNDATASIZE SWAP1 REVERT JUMPDEST POP PUSH4 0x4E487B71 PUSH1 0xE0 SHL PUSH1 0x0 SWAP1 DUP2 MSTORE PUSH1 0x41 DUP10 MSTORE REVERT JUMPDEST PUSH2 0x21D3 SWAP3 SWAP7 POP DUP1 RETURNDATASIZE LT PUSH2 0x4CE JUMPI PUSH2 0x4A9 DUP2 DUP4 PUSH2 0x16CB JUMP JUMPDEST POP POP POP POP POP POP POP POP POP SWAP2 POP POP SWAP4 CODESIZE DUP1 PUSH2 0x202A JUMP JUMPDEST DUP5 MLOAD RETURNDATASIZE PUSH1 0x0 DUP3 RETURNDATACOPY RETURNDATASIZE SWAP1 REVERT JUMPDEST SWAP4 SWAP3 SWAP2 SWAP1 PUSH1 0x0 SWAP2 PUSH1 0x40 SWAP2 DUP3 MLOAD PUSH4 0x95EA7B3 PUSH1 0xE0 SHL DUP6 MSTORE PUSH1 0x20 PUSH20 0x91AD9E2E6E5ED44C1C66DB50E49A601F9F36CF6 SWAP9 DUP10 PUSH1 0x4 MSTORE DUP5 PUSH1 0x24 MSTORE PUSH1 0x1 DUP1 PUSH1 0xA0 SHL SUB AND SWAP6 PUSH1 0x44 DUP2 DUP1 DUP10 GAS CALL SWAP1 PUSH1 0x1 PUSH1 0x0 MLOAD EQ DUP3 AND ISZERO PUSH2 0x24BE JUMPI JUMPDEST DUP5 MSTORE ISZERO PUSH2 0x243E JUMPI JUMPDEST PUSH1 0x3 SLOAD PUSH1 0x0 DUP2 PUSH2 0x240B JUMPI POP POP PUSH1 0x0 JUMPDEST DUP4 MLOAD SWAP2 PUSH2 0x100 DUP4 ADD DUP4 DUP2 LT PUSH8 0xFFFFFFFFFFFFFFFF DUP3 GT OR PUSH2 0x16ED JUMPI DUP6 MSTORE DUP6 DUP4 MSTORE PUSH1 0x1 PUSH1 0x1 PUSH1 0xA0 SHL SUB SWAP1 DUP2 AND PUSH1 0x20 DUP1 DUP6 ADD DUP3 DUP2 MSTORE PUSH2 0xBB8 DUP7 DUP10 ADD SWAP1 DUP2 MSTORE ADDRESS PUSH1 0x60 DUP9 ADD SWAP1 DUP2 MSTORE PUSH1 0x80 DUP9 ADD SWAP12 DUP13 MSTORE PUSH1 0xA0 DUP9 ADD DUP10 DUP2 MSTORE PUSH1 0xC0 DUP10 ADD SWAP8 DUP9 MSTORE PUSH1 0x0 PUSH1 0xE0 DUP11 ADD DUP2 DUP2 MSTORE DUP13 MLOAD PUSH4 0x414BF389 PUSH1 0xE0 SHL DUP2 MSTORE SWAP11 MLOAD DUP10 AND PUSH1 0x4 DUP13 ADD MSTORE SWAP5 MLOAD DUP9 AND PUSH1 0x24 DUP12 ADD MSTORE SWAP3 MLOAD PUSH3 0xFFFFFF AND PUSH1 0x44 DUP11 ADD MSTORE SWAP1 MLOAD DUP7 AND PUSH1 0x64 DUP10 ADD MSTORE SWAP11 MLOAD PUSH1 0x84 DUP9 ADD MSTORE SWAP10 MLOAD PUSH1 0xA4 DUP8 ADD MSTORE SWAP4 MLOAD PUSH1 0xC4 DUP7 ADD MSTORE SWAP3 MLOAD SWAP1 SWAP2 AND PUSH1 0xE4 DUP5 ADD MSTORE SWAP6 DUP3 SWAP1 PUSH2 0x104 SWAP1 DUP3 SWAP1 DUP12 GAS CALL SWAP1 DUP2 ISZERO PUSH2 0x1A80 JUMPI PUSH1 0x0 SWAP2 PUSH2 0x23D9 JUMPI JUMPDEST POP DUP1 SWAP7 PUSH1 0x20 PUSH1 0x0 DUP6 MLOAD SWAP3 PUSH4 0x95EA7B3 PUSH1 0xE0 SHL DUP3 MSTORE PUSH1 0x4 MSTORE DUP1 PUSH1 0x24 MSTORE PUSH1 0x44 DUP2 DUP1 DUP10 GAS CALL SWAP1 PUSH1 0x1 PUSH1 0x0 MLOAD EQ DUP3 AND ISZERO PUSH2 0x23CA JUMPI JUMPDEST DUP5 MSTORE ISZERO PUSH2 0x2396 JUMPI JUMPDEST DUP3 MLOAD SWAP2 DUP3 MSTORE PUSH1 0x20 DUP3 ADD MSTORE PUSH32 0xA078C4190ABE07940190EFFC1846BE0CCF03AD6007BC9E93F9697D0B460BEFBB SWAP2 SWAP1 LOG3 JUMP JUMPDEST PUSH2 0x239F DUP5 PUSH2 0x2676 JUMP JUMPDEST ISZERO PUSH2 0x23B2 JUMPI PUSH2 0x23AD DUP5 PUSH2 0x2676 JUMP JUMPDEST PUSH2 0x2366 JUMPI JUMPDEST DUP3 MLOAD PUSH4 0x5274AFE7 PUSH1 0xE0 SHL DUP2 MSTORE PUSH1 0x4 DUP2 ADD DUP6 SWAP1 MSTORE PUSH1 0x24 SWAP1 REVERT JUMPDEST SWAP1 DUP6 EXTCODESIZE ISZERO ISZERO RETURNDATASIZE ISZERO AND AND SWAP1 PUSH2 0x235E JUMP JUMPDEST SWAP1 PUSH1 0x20 DUP3 RETURNDATASIZE PUSH1 0x20 GT PUSH2 0x2403 JUMPI JUMPDEST DUP2 PUSH2 0x23F3 PUSH1 0x20 SWAP4 DUP4 PUSH2 0x16CB JUMP JUMPDEST DUP2 ADD SUB SLT PUSH2 0x4DF JUMPI POP MLOAD CODESIZE PUSH2 0x232D JUMP JUMPDEST RETURNDATASIZE SWAP2 POP PUSH2 0x23E6 JUMP JUMPDEST PUSH2 0x2710 SWAP2 DUP3 SUB SWAP1 DUP3 DUP3 GT PUSH2 0x242A JUMPI POP PUSH2 0x2424 SWAP1 DUP5 PUSH2 0x1A8B JUMP JUMPDEST DIV PUSH2 0x225E JUMP JUMPDEST PUSH4 0x4E487B71 PUSH1 0xE0 SHL DUP2 MSTORE PUSH1 0x11 PUSH1 0x4 MSTORE PUSH1 0x24 SWAP1 REVERT JUMPDEST PUSH2 0x2447 DUP5 PUSH2 0x2676 JUMP JUMPDEST ISZERO PUSH2 0x23B2 JUMPI PUSH1 0x0 PUSH1 0x20 DUP5 MLOAD SWAP2 PUSH4 0x95EA7B3 PUSH1 0xE0 SHL DUP2 MSTORE DUP10 PUSH1 0x4 MSTORE DUP5 PUSH1 0x24 MSTORE PUSH1 0x44 DUP2 DUP1 DUP10 GAS CALL PUSH1 0x1 PUSH1 0x0 MLOAD EQ DUP2 AND ISZERO PUSH2 0x249E JUMPI JUMPDEST DUP2 DUP6 MSTORE ISZERO PUSH2 0x2488 JUMPI POP PUSH2 0x224F JUMP JUMPDEST PUSH4 0x5274AFE7 PUSH1 0xE0 SHL DUP2 MSTORE PUSH1 0x4 DUP2 ADD DUP6 SWAP1 MSTORE PUSH1 0x24 SWAP1 REVERT JUMPDEST PUSH1 0x1 DUP2 ISZERO AND PUSH2 0x24B4 JUMPI DUP6 EXTCODESIZE ISZERO ISZERO RETURNDATASIZE ISZERO AND AND PUSH2 0x247A JUMP JUMPDEST POP RETURNDATASIZE PUSH1 0x0 DUP3 RETURNDATACOPY RETURNDATASIZE SWAP1 REVERT JUMPDEST SWAP1 DUP6 EXTCODESIZE ISZERO ISZERO RETURNDATASIZE ISZERO AND AND SWAP1 PUSH2 0x2247 JUMP JUMPDEST PUSH1 0x0 PUSH1 0x40 MLOAD SWAP3 PUSH4 0x95EA7B3 PUSH1 0xE0 SHL SWAP4 DUP5 DUP4 MSTORE PUSH1 0x20 PUSH20 0xEC12A9F9A09F50550686363766CC153D03C27B5E SWAP4 DUP5 PUSH1 0x4 MSTORE DUP4 PUSH1 0x24 MSTORE PUSH1 0x44 DUP2 DUP1 DUP9 GAS CALL SWAP1 PUSH1 0x1 PUSH1 0x0 MLOAD EQ DUP3 AND ISZERO PUSH2 0x25C8 JUMPI JUMPDEST PUSH1 0x40 MSTORE ISZERO PUSH2 0x2523 JUMPI POP POP POP POP JUMP JUMPDEST PUSH2 0x252C DUP4 PUSH2 0x26E7 JUMP JUMPDEST ISZERO PUSH2 0x25A7 JUMPI SWAP1 PUSH1 0x20 SWAP2 PUSH1 0x0 SWAP2 PUSH1 0x40 MLOAD SWAP6 DUP4 MSTORE PUSH1 0x4 MSTORE PUSH1 0x24 MSTORE PUSH1 0x44 DUP2 DUP1 DUP6 GAS CALL PUSH1 0x1 PUSH1 0x0 MLOAD EQ DUP2 AND ISZERO PUSH2 0x2587 JUMPI JUMPDEST DUP3 PUSH1 0x40 MSTORE ISZERO PUSH2 0x2569 JUMPI DUP1 DUP1 PUSH2 0x1FB1 JUMP JUMPDEST PUSH4 0x5274AFE7 PUSH1 0xE0 SHL DUP3 MSTORE PUSH1 0x1 PUSH1 0x1 PUSH1 0xA0 SHL SUB AND PUSH1 0x4 DUP3 ADD MSTORE PUSH1 0x24 SWAP2 POP REVERT JUMPDEST PUSH1 0x1 DUP2 ISZERO AND PUSH2 0x259D JUMPI DUP2 EXTCODESIZE ISZERO ISZERO RETURNDATASIZE ISZERO AND AND PUSH2 0x2559 JUMP JUMPDEST DUP3 RETURNDATASIZE PUSH1 0x0 DUP3 RETURNDATACOPY RETURNDATASIZE SWAP1 REVERT JUMPDEST PUSH1 0x40 MLOAD PUSH4 0x5274AFE7 PUSH1 0xE0 SHL DUP2 MSTORE PUSH1 0x1 PUSH1 0x1 PUSH1 0xA0 SHL SUB DUP5 AND PUSH1 0x4 DUP3 ADD MSTORE PUSH1 0x24 SWAP1 REVERT JUMPDEST SWAP1 DUP5 EXTCODESIZE ISZERO ISZERO RETURNDATASIZE ISZERO AND AND SWAP1 PUSH2 0x2515 JUMP JUMPDEST PUSH1 0x0 PUSH1 0x20 PUSH1 0x40 MLOAD SWAP2 PUSH4 0x95EA7B3 PUSH1 0xE0 SHL DUP2 MSTORE PUSH20 0xEC12A9F9A09F50550686363766CC153D03C27B5E PUSH1 0x4 MSTORE DUP1 PUSH1 0x24 MSTORE PUSH1 0x44 DUP2 DUP1 DUP7 GAS CALL SWAP1 PUSH1 0x1 PUSH1 0x0 MLOAD EQ DUP3 AND ISZERO PUSH2 0x2667 JUMPI JUMPDEST PUSH1 0x40 MSTORE ISZERO PUSH2 0x2626 JUMPI POP JUMP JUMPDEST PUSH2 0x262F DUP2 PUSH2 0x26E7 JUMP JUMPDEST ISZERO PUSH2 0x2645 JUMPI PUSH2 0x263D DUP2 PUSH2 0x26E7 JUMP JUMPDEST ISZERO PUSH2 0x2645 JUMPI POP JUMP JUMPDEST PUSH1 0x40 MLOAD PUSH4 0x5274AFE7 PUSH1 0xE0 SHL DUP2 MSTORE PUSH1 0x1 PUSH1 0x1 PUSH1 0xA0 SHL SUB SWAP1 SWAP2 AND PUSH1 0x4 DUP3 ADD MSTORE PUSH1 0x24 SWAP1 REVERT JUMPDEST SWAP1 DUP3 EXTCODESIZE ISZERO ISZERO RETURNDATASIZE ISZERO AND AND SWAP1 PUSH2 0x261B JUMP JUMPDEST SWAP1 PUSH1 0x40 MLOAD PUSH1 0x0 SWAP3 PUSH4 0x95EA7B3 PUSH1 0xE0 SHL DUP5 MSTORE PUSH20 0x91AD9E2E6E5ED44C1C66DB50E49A601F9F36CF6 PUSH1 0x4 MSTORE DUP4 PUSH1 0x24 MSTORE PUSH1 0x20 DUP5 PUSH1 0x44 DUP2 DUP1 DUP6 GAS CALL SWAP4 PUSH1 0x1 DUP2 MLOAD EQ DUP6 AND ISZERO PUSH2 0x26C2 JUMPI JUMPDEST POP POP PUSH1 0x40 MSTORE JUMP JUMPDEST PUSH1 0x1 DUP6 SWAP4 SWAP6 ISZERO AND PUSH2 0x26DD JUMPI POP EXTCODESIZE ISZERO ISZERO RETURNDATASIZE ISZERO AND AND SWAP2 CODESIZE DUP1 PUSH2 0x26BB JUMP JUMPDEST DUP5 SWAP1 RETURNDATASIZE SWAP1 DUP3 RETURNDATACOPY RETURNDATASIZE SWAP1 REVERT JUMPDEST SWAP1 PUSH1 0x40 MLOAD PUSH1 0x0 SWAP3 PUSH4 0x95EA7B3 PUSH1 0xE0 SHL DUP5 MSTORE PUSH20 0xEC12A9F9A09F50550686363766CC153D03C27B5E PUSH1 0x4 MSTORE DUP4 PUSH1 0x24 MSTORE PUSH1 0x20 DUP5 PUSH1 0x44 DUP2 DUP1 DUP6 GAS CALL SWAP4 PUSH1 0x1 DUP2 MLOAD EQ DUP6 AND ISZERO PUSH2 0x26C2 JUMPI POP POP PUSH1 0x40 MSTORE JUMP JUMPDEST PUSH1 0x40 MLOAD PUSH4 0xA9059CBB PUSH1 0xE0 SHL PUSH1 0x0 SWAP1 DUP2 MSTORE PUSH1 0x1 PUSH1 0x1 PUSH1 0xA0 SHL SUB SWAP4 DUP5 AND PUSH1 0x4 MSTORE PUSH1 0x24 SWAP5 SWAP1 SWAP5 MSTORE SWAP3 PUSH1 0x20 SWAP1 PUSH1 0x44 DUP2 DUP1 DUP6 GAS CALL PUSH1 0x1 PUSH1 0x0 MLOAD EQ DUP2 AND ISZERO PUSH2 0x2793 JUMPI JUMPDEST DUP4 PUSH1 0x40 MSTORE ISZERO PUSH2 0x277D JUMPI POP POP POP JUMP JUMPDEST PUSH4 0x5274AFE7 PUSH1 0xE0 SHL DUP4 MSTORE AND PUSH1 0x4 DUP3 ADD MSTORE PUSH1 0x24 SWAP2 POP REVERT JUMPDEST PUSH1 0x1 DUP2 ISZERO AND PUSH2 0x27A9 JUMPI DUP2 EXTCODESIZE ISZERO ISZERO RETURNDATASIZE ISZERO AND AND PUSH2 0x276F JUMP JUMPDEST DUP4 RETURNDATASIZE PUSH1 0x0 DUP3 RETURNDATACOPY RETURNDATASIZE SWAP1 REVERT INVALID SLT 0xC9 0xDC 0xCD SLT SWAP16 0xF7 DUP4 CALL 0xC8 0x22 DUP15 0xAC 0xDF 0xA8 0xE3 CALLVALUE 0xDD 0xEC 0xB7 0xEC 0x5C SWAP11 PUSH26 0xEC662A4AED3D012AA2646970667358221220B5E950A74F5BD11B 0x2E 0x26 JUMPDEST JUMPDEST MSTORE8 SWAP12 SWAP16 DUP10 GT 0xA5 SGT 0xC7 TIMESTAMP ORIGIN 0xB7 DIV PUSH12 0x2B052BC1E41EA064736F6C63 NUMBER STOP ADDMOD EQ STOP CALLER "},"methodIdentifiers":{"BTCH2O()":"acb47670","H2O()":"feaa524d","POSITION_MANAGER()":"1bea83fe","SWAP_ROUTER()":"c6005893","UNISWAP_FACTORY()":"c74c0fac","WLD()":"de061d66","addOwner(address)":"7065cb48","addPosition(uint256)":"d2d6a872","btch2oShareBps()":"35e93277","collectFees(uint256[],uint256)":"c006ee2d","getConfig()":"c3f909d4","getManagedPositions()":"82f8fe78","getOwners()":"a0e67e2b","getPosition(uint256)":"eb02c301","getReserves()":"0902f1ac","h2oShareBps()":"98fb86d3","inRange(uint256)":"40ec97c6","isManaged(uint256)":"55b6cce1","isOwner(address)":"2f54bf6e","lastReinvestAt()":"3cd57d61","managedPositions(uint256)":"8d95c2cf","ownerList(uint256)":"def79ab5","paused()":"5c975abb","primaryOwner()":"8e10be33","reinvestIntervalSecs()":"ce8021de","removeOwner(address)":"173825d9","removePosition(uint256)":"c0467422","reserve(address)":"e75179a4","reserveFeeBps()":"65db6579","setDistribution(uint256,uint256)":"f18dba26","setPaused(bool)":"16c38b3c","setReinvestInterval(uint256)":"10a135ca","setReserveFeeBps(uint256)":"4b41cb27","setSlippage(uint256)":"f0fa55a9","slippageBps()":"578c71d9","updateRanges(uint256[])":"d7759e6a","withdrawAll(address,address)":"09cae2c8","withdrawReserve(address,uint256,address)":"1d8d7c66"}}}}}