{"contracts/AutoReinvestBotV4.sol":{"AutoReinvestBotV4":{"abi":[{"inputs":[{"internalType":"address","name":"_WLD","type":"address"},{"internalType":"address","name":"_H2O","type":"address"},{"internalType":"address","name":"_BTCH2O","type":"address"}],"stateMutability":"nonpayable","type":"constructor"},{"inputs":[{"internalType":"address","name":"owner","type":"address"}],"name":"OwnableInvalidOwner","type":"error"},{"inputs":[{"internalType":"address","name":"account","type":"address"}],"name":"OwnableUnauthorizedAccount","type":"error"},{"inputs":[{"internalType":"address","name":"token","type":"address"}],"name":"SafeERC20FailedOperation","type":"error"},{"anonymous":false,"inputs":[{"indexed":false,"internalType":"uint256","name":"id","type":"uint256"},{"indexed":false,"internalType":"uint256","name":"a0","type":"uint256"},{"indexed":false,"internalType":"uint256","name":"a1","type":"uint256"}],"name":"FeesCollected","type":"event"},{"anonymous":false,"inputs":[{"indexed":true,"internalType":"address","name":"previousOwner","type":"address"},{"indexed":true,"internalType":"address","name":"newOwner","type":"address"}],"name":"OwnershipTransferStarted","type":"event"},{"anonymous":false,"inputs":[{"indexed":true,"internalType":"address","name":"previousOwner","type":"address"},{"indexed":true,"internalType":"address","name":"newOwner","type":"address"}],"name":"OwnershipTransferred","type":"event"},{"inputs":[],"name":"BTCH2O","outputs":[{"internalType":"address","name":"","type":"address"}],"stateMutability":"view","type":"function"},{"inputs":[],"name":"H2O","outputs":[{"internalType":"address","name":"","type":"address"}],"stateMutability":"view","type":"function"},{"inputs":[],"name":"POSITION_MANAGER","outputs":[{"internalType":"address","name":"","type":"address"}],"stateMutability":"view","type":"function"},{"inputs":[],"name":"SWAP_ROUTER","outputs":[{"internalType":"address","name":"","type":"address"}],"stateMutability":"view","type":"function"},{"inputs":[],"name":"UNISWAP_FACTORY","outputs":[{"internalType":"address","name":"","type":"address"}],"stateMutability":"view","type":"function"},{"inputs":[],"name":"WLD","outputs":[{"internalType":"address","name":"","type":"address"}],"stateMutability":"view","type":"function"},{"inputs":[],"name":"acceptOwnership","outputs":[],"stateMutability":"nonpayable","type":"function"},{"inputs":[{"internalType":"uint256","name":"tokenId","type":"uint256"}],"name":"addPosition","outputs":[],"stateMutability":"nonpayable","type":"function"},{"inputs":[{"internalType":"uint256[]","name":"tokenIds","type":"uint256[]"},{"internalType":"uint256","name":"deadline","type":"uint256"}],"name":"collectFees","outputs":[],"stateMutability":"nonpayable","type":"function"},{"inputs":[{"internalType":"uint256","name":"","type":"uint256"}],"name":"inRange","outputs":[{"internalType":"bool","name":"","type":"bool"}],"stateMutability":"view","type":"function"},{"inputs":[{"internalType":"uint256","name":"","type":"uint256"}],"name":"isManaged","outputs":[{"internalType":"bool","name":"","type":"bool"}],"stateMutability":"view","type":"function"},{"inputs":[{"internalType":"uint256","name":"","type":"uint256"}],"name":"managedPositions","outputs":[{"internalType":"uint256","name":"","type":"uint256"}],"stateMutability":"view","type":"function"},{"inputs":[],"name":"owner","outputs":[{"internalType":"address","name":"","type":"address"}],"stateMutability":"view","type":"function"},{"inputs":[],"name":"pendingOwner","outputs":[{"internalType":"address","name":"","type":"address"}],"stateMutability":"view","type":"function"},{"inputs":[],"name":"renounceOwnership","outputs":[],"stateMutability":"nonpayable","type":"function"},{"inputs":[{"internalType":"address","name":"","type":"address"}],"name":"reserve","outputs":[{"internalType":"uint256","name":"","type":"uint256"}],"stateMutability":"view","type":"function"},{"inputs":[{"internalType":"address","name":"newOwner","type":"address"}],"name":"transferOwnership","outputs":[],"stateMutability":"nonpayable","type":"function"}],"evm":{"bytecode":{"linkReferences":{},"object":"60e03461012957601f6113ae38819003918201601f19168301916001600160401b0383118484101761012e578084926060946040528339810103126101295761004781610144565b90610060604061005960208401610144565b9201610144565b9033156101105760018060a01b031992836001541660015560005493339085161760005560405193339060018060a01b03167f8be0079c531659141344cd1fd0a4f28419497f9722a3daafe3b4186f6b6457e0600080a360805260a05260c0526112559081610159823960805181818161020f0152818161062a015281816106af015281816107110152610a21015260a05181818160f0015261068e015260c0518181816106f00152610b390152f35b604051631e4fbdf760e01b815260006004820152602490fd5b600080fd5b634e487b7160e01b600052604160045260246000fd5b51906001600160a01b03821682036101295756fe608080604052600436101561001357600080fd5b60003560e01c9081631bea83fe14610d135750806340ec97c614610ce257806355b6cce114610cb1578063715018a614610c4c57806379ba509714610bc85780638d95c2cf14610b915780638da5cb5b14610b68578063acb4767014610b23578063c006ee2d1461059c578063c60058931461056d578063c74c0fac1461053e578063d2d6a8721461023e578063de061d66146101f9578063e30c3978146101d0578063e75179a414610192578063f2fde38b146101245763feaa524d146100da57600080fd5b3461011f57600036600319011261011f576040517f00000000000000000000000000000000000000000000000000000000000000006001600160a01b03168152602090f35b600080fd5b3461011f57602036600319011261011f576004356001600160a01b038181169182900361011f57610153610d8d565b816001600160601b0360a01b6001541617600155600054167f38d16b8cac22d99fc7c124b9cd0de2d3fa1faef420bfe791d8c362d765e22700600080a3005b3461011f57602036600319011261011f576004356001600160a01b0381169081900361011f5760005260046020526020604060002054604051908152f35b3461011f57600036600319011261011f576001546040516001600160a01b039091168152602090f35b3461011f57600036600319011261011f576040517f00000000000000000000000000000000000000000000000000000000000000006001600160a01b03168152602090f35b3461011f5760208060031936011261011f5760043561025b610d8d565b806000526002825260ff6040600020541661050757600554680100000000000000008110156104f1578060016102949201600555610d40565b81549060031b9083821b91600019901b1916179055806000526002825260406000209160ff19926001848254161790556040519063133f757160e31b8252826004830152610180808360248173ec12a9f9a09f50550686363766cc153d03c27b5e5afa92831561046157600080916000906000946000976104a7575b5050604051630b4c774160e11b81526001600160a01b039283166004820152928216602484015262ffffff166044830152908381606481737a5028bda40e7b173c278c5342087826455ea25a5afa801561046157829160009161046d575b5060e090600460405180948193633850c7bd861b8352165afa918215610461576000926103d9575b505060020b9060020b81121592836103ca575b5050600391926000525260ff60406000209283541691151516179055600080f35b60020b121591506003856103a9565b90915060e0823d8211610459575b816103f460e09383610da1565b8101031261011f5781519081160361011f5760c0610413848301610dd7565b9161042060408201610ea4565b5061042d60608201610ea4565b5061043a60808201610ea4565b5061044760a08201610ea4565b5001518015150361011f578680610396565b3d91506103e7565b6040513d6000823e3d90fd5b809250858092503d83116104a0575b6104868183610da1565b8101031261011f5760e061049a8392610dc3565b9061036e565b503d61047c565b925092505062ffffff94506104d19250803d106104ea575b6104c98183610da1565b810190610df9565b5050505050955096919290935091929593959089610310565b503d6104bf565b634e487b7160e01b600052604160045260246000fd5b60405162461bcd60e51b815260048101839052600f60248201526e105b1c9958591e481b585b9859d959608a1b6044820152606490fd5b3461011f57600036600319011261011f576020604051737a5028bda40e7b173c278c5342087826455ea25a8152f35b3461011f57600036600319011261011f57602060405173091ad9e2e6e5ed44c1c66db50e49a601f9f36cf68152f35b3461011f57604036600319011261011f5760043567ffffffffffffffff811161011f573660238201121561011f5767ffffffffffffffff81600401351161011f57366024826004013560051b8301011161011f576105f8610d8d565b60009060005b816004013581106108bc57508160011b828104600214831517156108a657606490049160018060a01b037f00000000000000000000000000000000000000000000000000000000000000001660005260046020526040600020610662848254610ed2565b9055828103928184116108a65714602883810290848204148217156108a6576106d390606460243591047f00000000000000000000000000000000000000000000000000000000000000007f0000000000000000000000000000000000000000000000000000000000000000610eff565b50601e8302928304601e1417156108a657610735602435606484047f00000000000000000000000000000000000000000000000000000000000000007f0000000000000000000000000000000000000000000000000000000000000000610eff565b5060005b8160040135811061074657005b61075881836004013560248501610ec2565b35600052600360205260ff6040600020541661077d575b61077890610eb3565b610739565b61078f81836004013560248501610ec2565b35906107a2836004013560648604610edf565b6107b3846004013560648704610edf565b90604051938460c081011067ffffffffffffffff60c0870111176104f15760c08501604052845260208401526040830152600060608301526000608083015260243560a083015273ec12a9f9a09f50550686363766cc153d03c27b5e3b1561011f5760a06040519263219f5d1760e01b84528051600485015260208101516024850152604081015160448501526060810151606485015260808101516084850152015160a483015260008260c4818373ec12a9f9a09f50550686363766cc153d03c27b5e5af180156104615761088b575b905061076f565b67ffffffffffffffff82116104f15761077891604052610884565b634e487b7160e01b600052601160045260246000fd5b916108cf83836004013560248501610ec2565b359081600052600260205260ff6040600020541615610af05760405163133f757160e31b8152600481018390526101809290838160248173ec12a9f9a09f50550686363766cc153d03c27b5e5afa93841561046157600094610ac5575b5050604051906080820182811067ffffffffffffffff8211176104f157604090815281835230602084019081526001600160801b038483018181526060808701838152855163fc6f786560e01b81529751600489015293516001600160a01b0316602488015290518216604487015291511660648501529083608481600073ec12a9f9a09f50550686363766cc153d03c27b5e5af191821561046157600093600093610a62575b50947fa54e6c2fc0861aa9c991b26891d71059d517983b9e84b91020f42609c452eb9d610a4f95949392610a5597604051908152856020820152846040820152a16001600160a01b039081167f000000000000000000000000000000000000000000000000000000000000000090911603610a5a575090610ed2565b92610eb3565b6105fe565b905090610ed2565b9250909392506040823d604011610abd575b81610a8160409383610da1565b8101031261011f5781516020909201519293919291907fa54e6c2fc0861aa9c991b26891d71059d517983b9e84b91020f42609c452eb9d6109d3565b3d9150610a74565b610adc929450803d106104ea576104c98183610da1565b50505050505050505091505091858061092c565b60405162461bcd60e51b815260206004820152600b60248201526a139bdd081b585b9859d95960aa1b6044820152606490fd5b3461011f57600036600319011261011f576040517f00000000000000000000000000000000000000000000000000000000000000006001600160a01b03168152602090f35b3461011f57600036600319011261011f576000546040516001600160a01b039091168152602090f35b3461011f57602036600319011261011f5760043560055481101561011f57610bba602091610d40565b90546040519160031b1c8152f35b3461011f57600036600319011261011f576001546001600160a01b033381831603610c34576001600160601b0360a01b8092166001556000549133908316176000553391167f8be0079c531659141344cd1fd0a4f28419497f9722a3daafe3b4186f6b6457e0600080a3005b60405163118cdaa760e01b8152336004820152602490fd5b3461011f57600036600319011261011f57610c65610d8d565b600180546001600160a01b0319908116909155600080549182168155906001600160a01b03167f8be0079c531659141344cd1fd0a4f28419497f9722a3daafe3b4186f6b6457e08280a3005b3461011f57602036600319011261011f576004356000526002602052602060ff604060002054166040519015158152f35b3461011f57602036600319011261011f576004356000526003602052602060ff604060002054166040519015158152f35b3461011f57600036600319011261011f578073ec12a9f9a09f50550686363766cc153d03c27b5e60209252f35b600554811015610d775760056000527f036b6384b5eca791c62761152d0c79bb0604c104a5fb6f4eb0703f3154bb3db00190600090565b634e487b7160e01b600052603260045260246000fd5b6000546001600160a01b03163303610c3457565b90601f8019910116810190811067ffffffffffffffff8211176104f157604052565b51906001600160a01b038216820361011f57565b51908160020b820361011f57565b51906001600160801b038216820361011f57565b91908261018091031261011f5781516001600160601b038116810361011f5791610e2560208201610dc3565b91610e3260408301610dc3565b91610e3f60608201610dc3565b91608082015162ffffff8116810361011f5791610e5e60a08201610dd7565b91610e6b60c08301610dd7565b91610e7860e08201610de5565b916101008201519161012081015191610ea1610160610e9a6101408501610de5565b9301610de5565b90565b519061ffff8216820361011f57565b60001981146108a65760010190565b9190811015610d775760051b0190565b919082018092116108a657565b8115610ee9570490565b634e487b7160e01b600052601260045260246000fd5b60405163095ea7b360e01b600081815273091ad9e2e6e5ed44c1c66db50e49a601f9f36cf660045260248190526001600160a01b03909316959392909190602090604481808a5af19060016000511482161561119f575b6040521561116b575b600060206040519183815273091ad9e2e6e5ed44c1c66db50e49a601f9f36cf660045286602452604481808a5af19060016000511482161561115c575b604052156110bc575b5060405193610100850185811067ffffffffffffffff8211176104f15760409081529085526001600160a01b039182166020808701918252610bb887840190815230606089019081526080890196875260a08901978852600060c08a0181815260e08b01828152965163414bf38960e01b81529a51881660048c01529451871660248b0152915162ffffff1660448a0152518516606489015294516084880152945160a48701525160c4860152511660e4840152829061010490829073091ad9e2e6e5ed44c1c66db50e49a601f9f36cf65af19081156104615760009161108a575090565b906020823d6020116110b4575b816110a460209383610da1565b810103126110b157505190565b80fd5b3d9150611097565b6110c5856111ae565b15611143576020600060405192815273091ad9e2e6e5ed44c1c66db50e49a601f9f36cf66004528560245260448180895af1600160005114811615611123575b81604052610fa557635274afe760e01b815260048101859052602490fd5b600181151661113957853b15153d151616611105565b503d6000823e3d90fd5b604051635274afe760e01b815260048101869052602490fd5b90863b15153d15161690610f9c565b611174856111ae565b1561114357611182856111ae565b610f5f57604051635274afe760e01b815260048101869052602490fd5b90863b15153d15161690610f56565b9060405160009263095ea7b360e01b845273091ad9e2e6e5ed44c1c66db50e49a601f9f36cf66004528360245260208460448180855af19360018151148516156111fa575b5050604052565b6001859395151661121557503b15153d1516169138806111f3565b84903d90823e3d90fdfea26469706673582212206cb4a15d2e61806b92fff059d4940312d1b1f111bfdb8bdda384e9192f4e7d4564736f6c63430008140033","opcodes":"PUSH1 0xE0 CALLVALUE PUSH2 0x129 JUMPI PUSH1 0x1F PUSH2 0x13AE CODESIZE DUP2 SWAP1 SUB SWAP2 DUP3 ADD PUSH1 0x1F NOT AND DUP4 ADD SWAP2 PUSH1 0x1 PUSH1 0x1 PUSH1 0x40 SHL SUB DUP4 GT DUP5 DUP5 LT OR PUSH2 0x12E JUMPI DUP1 DUP5 SWAP3 PUSH1 0x60 SWAP5 PUSH1 0x40 MSTORE DUP4 CODECOPY DUP2 ADD SUB SLT PUSH2 0x129 JUMPI PUSH2 0x47 DUP2 PUSH2 0x144 JUMP JUMPDEST SWAP1 PUSH2 0x60 PUSH1 0x40 PUSH2 0x59 PUSH1 0x20 DUP5 ADD PUSH2 0x144 JUMP JUMPDEST SWAP3 ADD PUSH2 0x144 JUMP JUMPDEST SWAP1 CALLER ISZERO PUSH2 0x110 JUMPI PUSH1 0x1 DUP1 PUSH1 0xA0 SHL SUB NOT SWAP3 DUP4 PUSH1 0x1 SLOAD AND PUSH1 0x1 SSTORE PUSH1 0x0 SLOAD SWAP4 CALLER SWAP1 DUP6 AND OR PUSH1 0x0 SSTORE PUSH1 0x40 MLOAD SWAP4 CALLER SWAP1 PUSH1 0x1 DUP1 PUSH1 0xA0 SHL SUB AND PUSH32 0x8BE0079C531659141344CD1FD0A4F28419497F9722A3DAAFE3B4186F6B6457E0 PUSH1 0x0 DUP1 LOG3 PUSH1 0x80 MSTORE PUSH1 0xA0 MSTORE PUSH1 0xC0 MSTORE PUSH2 0x1255 SWAP1 DUP2 PUSH2 0x159 DUP3 CODECOPY PUSH1 0x80 MLOAD DUP2 DUP2 DUP2 PUSH2 0x20F ADD MSTORE DUP2 DUP2 PUSH2 0x62A ADD MSTORE DUP2 DUP2 PUSH2 0x6AF ADD MSTORE DUP2 DUP2 PUSH2 0x711 ADD MSTORE PUSH2 0xA21 ADD MSTORE PUSH1 0xA0 MLOAD DUP2 DUP2 DUP2 PUSH1 0xF0 ADD MSTORE PUSH2 0x68E ADD MSTORE PUSH1 0xC0 MLOAD DUP2 DUP2 DUP2 PUSH2 0x6F0 ADD MSTORE PUSH2 0xB39 ADD MSTORE RETURN JUMPDEST PUSH1 0x40 MLOAD PUSH4 0x1E4FBDF7 PUSH1 0xE0 SHL DUP2 MSTORE PUSH1 0x0 PUSH1 0x4 DUP3 ADD MSTORE PUSH1 0x24 SWAP1 REVERT JUMPDEST PUSH1 0x0 DUP1 REVERT JUMPDEST PUSH4 0x4E487B71 PUSH1 0xE0 SHL PUSH1 0x0 MSTORE PUSH1 0x41 PUSH1 0x4 MSTORE PUSH1 0x24 PUSH1 0x0 REVERT JUMPDEST MLOAD SWAP1 PUSH1 0x1 PUSH1 0x1 PUSH1 0xA0 SHL SUB DUP3 AND DUP3 SUB PUSH2 0x129 JUMPI JUMP INVALID PUSH1 0x80 DUP1 PUSH1 0x40 MSTORE PUSH1 0x4 CALLDATASIZE LT ISZERO PUSH2 0x13 JUMPI PUSH1 0x0 DUP1 REVERT JUMPDEST PUSH1 0x0 CALLDATALOAD PUSH1 0xE0 SHR SWAP1 DUP2 PUSH4 0x1BEA83FE EQ PUSH2 0xD13 JUMPI POP DUP1 PUSH4 0x40EC97C6 EQ PUSH2 0xCE2 JUMPI DUP1 PUSH4 0x55B6CCE1 EQ PUSH2 0xCB1 JUMPI DUP1 PUSH4 0x715018A6 EQ PUSH2 0xC4C JUMPI DUP1 PUSH4 0x79BA5097 EQ PUSH2 0xBC8 JUMPI DUP1 PUSH4 0x8D95C2CF EQ PUSH2 0xB91 JUMPI DUP1 PUSH4 0x8DA5CB5B EQ PUSH2 0xB68 JUMPI DUP1 PUSH4 0xACB47670 EQ PUSH2 0xB23 JUMPI DUP1 PUSH4 0xC006EE2D EQ PUSH2 0x59C JUMPI DUP1 PUSH4 0xC6005893 EQ PUSH2 0x56D JUMPI DUP1 PUSH4 0xC74C0FAC EQ PUSH2 0x53E JUMPI DUP1 PUSH4 0xD2D6A872 EQ PUSH2 0x23E JUMPI DUP1 PUSH4 0xDE061D66 EQ PUSH2 0x1F9 JUMPI DUP1 PUSH4 0xE30C3978 EQ PUSH2 0x1D0 JUMPI DUP1 PUSH4 0xE75179A4 EQ PUSH2 0x192 JUMPI DUP1 PUSH4 0xF2FDE38B EQ PUSH2 0x124 JUMPI PUSH4 0xFEAA524D EQ PUSH2 0xDA JUMPI PUSH1 0x0 DUP1 REVERT JUMPDEST CALLVALUE PUSH2 0x11F JUMPI PUSH1 0x0 CALLDATASIZE PUSH1 0x3 NOT ADD SLT PUSH2 0x11F JUMPI PUSH1 0x40 MLOAD PUSH32 0x0 PUSH1 0x1 PUSH1 0x1 PUSH1 0xA0 SHL SUB AND DUP2 MSTORE PUSH1 0x20 SWAP1 RETURN JUMPDEST PUSH1 0x0 DUP1 REVERT JUMPDEST CALLVALUE PUSH2 0x11F JUMPI PUSH1 0x20 CALLDATASIZE PUSH1 0x3 NOT ADD SLT PUSH2 0x11F JUMPI PUSH1 0x4 CALLDATALOAD PUSH1 0x1 PUSH1 0x1 PUSH1 0xA0 SHL SUB DUP2 DUP2 AND SWAP2 DUP3 SWAP1 SUB PUSH2 0x11F JUMPI PUSH2 0x153 PUSH2 0xD8D JUMP JUMPDEST DUP2 PUSH1 0x1 PUSH1 0x1 PUSH1 0x60 SHL SUB PUSH1 0xA0 SHL PUSH1 0x1 SLOAD AND OR PUSH1 0x1 SSTORE PUSH1 0x0 SLOAD AND PUSH32 0x38D16B8CAC22D99FC7C124B9CD0DE2D3FA1FAEF420BFE791D8C362D765E22700 PUSH1 0x0 DUP1 LOG3 STOP JUMPDEST CALLVALUE PUSH2 0x11F JUMPI PUSH1 0x20 CALLDATASIZE PUSH1 0x3 NOT ADD SLT PUSH2 0x11F JUMPI PUSH1 0x4 CALLDATALOAD PUSH1 0x1 PUSH1 0x1 PUSH1 0xA0 SHL SUB DUP2 AND SWAP1 DUP2 SWAP1 SUB PUSH2 0x11F JUMPI PUSH1 0x0 MSTORE PUSH1 0x4 PUSH1 0x20 MSTORE PUSH1 0x20 PUSH1 0x40 PUSH1 0x0 KECCAK256 SLOAD PUSH1 0x40 MLOAD SWAP1 DUP2 MSTORE RETURN JUMPDEST CALLVALUE PUSH2 0x11F JUMPI PUSH1 0x0 CALLDATASIZE PUSH1 0x3 NOT ADD SLT PUSH2 0x11F JUMPI PUSH1 0x1 SLOAD PUSH1 0x40 MLOAD PUSH1 0x1 PUSH1 0x1 PUSH1 0xA0 SHL SUB SWAP1 SWAP2 AND DUP2 MSTORE PUSH1 0x20 SWAP1 RETURN JUMPDEST CALLVALUE PUSH2 0x11F JUMPI PUSH1 0x0 CALLDATASIZE PUSH1 0x3 NOT ADD SLT PUSH2 0x11F JUMPI PUSH1 0x40 MLOAD PUSH32 0x0 PUSH1 0x1 PUSH1 0x1 PUSH1 0xA0 SHL SUB AND DUP2 MSTORE PUSH1 0x20 SWAP1 RETURN JUMPDEST CALLVALUE PUSH2 0x11F JUMPI PUSH1 0x20 DUP1 PUSH1 0x3 NOT CALLDATASIZE ADD SLT PUSH2 0x11F JUMPI PUSH1 0x4 CALLDATALOAD PUSH2 0x25B PUSH2 0xD8D JUMP JUMPDEST DUP1 PUSH1 0x0 MSTORE PUSH1 0x2 DUP3 MSTORE PUSH1 0xFF PUSH1 0x40 PUSH1 0x0 KECCAK256 SLOAD AND PUSH2 0x507 JUMPI PUSH1 0x5 SLOAD PUSH9 0x10000000000000000 DUP2 LT ISZERO PUSH2 0x4F1 JUMPI DUP1 PUSH1 0x1 PUSH2 0x294 SWAP3 ADD PUSH1 0x5 SSTORE PUSH2 0xD40 JUMP JUMPDEST DUP2 SLOAD SWAP1 PUSH1 0x3 SHL SWAP1 DUP4 DUP3 SHL SWAP2 PUSH1 0x0 NOT SWAP1 SHL NOT AND OR SWAP1 SSTORE DUP1 PUSH1 0x0 MSTORE PUSH1 0x2 DUP3 MSTORE PUSH1 0x40 PUSH1 0x0 KECCAK256 SWAP2 PUSH1 0xFF NOT SWAP3 PUSH1 0x1 DUP5 DUP3 SLOAD AND OR SWAP1 SSTORE PUSH1 0x40 MLOAD SWAP1 PUSH4 0x133F7571 PUSH1 0xE3 SHL DUP3 MSTORE DUP3 PUSH1 0x4 DUP4 ADD MSTORE PUSH2 0x180 DUP1 DUP4 PUSH1 0x24 DUP2 PUSH20 0xEC12A9F9A09F50550686363766CC153D03C27B5E GAS STATICCALL SWAP3 DUP4 ISZERO PUSH2 0x461 JUMPI PUSH1 0x0 DUP1 SWAP2 PUSH1 0x0 SWAP1 PUSH1 0x0 SWAP5 PUSH1 0x0 SWAP8 PUSH2 0x4A7 JUMPI JUMPDEST POP POP PUSH1 0x40 MLOAD PUSH4 0xB4C7741 PUSH1 0xE1 SHL DUP2 MSTORE PUSH1 0x1 PUSH1 0x1 PUSH1 0xA0 SHL SUB SWAP3 DUP4 AND PUSH1 0x4 DUP3 ADD MSTORE SWAP3 DUP3 AND PUSH1 0x24 DUP5 ADD MSTORE PUSH3 0xFFFFFF AND PUSH1 0x44 DUP4 ADD MSTORE SWAP1 DUP4 DUP2 PUSH1 0x64 DUP2 PUSH20 0x7A5028BDA40E7B173C278C5342087826455EA25A GAS STATICCALL DUP1 ISZERO PUSH2 0x461 JUMPI DUP3 SWAP2 PUSH1 0x0 SWAP2 PUSH2 0x46D JUMPI JUMPDEST POP PUSH1 0xE0 SWAP1 PUSH1 0x4 PUSH1 0x40 MLOAD DUP1 SWAP5 DUP2 SWAP4 PUSH4 0x3850C7BD DUP7 SHL DUP4 MSTORE AND GAS STATICCALL SWAP2 DUP3 ISZERO PUSH2 0x461 JUMPI PUSH1 0x0 SWAP3 PUSH2 0x3D9 JUMPI JUMPDEST POP POP PUSH1 0x2 SIGNEXTEND SWAP1 PUSH1 0x2 SIGNEXTEND DUP2 SLT ISZERO SWAP3 DUP4 PUSH2 0x3CA JUMPI JUMPDEST POP POP PUSH1 0x3 SWAP2 SWAP3 PUSH1 0x0 MSTORE MSTORE PUSH1 0xFF PUSH1 0x40 PUSH1 0x0 KECCAK256 SWAP3 DUP4 SLOAD AND SWAP2 ISZERO ISZERO AND OR SWAP1 SSTORE PUSH1 0x0 DUP1 RETURN JUMPDEST PUSH1 0x2 SIGNEXTEND SLT ISZERO SWAP2 POP PUSH1 0x3 DUP6 PUSH2 0x3A9 JUMP JUMPDEST SWAP1 SWAP2 POP PUSH1 0xE0 DUP3 RETURNDATASIZE DUP3 GT PUSH2 0x459 JUMPI JUMPDEST DUP2 PUSH2 0x3F4 PUSH1 0xE0 SWAP4 DUP4 PUSH2 0xDA1 JUMP JUMPDEST DUP2 ADD SUB SLT PUSH2 0x11F JUMPI DUP2 MLOAD SWAP1 DUP2 AND SUB PUSH2 0x11F JUMPI PUSH1 0xC0 PUSH2 0x413 DUP5 DUP4 ADD PUSH2 0xDD7 JUMP JUMPDEST SWAP2 PUSH2 0x420 PUSH1 0x40 DUP3 ADD PUSH2 0xEA4 JUMP JUMPDEST POP PUSH2 0x42D PUSH1 0x60 DUP3 ADD PUSH2 0xEA4 JUMP JUMPDEST POP PUSH2 0x43A PUSH1 0x80 DUP3 ADD PUSH2 0xEA4 JUMP JUMPDEST POP PUSH2 0x447 PUSH1 0xA0 DUP3 ADD PUSH2 0xEA4 JUMP JUMPDEST POP ADD MLOAD DUP1 ISZERO ISZERO SUB PUSH2 0x11F JUMPI DUP7 DUP1 PUSH2 0x396 JUMP JUMPDEST RETURNDATASIZE SWAP2 POP PUSH2 0x3E7 JUMP JUMPDEST PUSH1 0x40 MLOAD RETURNDATASIZE PUSH1 0x0 DUP3 RETURNDATACOPY RETURNDATASIZE SWAP1 REVERT JUMPDEST DUP1 SWAP3 POP DUP6 DUP1 SWAP3 POP RETURNDATASIZE DUP4 GT PUSH2 0x4A0 JUMPI JUMPDEST PUSH2 0x486 DUP2 DUP4 PUSH2 0xDA1 JUMP JUMPDEST DUP2 ADD SUB SLT PUSH2 0x11F JUMPI PUSH1 0xE0 PUSH2 0x49A DUP4 SWAP3 PUSH2 0xDC3 JUMP JUMPDEST SWAP1 PUSH2 0x36E JUMP JUMPDEST POP RETURNDATASIZE PUSH2 0x47C JUMP JUMPDEST SWAP3 POP SWAP3 POP POP PUSH3 0xFFFFFF SWAP5 POP PUSH2 0x4D1 SWAP3 POP DUP1 RETURNDATASIZE LT PUSH2 0x4EA JUMPI JUMPDEST PUSH2 0x4C9 DUP2 DUP4 PUSH2 0xDA1 JUMP JUMPDEST DUP2 ADD SWAP1 PUSH2 0xDF9 JUMP JUMPDEST POP POP POP POP POP SWAP6 POP SWAP7 SWAP2 SWAP3 SWAP1 SWAP4 POP SWAP2 SWAP3 SWAP6 SWAP4 SWAP6 SWAP1 DUP10 PUSH2 0x310 JUMP JUMPDEST POP RETURNDATASIZE PUSH2 0x4BF JUMP JUMPDEST PUSH4 0x4E487B71 PUSH1 0xE0 SHL PUSH1 0x0 MSTORE PUSH1 0x41 PUSH1 0x4 MSTORE PUSH1 0x24 PUSH1 0x0 REVERT JUMPDEST PUSH1 0x40 MLOAD PUSH3 0x461BCD PUSH1 0xE5 SHL DUP2 MSTORE PUSH1 0x4 DUP2 ADD DUP4 SWAP1 MSTORE PUSH1 0xF PUSH1 0x24 DUP3 ADD MSTORE PUSH15 0x105B1C9958591E481B585B9859D959 PUSH1 0x8A SHL PUSH1 0x44 DUP3 ADD MSTORE PUSH1 0x64 SWAP1 REVERT JUMPDEST CALLVALUE PUSH2 0x11F JUMPI PUSH1 0x0 CALLDATASIZE PUSH1 0x3 NOT ADD SLT PUSH2 0x11F JUMPI PUSH1 0x20 PUSH1 0x40 MLOAD PUSH20 0x7A5028BDA40E7B173C278C5342087826455EA25A DUP2 MSTORE RETURN JUMPDEST CALLVALUE PUSH2 0x11F JUMPI PUSH1 0x0 CALLDATASIZE PUSH1 0x3 NOT ADD SLT PUSH2 0x11F JUMPI PUSH1 0x20 PUSH1 0x40 MLOAD PUSH20 0x91AD9E2E6E5ED44C1C66DB50E49A601F9F36CF6 DUP2 MSTORE RETURN JUMPDEST CALLVALUE PUSH2 0x11F JUMPI PUSH1 0x40 CALLDATASIZE PUSH1 0x3 NOT ADD SLT PUSH2 0x11F JUMPI PUSH1 0x4 CALLDATALOAD PUSH8 0xFFFFFFFFFFFFFFFF DUP2 GT PUSH2 0x11F JUMPI CALLDATASIZE PUSH1 0x23 DUP3 ADD SLT ISZERO PUSH2 0x11F JUMPI PUSH8 0xFFFFFFFFFFFFFFFF DUP2 PUSH1 0x4 ADD CALLDATALOAD GT PUSH2 0x11F JUMPI CALLDATASIZE PUSH1 0x24 DUP3 PUSH1 0x4 ADD CALLDATALOAD PUSH1 0x5 SHL DUP4 ADD ADD GT PUSH2 0x11F JUMPI PUSH2 0x5F8 PUSH2 0xD8D JUMP JUMPDEST PUSH1 0x0 SWAP1 PUSH1 0x0 JUMPDEST DUP2 PUSH1 0x4 ADD CALLDATALOAD DUP2 LT PUSH2 0x8BC JUMPI POP DUP2 PUSH1 0x1 SHL DUP3 DUP2 DIV PUSH1 0x2 EQ DUP4 ISZERO OR ISZERO PUSH2 0x8A6 JUMPI PUSH1 0x64 SWAP1 DIV SWAP2 PUSH1 0x1 DUP1 PUSH1 0xA0 SHL SUB PUSH32 0x0 AND PUSH1 0x0 MSTORE PUSH1 0x4 PUSH1 0x20 MSTORE PUSH1 0x40 PUSH1 0x0 KECCAK256 PUSH2 0x662 DUP5 DUP3 SLOAD PUSH2 0xED2 JUMP JUMPDEST SWAP1 SSTORE DUP3 DUP2 SUB SWAP3 DUP2 DUP5 GT PUSH2 0x8A6 JUMPI EQ PUSH1 0x28 DUP4 DUP2 MUL SWAP1 DUP5 DUP3 DIV EQ DUP3 OR ISZERO PUSH2 0x8A6 JUMPI PUSH2 0x6D3 SWAP1 PUSH1 0x64 PUSH1 0x24 CALLDATALOAD SWAP2 DIV PUSH32 0x0 PUSH32 0x0 PUSH2 0xEFF JUMP JUMPDEST POP PUSH1 0x1E DUP4 MUL SWAP3 DUP4 DIV PUSH1 0x1E EQ OR ISZERO PUSH2 0x8A6 JUMPI PUSH2 0x735 PUSH1 0x24 CALLDATALOAD PUSH1 0x64 DUP5 DIV PUSH32 0x0 PUSH32 0x0 PUSH2 0xEFF JUMP JUMPDEST POP PUSH1 0x0 JUMPDEST DUP2 PUSH1 0x4 ADD CALLDATALOAD DUP2 LT PUSH2 0x746 JUMPI STOP JUMPDEST PUSH2 0x758 DUP2 DUP4 PUSH1 0x4 ADD CALLDATALOAD PUSH1 0x24 DUP6 ADD PUSH2 0xEC2 JUMP JUMPDEST CALLDATALOAD PUSH1 0x0 MSTORE PUSH1 0x3 PUSH1 0x20 MSTORE PUSH1 0xFF PUSH1 0x40 PUSH1 0x0 KECCAK256 SLOAD AND PUSH2 0x77D JUMPI JUMPDEST PUSH2 0x778 SWAP1 PUSH2 0xEB3 JUMP JUMPDEST PUSH2 0x739 JUMP JUMPDEST PUSH2 0x78F DUP2 DUP4 PUSH1 0x4 ADD CALLDATALOAD PUSH1 0x24 DUP6 ADD PUSH2 0xEC2 JUMP JUMPDEST CALLDATALOAD SWAP1 PUSH2 0x7A2 DUP4 PUSH1 0x4 ADD CALLDATALOAD PUSH1 0x64 DUP7 DIV PUSH2 0xEDF JUMP JUMPDEST PUSH2 0x7B3 DUP5 PUSH1 0x4 ADD CALLDATALOAD PUSH1 0x64 DUP8 DIV PUSH2 0xEDF JUMP JUMPDEST SWAP1 PUSH1 0x40 MLOAD SWAP4 DUP5 PUSH1 0xC0 DUP2 ADD LT PUSH8 0xFFFFFFFFFFFFFFFF PUSH1 0xC0 DUP8 ADD GT OR PUSH2 0x4F1 JUMPI PUSH1 0xC0 DUP6 ADD PUSH1 0x40 MSTORE DUP5 MSTORE PUSH1 0x20 DUP5 ADD MSTORE PUSH1 0x40 DUP4 ADD MSTORE PUSH1 0x0 PUSH1 0x60 DUP4 ADD MSTORE PUSH1 0x0 PUSH1 0x80 DUP4 ADD MSTORE PUSH1 0x24 CALLDATALOAD PUSH1 0xA0 DUP4 ADD MSTORE PUSH20 0xEC12A9F9A09F50550686363766CC153D03C27B5E EXTCODESIZE ISZERO PUSH2 0x11F JUMPI PUSH1 0xA0 PUSH1 0x40 MLOAD SWAP3 PUSH4 0x219F5D17 PUSH1 0xE0 SHL DUP5 MSTORE DUP1 MLOAD PUSH1 0x4 DUP6 ADD MSTORE PUSH1 0x20 DUP2 ADD MLOAD PUSH1 0x24 DUP6 ADD MSTORE PUSH1 0x40 DUP2 ADD MLOAD PUSH1 0x44 DUP6 ADD MSTORE PUSH1 0x60 DUP2 ADD MLOAD PUSH1 0x64 DUP6 ADD MSTORE PUSH1 0x80 DUP2 ADD MLOAD PUSH1 0x84 DUP6 ADD MSTORE ADD MLOAD PUSH1 0xA4 DUP4 ADD MSTORE PUSH1 0x0 DUP3 PUSH1 0xC4 DUP2 DUP4 PUSH20 0xEC12A9F9A09F50550686363766CC153D03C27B5E GAS CALL DUP1 ISZERO PUSH2 0x461 JUMPI PUSH2 0x88B JUMPI JUMPDEST SWAP1 POP PUSH2 0x76F JUMP JUMPDEST PUSH8 0xFFFFFFFFFFFFFFFF DUP3 GT PUSH2 0x4F1 JUMPI PUSH2 0x778 SWAP2 PUSH1 0x40 MSTORE PUSH2 0x884 JUMP JUMPDEST PUSH4 0x4E487B71 PUSH1 0xE0 SHL PUSH1 0x0 MSTORE PUSH1 0x11 PUSH1 0x4 MSTORE PUSH1 0x24 PUSH1 0x0 REVERT JUMPDEST SWAP2 PUSH2 0x8CF DUP4 DUP4 PUSH1 0x4 ADD CALLDATALOAD PUSH1 0x24 DUP6 ADD PUSH2 0xEC2 JUMP JUMPDEST CALLDATALOAD SWAP1 DUP2 PUSH1 0x0 MSTORE PUSH1 0x2 PUSH1 0x20 MSTORE PUSH1 0xFF PUSH1 0x40 PUSH1 0x0 KECCAK256 SLOAD AND ISZERO PUSH2 0xAF0 JUMPI PUSH1 0x40 MLOAD PUSH4 0x133F7571 PUSH1 0xE3 SHL DUP2 MSTORE PUSH1 0x4 DUP2 ADD DUP4 SWAP1 MSTORE PUSH2 0x180 SWAP3 SWAP1 DUP4 DUP2 PUSH1 0x24 DUP2 PUSH20 0xEC12A9F9A09F50550686363766CC153D03C27B5E GAS STATICCALL SWAP4 DUP5 ISZERO PUSH2 0x461 JUMPI PUSH1 0x0 SWAP5 PUSH2 0xAC5 JUMPI JUMPDEST POP POP PUSH1 0x40 MLOAD SWAP1 PUSH1 0x80 DUP3 ADD DUP3 DUP2 LT PUSH8 0xFFFFFFFFFFFFFFFF DUP3 GT OR PUSH2 0x4F1 JUMPI PUSH1 0x40 SWAP1 DUP2 MSTORE DUP2 DUP4 MSTORE ADDRESS PUSH1 0x20 DUP5 ADD SWAP1 DUP2 MSTORE PUSH1 0x1 PUSH1 0x1 PUSH1 0x80 SHL SUB DUP5 DUP4 ADD DUP2 DUP2 MSTORE PUSH1 0x60 DUP1 DUP8 ADD DUP4 DUP2 MSTORE DUP6 MLOAD PUSH4 0xFC6F7865 PUSH1 0xE0 SHL DUP2 MSTORE SWAP8 MLOAD PUSH1 0x4 DUP10 ADD MSTORE SWAP4 MLOAD PUSH1 0x1 PUSH1 0x1 PUSH1 0xA0 SHL SUB AND PUSH1 0x24 DUP9 ADD MSTORE SWAP1 MLOAD DUP3 AND PUSH1 0x44 DUP8 ADD MSTORE SWAP2 MLOAD AND PUSH1 0x64 DUP6 ADD MSTORE SWAP1 DUP4 PUSH1 0x84 DUP2 PUSH1 0x0 PUSH20 0xEC12A9F9A09F50550686363766CC153D03C27B5E GAS CALL SWAP2 DUP3 ISZERO PUSH2 0x461 JUMPI PUSH1 0x0 SWAP4 PUSH1 0x0 SWAP4 PUSH2 0xA62 JUMPI JUMPDEST POP SWAP5 PUSH32 0xA54E6C2FC0861AA9C991B26891D71059D517983B9E84B91020F42609C452EB9D PUSH2 0xA4F SWAP6 SWAP5 SWAP4 SWAP3 PUSH2 0xA55 SWAP8 PUSH1 0x40 MLOAD SWAP1 DUP2 MSTORE DUP6 PUSH1 0x20 DUP3 ADD MSTORE DUP5 PUSH1 0x40 DUP3 ADD MSTORE LOG1 PUSH1 0x1 PUSH1 0x1 PUSH1 0xA0 SHL SUB SWAP1 DUP2 AND PUSH32 0x0 SWAP1 SWAP2 AND SUB PUSH2 0xA5A JUMPI POP SWAP1 PUSH2 0xED2 JUMP JUMPDEST SWAP3 PUSH2 0xEB3 JUMP JUMPDEST PUSH2 0x5FE JUMP JUMPDEST SWAP1 POP SWAP1 PUSH2 0xED2 JUMP JUMPDEST SWAP3 POP SWAP1 SWAP4 SWAP3 POP PUSH1 0x40 DUP3 RETURNDATASIZE PUSH1 0x40 GT PUSH2 0xABD JUMPI JUMPDEST DUP2 PUSH2 0xA81 PUSH1 0x40 SWAP4 DUP4 PUSH2 0xDA1 JUMP JUMPDEST DUP2 ADD SUB SLT PUSH2 0x11F JUMPI DUP2 MLOAD PUSH1 0x20 SWAP1 SWAP3 ADD MLOAD SWAP3 SWAP4 SWAP2 SWAP3 SWAP2 SWAP1 PUSH32 0xA54E6C2FC0861AA9C991B26891D71059D517983B9E84B91020F42609C452EB9D PUSH2 0x9D3 JUMP JUMPDEST RETURNDATASIZE SWAP2 POP PUSH2 0xA74 JUMP JUMPDEST PUSH2 0xADC SWAP3 SWAP5 POP DUP1 RETURNDATASIZE LT PUSH2 0x4EA JUMPI PUSH2 0x4C9 DUP2 DUP4 PUSH2 0xDA1 JUMP JUMPDEST POP POP POP POP POP POP POP POP POP SWAP2 POP POP SWAP2 DUP6 DUP1 PUSH2 0x92C JUMP JUMPDEST PUSH1 0x40 MLOAD PUSH3 0x461BCD PUSH1 0xE5 SHL DUP2 MSTORE PUSH1 0x20 PUSH1 0x4 DUP3 ADD MSTORE PUSH1 0xB PUSH1 0x24 DUP3 ADD MSTORE PUSH11 0x139BDD081B585B9859D959 PUSH1 0xAA SHL PUSH1 0x44 DUP3 ADD MSTORE PUSH1 0x64 SWAP1 REVERT JUMPDEST CALLVALUE PUSH2 0x11F JUMPI PUSH1 0x0 CALLDATASIZE PUSH1 0x3 NOT ADD SLT PUSH2 0x11F JUMPI PUSH1 0x40 MLOAD PUSH32 0x0 PUSH1 0x1 PUSH1 0x1 PUSH1 0xA0 SHL SUB AND DUP2 MSTORE PUSH1 0x20 SWAP1 RETURN JUMPDEST CALLVALUE PUSH2 0x11F JUMPI PUSH1 0x0 CALLDATASIZE PUSH1 0x3 NOT ADD SLT PUSH2 0x11F JUMPI PUSH1 0x0 SLOAD PUSH1 0x40 MLOAD PUSH1 0x1 PUSH1 0x1 PUSH1 0xA0 SHL SUB SWAP1 SWAP2 AND DUP2 MSTORE PUSH1 0x20 SWAP1 RETURN JUMPDEST CALLVALUE PUSH2 0x11F JUMPI PUSH1 0x20 CALLDATASIZE PUSH1 0x3 NOT ADD SLT PUSH2 0x11F JUMPI PUSH1 0x4 CALLDATALOAD PUSH1 0x5 SLOAD DUP2 LT ISZERO PUSH2 0x11F JUMPI PUSH2 0xBBA PUSH1 0x20 SWAP2 PUSH2 0xD40 JUMP JUMPDEST SWAP1 SLOAD PUSH1 0x40 MLOAD SWAP2 PUSH1 0x3 SHL SHR DUP2 MSTORE RETURN JUMPDEST CALLVALUE PUSH2 0x11F JUMPI PUSH1 0x0 CALLDATASIZE PUSH1 0x3 NOT ADD SLT PUSH2 0x11F JUMPI PUSH1 0x1 SLOAD PUSH1 0x1 PUSH1 0x1 PUSH1 0xA0 SHL SUB CALLER DUP2 DUP4 AND SUB PUSH2 0xC34 JUMPI PUSH1 0x1 PUSH1 0x1 PUSH1 0x60 SHL SUB PUSH1 0xA0 SHL DUP1 SWAP3 AND PUSH1 0x1 SSTORE PUSH1 0x0 SLOAD SWAP2 CALLER SWAP1 DUP4 AND OR PUSH1 0x0 SSTORE CALLER SWAP2 AND PUSH32 0x8BE0079C531659141344CD1FD0A4F28419497F9722A3DAAFE3B4186F6B6457E0 PUSH1 0x0 DUP1 LOG3 STOP JUMPDEST PUSH1 0x40 MLOAD PUSH4 0x118CDAA7 PUSH1 0xE0 SHL DUP2 MSTORE CALLER PUSH1 0x4 DUP3 ADD MSTORE PUSH1 0x24 SWAP1 REVERT JUMPDEST CALLVALUE PUSH2 0x11F JUMPI PUSH1 0x0 CALLDATASIZE PUSH1 0x3 NOT ADD SLT PUSH2 0x11F JUMPI PUSH2 0xC65 PUSH2 0xD8D JUMP JUMPDEST PUSH1 0x1 DUP1 SLOAD PUSH1 0x1 PUSH1 0x1 PUSH1 0xA0 SHL SUB NOT SWAP1 DUP2 AND SWAP1 SWAP2 SSTORE PUSH1 0x0 DUP1 SLOAD SWAP2 DUP3 AND DUP2 SSTORE SWAP1 PUSH1 0x1 PUSH1 0x1 PUSH1 0xA0 SHL SUB AND PUSH32 0x8BE0079C531659141344CD1FD0A4F28419497F9722A3DAAFE3B4186F6B6457E0 DUP3 DUP1 LOG3 STOP JUMPDEST CALLVALUE PUSH2 0x11F JUMPI PUSH1 0x20 CALLDATASIZE PUSH1 0x3 NOT ADD SLT PUSH2 0x11F JUMPI PUSH1 0x4 CALLDATALOAD PUSH1 0x0 MSTORE PUSH1 0x2 PUSH1 0x20 MSTORE PUSH1 0x20 PUSH1 0xFF PUSH1 0x40 PUSH1 0x0 KECCAK256 SLOAD AND PUSH1 0x40 MLOAD SWAP1 ISZERO ISZERO DUP2 MSTORE RETURN JUMPDEST CALLVALUE PUSH2 0x11F JUMPI PUSH1 0x20 CALLDATASIZE PUSH1 0x3 NOT ADD SLT PUSH2 0x11F JUMPI PUSH1 0x4 CALLDATALOAD PUSH1 0x0 MSTORE PUSH1 0x3 PUSH1 0x20 MSTORE PUSH1 0x20 PUSH1 0xFF PUSH1 0x40 PUSH1 0x0 KECCAK256 SLOAD AND PUSH1 0x40 MLOAD SWAP1 ISZERO ISZERO DUP2 MSTORE RETURN JUMPDEST CALLVALUE PUSH2 0x11F JUMPI PUSH1 0x0 CALLDATASIZE PUSH1 0x3 NOT ADD SLT PUSH2 0x11F JUMPI DUP1 PUSH20 0xEC12A9F9A09F50550686363766CC153D03C27B5E PUSH1 0x20 SWAP3 MSTORE RETURN JUMPDEST PUSH1 0x5 SLOAD DUP2 LT ISZERO PUSH2 0xD77 JUMPI PUSH1 0x5 PUSH1 0x0 MSTORE PUSH32 0x36B6384B5ECA791C62761152D0C79BB0604C104A5FB6F4EB0703F3154BB3DB0 ADD SWAP1 PUSH1 0x0 SWAP1 JUMP JUMPDEST PUSH4 0x4E487B71 PUSH1 0xE0 SHL PUSH1 0x0 MSTORE PUSH1 0x32 PUSH1 0x4 MSTORE PUSH1 0x24 PUSH1 0x0 REVERT JUMPDEST PUSH1 0x0 SLOAD PUSH1 0x1 PUSH1 0x1 PUSH1 0xA0 SHL SUB AND CALLER SUB PUSH2 0xC34 JUMPI JUMP JUMPDEST SWAP1 PUSH1 0x1F DUP1 NOT SWAP2 ADD AND DUP2 ADD SWAP1 DUP2 LT PUSH8 0xFFFFFFFFFFFFFFFF DUP3 GT OR PUSH2 0x4F1 JUMPI PUSH1 0x40 MSTORE JUMP JUMPDEST MLOAD SWAP1 PUSH1 0x1 PUSH1 0x1 PUSH1 0xA0 SHL SUB DUP3 AND DUP3 SUB PUSH2 0x11F JUMPI JUMP JUMPDEST MLOAD SWAP1 DUP2 PUSH1 0x2 SIGNEXTEND DUP3 SUB PUSH2 0x11F JUMPI JUMP JUMPDEST MLOAD SWAP1 PUSH1 0x1 PUSH1 0x1 PUSH1 0x80 SHL SUB DUP3 AND DUP3 SUB PUSH2 0x11F JUMPI JUMP JUMPDEST SWAP2 SWAP1 DUP3 PUSH2 0x180 SWAP2 SUB SLT PUSH2 0x11F JUMPI DUP2 MLOAD PUSH1 0x1 PUSH1 0x1 PUSH1 0x60 SHL SUB DUP2 AND DUP2 SUB PUSH2 0x11F JUMPI SWAP2 PUSH2 0xE25 PUSH1 0x20 DUP3 ADD PUSH2 0xDC3 JUMP JUMPDEST SWAP2 PUSH2 0xE32 PUSH1 0x40 DUP4 ADD PUSH2 0xDC3 JUMP JUMPDEST SWAP2 PUSH2 0xE3F PUSH1 0x60 DUP3 ADD PUSH2 0xDC3 JUMP JUMPDEST SWAP2 PUSH1 0x80 DUP3 ADD MLOAD PUSH3 0xFFFFFF DUP2 AND DUP2 SUB PUSH2 0x11F JUMPI SWAP2 PUSH2 0xE5E PUSH1 0xA0 DUP3 ADD PUSH2 0xDD7 JUMP JUMPDEST SWAP2 PUSH2 0xE6B PUSH1 0xC0 DUP4 ADD PUSH2 0xDD7 JUMP JUMPDEST SWAP2 PUSH2 0xE78 PUSH1 0xE0 DUP3 ADD PUSH2 0xDE5 JUMP JUMPDEST SWAP2 PUSH2 0x100 DUP3 ADD MLOAD SWAP2 PUSH2 0x120 DUP2 ADD MLOAD SWAP2 PUSH2 0xEA1 PUSH2 0x160 PUSH2 0xE9A PUSH2 0x140 DUP6 ADD PUSH2 0xDE5 JUMP JUMPDEST SWAP4 ADD PUSH2 0xDE5 JUMP JUMPDEST SWAP1 JUMP JUMPDEST MLOAD SWAP1 PUSH2 0xFFFF DUP3 AND DUP3 SUB PUSH2 0x11F JUMPI JUMP JUMPDEST PUSH1 0x0 NOT DUP2 EQ PUSH2 0x8A6 JUMPI PUSH1 0x1 ADD SWAP1 JUMP JUMPDEST SWAP2 SWAP1 DUP2 LT ISZERO PUSH2 0xD77 JUMPI PUSH1 0x5 SHL ADD SWAP1 JUMP JUMPDEST SWAP2 SWAP1 DUP3 ADD DUP1 SWAP3 GT PUSH2 0x8A6 JUMPI JUMP JUMPDEST DUP2 ISZERO PUSH2 0xEE9 JUMPI DIV SWAP1 JUMP JUMPDEST PUSH4 0x4E487B71 PUSH1 0xE0 SHL PUSH1 0x0 MSTORE PUSH1 0x12 PUSH1 0x4 MSTORE PUSH1 0x24 PUSH1 0x0 REVERT JUMPDEST PUSH1 0x40 MLOAD PUSH4 0x95EA7B3 PUSH1 0xE0 SHL PUSH1 0x0 DUP2 DUP2 MSTORE PUSH20 0x91AD9E2E6E5ED44C1C66DB50E49A601F9F36CF6 PUSH1 0x4 MSTORE PUSH1 0x24 DUP2 SWAP1 MSTORE PUSH1 0x1 PUSH1 0x1 PUSH1 0xA0 SHL SUB SWAP1 SWAP4 AND SWAP6 SWAP4 SWAP3 SWAP1 SWAP2 SWAP1 PUSH1 0x20 SWAP1 PUSH1 0x44 DUP2 DUP1 DUP11 GAS CALL SWAP1 PUSH1 0x1 PUSH1 0x0 MLOAD EQ DUP3 AND ISZERO PUSH2 0x119F JUMPI JUMPDEST PUSH1 0x40 MSTORE ISZERO PUSH2 0x116B JUMPI JUMPDEST PUSH1 0x0 PUSH1 0x20 PUSH1 0x40 MLOAD SWAP2 DUP4 DUP2 MSTORE PUSH20 0x91AD9E2E6E5ED44C1C66DB50E49A601F9F36CF6 PUSH1 0x4 MSTORE DUP7 PUSH1 0x24 MSTORE PUSH1 0x44 DUP2 DUP1 DUP11 GAS CALL SWAP1 PUSH1 0x1 PUSH1 0x0 MLOAD EQ DUP3 AND ISZERO PUSH2 0x115C JUMPI JUMPDEST PUSH1 0x40 MSTORE ISZERO PUSH2 0x10BC JUMPI JUMPDEST POP PUSH1 0x40 MLOAD SWAP4 PUSH2 0x100 DUP6 ADD DUP6 DUP2 LT PUSH8 0xFFFFFFFFFFFFFFFF DUP3 GT OR PUSH2 0x4F1 JUMPI PUSH1 0x40 SWAP1 DUP2 MSTORE SWAP1 DUP6 MSTORE PUSH1 0x1 PUSH1 0x1 PUSH1 0xA0 SHL SUB SWAP2 DUP3 AND PUSH1 0x20 DUP1 DUP8 ADD SWAP2 DUP3 MSTORE PUSH2 0xBB8 DUP8 DUP5 ADD SWAP1 DUP2 MSTORE ADDRESS PUSH1 0x60 DUP10 ADD SWAP1 DUP2 MSTORE PUSH1 0x80 DUP10 ADD SWAP7 DUP8 MSTORE PUSH1 0xA0 DUP10 ADD SWAP8 DUP9 MSTORE PUSH1 0x0 PUSH1 0xC0 DUP11 ADD DUP2 DUP2 MSTORE PUSH1 0xE0 DUP12 ADD DUP3 DUP2 MSTORE SWAP7 MLOAD PUSH4 0x414BF389 PUSH1 0xE0 SHL DUP2 MSTORE SWAP11 MLOAD DUP9 AND PUSH1 0x4 DUP13 ADD MSTORE SWAP5 MLOAD DUP8 AND PUSH1 0x24 DUP12 ADD MSTORE SWAP2 MLOAD PUSH3 0xFFFFFF AND PUSH1 0x44 DUP11 ADD MSTORE MLOAD DUP6 AND PUSH1 0x64 DUP10 ADD MSTORE SWAP5 MLOAD PUSH1 0x84 DUP9 ADD MSTORE SWAP5 MLOAD PUSH1 0xA4 DUP8 ADD MSTORE MLOAD PUSH1 0xC4 DUP7 ADD MSTORE MLOAD AND PUSH1 0xE4 DUP5 ADD MSTORE DUP3 SWAP1 PUSH2 0x104 SWAP1 DUP3 SWAP1 PUSH20 0x91AD9E2E6E5ED44C1C66DB50E49A601F9F36CF6 GAS CALL SWAP1 DUP2 ISZERO PUSH2 0x461 JUMPI PUSH1 0x0 SWAP2 PUSH2 0x108A JUMPI POP SWAP1 JUMP JUMPDEST SWAP1 PUSH1 0x20 DUP3 RETURNDATASIZE PUSH1 0x20 GT PUSH2 0x10B4 JUMPI JUMPDEST DUP2 PUSH2 0x10A4 PUSH1 0x20 SWAP4 DUP4 PUSH2 0xDA1 JUMP JUMPDEST DUP2 ADD SUB SLT PUSH2 0x10B1 JUMPI POP MLOAD SWAP1 JUMP JUMPDEST DUP1 REVERT JUMPDEST RETURNDATASIZE SWAP2 POP PUSH2 0x1097 JUMP JUMPDEST PUSH2 0x10C5 DUP6 PUSH2 0x11AE JUMP JUMPDEST ISZERO PUSH2 0x1143 JUMPI PUSH1 0x20 PUSH1 0x0 PUSH1 0x40 MLOAD SWAP3 DUP2 MSTORE PUSH20 0x91AD9E2E6E5ED44C1C66DB50E49A601F9F36CF6 PUSH1 0x4 MSTORE DUP6 PUSH1 0x24 MSTORE PUSH1 0x44 DUP2 DUP1 DUP10 GAS CALL PUSH1 0x1 PUSH1 0x0 MLOAD EQ DUP2 AND ISZERO PUSH2 0x1123 JUMPI JUMPDEST DUP2 PUSH1 0x40 MSTORE PUSH2 0xFA5 JUMPI PUSH4 0x5274AFE7 PUSH1 0xE0 SHL DUP2 MSTORE PUSH1 0x4 DUP2 ADD DUP6 SWAP1 MSTORE PUSH1 0x24 SWAP1 REVERT JUMPDEST PUSH1 0x1 DUP2 ISZERO AND PUSH2 0x1139 JUMPI DUP6 EXTCODESIZE ISZERO ISZERO RETURNDATASIZE ISZERO AND AND PUSH2 0x1105 JUMP JUMPDEST POP RETURNDATASIZE PUSH1 0x0 DUP3 RETURNDATACOPY RETURNDATASIZE SWAP1 REVERT JUMPDEST PUSH1 0x40 MLOAD PUSH4 0x5274AFE7 PUSH1 0xE0 SHL DUP2 MSTORE PUSH1 0x4 DUP2 ADD DUP7 SWAP1 MSTORE PUSH1 0x24 SWAP1 REVERT JUMPDEST SWAP1 DUP7 EXTCODESIZE ISZERO ISZERO RETURNDATASIZE ISZERO AND AND SWAP1 PUSH2 0xF9C JUMP JUMPDEST PUSH2 0x1174 DUP6 PUSH2 0x11AE JUMP JUMPDEST ISZERO PUSH2 0x1143 JUMPI PUSH2 0x1182 DUP6 PUSH2 0x11AE JUMP JUMPDEST PUSH2 0xF5F JUMPI PUSH1 0x40 MLOAD PUSH4 0x5274AFE7 PUSH1 0xE0 SHL DUP2 MSTORE PUSH1 0x4 DUP2 ADD DUP7 SWAP1 MSTORE PUSH1 0x24 SWAP1 REVERT JUMPDEST SWAP1 DUP7 EXTCODESIZE ISZERO ISZERO RETURNDATASIZE ISZERO AND AND SWAP1 PUSH2 0xF56 JUMP JUMPDEST SWAP1 PUSH1 0x40 MLOAD PUSH1 0x0 SWAP3 PUSH4 0x95EA7B3 PUSH1 0xE0 SHL DUP5 MSTORE PUSH20 0x91AD9E2E6E5ED44C1C66DB50E49A601F9F36CF6 PUSH1 0x4 MSTORE DUP4 PUSH1 0x24 MSTORE PUSH1 0x20 DUP5 PUSH1 0x44 DUP2 DUP1 DUP6 GAS CALL SWAP4 PUSH1 0x1 DUP2 MLOAD EQ DUP6 AND ISZERO PUSH2 0x11FA JUMPI JUMPDEST POP POP PUSH1 0x40 MSTORE JUMP JUMPDEST PUSH1 0x1 DUP6 SWAP4 SWAP6 ISZERO AND PUSH2 0x1215 JUMPI POP EXTCODESIZE ISZERO ISZERO RETURNDATASIZE ISZERO AND AND SWAP2 CODESIZE DUP1 PUSH2 0x11F3 JUMP JUMPDEST DUP5 SWAP1 RETURNDATASIZE SWAP1 DUP3 RETURNDATACOPY RETURNDATASIZE SWAP1 REVERT INVALID LOG2 PUSH5 0x6970667358 0x22 SLT KECCAK256 PUSH13 0xB4A15D2E61806B92FFF059D494 SUB SLT 0xD1 0xB1 CALL GT 0xBF 0xDB DUP12 0xDD LOG3 DUP5 0xE9 NOT 0x2F 0x4E PUSH30 0x4564736F6C63430008140033000000000000000000000000000000000000 "},"methodIdentifiers":{"BTCH2O()":"acb47670","H2O()":"feaa524d","POSITION_MANAGER()":"1bea83fe","SWAP_ROUTER()":"c6005893","UNISWAP_FACTORY()":"c74c0fac","WLD()":"de061d66","acceptOwnership()":"79ba5097","addPosition(uint256)":"d2d6a872","collectFees(uint256[],uint256)":"c006ee2d","inRange(uint256)":"40ec97c6","isManaged(uint256)":"55b6cce1","managedPositions(uint256)":"8d95c2cf","owner()":"8da5cb5b","pendingOwner()":"e30c3978","renounceOwnership()":"715018a6","reserve(address)":"e75179a4","transferOwnership(address)":"f2fde38b"}}}}}