{"contracts/AutoReinvestBotV6.sol":{"AutoReinvestBotV6":{"abi":[{"inputs":[{"internalType":"address","name":"_WLD","type":"address"},{"internalType":"address","name":"_timeToken","type":"address"},{"internalType":"address","name":"_timeStaking","type":"address"}],"stateMutability":"nonpayable","type":"constructor"},{"inputs":[],"name":"ReentrancyGuardReentrantCall","type":"error"},{"inputs":[{"internalType":"address","name":"token","type":"address"}],"name":"SafeERC20FailedOperation","type":"error"},{"anonymous":false,"inputs":[{"indexed":false,"internalType":"string","name":"key","type":"string"},{"indexed":false,"internalType":"uint256","name":"value","type":"uint256"}],"name":"ConfigUpdated","type":"event"},{"anonymous":false,"inputs":[{"indexed":false,"internalType":"bool","name":"isPaused","type":"bool"}],"name":"ContractPaused","type":"event"},{"anonymous":false,"inputs":[{"indexed":true,"internalType":"address","name":"token","type":"address"},{"indexed":false,"internalType":"uint256","name":"shareBps","type":"uint256"},{"indexed":false,"internalType":"uint24","name":"feeTier","type":"uint24"}],"name":"DistTokenAdded","type":"event"},{"anonymous":false,"inputs":[{"indexed":true,"internalType":"address","name":"token","type":"address"}],"name":"DistTokenRemoved","type":"event"},{"anonymous":false,"inputs":[{"indexed":true,"internalType":"uint256","name":"tokenId","type":"uint256"},{"indexed":false,"internalType":"address","name":"token0","type":"address"},{"indexed":false,"internalType":"address","name":"token1","type":"address"},{"indexed":false,"internalType":"uint256","name":"amount0","type":"uint256"},{"indexed":false,"internalType":"uint256","name":"amount1","type":"uint256"}],"name":"FeesCollected","type":"event"},{"anonymous":false,"inputs":[{"indexed":true,"internalType":"uint256","name":"tokenId","type":"uint256"},{"indexed":false,"internalType":"uint128","name":"liquidity","type":"uint128"}],"name":"LiquidityAdded","type":"event"},{"anonymous":false,"inputs":[{"indexed":true,"internalType":"address","name":"owner","type":"address"}],"name":"OwnerAdded","type":"event"},{"anonymous":false,"inputs":[{"indexed":true,"internalType":"address","name":"owner","type":"address"}],"name":"OwnerRemoved","type":"event"},{"anonymous":false,"inputs":[{"indexed":true,"internalType":"uint256","name":"tokenId","type":"uint256"}],"name":"PositionAdded","type":"event"},{"anonymous":false,"inputs":[{"indexed":true,"internalType":"uint256","name":"tokenId","type":"uint256"}],"name":"PositionRemoved","type":"event"},{"anonymous":false,"inputs":[{"indexed":false,"internalType":"uint256","name":"timestamp","type":"uint256"},{"indexed":false,"internalType":"uint256","name":"totalWLD","type":"uint256"}],"name":"ReinvestCompleted","type":"event"},{"anonymous":false,"inputs":[{"indexed":true,"internalType":"address","name":"token","type":"address"}],"name":"ReserveTokenAdded","type":"event"},{"anonymous":false,"inputs":[{"indexed":true,"internalType":"address","name":"token","type":"address"}],"name":"ReserveTokenRemoved","type":"event"},{"anonymous":false,"inputs":[{"indexed":true,"internalType":"address","name":"token","type":"address"},{"indexed":true,"internalType":"address","name":"to","type":"address"},{"indexed":false,"internalType":"uint256","name":"amount","type":"uint256"}],"name":"ReserveWithdrawn","type":"event"},{"anonymous":false,"inputs":[{"indexed":false,"internalType":"uint256","name":"wldAmount","type":"uint256"}],"name":"StakingRewardClaimed","type":"event"},{"anonymous":false,"inputs":[{"indexed":true,"internalType":"address","name":"tokenIn","type":"address"},{"indexed":true,"internalType":"address","name":"tokenOut","type":"address"},{"indexed":false,"internalType":"uint256","name":"amountIn","type":"uint256"}],"name":"SwapFailed","type":"event"},{"anonymous":false,"inputs":[{"indexed":true,"internalType":"address","name":"tokenIn","type":"address"},{"indexed":true,"internalType":"address","name":"tokenOut","type":"address"},{"indexed":false,"internalType":"uint256","name":"amountIn","type":"uint256"},{"indexed":false,"internalType":"uint256","name":"amountOut","type":"uint256"}],"name":"Swapped","type":"event"},{"anonymous":false,"inputs":[{"indexed":false,"internalType":"uint256","name":"amount","type":"uint256"}],"name":"TimeStaked","type":"event"},{"anonymous":false,"inputs":[{"indexed":false,"internalType":"uint256","name":"amount","type":"uint256"}],"name":"TimeUnstaked","type":"event"},{"anonymous":false,"inputs":[{"indexed":true,"internalType":"address","name":"token","type":"address"},{"indexed":false,"internalType":"uint256","name":"amount","type":"uint256"},{"indexed":true,"internalType":"address","name":"to","type":"address"}],"name":"TokenSwapped","type":"event"},{"inputs":[],"name":"POSITION_MANAGER","outputs":[{"internalType":"address","name":"","type":"address"}],"stateMutability":"view","type":"function"},{"inputs":[],"name":"SWAP_ROUTER","outputs":[{"internalType":"address","name":"","type":"address"}],"stateMutability":"view","type":"function"},{"inputs":[],"name":"TIME_STAKING","outputs":[{"internalType":"address","name":"","type":"address"}],"stateMutability":"view","type":"function"},{"inputs":[],"name":"TIME_TOKEN","outputs":[{"internalType":"address","name":"","type":"address"}],"stateMutability":"view","type":"function"},{"inputs":[],"name":"UNISWAP_FACTORY","outputs":[{"internalType":"address","name":"","type":"address"}],"stateMutability":"view","type":"function"},{"inputs":[],"name":"WLD","outputs":[{"internalType":"address","name":"","type":"address"}],"stateMutability":"view","type":"function"},{"inputs":[{"internalType":"address","name":"token","type":"address"},{"internalType":"uint256","name":"shareBps","type":"uint256"},{"internalType":"uint24","name":"feeTier","type":"uint24"}],"name":"addDistToken","outputs":[],"stateMutability":"nonpayable","type":"function"},{"inputs":[{"internalType":"address","name":"newOwner","type":"address"}],"name":"addOwner","outputs":[],"stateMutability":"nonpayable","type":"function"},{"inputs":[{"internalType":"uint256","name":"tokenId","type":"uint256"}],"name":"addPosition","outputs":[],"stateMutability":"nonpayable","type":"function"},{"inputs":[{"internalType":"address","name":"token","type":"address"}],"name":"addReserveToken","outputs":[],"stateMutability":"nonpayable","type":"function"},{"inputs":[{"internalType":"uint256","name":"deadline","type":"uint256"}],"name":"claimStakingRewards","outputs":[],"stateMutability":"nonpayable","type":"function"},{"inputs":[{"internalType":"uint256[]","name":"tokenIds","type":"uint256[]"},{"internalType":"uint256","name":"deadline","type":"uint256"}],"name":"collectAll","outputs":[],"stateMutability":"nonpayable","type":"function"},{"inputs":[{"internalType":"uint256","name":"deadline","type":"uint256"}],"name":"collectAllManaged","outputs":[],"stateMutability":"nonpayable","type":"function"},{"inputs":[{"internalType":"uint256[]","name":"tokenIds","type":"uint256[]"},{"internalType":"uint256","name":"deadline","type":"uint256"}],"name":"collectFees","outputs":[],"stateMutability":"nonpayable","type":"function"},{"inputs":[],"name":"defaultSwapFeeTier","outputs":[{"internalType":"uint24","name":"","type":"uint24"}],"stateMutability":"view","type":"function"},{"inputs":[{"internalType":"uint256","name":"","type":"uint256"}],"name":"distTokens","outputs":[{"internalType":"address","name":"token","type":"address"},{"internalType":"uint256","name":"shareBps","type":"uint256"},{"internalType":"uint24","name":"swapFeeTier","type":"uint24"}],"stateMutability":"view","type":"function"},{"inputs":[],"name":"getConfig","outputs":[{"internalType":"uint256","name":"_reinvestIntervalSecs","type":"uint256"},{"internalType":"uint256","name":"_reserveFeeBps","type":"uint256"},{"internalType":"uint256","name":"_slippageBps","type":"uint256"},{"internalType":"uint24","name":"_defaultSwapFeeTier","type":"uint24"},{"internalType":"bool","name":"_paused","type":"bool"},{"internalType":"uint256","name":"_lastReinvestAt","type":"uint256"}],"stateMutability":"view","type":"function"},{"inputs":[],"name":"getDistTokens","outputs":[{"components":[{"internalType":"address","name":"token","type":"address"},{"internalType":"uint256","name":"shareBps","type":"uint256"},{"internalType":"uint24","name":"swapFeeTier","type":"uint24"}],"internalType":"struct AutoReinvestBotV6.DistToken[]","name":"","type":"tuple[]"}],"stateMutability":"view","type":"function"},{"inputs":[],"name":"getManagedPositions","outputs":[{"internalType":"uint256[]","name":"","type":"uint256[]"}],"stateMutability":"view","type":"function"},{"inputs":[],"name":"getOwners","outputs":[{"internalType":"address[]","name":"","type":"address[]"}],"stateMutability":"view","type":"function"},{"inputs":[{"internalType":"address","name":"tokenA","type":"address"},{"internalType":"address","name":"tokenB","type":"address"}],"name":"getPairFeeTier","outputs":[{"internalType":"uint24","name":"","type":"uint24"}],"stateMutability":"view","type":"function"},{"inputs":[{"internalType":"uint256","name":"tokenId","type":"uint256"}],"name":"getPosition","outputs":[{"internalType":"address","name":"token0","type":"address"},{"internalType":"address","name":"token1","type":"address"},{"internalType":"uint24","name":"fee","type":"uint24"},{"internalType":"int24","name":"tickLower","type":"int24"},{"internalType":"int24","name":"tickUpper","type":"int24"},{"internalType":"uint128","name":"liquidity","type":"uint128"},{"internalType":"uint128","name":"tokensOwed0","type":"uint128"},{"internalType":"uint128","name":"tokensOwed1","type":"uint128"},{"internalType":"bool","name":"managed","type":"bool"},{"internalType":"bool","name":"isInRange","type":"bool"}],"stateMutability":"view","type":"function"},{"inputs":[{"internalType":"address","name":"token","type":"address"}],"name":"getReserveBalance","outputs":[{"internalType":"uint256","name":"","type":"uint256"}],"stateMutability":"view","type":"function"},{"inputs":[],"name":"getReserveBalances","outputs":[{"internalType":"address[]","name":"tokens","type":"address[]"},{"internalType":"uint256[]","name":"balances","type":"uint256[]"}],"stateMutability":"view","type":"function"},{"inputs":[],"name":"getReserveTokens","outputs":[{"internalType":"address[]","name":"","type":"address[]"}],"stateMutability":"view","type":"function"},{"inputs":[],"name":"getStakingInfo","outputs":[{"internalType":"uint256","name":"stakedTime","type":"uint256"},{"internalType":"uint256","name":"pendingWLD","type":"uint256"},{"internalType":"uint256","name":"totalStakedInContract","type":"uint256"}],"stateMutability":"view","type":"function"},{"inputs":[{"internalType":"uint256","name":"","type":"uint256"}],"name":"inRange","outputs":[{"internalType":"bool","name":"","type":"bool"}],"stateMutability":"view","type":"function"},{"inputs":[{"internalType":"address","name":"","type":"address"}],"name":"isDistToken","outputs":[{"internalType":"bool","name":"","type":"bool"}],"stateMutability":"view","type":"function"},{"inputs":[{"internalType":"uint256","name":"","type":"uint256"}],"name":"isManaged","outputs":[{"internalType":"bool","name":"","type":"bool"}],"stateMutability":"view","type":"function"},{"inputs":[{"internalType":"address","name":"","type":"address"}],"name":"isOwner","outputs":[{"internalType":"bool","name":"","type":"bool"}],"stateMutability":"view","type":"function"},{"inputs":[{"internalType":"address","name":"","type":"address"}],"name":"isReserveToken","outputs":[{"internalType":"bool","name":"","type":"bool"}],"stateMutability":"view","type":"function"},{"inputs":[],"name":"lastReinvestAt","outputs":[{"internalType":"uint256","name":"","type":"uint256"}],"stateMutability":"view","type":"function"},{"inputs":[{"internalType":"uint256","name":"","type":"uint256"}],"name":"managedPositions","outputs":[{"internalType":"uint256","name":"","type":"uint256"}],"stateMutability":"view","type":"function"},{"inputs":[{"internalType":"address","name":"tokenIn","type":"address"},{"internalType":"address","name":"tokenOut","type":"address"},{"internalType":"uint256","name":"amtIn","type":"uint256"},{"internalType":"uint256","name":"amtOutMin","type":"uint256"},{"internalType":"uint24","name":"feeTier","type":"uint24"},{"internalType":"uint256","name":"deadline","type":"uint256"}],"name":"manualSwap","outputs":[],"stateMutability":"nonpayable","type":"function"},{"inputs":[{"internalType":"uint256","name":"","type":"uint256"}],"name":"ownerList","outputs":[{"internalType":"address","name":"","type":"address"}],"stateMutability":"view","type":"function"},{"inputs":[{"internalType":"bytes32","name":"","type":"bytes32"}],"name":"pairFeeTier","outputs":[{"internalType":"uint24","name":"","type":"uint24"}],"stateMutability":"view","type":"function"},{"inputs":[],"name":"paused","outputs":[{"internalType":"bool","name":"","type":"bool"}],"stateMutability":"view","type":"function"},{"inputs":[],"name":"pendingStakingReward","outputs":[{"internalType":"uint256","name":"","type":"uint256"}],"stateMutability":"view","type":"function"},{"inputs":[],"name":"primaryOwner","outputs":[{"internalType":"address","name":"","type":"address"}],"stateMutability":"view","type":"function"},{"inputs":[],"name":"reinvestIntervalSecs","outputs":[{"internalType":"uint256","name":"","type":"uint256"}],"stateMutability":"view","type":"function"},{"inputs":[{"internalType":"address","name":"token","type":"address"}],"name":"removeDistToken","outputs":[],"stateMutability":"nonpayable","type":"function"},{"inputs":[{"internalType":"address","name":"owner","type":"address"}],"name":"removeOwner","outputs":[],"stateMutability":"nonpayable","type":"function"},{"inputs":[{"internalType":"uint256","name":"tokenId","type":"uint256"}],"name":"removePosition","outputs":[],"stateMutability":"nonpayable","type":"function"},{"inputs":[{"internalType":"address","name":"token","type":"address"}],"name":"removeReserveToken","outputs":[],"stateMutability":"nonpayable","type":"function"},{"inputs":[{"internalType":"address","name":"","type":"address"}],"name":"reserve","outputs":[{"internalType":"uint256","name":"","type":"uint256"}],"stateMutability":"view","type":"function"},{"inputs":[],"name":"reserveFeeBps","outputs":[{"internalType":"uint256","name":"","type":"uint256"}],"stateMutability":"view","type":"function"},{"inputs":[{"internalType":"uint256","name":"","type":"uint256"}],"name":"reserveTokenList","outputs":[{"internalType":"address","name":"","type":"address"}],"stateMutability":"view","type":"function"},{"inputs":[{"internalType":"uint24","name":"feeTier","type":"uint24"}],"name":"setDefaultSwapFeeTier","outputs":[],"stateMutability":"nonpayable","type":"function"},{"inputs":[{"internalType":"address","name":"token","type":"address"},{"internalType":"uint256","name":"shareBps","type":"uint256"},{"internalType":"uint24","name":"feeTier","type":"uint24"}],"name":"setDistTokenShare","outputs":[],"stateMutability":"nonpayable","type":"function"},{"inputs":[{"internalType":"address","name":"tokenA","type":"address"},{"internalType":"address","name":"tokenB","type":"address"},{"internalType":"uint24","name":"feeTier","type":"uint24"}],"name":"setPairFeeTier","outputs":[],"stateMutability":"nonpayable","type":"function"},{"inputs":[{"internalType":"bool","name":"_paused","type":"bool"}],"name":"setPaused","outputs":[],"stateMutability":"nonpayable","type":"function"},{"inputs":[{"internalType":"uint256","name":"secs","type":"uint256"}],"name":"setReinvestInterval","outputs":[],"stateMutability":"nonpayable","type":"function"},{"inputs":[{"internalType":"uint256","name":"bps","type":"uint256"}],"name":"setReserveFeeBps","outputs":[],"stateMutability":"nonpayable","type":"function"},{"inputs":[{"internalType":"uint256","name":"bps","type":"uint256"}],"name":"setSlippageBps","outputs":[],"stateMutability":"nonpayable","type":"function"},{"inputs":[],"name":"slippageBps","outputs":[{"internalType":"uint256","name":"","type":"uint256"}],"stateMutability":"view","type":"function"},{"inputs":[{"internalType":"uint256","name":"amount","type":"uint256"}],"name":"stakeTime","outputs":[],"stateMutability":"nonpayable","type":"function"},{"inputs":[],"name":"stakedTimeBalance","outputs":[{"internalType":"uint256","name":"","type":"uint256"}],"stateMutability":"view","type":"function"},{"inputs":[{"internalType":"uint256","name":"amount","type":"uint256"}],"name":"unstakeTime","outputs":[],"stateMutability":"nonpayable","type":"function"},{"inputs":[],"name":"updateAllRanges","outputs":[],"stateMutability":"nonpayable","type":"function"},{"inputs":[{"internalType":"uint256[]","name":"tokenIds","type":"uint256[]"}],"name":"updateRanges","outputs":[],"stateMutability":"nonpayable","type":"function"},{"inputs":[{"internalType":"address","name":"token","type":"address"},{"internalType":"address","name":"to","type":"address"}],"name":"withdrawAll","outputs":[],"stateMutability":"nonpayable","type":"function"},{"inputs":[{"internalType":"address","name":"token","type":"address"},{"internalType":"address","name":"to","type":"address"}],"name":"withdrawFreeBalance","outputs":[],"stateMutability":"nonpayable","type":"function"},{"inputs":[{"internalType":"address","name":"token","type":"address"},{"internalType":"uint256","name":"amount","type":"uint256"},{"internalType":"address","name":"to","type":"address"}],"name":"withdrawReserve","outputs":[],"stateMutability":"nonpayable","type":"function"}],"evm":{"bytecode":{"linkReferences":{},"object":"60e0346200023157601f620056e038819003918201601f19168301916001600160401b03831184841017620002365780849260609460405283398101031262000231576200004d816200024c565b62000069604062000061602085016200024c565b93016200024c565b60017f9b779b17422d0df92223018b32b4d1fa46e071723d6817e2486d003becc55f005561012c60035560c860045560009283600555610bb862ffffff1960065416176006558260805260a05260c05260018060a01b03193381845416178355338352600160205260408320600160ff19825416179055600254680100000000000000008110156200021d57600181018060025581101562000209576020846002620001219652200190339082541617905562000261565b6040516153a490816200033c82396080518181816105a0015281816111520152818161217c015281816137ba015281816139f101528181613bd901528181613c1301528181613d3901528181613dd101528181613dfe01528181613e2601528181613ebf01528181613efa01528181613fec015281816141110152818161430f0152818161440c01528181614448015281816147a50152615069015260a051818181611e66015261265a015260c05181818161051c015281816109ae01528181610cd401528181611582015281816119a901528181612624015281816137f80152613a2d0152f35b634e487b7160e01b84526032600452602484fd5b634e487b7160e01b84526041600452602484fd5b600080fd5b634e487b7160e01b600052604160045260246000fd5b51906001600160a01b03821682036200023157565b6001600160a01b03166000818152601060205260408120805460ff8116620003355760ff19166001179055600f546801000000000000000081101562000321576001810180600f558110156200030d57600f82527f8d1108e10bcb7c27dddfc02ed9d693a074039d026cf4ea4240b40f7d581ac8020180546001600160a01b031916831790557fdd710997abacdf4e5052b0f85f257d182157d5488113ce7e50fcddd9409e4f839080a2565b634e487b7160e01b82526032600452602482fd5b634e487b7160e01b82526041600452602482fd5b5050505056fe6080604081815260048036101561001557600080fd5b600092833560e01c90816306c16b3f146129755750806309cae2c8146128365780630a42f049146125db57806310a135ca1461251f57806315226b54146104cf57806316c38b3c146124a5578063173825d91461230857806319eb7845146121245780631a3ce4e6146120675780631b74cea2146120025780631bea83fe14611fd95780631d8d7c6614611eea5780632015a67714611e955780632204608814611e51578063252d2a0814611e275780632c69fdef14611d215780632f435e5514611bfb5780632f54bf6e14611bbd5780633cd57d6114611b9e57806340ec97c614611b725780634b41cb2714611abe57806355b6cce114611a92578063578c71d914611a735780635c975abb14611a4c578063616e16611461196e57806365db65791461195157806368c31dd5146119135780637065cb48146117f0578063720feffc146117b257806373427b99146115e657806375290605146115c257806376d3fe8a1461155357806377d56a04146114bb57806382f8fe781461148a57806386629ec414611350578063871f6b051461110b5780638762dad9146110cd5780638d0b3c7c146110b15780638d95c2cf146110795780638e10be33146110515780638fad262714611005578063a0e67e2b14610f6e578063a840702b14610e20578063b40cd21d14610cae578063c006ee2d14610c58578063c046742214610adf578063c3f909d414610a8c578063c600589314610a5d578063c74c0fac14610a2e578063cb6090641461097f578063ce8021de14610960578063d1f3ae1b1461092b578063d2d6a87214610821578063d639ab1c14610796578063d7759e6a146106f2578063da276804146105cf578063de061d661461058b578063def79ab51461054b578063e02ef7b614610507578063e75179a4146104cf578063eb02c30114610394578063eb18c45e146103565763f48d9cd5146102d857600080fd5b346103525760203660031901126103525761030360ff61032b93338652600160205285205416612bcd565b61031560ff60065460181c1615613712565b61031d613753565b35610326613332565b6139d1565b60017f9b779b17422d0df92223018b32b4d1fa46e071723d6817e2486d003becc55f005580f35b8280fd5b50503461039057806003193601126103905760209062ffffff61038861037a6129a0565b6103826129b6565b90612dac565b915191168152f35b5080fd5b5091346104cc5760203660031901126104cc578235908183519463133f757160e31b8652850152610180808560248160008051602061534f8339815191525afa80156104c2576101409583948496859086918793889589988a9861046f575b50509062ffffff918952600b60205260ff8381818c2054169a600c6020522054169983519b60018060a01b038092168d521660208c0152169089015260020b606088015260020b60808701526001600160801b03928380921660a08801521660c08601521660e084015215156101008301521515610120820152f35b9550955096505097505062ffffff955061049e9250803d106104bb575b6104968183612cd7565b8101906133e5565b979e989d909b979a509298509296939593949392503890506103f3565b503d61048c565b84513d84823e3d90fd5b80fd5b5050346103905760203660031901126103905760209181906001600160a01b036104f76129a0565b168152600e845220549051908152f35b505034610390578160031936011261039057517f00000000000000000000000000000000000000000000000000000000000000006001600160a01b03168152602090f35b50346103525760203660031901126103525735916002548310156104cc5750610575602092612a1d565b905491519160018060a01b039160031b1c168152f35b505034610390578160031936011261039057517f00000000000000000000000000000000000000000000000000000000000000006001600160a01b03168152602090f35b505034610390576060366003190112610390576105ea6129a0565b906105f36129b6565b6044359262ffffff84168094036106ed57338552600160205261061b60ff8487205416612bcd565b6064841480156106e2575b80156106d7575b80156106cc575b80156106c4575b61064490612d71565b6001600160a01b0382811690821610156106b75761069c61068e91925b8451928391602083019586906028926001600160601b0319809260601b16835260601b1660148201520190565b03601f198101835282612cd7565b5190208352600860205282209062ffffff1982541617905580f35b61068e9061069c90610661565b50831561063b565b506127108414610634565b50610bb8841461062d565b506101f48414610626565b600080fd5b50903461035257602091826003193601126107925780359067ffffffffffffffff821161078e5761072591369101612b69565b913385526001845260ff9061073e828288205416612bcd565b855b84811061074b578680f35b8061075a61077092878761339f565b358852600b875283838920541661077557612c43565b610740565b61078961078382888861339f565b35613512565b612c43565b8480fd5b8380fd5b503461035257602036600319011261035257359062ffffff82168092036106ed5760ff6107ce91338552600160205284205416612bcd565b606481148015610816575b801561080b575b8015610800575b6107f090612d71565b62ffffff19600654161760065580f35b5061271081146107e7565b50610bb881146107e0565b506101f481146107d9565b50903461035257602036600319011261035257813591338452600160205261084e60ff8386205416612bcd565b828452600b60205260ff82852054166108f757600d5490600160401b8210156108e457508261088682600161089f9401600d55612a8b565b90919082549060031b91821b91600019901b1916179055565b818352600b6020528220805460ff191660011790556108bd81613512565b7f3d0a2b1c6f8e72f333688e33b7fc1767f042d33eaef1d3b5db5968567033e91f8280a280f35b634e487b7160e01b855260419052602484fd5b6020606492519162461bcd60e51b8352820152600f60248201526e105b1c9958591e481b585b9859d959608a1b6044820152fd5b50503461039057816003193601126103905761095c90610949612cf9565b9051918291602083526020830190612ac2565b0390f35b5050346103905781600319360112610390576020906003549051908152f35b509190346103905781600319360112610390578051633111b0d160e21b815230938101939093526020836024817f00000000000000000000000000000000000000000000000000000000000000006001600160a01b03165afa918215610a2357916109ef575b6020925051908152f35b90506020823d8211610a1b575b81610a0960209383612cd7565b810103126106ed5760209151906109e5565b3d91506109fc565b9051903d90823e3d90fd5b50503461039057816003193601126103905760209051737a5028bda40e7b173c278c5342087826455ea25a8152f35b5050346103905781600319360112610390576020905173091ad9e2e6e5ed44c1c66db50e49a601f9f36cf68152f35b50903461035257826003193601126103525760c0925060ff60035492549160055460065491600754948151968752602087015285015262ffffff8116606085015260181c161515608083015260a0820152f35b50346103525760203660031901126103525780359133845260019081602052610b0d60ff8287205416612bcd565b838552600b60205260ff818620541615610c2857838552600b6020528420805460ff1916905582919084815b610b67575b85847f8dab17171ceb83acca6e0d86e9c8b6d3f2eec3a1ec6a5a2f9a3f1b7e17ad10358280a280f35b600d805480831015610c2157610b7c83612a8b565b969054600397881b1c14610ba2575050610b9891929350612c43565b9083929181610b39565b9250929060001992838101908111610c0e5790610886610bc4610bd093612a8b565b905490881b1c91612a8b565b8254908115610bfb5750810192610be684612a8b565b81939154921b1b191690555580388080610b3e565b634e487b7160e01b875260319052602486fd5b634e487b7160e01b885260118352602488fd5b5050610b3e565b5162461bcd60e51b8152602081840152600b60248201526a139bdd081b585b9859d95960aa1b6044820152606490fd5b50503461039057610c8a610ca961032b9260ff610c7436612b9a565b9591929093338952600160205288205416612bcd565b610c9c60ff60065460181c1615613712565b610ca4613753565b615313565b6140f3565b5091346104cc57806003193601126104cc578151636021726760e01b81523084820152917f00000000000000000000000000000000000000000000000000000000000000006001600160a01b031660208085602481855afa948515610e13578495610de4575b508251633111b0d160e21b81523087820152918183602481845afa928315610dda578593610dab575b5081908451978880926340bd8e6960e11b82525afa938415610da05793610d70575b606095508251948552840152820152f35b80935085813d8311610d99575b610d878183612cd7565b810103126106ed576060945192610d5f565b503d610d7d565b8351903d90823e3d90fd5b9092508181813d8311610dd3575b610dc38183612cd7565b810103126106ed57519181610d3d565b503d610db9565b84513d87823e3d90fd5b9080955081813d8311610e0c575b610dfc8183612cd7565b810103126106ed57519338610d14565b503d610df2565b50505051903d90823e3d90fd5b5034610352578160031936011261035257610e396129a0565b91610e426129b6565b9133855260209160018352610e5c60ff8288205416612bcd565b6001600160a01b0384811695610e73871515612c08565b169381516370a0823160e01b815230848201528481602481895afa908115610f64578891610f37575b50858852600e85528288205480821115610f2e57610eb991612c68565b925b8315610ef9575090610ef1837fde13184e8cbb6eccbcecfc796bf8820e5ffde0534c01b4fabed4b05982964a4495949387615292565b51908152a380f35b825162461bcd60e51b8152908101859052600f60248201526e4e6f20667265652062616c616e636560881b6044820152606490fd5b50508692610ebb565b90508481813d8311610f5d575b610f4e8183612cd7565b810103126106ed575138610e9c565b503d610f44565b83513d8a823e3d90fd5b8284346104cc57806003193601126104cc5750805180918260025480845260208094019060026000527f405787fa12a823e0f2b7631cc41b3ba8828b3321ca811111fa75cd3aa3bb5ace9060005b86828210610fe557859061095c88610fd684890385612cd7565b51928284938452830190612ac2565b83546001600160a01b031685528895509093019260019283019201610fbc565b50346103525760203660031901126103525761103160ff61032b93338652600160205285205416612bcd565b61104360ff60065460181c1615613712565b61104b613753565b35613795565b505034610390578160031936011261039057905490516001600160a01b039091168152602090f35b5034610352576020366003190112610352573591600d548310156104cc57506110a3602092612a8b565b91905490519160031b1c8152f35b50503461039057610c8a61032661032b9260ff610c7436612b9a565b505034610390576020366003190112610390576111089061110360ff6110f16129a0565b92338652600160205285205416612bcd565b612f11565b80f35b509190346103905761111c36612b33565b92919233855260206001815261113760ff8588205416612bcd565b6001600160a01b03858116959061114f871515612c08565b807f000000000000000000000000000000000000000000000000000000000000000016871461130d57868852600a835260ff86892054166112da576111a861251c6111a18761119c612ed4565b612e31565b1115612e3e565b62ffffff809416936064851480156112cf575b80156112c4575b80156112b9575b6111d290612d71565b878952600a8452868920805460ff1916600117905586516111f281612c9f565b88815284810187815288820193878552600954600160401b8110156112a55780600161122192016009556129cc565b939093611292577f62af8756d07b97a733ad743c241abdec5d8242d9974db0fd855f7540ebd7d47e9b9c9d5091611286969594939160029351166001600160601b0360a01b8354161782555160018201550191511662ffffff19825416179055612f11565b8351928352820152a280f35b50634e487b7160e01b8c528b8d5260248cfd5b50634e487b7160e01b8c5260418d5260248cfd5b5061271085146111c9565b50610bb885146111c2565b506101f485146111bb565b855162461bcd60e51b8152808a01849052600d60248201526c105b1c9958591e481859191959609a1b6044820152606490fd5b855162461bcd60e51b8152808a01849052601f60248201527f43616e6e6f74206469737472696275746520574c4420746f20697473656c66006044820152606490fd5b5050346103905762ffffff9061136536612b33565b90919233865260019485928360205261138360ff848a205416612bcd565b6001600160a01b03958616808952600a602052928820546113a69060ff16612e7d565b169360648514801561147f575b8015611474575b8015611469575b6113cd91929350612d71565b85855b6113d8578680f35b6009548110156114655782826113ed836129cc565b505416146114095790611401869392612c43565b9091926113d0565b915050816002939461143c61251c6111a161144d9661119c611429612ed4565b866114338a6129cc565b50015490612c68565b611445836129cc565b5001556129cc565b50019062ffffff198254161790553880808080808680f35b8680f35b5061271085146113c1565b50610bb885146113ba565b506101f485146113b3565b50503461039057816003193601126103905761095c906114a8613332565b9051918291602083526020830190612aff565b5050346103905781600319360112610390576114d5612cf9565b91600f546114e281612fa4565b91805b8281106115145750505061095c906115068351948486958652850190612ac2565b908382036020850152612aff565b8061152161154e92612a54565b905460039190911b1c6001600160a01b03168352600e602052858320546115488287612fd6565b52612c43565b6114e5565b509190346103905781600319360112610390578051636021726760e01b815230938101939093526020836024817f00000000000000000000000000000000000000000000000000000000000000006001600160a01b03165afa918215610a2357916109ef576020925051908152f35b50503461039057816003193601126103905760209062ffffff600654169051908152f35b50903461035257602036600319011261035257906116026129a0565b3384526001918260205261161b60ff8587205416612bcd565b6001600160a01b03918216808652600a602052848620549094906116419060ff16612e7d565b848652600a6020528520805460ff1916905584835b611684575b85857f75254dc44a4c4f2e11d0f93d23f1ee0eb2ac4c84bc077389979b70878a49fdd78280a280f35b60098054808310156117ab57868561169b856129cc565b505416146116bd575050906116b38495949392612c43565b9091929394611656565b90936000199291838101908111611798576116da6116e1916129cc565b50926129cc565b61178657828103611749575b50505082548015611736570192611703846129cc565b9290926117245750816000600292888095558201550155553880808061165b565b634e487b7160e01b8752869052602486fd5b634e487b7160e01b875260318352602487fd5b62ffffff918354166001600160601b0360a01b825416178155868301548782015560028091019201541662ffffff198254161790553880806116ed565b634e487b7160e01b8952888552602489fd5b634e487b7160e01b895260118552602489fd5b505061165b565b5050346103905760203660031901126103905760209160ff9082906001600160a01b036117dd6129a0565b168152600a855220541690519015158152f35b50346103525760203660031901126103525761180a6129a0565b90338452600160205261182260ff8486205416612bcd565b6001600160a01b03821692611838841515612c08565b838552600160205260ff81862054166118e05783855260016020528420600160ff1982541617905560025490600160401b8210156118cb5750906118858260016118a49401600255612a1d565b90919082549060031b9160018060a01b03809116831b921b1916179055565b7f994a936646fe87ffe4f1e469d3d6aa417d6b855598397f323de5b449f765f0c38280a280f35b604190634e487b7160e01b6000525260246000fd5b906020606492519162461bcd60e51b8352820152600d60248201526c20b63932b0b23c9037bbb732b960991b6044820152fd5b5050346103905760203660031901126103905760209160ff9082906001600160a01b0361193e6129a0565b1681526010855220541690519015158152f35b503461035257826003193601126103525760209250549051908152f35b5090346103525760203660031901126103525782823592338252600160205261199c60ff8484205416612bcd565b6119a7841515612fea565b7f00000000000000000000000000000000000000000000000000000000000000006001600160a01b031690813b1561035257846024849283875195869485936305c2fbcf60e31b85528401525af18015611a4257611a2e575b507fe349d50c3ab0b3bf3b1ae799a3cd33b2993be0c809d854d8dd5c13ed6acd74976020848451908152a180f35b611a3790612c75565b610352578238611a00565b83513d84823e3d90fd5b50503461039057816003193601126103905760209060ff60065460181c1690519015158152f35b5050346103905781600319360112610390576020906005549051908152f35b5034610352576020366003190112610352578160209360ff92358152600b855220541690519015158152f35b5034610352576020366003190112610352578035903384526001602052611aea60ff8486205416612bcd565b610bb88211611b455791816080927f12c9dccd129ff783f1c8228eacdfa8e334ddecb7ec5c9a79ec662a4aed3d012a9455600d8251928084528301526c7265736572766546656542707360981b60608301526020820152a180f35b606490602084519162461bcd60e51b835282015260076024820152664d61782033302560c81b6044820152fd5b5034610352576020366003190112610352578160209360ff92358152600c855220541690519015158152f35b5050346103905781600319360112610390576020906007549051908152f35b5050346103905760203660031901126103905760209160ff9082906001600160a01b03611be86129a0565b1681526001855220541690519015158152f35b508290346103905760c036600319011261039057611c176129a0565b90611c206129b6565b916044356084359262ffffff841684036106ed57338652602060018152611c4c60ff8989205416612bcd565b611c54613753565b611c5f831515612fea565b87516370a0823160e01b8152308382015281816024816001600160a01b0389165afa908115611d17579084918991611ce6575b5010611cad57505061032b94955060a4359360643592614dd9565b875162461bcd60e51b8152918201526014602482015273496e73756666696369656e742062616c616e636560601b604482015260649150fd5b809250838092503d8311611d10575b611cff8183612cd7565b810103126106ed578390518a611c92565b503d611cf5565b89513d8a823e3d90fd5b8284346104cc57806003193601126104cc57600954611d3f81612ebc565b91611d4c84519384612cd7565b8183526009815260209283810192827f6e1540171b6c0c960b71a7020d9f60077f6af931a8bbf590da0223dacf75c7af855b838310611ddf5750505050845193808501918186525180925285850193925b828110611daa5785850386f35b835180516001600160a01b03168652808301518684015287015162ffffff168786015260609094019392810192600101611d9d565b6003886001928b9a97989a51611df481612c9f565b848060a01b038654168152848601548382015262ffffff6002870154168d82015281520192019201919096949396611d7e565b5034610352576020366003190112610352573591600f548310156104cc5750610575602092612a54565b505034610390578160031936011261039057517f00000000000000000000000000000000000000000000000000000000000000006001600160a01b03168152602090f35b50346103525760203660031901126103525735916009548310156104cc5750611ebf6060926129cc565b5060018060a01b038154169162ffffff60026001840154930154169181519384526020840152820152f35b503461035257606036600319011261035257611f046129a0565b6001600160a01b0360443581811694602435939092908683036106ed573388526001602052611f3860ff858a205416612bcd565b611f43871515612c08565b1693848752600e602052838388205410611f9f575091602091610ef1827fde13184e8cbb6eccbcecfc796bf8820e5ffde0534c01b4fabed4b05982964a4495878a52600e8652838a20611f97838254612c68565b905587615292565b606490602084519162461bcd60e51b83528201526014602482015273496e73756666696369656e74207265736572766560601b6044820152fd5b5050346103905781600319360112610390576020905160008051602061534f8339815191528152f35b50503461039057816003193601126103905733825261202c60ff6001928360205284205416612bcd565b81815b612037578280f35b600d54811015612063578061078961205161205d93612a8b565b90549060031b1c613512565b8161202f565b8280f35b503461035257602036600319011261035257803590338452600160205261209360ff8486205416612bcd565b6127108210156120ef57507f12c9dccd129ff783f1c8228eacdfa8e334ddecb7ec5c9a79ec662a4aed3d012a9181608092600555600b8251928084528301526a736c69707061676542707360a81b60608301526020820152a180f35b606490602084519162461bcd60e51b8352820152600f60248201526e04d757374206265203c20313030303608c1b6044820152fd5b50346103525760209081600319360112610792576121406129a0565b33855260019384845261215860ff8288205416612bcd565b6001600160a01b03918216808752601085528187205490949060ff16156122d857827f00000000000000000000000000000000000000000000000000000000000000001685146122a257848752601090528520805460ff1916905584845b6121e4575b85847f413fb108af65f1a0ab76c4598c831eb7800c030dfb5589c3bb325273e9aa12ba8280a280f35b600f80548083101561229b5783866121fb85612a54565b929054600393841b1c161461221c5750505061221690612c43565b846121b6565b959650909460001994939185810190811161179857916118859161224361224f9594612a54565b9054911b1c1691612a54565b82549081156122865750019061227c61226783612a54565b81549060018060a01b039060031b1b19169055565b55803880806121bb565b603190634e487b7160e01b6000525260246000fd5b50506121bb565b8390606492519162461bcd60e51b8352820152601160248201527010d85b9b9bdd081c995b5bdd994815d311607a1b6044820152fd5b8390606492519162461bcd60e51b8352820152600b60248201526a139bdd081d1c9858dad95960aa1b6044820152fd5b5034610352576020366003190112610352576123226129a0565b83546001600160a01b0390811692913384900361246d578116928314612432578285526001938460205261235b60ff8288205416612bcd565b83865260208590528520805460ff1916905584845b61239e575b85847f58619076adf5bb0943d100ef88d52d7c3fd691b19d3a9071b555b651fbf418da8280a280f35b600280548083101561242b5783866123b585612a1d565b929054600393841b1c16146123d6575050506123d090612c43565b84612370565b95965090946000199493918581019081116117985791611885916123fd6124099594612a1d565b9054911b1c1691612a1d565b82549081156122865750019061242161226783612a1d565b5580388080612375565b5050612375565b835162461bcd60e51b8152602081840152601560248201527443616e6e6f742072656d6f7665207072696d61727960581b6044820152606490fd5b845162461bcd60e51b8152602081850152601260248201527127b7363c90383934b6b0b93c9037bbb732b960711b6044820152606490fd5b5034610352576020366003190112610352573590811515809203610352577f752d7e161ff5146f80e3820893176eb40532811e5e20400dfdde57455213706a91602091338552600183526124fe60ff8287205416612bcd565b60065463ff0000008360181b169063ff00000019161760065551908152a180f35b503461035257602036600319011261035257803590338452600160205261254b60ff8486205416612bcd565b603c82106125ae57507f12c9dccd129ff783f1c8228eacdfa8e334ddecb7ec5c9a79ec662a4aed3d012a91816080926003556014825192808452830152737265696e76657374496e74657276616c5365637360601b60608301526020820152a180f35b606490602084519162461bcd60e51b835282015260076024820152664d696e2036307360c81b6044820152fd5b509190346103905760209081600319360112610352578335903384526001835261260a60ff8286205416612bcd565b612615821515612fea565b805163095ea7b360e01b8086527f00000000000000000000000000000000000000000000000000000000000000006001600160a01b03818116808a52602487815299947f00000000000000000000000000000000000000000000000000000000000000009092169391888a60448180895af19060018b5114821615612827575b87521561279f575b803b1561279b57855163534a7e1d60e11b815285810188905289818c8183865af180156127915761277e575b50879060009087519382528652808b5260448180875af19060016000511482161561276f575b855215612724575b867f38d8c3e304a8001683d048dcc3e1b148be830f6035082131e02a42d24f683dce87878751908152a180f35b61272e81836132ed565b1561275b5761273d90826132ed565b1561274857806126f7565b86925191635274afe760e01b8352820152fd5b5086925191635274afe760e01b8352820152fd5b90833b15153d151616906126ef565b9861278a89929a612c75565b98906126c9565b87513d8c823e3d90fd5b8880fd5b6127a983856132ed565b15612810578551828a52818652878b52888a60448180895af160018b51148116156127f1575b818852156127dd575061269d565b635274afe760e01b81528581018590528a90fd5b600181151661280757853b15153d1516166127cf565b503d8a823e3d90fd5b50509251635274afe760e01b815291820152859150fd5b90853b15153d15161690612695565b503461035257816003193601126103525761284f6129a0565b916128586129b6565b913385526020916001835261287260ff8288205416612bcd565b6001600160a01b0384811695612889871515612c08565b16938151926370a0823160e01b845230818501528484602481895afa938415610f64578894612942575b508315612909575090610ef1837fde13184e8cbb6eccbcecfc796bf8820e5ffde0534c01b4fabed4b05982964a44959493878a52600e865289848120838154101560001461290357555b87615292565b556128fd565b825162461bcd60e51b815290810185905260136024820152724e6f7468696e6720746f20776974686472617760681b6044820152606490fd5b9093508481813d831161296e575b61295a8183612cd7565b8101031261296a575192386128b3565b8780fd5b503d612950565b9291905034610792576020366003190112610792573583526008602090815292205462ffffff168152f35b600435906001600160a01b03821682036106ed57565b602435906001600160a01b03821682036106ed57565b600954811015612a07576003906009600052027f6e1540171b6c0c960b71a7020d9f60077f6af931a8bbf590da0223dacf75c7af0190600090565b634e487b7160e01b600052603260045260246000fd5b600254811015612a075760026000527f405787fa12a823e0f2b7631cc41b3ba8828b3321ca811111fa75cd3aa3bb5ace0190600090565b600f54811015612a0757600f6000527f8d1108e10bcb7c27dddfc02ed9d693a074039d026cf4ea4240b40f7d581ac8020190600090565b600d54811015612a0757600d6000527fd7b6990105719101dabeb77144f2a3385c8033acd3af97e9423a695e81ad1eb50190600090565b90815180825260208080930193019160005b828110612ae2575050505090565b83516001600160a01b031685529381019392810192600101612ad4565b90815180825260208080930193019160005b828110612b1f575050505090565b835185529381019392810192600101612b11565b60609060031901126106ed576004356001600160a01b03811681036106ed57906024359060443562ffffff811681036106ed5790565b9181601f840112156106ed5782359167ffffffffffffffff83116106ed576020808501948460051b0101116106ed57565b60406003198201126106ed576004359067ffffffffffffffff82116106ed57612bc591600401612b69565b909160243590565b15612bd457565b60405162461bcd60e51b815260206004820152600c60248201526b2737ba1030b71037bbb732b960a11b6044820152606490fd5b15612c0f57565b60405162461bcd60e51b815260206004820152600c60248201526b5a65726f206164647265737360a01b6044820152606490fd5b6000198114612c525760010190565b634e487b7160e01b600052601160045260246000fd5b91908203918211612c5257565b67ffffffffffffffff8111612c8957604052565b634e487b7160e01b600052604160045260246000fd5b6060810190811067ffffffffffffffff821117612c8957604052565b6080810190811067ffffffffffffffff821117612c8957604052565b90601f8019910116810190811067ffffffffffffffff821117612c8957604052565b60405190600f548083528260209182820190600f6000527f8d1108e10bcb7c27dddfc02ed9d693a074039d026cf4ea4240b40f7d581ac802936000905b828210612d4e57505050612d4c92500383612cd7565b565b85546001600160a01b031684526001958601958895509381019390910190612d36565b15612d7857565b60405162461bcd60e51b815260206004820152600c60248201526b24b73b30b634b2103a34b2b960a11b6044820152606490fd5b6001600160a01b038281169082161015612e2457612df761068e91925b604051928391602083019586906028926001600160601b0319809260601b16835260601b1660148201520190565b519020600052600860205262ffffff80604060002054168015600014612e1f57506006541690565b905090565b61068e90612df790612dc9565b91908201809211612c5257565b15612e4557565b60405162461bcd60e51b815260206004820152601060248201526f546f74616c2064697374203e2039352560801b6044820152606490fd5b15612e8457565b60405162461bcd60e51b815260206004820152601060248201526f2737ba1030903234b9ba103a37b5b2b760811b6044820152606490fd5b67ffffffffffffffff8111612c895760051b60200190565b60009060006009545b808210612ee8575050565b9092612f05612f0b916001612efc876129cc565b50015490612e31565b93612c43565b90612edd565b6001600160a01b038116600081815260106020526040812080549293919260ff8116612f9d5760ff19166001179055600f54600160401b811015612f89577fdd710997abacdf4e5052b0f85f257d182157d5488113ce7e50fcddd9409e4f839291611885826001612f859401600f55612a54565b80a2565b634e487b7160e01b83526041600452602483fd5b5050505050565b90612fae82612ebc565b612fbb6040519182612cd7565b8281528092612fcc601f1991612ebc565b0190602036910137565b8051821015612a075760209160051b010190565b15612ff157565b60405162461bcd60e51b815260206004820152600b60248201526a16995c9bc8185b5bdd5b9d60aa1b6044820152606490fd5b60006040519263095ea7b360e01b93848352602060008051602061534f83398151915293846004528360245260448180885af19060016000511482161561311a575b60405215613075575b50505050565b61307e83613237565b156130f9579060209160009160405195835260045260245260448180855af16001600051148116156130d9575b82604052156130bb57808061306f565b635274afe760e01b82526001600160a01b0316600482015260249150fd5b60018115166130ef57813b15153d1516166130ab565b823d6000823e3d90fd5b604051635274afe760e01b81526001600160a01b0384166004820152602490fd5b90843b15153d15161690613066565b600060206040519163095ea7b360e01b815260008051602061534f8339815191526004528060245260448180865af1906001600051148216156131b3575b604052156131725750565b61317b81613237565b156131915761318981613237565b156131915750565b604051635274afe760e01b81526001600160a01b039091166004820152602490fd5b90823b15153d15161690613167565b600060206040519163095ea7b360e01b815273091ad9e2e6e5ed44c1c66db50e49a601f9f36cf66004528060245260448180865af190600160005114821615613228575b604052156132115750565b61321a816132a2565b1561319157613189816132a2565b90823b15153d15161690613206565b9060405160009263095ea7b360e01b845260008051602061534f8339815191526004528360245260208460448180855af193600181511485161561327d575b5050604052565b6001859395151661329857503b15153d151616913880613276565b84903d90823e3d90fd5b9060405160009263095ea7b360e01b845273091ad9e2e6e5ed44c1c66db50e49a601f9f36cf66004528360245260208460448180855af193600181511485161561327d575050604052565b60405163095ea7b360e01b60009081526001600160a01b0390931660045260248390529192919060208460448180855af193600181511485161561327d575050604052565b60405190600d548083528260209182820190600d6000527fd7b6990105719101dabeb77144f2a3385c8033acd3af97e9423a695e81ad1eb5936000905b82821061338557505050612d4c92500383612cd7565b85548452600195860195889550938101939091019061336f565b9190811015612a075760051b0190565b51906001600160a01b03821682036106ed57565b51908160020b82036106ed57565b51906001600160801b03821682036106ed57565b9190826101809103126106ed5781516001600160601b03811681036106ed5791613411602082016133af565b9161341e604083016133af565b9161342b606082016133af565b91608082015162ffffff811681036106ed579161344a60a082016133c3565b9161345760c083016133c3565b9161346460e082016133d1565b91610100820151916101208101519161348d61016061348661014085016133d1565b93016133d1565b90565b519061ffff821682036106ed57565b908160e09103126106ed5780516001600160a01b03811681036106ed57916134c9602083016133c3565b916134d660408201613490565b916134e360608301613490565b916134f060808201613490565b9160a082015160ff811681036106ed5760c09092015180151581036106ed5790565b6040805163133f757160e31b81526004810183905291610180808460248160008051602061534f8339815191525afa938415613707576000808092819482986136cf575b50508551630b4c774160e11b81526001600160a01b0391821660048201529116602482015262ffffff919091166044820152602081606481737a5028bda40e7b173c278c5342087826455ea25a5afa9081156136c45760009161368b575b506001600160a01b0390811690816135cf575b505050505050565b60e0600492865193848092633850c7bd851b82525afa918215613680576000908193613648575b5016613603575b806135c7565b60020b9060020b811215938461363a575b5050600052600c6020526000209060ff80198354169115151617905538808080806135fd565b60020b121592503880613614565b905061366c91925060e03d8111613679575b6136648183612cd7565b81019061349f565b50505050509190386135f6565b503d61365a565b85513d6000823e3d90fd5b906020823d82116136bc575b816136a460209383612cd7565b810103126104cc57506136b6906133af565b386135b4565b3d9150613697565b84513d6000823e3d90fd5b9250925050602095506136ee9250803d106104bb576104968183612cd7565b5050505050955093509096919690929396909138613556565b83513d6000823e3d90fd5b1561371957565b60405162461bcd60e51b815260206004820152601260248201527110dbdb9d1c9858dd081a5cc81c185d5cd95960721b6044820152606490fd5b7f9b779b17422d0df92223018b32b4d1fa46e071723d6817e2486d003becc55f0060028154146137835760029055565b604051633ee5aeb560e01b8152600490fd5b604080516370a0823160e01b8082523060048301529293926020916001600160a01b037f00000000000000000000000000000000000000000000000000000000000000008116926000918584602481885afa9384156139c7578394613998575b507f000000000000000000000000000000000000000000000000000000000000000016803b15610352578280916004895180948193636fb01c6f60e01b83525af19081613985575b5061384c575050505050509050565b8490602487518096819382523060048301525afa90811561397a579061394b575b6138779250612c68565b8015613944577f3648c0bf88f1bc1bff753a51023e66eafbf42f937066e3c6f888e8b8cbdca680828451838152a18251948583600d54978881520196600d6000527fd7b6990105719101dabeb77144f2a3385c8033acd3af97e9423a695e81ad1eb59060005b81811061393057505050908161391a613920937fc9ad57538c87a56b42547ba3335109c64ed9619d5cf403928283e46967b80c4498990382612cd7565b83614789565b42600755825191428352820152a1565b82548a5298860198600192830192016138dd565b5050509050565b508282813d8311613973575b6139618183612cd7565b810103126106ed57613877915161386d565b503d613957565b8551903d90823e3d90fd5b61399190939193612c75565b913861383d565b9093508581813d83116139c0575b6139b08183612cd7565b81010312610352575192386137f5565b503d6139a6565b87513d85823e3d90fd5b6040516370a0823160e01b815230600482015260009392906020816024817f00000000000000000000000000000000000000000000000000000000000000006001600160a01b03165afa9081156140e85785916140b6575b50847f00000000000000000000000000000000000000000000000000000000000000006001600160a01b0316803b15610390578190600460405180948193636fb01c6f60e01b83525af190816140a3575b50613fd0575b50835b8251811015613d0a57613a968184612fd6565b5190818652600b60205260ff60408720541615613d005760405163133f757160e31b8152600481018390526101808160248160008051602061534f8339815191525afa908115613cf55787908892613cc6575b5060405193613af785612cbb565b80855230602086019081526001600160801b03604080880182815260608901838152825163fc6f786560e01b8152995160048b015293516001600160a01b031660248a015251821660448901529151166064870152856084818c60008051602061534f8339815191525af19189838b94613c85575b613b809750613b85575b5050505050612c43565b613a83565b604080516001600160a01b0384811680835290881660208301819052928201849052606082018790529194907f529bba57bdb8378bb850b7bd9677f1e8fc38dba3d309fda743a7b2921d534a0a90608090a27f00000000000000000000000000000000000000000000000000000000000000006001600160a01b031614159081613c7b575b50613c6c575b507f00000000000000000000000000000000000000000000000000000000000000006001600160a01b031614159081613c62575b50613c53575b80808080613b76565b613c5c90612f11565b38613c4a565b9050151538613c44565b613c7590612f11565b38613c10565b9050151538613c0a565b9350506040863d604011613cbe575b81613ca160409383612cd7565b81010312613cba57856020613b80975191015193613b6c565b8980fd5b3d9150613c94565b9050613ce391506101803d610180116104bb576104968183612cd7565b50505050505050509250905038613ae9565b6040513d89823e3d90fd5b613b809150612c43565b509091835b600f54811015613ea057613d2281612a54565b90546001600160a01b0360039290921b1c811691907f0000000000000000000000000000000000000000000000000000000000000000168214613e9657818652600a60205260ff604087205416613e96576040516370a0823160e01b815230600482015291602083602481845afa8015613cf55785908890613e60575b828952600e6020526040892054613e4b955080821115613e5857613dc291612c68565b8015613e505761078992613df67f000000000000000000000000000000000000000000000000000000000000000082612dac565b91613e2383827f000000000000000000000000000000000000000000000000000000000000000085614523565b917f000000000000000000000000000000000000000000000000000000000000000090614dd9565b613d0f565b505050612c43565b505087613dc2565b50506020833d602011613e8e575b81613e7b60209383612cd7565b810103126106ed5784613e4b9351613d9f565b3d9150613e6e565b613e4b9150612c43565b506040516370a0823160e01b81523060048201529093906020816024817f00000000000000000000000000000000000000000000000000000000000000006001600160a01b03165afa908115613fc5578291613f93575b507f00000000000000000000000000000000000000000000000000000000000000006001600160a01b03168252600e60205260408220549081811115613f8c57613f419250612c68565b8015613f8757613f756040927fc9ad57538c87a56b42547ba3335109c64ed9619d5cf403928283e46967b80c449483614789565b426007558151904282526020820152a1565b505050565b5050613f41565b90506020813d602011613fbd575b81613fae60209383612cd7565b810103126106ed575138613ef7565b3d9150613fa1565b6040513d84823e3d90fd5b6040516370a0823160e01b8152306004820152906020826024817f00000000000000000000000000000000000000000000000000000000000000006001600160a01b03165afa8015614098578690614064575b61402d9250612c68565b8015613a805760207f3648c0bf88f1bc1bff753a51023e66eafbf42f937066e3c6f888e8b8cbdca68091604051908152a138613a80565b506020823d602011614090575b8161407e60209383612cd7565b810103126106ed5761402d9151614023565b3d9150614071565b6040513d88823e3d90fd5b6140af90969196612c75565b9438613a7a565b90506020813d6020116140e0575b816140d160209383612cd7565b8101031261078e575138613a29565b3d91506140c4565b6040513d87823e3d90fd5b6040516370a0823160e01b81523060048201529091906020816024817f00000000000000000000000000000000000000000000000000000000000000006001600160a01b03165afa80156142c7576144c5575b5091906000925b81518410156142e0576141608483612fd6565b519384600052600b60205260ff60406000205416156142d35760405163133f757160e31b8152600481018690526101808160248160008051602061534f8339815191525afa9081156142c7576000908192614298575b50604051966141c488612cbb565b80885230602089019081526001600160801b036040808b0182815260608c01838152825163fc6f786560e01b81529c5160048e015293516001600160a01b031660248d015251821660448c015291511660648a015288608481600060008051602061534f8339815191525af1916000838194614259575b6142519798999a50613b85575050505050612c43565b92919061414d565b9350986040813d604011614290575b8161427560409383612cd7565b81010312613cba57805160209091015198995089989361423b565b3d9150614268565b90506142b591506101803d610180116104bb576104968183612cd7565b505050505050505092509050386141b6565b6040513d6000823e3d90fd5b6142519192939450612c43565b92509060005b600f548110156143ed576142f981612a54565b90546001600160a01b0360039290921b1c8116907f00000000000000000000000000000000000000000000000000000000000000001681146143e35780600052600a60205260ff604060002054166143e3576040516370a0823160e01b8152306004820152602081602481855afa80156142c75786916000916143ac575b506000838152600e60205260408120546143a095949392818111156143a557613dc29250612c68565b6142e6565b5050613dc2565b91506020823d6020116143db575b816143c760209383612cd7565b810103126104cc57505185906143a0614377565b3d91506143ba565b506143a090612c43565b506040516370a0823160e01b81523060048201529092906020816024817f00000000000000000000000000000000000000000000000000000000000000006001600160a01b03165afa9081156142c757600091614493575b507f00000000000000000000000000000000000000000000000000000000000000006001600160a01b03166000908152600e6020526040812054909181811115613f8c57613f419250612c68565b906020823d6020116144bd575b816144ad60209383612cd7565b810103126104cc57505138614445565b3d91506144a0565b602090813d83116144e9575b6144db8183612cd7565b810103126106ed5738614146565b503d6144d1565b81810292918115918404141715612c5257565b811561450d570490565b634e487b7160e01b600052601260045260246000fd5b60055493841580156146aa575b6146a057604051630b4c774160e11b81526001600160a01b0383811660048301528416602482015262ffffff919091166044820152602081606481737a5028bda40e7b173c278c5342087826455ea25a5afa9081156142c757600091614667575b506001600160a01b0390811680156146365760e060049160405192838092633850c7bd851b82525afa60009181614641575b506145d357505050505050600090565b81169283156146365781169116101561461f576145f3816145f893614743565b614743565b801561461857612710918203828111612c5257614614916144f0565b0490565b5050600090565b61462c81614631936146b2565b6146b2565b6145f8565b505050505050600090565b61465a91925060e03d8111613679576136648183612cd7565b50505050505090386145c3565b906020823d8211614698575b8161468060209383612cd7565b810103126104cc5750614692906133af565b38614591565b3d9150614673565b5050505050600090565b508315614530565b600160601b91606082901b916000198482099383808610950394808603951461472f57848311156146a0578291096001821901821680920460028082600302188083028203028083028203028083028203028083028203028083028203028092029003029360018380600003040190848311900302920304170290565b505080919250156146185761348d91614503565b81810291906000198282099183808410930392808403931461478057600160601b91838311156146a0570990828211900360a01b910360601c1790565b50505060601c90565b92919091612710908161479e600454876144f0565b04916147ee7f00000000000000000000000000000000000000000000000000000000000000009360018060a01b038516600052600e60205260406000206147e6828254612e31565b905587612c68565b916000925b600954841080614dd0575b156148b7578261481b6001614812876129cc565b5001548a6144f0565b04908082116148af575b81156148a45781612f059161489989888a61489e97614843836129cc565b50546001600160a01b031661487061485a856129cc565b50938362ffffff93846002809801541692614523565b9261488e61487d866129cc565b50546001600160a01b0316956129cc565b50015416928d614dd9565b612c68565b926147f3565b9361489e9150612c43565b905080614825565b949395925095505082151580614dc6575b6148d25750505050565b9091929360009260005b8351811015614a00576148ef8185612fd6565b51600052600b60205260ff8060406000205416159081156149dd575b506149775761491a8185612fd6565b516040519063133f757160e31b82526004820152610180808260248160008051602061534f8339815191525afa9182156142c7576000916000936149b0575b50506001600160a01b0389811691161490811561499a575b50614985575b61498090612c43565b6148dc565b9361499261498091612c43565b949050614977565b6001600160a01b03898116911614905038614971565b6149ca935080919250903d106104bb576104968183612cd7565b5050505050505050925090503880614959565b90506149e98286612fd6565b51600052600c60205260406000205416153861490b565b5092909394919481614a16575b5083945061306f565b90614a2091614503565b9060005b8551811015614dbb57614a378187612fd6565b51600052600b60205260ff806040600020541615908115614d98575b50614d8f578215614d7e57614a688187612fd6565b51906040519163133f757160e31b835260048301526101808260248160008051602061534f8339815191525afa9182156142c757600090600093614d4d575b506001600160a01b038181169085161492838015614d38575b614ad6575b5050614ad19150612c43565b614a24565b614ae0838a612fd6565b51918415614d305750905b6040516370a0823160e01b81523060048201526020816024816001600160a01b0387165afa9081156142c757600091614cfe575b506001600160a01b0383166000908152600e602052604090205480821115614cf457614b4a91612c68565b905b614b5f876001600160a01b038816613024565b81614cdc575b8415614cd55786945b15614ccf57815b604051958660c081011067ffffffffffffffff60c089011117612c895760c0870160405282875260208701908152604087019182526060918288016000815260808901916000835260a08a01938d85526040519a63219f5d1760e01b8c525160048c01525160248b01525160448a01525160648901525160848801525160a4870152808660c481600060008051602061534f8339815191525af160009181614c96575b50614ad19650614c5b575b50614c3890506001600160a01b038616613129565b614c43575b80614ac5565b614c55906001600160a01b0316613129565b38614c3d565b60207f9204f5f210613c88bbfedbcf63911b917a440c100afc438464fca61b3d9e6cdd916001600160801b0360405191168152a23880614c23565b90915086813d8311614cc8575b614cad8183612cd7565b810103126106ed57614cc1614ad1966133d1565b9038614c18565b503d614ca3565b86614b75565b8194614b6e565b614cef826001600160a01b038516613024565b614b65565b5050600090614b4c565b90506020813d602011614d28575b81614d1960209383612cd7565b810103126106ed575138614b1f565b3d9150614d0c565b905090614aeb565b506001600160a01b0381811690861614614ac0565b9050614d6b9192506101803d610180116104bb576104968183612cd7565b5050505050505050939250905038614aa7565b5050505090505b8038808080614a0d565b614ad190612c43565b9050614da48288612fd6565b51600052600c602052604060002054161538614a53565b505050509050614d85565b50805115156148c8565b508015156147fe565b9290939594821561528957604051614df081612cbb565b62ffffff88168152610bb860208201526101f4604082015261271060608201526000805b600481108080615281575b156152275715612a075762ffffff8160051b8401511681151580615219575b6151d557604051630b4c774160e11b81526001600160a01b0389811660048301528a16602482015262ffffff82166044820152602081606481737a5028bda40e7b173c278c5342087826455ea25a5afa9081156142c7576000916151df575b506001600160a01b0316156151d55760405163095ea7b360e01b600090815273091ad9e2e6e5ed44c1c66db50e49a601f9f36cf66004526024899052602090604481806001600160a01b038e165af1906001600051148216156151bc575b604052156150e0575b604051908161010081011067ffffffffffffffff61010084011117612c8957610100820160409081526001600160a01b038a811684528b811660208086019182528386019485523060608701908152608087018b815260a088018e815260c089018e8152600060e08b01818152985163414bf38960e01b81529a51881660048c01529551871660248b0152975162ffffff1660448a01529151851660648901525160848801525160a4870152935160c486015291511660e4840152829061010490829073091ad9e2e6e5ed44c1c66db50e49a601f9f36cf65af1600091816150ac575b506150085750615003906107896001600160a01b0389166131c2565b614e14565b90915061501d6001600160a01b0388166131c2565b6040805187815260208101929092526001600160a01b0389811692908916917fa078c4190abe07940190effc1846be0ccf03ad6007bc9e93f9697d0b460befbb91a36001600160a01b037f000000000000000000000000000000000000000000000000000000000000000081169088160361509e575b615003600191612c43565b6150a787612f11565b615093565b90916020823d6020116150d8575b816150c760209383612cd7565b810103126104cc5750519038614fe7565b3d91506150ba565b6150f26001600160a01b0389166132a2565b1561519b5760405163095ea7b360e01b600090815273091ad9e2e6e5ed44c1c66db50e49a601f9f36cf66004526024899052602090604481806001600160a01b038e165af1600160005114811615615172575b81604052156151545750614f04565b635274afe760e01b81526001600160a01b0389166004820152602490fd5b6001811516615191573d156001600160a01b038b163b15151616615145565b503d6000823e3d90fd5b604051635274afe760e01b81526001600160a01b0389166004820152602490fd5b3d156001600160a01b038b163b15151690911690614efb565b5061500390612c43565b906020823d602011615211575b816151f960209383612cd7565b810103126104cc575061520b906133af565b38614e9d565b3d91506151ec565b5062ffffff8b168114614e3e565b5050939697505050509190911561523d57505050565b604051928352612d4c926001600160a01b03918216918316907f6930176329c33f663176f0f242132119497db425bb44d32f9ffef8683d10b0c090602090a3612f11565b508215614e1f565b50505050509050565b60405163a9059cbb60e01b60009081526001600160a01b039384166004526024949094529260209060448180855af16001600051148116156152f3575b83604052156152dd57505050565b635274afe760e01b835216600482015260249150fd5b600181151661530957813b15153d1516166152cf565b833d6000823e3d90fd5b91909161531f83612fa4565b9260005b81811061532f57505050565b8061533e61534992848661339f565b356115488288612fd6565b61532356fe000000000000000000000000ec12a9f9a09f50550686363766cc153d03c27b5ea2646970667358221220ef023c93bd3ec2439cc2f7573315ab2967d73ae464f9e1a361eaf69e2a996db064736f6c63430008140033","opcodes":"PUSH1 0xE0 CALLVALUE PUSH3 0x231 JUMPI PUSH1 0x1F PUSH3 0x56E0 CODESIZE DUP2 SWAP1 SUB SWAP2 DUP3 ADD PUSH1 0x1F NOT AND DUP4 ADD SWAP2 PUSH1 0x1 PUSH1 0x1 PUSH1 0x40 SHL SUB DUP4 GT DUP5 DUP5 LT OR PUSH3 0x236 JUMPI DUP1 DUP5 SWAP3 PUSH1 0x60 SWAP5 PUSH1 0x40 MSTORE DUP4 CODECOPY DUP2 ADD SUB SLT PUSH3 0x231 JUMPI PUSH3 0x4D DUP2 PUSH3 0x24C JUMP JUMPDEST PUSH3 0x69 PUSH1 0x40 PUSH3 0x61 PUSH1 0x20 DUP6 ADD PUSH3 0x24C JUMP JUMPDEST SWAP4 ADD PUSH3 0x24C JUMP JUMPDEST PUSH1 0x1 PUSH32 0x9B779B17422D0DF92223018B32B4D1FA46E071723D6817E2486D003BECC55F00 SSTORE PUSH2 0x12C PUSH1 0x3 SSTORE PUSH1 0xC8 PUSH1 0x4 SSTORE PUSH1 0x0 SWAP3 DUP4 PUSH1 0x5 SSTORE PUSH2 0xBB8 PUSH3 0xFFFFFF NOT PUSH1 0x6 SLOAD AND OR PUSH1 0x6 SSTORE DUP3 PUSH1 0x80 MSTORE PUSH1 0xA0 MSTORE PUSH1 0xC0 MSTORE PUSH1 0x1 DUP1 PUSH1 0xA0 SHL SUB NOT CALLER DUP2 DUP5 SLOAD AND OR DUP4 SSTORE CALLER DUP4 MSTORE PUSH1 0x1 PUSH1 0x20 MSTORE PUSH1 0x40 DUP4 KECCAK256 PUSH1 0x1 PUSH1 0xFF NOT DUP3 SLOAD AND OR SWAP1 SSTORE PUSH1 0x2 SLOAD PUSH9 0x10000000000000000 DUP2 LT ISZERO PUSH3 0x21D JUMPI PUSH1 0x1 DUP2 ADD DUP1 PUSH1 0x2 SSTORE DUP2 LT ISZERO PUSH3 0x209 JUMPI PUSH1 0x20 DUP5 PUSH1 0x2 PUSH3 0x121 SWAP7 MSTORE KECCAK256 ADD SWAP1 CALLER SWAP1 DUP3 SLOAD AND OR SWAP1 SSTORE PUSH3 0x261 JUMP JUMPDEST PUSH1 0x40 MLOAD PUSH2 0x53A4 SWAP1 DUP2 PUSH3 0x33C DUP3 CODECOPY PUSH1 0x80 MLOAD DUP2 DUP2 DUP2 PUSH2 0x5A0 ADD MSTORE DUP2 DUP2 PUSH2 0x1152 ADD MSTORE DUP2 DUP2 PUSH2 0x217C ADD MSTORE DUP2 DUP2 PUSH2 0x37BA ADD MSTORE DUP2 DUP2 PUSH2 0x39F1 ADD MSTORE DUP2 DUP2 PUSH2 0x3BD9 ADD MSTORE DUP2 DUP2 PUSH2 0x3C13 ADD MSTORE DUP2 DUP2 PUSH2 0x3D39 ADD MSTORE DUP2 DUP2 PUSH2 0x3DD1 ADD MSTORE DUP2 DUP2 PUSH2 0x3DFE ADD MSTORE DUP2 DUP2 PUSH2 0x3E26 ADD MSTORE DUP2 DUP2 PUSH2 0x3EBF ADD MSTORE DUP2 DUP2 PUSH2 0x3EFA ADD MSTORE DUP2 DUP2 PUSH2 0x3FEC ADD MSTORE DUP2 DUP2 PUSH2 0x4111 ADD MSTORE DUP2 DUP2 PUSH2 0x430F ADD MSTORE DUP2 DUP2 PUSH2 0x440C ADD MSTORE DUP2 DUP2 PUSH2 0x4448 ADD MSTORE DUP2 DUP2 PUSH2 0x47A5 ADD MSTORE PUSH2 0x5069 ADD MSTORE PUSH1 0xA0 MLOAD DUP2 DUP2 DUP2 PUSH2 0x1E66 ADD MSTORE PUSH2 0x265A ADD MSTORE PUSH1 0xC0 MLOAD DUP2 DUP2 DUP2 PUSH2 0x51C ADD MSTORE DUP2 DUP2 PUSH2 0x9AE ADD MSTORE DUP2 DUP2 PUSH2 0xCD4 ADD MSTORE DUP2 DUP2 PUSH2 0x1582 ADD MSTORE DUP2 DUP2 PUSH2 0x19A9 ADD MSTORE DUP2 DUP2 PUSH2 0x2624 ADD MSTORE DUP2 DUP2 PUSH2 0x37F8 ADD MSTORE PUSH2 0x3A2D ADD MSTORE RETURN JUMPDEST PUSH4 0x4E487B71 PUSH1 0xE0 SHL DUP5 MSTORE PUSH1 0x32 PUSH1 0x4 MSTORE PUSH1 0x24 DUP5 REVERT JUMPDEST PUSH4 0x4E487B71 PUSH1 0xE0 SHL DUP5 MSTORE PUSH1 0x41 PUSH1 0x4 MSTORE PUSH1 0x24 DUP5 REVERT JUMPDEST PUSH1 0x0 DUP1 REVERT JUMPDEST PUSH4 0x4E487B71 PUSH1 0xE0 SHL PUSH1 0x0 MSTORE PUSH1 0x41 PUSH1 0x4 MSTORE PUSH1 0x24 PUSH1 0x0 REVERT JUMPDEST MLOAD SWAP1 PUSH1 0x1 PUSH1 0x1 PUSH1 0xA0 SHL SUB DUP3 AND DUP3 SUB PUSH3 0x231 JUMPI JUMP JUMPDEST PUSH1 0x1 PUSH1 0x1 PUSH1 0xA0 SHL SUB AND PUSH1 0x0 DUP2 DUP2 MSTORE PUSH1 0x10 PUSH1 0x20 MSTORE PUSH1 0x40 DUP2 KECCAK256 DUP1 SLOAD PUSH1 0xFF DUP2 AND PUSH3 0x335 JUMPI PUSH1 0xFF NOT AND PUSH1 0x1 OR SWAP1 SSTORE PUSH1 0xF SLOAD PUSH9 0x10000000000000000 DUP2 LT ISZERO PUSH3 0x321 JUMPI PUSH1 0x1 DUP2 ADD DUP1 PUSH1 0xF SSTORE DUP2 LT ISZERO PUSH3 0x30D JUMPI PUSH1 0xF DUP3 MSTORE PUSH32 0x8D1108E10BCB7C27DDDFC02ED9D693A074039D026CF4EA4240B40F7D581AC802 ADD DUP1 SLOAD PUSH1 0x1 PUSH1 0x1 PUSH1 0xA0 SHL SUB NOT AND DUP4 OR SWAP1 SSTORE PUSH32 0xDD710997ABACDF4E5052B0F85F257D182157D5488113CE7E50FCDDD9409E4F83 SWAP1 DUP1 LOG2 JUMP JUMPDEST PUSH4 0x4E487B71 PUSH1 0xE0 SHL DUP3 MSTORE PUSH1 0x32 PUSH1 0x4 MSTORE PUSH1 0x24 DUP3 REVERT JUMPDEST PUSH4 0x4E487B71 PUSH1 0xE0 SHL DUP3 MSTORE PUSH1 0x41 PUSH1 0x4 MSTORE PUSH1 0x24 DUP3 REVERT JUMPDEST POP POP POP POP JUMP INVALID PUSH1 0x80 PUSH1 0x40 DUP2 DUP2 MSTORE PUSH1 0x4 DUP1 CALLDATASIZE LT ISZERO PUSH2 0x15 JUMPI PUSH1 0x0 DUP1 REVERT JUMPDEST PUSH1 0x0 SWAP3 DUP4 CALLDATALOAD PUSH1 0xE0 SHR SWAP1 DUP2 PUSH4 0x6C16B3F EQ PUSH2 0x2975 JUMPI POP DUP1 PUSH4 0x9CAE2C8 EQ PUSH2 0x2836 JUMPI DUP1 PUSH4 0xA42F049 EQ PUSH2 0x25DB JUMPI DUP1 PUSH4 0x10A135CA EQ PUSH2 0x251F JUMPI DUP1 PUSH4 0x15226B54 EQ PUSH2 0x4CF JUMPI DUP1 PUSH4 0x16C38B3C EQ PUSH2 0x24A5 JUMPI DUP1 PUSH4 0x173825D9 EQ PUSH2 0x2308 JUMPI DUP1 PUSH4 0x19EB7845 EQ PUSH2 0x2124 JUMPI DUP1 PUSH4 0x1A3CE4E6 EQ PUSH2 0x2067 JUMPI DUP1 PUSH4 0x1B74CEA2 EQ PUSH2 0x2002 JUMPI DUP1 PUSH4 0x1BEA83FE EQ PUSH2 0x1FD9 JUMPI DUP1 PUSH4 0x1D8D7C66 EQ PUSH2 0x1EEA JUMPI DUP1 PUSH4 0x2015A677 EQ PUSH2 0x1E95 JUMPI DUP1 PUSH4 0x22046088 EQ PUSH2 0x1E51 JUMPI DUP1 PUSH4 0x252D2A08 EQ PUSH2 0x1E27 JUMPI DUP1 PUSH4 0x2C69FDEF EQ PUSH2 0x1D21 JUMPI DUP1 PUSH4 0x2F435E55 EQ PUSH2 0x1BFB JUMPI DUP1 PUSH4 0x2F54BF6E EQ PUSH2 0x1BBD JUMPI DUP1 PUSH4 0x3CD57D61 EQ PUSH2 0x1B9E JUMPI DUP1 PUSH4 0x40EC97C6 EQ PUSH2 0x1B72 JUMPI DUP1 PUSH4 0x4B41CB27 EQ PUSH2 0x1ABE JUMPI DUP1 PUSH4 0x55B6CCE1 EQ PUSH2 0x1A92 JUMPI DUP1 PUSH4 0x578C71D9 EQ PUSH2 0x1A73 JUMPI DUP1 PUSH4 0x5C975ABB EQ PUSH2 0x1A4C JUMPI DUP1 PUSH4 0x616E1661 EQ PUSH2 0x196E JUMPI DUP1 PUSH4 0x65DB6579 EQ PUSH2 0x1951 JUMPI DUP1 PUSH4 0x68C31DD5 EQ PUSH2 0x1913 JUMPI DUP1 PUSH4 0x7065CB48 EQ PUSH2 0x17F0 JUMPI DUP1 PUSH4 0x720FEFFC EQ PUSH2 0x17B2 JUMPI DUP1 PUSH4 0x73427B99 EQ PUSH2 0x15E6 JUMPI DUP1 PUSH4 0x75290605 EQ PUSH2 0x15C2 JUMPI DUP1 PUSH4 0x76D3FE8A EQ PUSH2 0x1553 JUMPI DUP1 PUSH4 0x77D56A04 EQ PUSH2 0x14BB JUMPI DUP1 PUSH4 0x82F8FE78 EQ PUSH2 0x148A JUMPI DUP1 PUSH4 0x86629EC4 EQ PUSH2 0x1350 JUMPI DUP1 PUSH4 0x871F6B05 EQ PUSH2 0x110B JUMPI DUP1 PUSH4 0x8762DAD9 EQ PUSH2 0x10CD JUMPI DUP1 PUSH4 0x8D0B3C7C EQ PUSH2 0x10B1 JUMPI DUP1 PUSH4 0x8D95C2CF EQ PUSH2 0x1079 JUMPI DUP1 PUSH4 0x8E10BE33 EQ PUSH2 0x1051 JUMPI DUP1 PUSH4 0x8FAD2627 EQ PUSH2 0x1005 JUMPI DUP1 PUSH4 0xA0E67E2B EQ PUSH2 0xF6E JUMPI DUP1 PUSH4 0xA840702B EQ PUSH2 0xE20 JUMPI DUP1 PUSH4 0xB40CD21D EQ PUSH2 0xCAE JUMPI DUP1 PUSH4 0xC006EE2D EQ PUSH2 0xC58 JUMPI DUP1 PUSH4 0xC0467422 EQ PUSH2 0xADF JUMPI DUP1 PUSH4 0xC3F909D4 EQ PUSH2 0xA8C JUMPI DUP1 PUSH4 0xC6005893 EQ PUSH2 0xA5D JUMPI DUP1 PUSH4 0xC74C0FAC EQ PUSH2 0xA2E JUMPI DUP1 PUSH4 0xCB609064 EQ PUSH2 0x97F JUMPI DUP1 PUSH4 0xCE8021DE EQ PUSH2 0x960 JUMPI DUP1 PUSH4 0xD1F3AE1B EQ PUSH2 0x92B JUMPI DUP1 PUSH4 0xD2D6A872 EQ PUSH2 0x821 JUMPI DUP1 PUSH4 0xD639AB1C EQ PUSH2 0x796 JUMPI DUP1 PUSH4 0xD7759E6A EQ PUSH2 0x6F2 JUMPI DUP1 PUSH4 0xDA276804 EQ PUSH2 0x5CF JUMPI DUP1 PUSH4 0xDE061D66 EQ PUSH2 0x58B JUMPI DUP1 PUSH4 0xDEF79AB5 EQ PUSH2 0x54B JUMPI DUP1 PUSH4 0xE02EF7B6 EQ PUSH2 0x507 JUMPI DUP1 PUSH4 0xE75179A4 EQ PUSH2 0x4CF JUMPI DUP1 PUSH4 0xEB02C301 EQ PUSH2 0x394 JUMPI DUP1 PUSH4 0xEB18C45E EQ PUSH2 0x356 JUMPI PUSH4 0xF48D9CD5 EQ PUSH2 0x2D8 JUMPI PUSH1 0x0 DUP1 REVERT JUMPDEST CALLVALUE PUSH2 0x352 JUMPI PUSH1 0x20 CALLDATASIZE PUSH1 0x3 NOT ADD SLT PUSH2 0x352 JUMPI PUSH2 0x303 PUSH1 0xFF PUSH2 0x32B SWAP4 CALLER DUP7 MSTORE PUSH1 0x1 PUSH1 0x20 MSTORE DUP6 KECCAK256 SLOAD AND PUSH2 0x2BCD JUMP JUMPDEST PUSH2 0x315 PUSH1 0xFF PUSH1 0x6 SLOAD PUSH1 0x18 SHR AND ISZERO PUSH2 0x3712 JUMP JUMPDEST PUSH2 0x31D PUSH2 0x3753 JUMP JUMPDEST CALLDATALOAD PUSH2 0x326 PUSH2 0x3332 JUMP JUMPDEST PUSH2 0x39D1 JUMP JUMPDEST PUSH1 0x1 PUSH32 0x9B779B17422D0DF92223018B32B4D1FA46E071723D6817E2486D003BECC55F00 SSTORE DUP1 RETURN JUMPDEST DUP3 DUP1 REVERT JUMPDEST POP POP CALLVALUE PUSH2 0x390 JUMPI DUP1 PUSH1 0x3 NOT CALLDATASIZE ADD SLT PUSH2 0x390 JUMPI PUSH1 0x20 SWAP1 PUSH3 0xFFFFFF PUSH2 0x388 PUSH2 0x37A PUSH2 0x29A0 JUMP JUMPDEST PUSH2 0x382 PUSH2 0x29B6 JUMP JUMPDEST SWAP1 PUSH2 0x2DAC JUMP JUMPDEST SWAP2 MLOAD SWAP2 AND DUP2 MSTORE RETURN JUMPDEST POP DUP1 REVERT JUMPDEST POP SWAP2 CALLVALUE PUSH2 0x4CC JUMPI PUSH1 0x20 CALLDATASIZE PUSH1 0x3 NOT ADD SLT PUSH2 0x4CC JUMPI DUP3 CALLDATALOAD SWAP1 DUP2 DUP4 MLOAD SWAP5 PUSH4 0x133F7571 PUSH1 0xE3 SHL DUP7 MSTORE DUP6 ADD MSTORE PUSH2 0x180 DUP1 DUP6 PUSH1 0x24 DUP2 PUSH1 0x0 DUP1 MLOAD PUSH1 0x20 PUSH2 0x534F DUP4 CODECOPY DUP2 MLOAD SWAP2 MSTORE GAS STATICCALL DUP1 ISZERO PUSH2 0x4C2 JUMPI PUSH2 0x140 SWAP6 DUP4 SWAP5 DUP5 SWAP7 DUP6 SWAP1 DUP7 SWAP2 DUP8 SWAP4 DUP9 SWAP6 DUP10 SWAP9 DUP11 SWAP9 PUSH2 0x46F JUMPI JUMPDEST POP POP SWAP1 PUSH3 0xFFFFFF SWAP2 DUP10 MSTORE PUSH1 0xB PUSH1 0x20 MSTORE PUSH1 0xFF DUP4 DUP2 DUP2 DUP13 KECCAK256 SLOAD AND SWAP11 PUSH1 0xC PUSH1 0x20 MSTORE KECCAK256 SLOAD AND SWAP10 DUP4 MLOAD SWAP12 PUSH1 0x1 DUP1 PUSH1 0xA0 SHL SUB DUP1 SWAP3 AND DUP14 MSTORE AND PUSH1 0x20 DUP13 ADD MSTORE AND SWAP1 DUP10 ADD MSTORE PUSH1 0x2 SIGNEXTEND PUSH1 0x60 DUP9 ADD MSTORE PUSH1 0x2 SIGNEXTEND PUSH1 0x80 DUP8 ADD MSTORE PUSH1 0x1 PUSH1 0x1 PUSH1 0x80 SHL SUB SWAP3 DUP4 DUP1 SWAP3 AND PUSH1 0xA0 DUP9 ADD MSTORE AND PUSH1 0xC0 DUP7 ADD MSTORE AND PUSH1 0xE0 DUP5 ADD MSTORE ISZERO ISZERO PUSH2 0x100 DUP4 ADD MSTORE ISZERO ISZERO PUSH2 0x120 DUP3 ADD MSTORE RETURN JUMPDEST SWAP6 POP SWAP6 POP SWAP7 POP POP SWAP8 POP POP PUSH3 0xFFFFFF SWAP6 POP PUSH2 0x49E SWAP3 POP DUP1 RETURNDATASIZE LT PUSH2 0x4BB JUMPI JUMPDEST PUSH2 0x496 DUP2 DUP4 PUSH2 0x2CD7 JUMP JUMPDEST DUP2 ADD SWAP1 PUSH2 0x33E5 JUMP JUMPDEST SWAP8 SWAP15 SWAP9 SWAP14 SWAP1 SWAP12 SWAP8 SWAP11 POP SWAP3 SWAP9 POP SWAP3 SWAP7 SWAP4 SWAP6 SWAP4 SWAP5 SWAP4 SWAP3 POP CODESIZE SWAP1 POP PUSH2 0x3F3 JUMP JUMPDEST POP RETURNDATASIZE PUSH2 0x48C JUMP JUMPDEST DUP5 MLOAD RETURNDATASIZE DUP5 DUP3 RETURNDATACOPY RETURNDATASIZE SWAP1 REVERT JUMPDEST DUP1 REVERT JUMPDEST POP POP CALLVALUE PUSH2 0x390 JUMPI PUSH1 0x20 CALLDATASIZE PUSH1 0x3 NOT ADD SLT PUSH2 0x390 JUMPI PUSH1 0x20 SWAP2 DUP2 SWAP1 PUSH1 0x1 PUSH1 0x1 PUSH1 0xA0 SHL SUB PUSH2 0x4F7 PUSH2 0x29A0 JUMP JUMPDEST AND DUP2 MSTORE PUSH1 0xE DUP5 MSTORE KECCAK256 SLOAD SWAP1 MLOAD SWAP1 DUP2 MSTORE RETURN JUMPDEST POP POP CALLVALUE PUSH2 0x390 JUMPI DUP2 PUSH1 0x3 NOT CALLDATASIZE ADD SLT PUSH2 0x390 JUMPI MLOAD PUSH32 0x0 PUSH1 0x1 PUSH1 0x1 PUSH1 0xA0 SHL SUB AND DUP2 MSTORE PUSH1 0x20 SWAP1 RETURN JUMPDEST POP CALLVALUE PUSH2 0x352 JUMPI PUSH1 0x20 CALLDATASIZE PUSH1 0x3 NOT ADD SLT PUSH2 0x352 JUMPI CALLDATALOAD SWAP2 PUSH1 0x2 SLOAD DUP4 LT ISZERO PUSH2 0x4CC JUMPI POP PUSH2 0x575 PUSH1 0x20 SWAP3 PUSH2 0x2A1D JUMP JUMPDEST SWAP1 SLOAD SWAP2 MLOAD SWAP2 PUSH1 0x1 DUP1 PUSH1 0xA0 SHL SUB SWAP2 PUSH1 0x3 SHL SHR AND DUP2 MSTORE RETURN JUMPDEST POP POP CALLVALUE PUSH2 0x390 JUMPI DUP2 PUSH1 0x3 NOT CALLDATASIZE ADD SLT PUSH2 0x390 JUMPI MLOAD PUSH32 0x0 PUSH1 0x1 PUSH1 0x1 PUSH1 0xA0 SHL SUB AND DUP2 MSTORE PUSH1 0x20 SWAP1 RETURN JUMPDEST POP POP CALLVALUE PUSH2 0x390 JUMPI PUSH1 0x60 CALLDATASIZE PUSH1 0x3 NOT ADD SLT PUSH2 0x390 JUMPI PUSH2 0x5EA PUSH2 0x29A0 JUMP JUMPDEST SWAP1 PUSH2 0x5F3 PUSH2 0x29B6 JUMP JUMPDEST PUSH1 0x44 CALLDATALOAD SWAP3 PUSH3 0xFFFFFF DUP5 AND DUP1 SWAP5 SUB PUSH2 0x6ED JUMPI CALLER DUP6 MSTORE PUSH1 0x1 PUSH1 0x20 MSTORE PUSH2 0x61B PUSH1 0xFF DUP5 DUP8 KECCAK256 SLOAD AND PUSH2 0x2BCD JUMP JUMPDEST PUSH1 0x64 DUP5 EQ DUP1 ISZERO PUSH2 0x6E2 JUMPI JUMPDEST DUP1 ISZERO PUSH2 0x6D7 JUMPI JUMPDEST DUP1 ISZERO PUSH2 0x6CC JUMPI JUMPDEST DUP1 ISZERO PUSH2 0x6C4 JUMPI JUMPDEST PUSH2 0x644 SWAP1 PUSH2 0x2D71 JUMP JUMPDEST PUSH1 0x1 PUSH1 0x1 PUSH1 0xA0 SHL SUB DUP3 DUP2 AND SWAP1 DUP3 AND LT ISZERO PUSH2 0x6B7 JUMPI PUSH2 0x69C PUSH2 0x68E SWAP2 SWAP3 JUMPDEST DUP5 MLOAD SWAP3 DUP4 SWAP2 PUSH1 0x20 DUP4 ADD SWAP6 DUP7 SWAP1 PUSH1 0x28 SWAP3 PUSH1 0x1 PUSH1 0x1 PUSH1 0x60 SHL SUB NOT DUP1 SWAP3 PUSH1 0x60 SHL AND DUP4 MSTORE PUSH1 0x60 SHL AND PUSH1 0x14 DUP3 ADD MSTORE ADD SWAP1 JUMP JUMPDEST SUB PUSH1 0x1F NOT DUP2 ADD DUP4 MSTORE DUP3 PUSH2 0x2CD7 JUMP JUMPDEST MLOAD SWAP1 KECCAK256 DUP4 MSTORE PUSH1 0x8 PUSH1 0x20 MSTORE DUP3 KECCAK256 SWAP1 PUSH3 0xFFFFFF NOT DUP3 SLOAD AND OR SWAP1 SSTORE DUP1 RETURN JUMPDEST PUSH2 0x68E SWAP1 PUSH2 0x69C SWAP1 PUSH2 0x661 JUMP JUMPDEST POP DUP4 ISZERO PUSH2 0x63B JUMP JUMPDEST POP PUSH2 0x2710 DUP5 EQ PUSH2 0x634 JUMP JUMPDEST POP PUSH2 0xBB8 DUP5 EQ PUSH2 0x62D JUMP JUMPDEST POP PUSH2 0x1F4 DUP5 EQ PUSH2 0x626 JUMP JUMPDEST PUSH1 0x0 DUP1 REVERT JUMPDEST POP SWAP1 CALLVALUE PUSH2 0x352 JUMPI PUSH1 0x20 SWAP2 DUP3 PUSH1 0x3 NOT CALLDATASIZE ADD SLT PUSH2 0x792 JUMPI DUP1 CALLDATALOAD SWAP1 PUSH8 0xFFFFFFFFFFFFFFFF DUP3 GT PUSH2 0x78E JUMPI PUSH2 0x725 SWAP2 CALLDATASIZE SWAP2 ADD PUSH2 0x2B69 JUMP JUMPDEST SWAP2 CALLER DUP6 MSTORE PUSH1 0x1 DUP5 MSTORE PUSH1 0xFF SWAP1 PUSH2 0x73E DUP3 DUP3 DUP9 KECCAK256 SLOAD AND PUSH2 0x2BCD JUMP JUMPDEST DUP6 JUMPDEST DUP5 DUP2 LT PUSH2 0x74B JUMPI DUP7 DUP1 RETURN JUMPDEST DUP1 PUSH2 0x75A PUSH2 0x770 SWAP3 DUP8 DUP8 PUSH2 0x339F JUMP JUMPDEST CALLDATALOAD DUP9 MSTORE PUSH1 0xB DUP8 MSTORE DUP4 DUP4 DUP10 KECCAK256 SLOAD AND PUSH2 0x775 JUMPI PUSH2 0x2C43 JUMP JUMPDEST PUSH2 0x740 JUMP JUMPDEST PUSH2 0x789 PUSH2 0x783 DUP3 DUP9 DUP9 PUSH2 0x339F JUMP JUMPDEST CALLDATALOAD PUSH2 0x3512 JUMP JUMPDEST PUSH2 0x2C43 JUMP JUMPDEST DUP5 DUP1 REVERT JUMPDEST DUP4 DUP1 REVERT JUMPDEST POP CALLVALUE PUSH2 0x352 JUMPI PUSH1 0x20 CALLDATASIZE PUSH1 0x3 NOT ADD SLT PUSH2 0x352 JUMPI CALLDATALOAD SWAP1 PUSH3 0xFFFFFF DUP3 AND DUP1 SWAP3 SUB PUSH2 0x6ED JUMPI PUSH1 0xFF PUSH2 0x7CE SWAP2 CALLER DUP6 MSTORE PUSH1 0x1 PUSH1 0x20 MSTORE DUP5 KECCAK256 SLOAD AND PUSH2 0x2BCD JUMP JUMPDEST PUSH1 0x64 DUP2 EQ DUP1 ISZERO PUSH2 0x816 JUMPI JUMPDEST DUP1 ISZERO PUSH2 0x80B JUMPI JUMPDEST DUP1 ISZERO PUSH2 0x800 JUMPI JUMPDEST PUSH2 0x7F0 SWAP1 PUSH2 0x2D71 JUMP JUMPDEST PUSH3 0xFFFFFF NOT PUSH1 0x6 SLOAD AND OR PUSH1 0x6 SSTORE DUP1 RETURN JUMPDEST POP PUSH2 0x2710 DUP2 EQ PUSH2 0x7E7 JUMP JUMPDEST POP PUSH2 0xBB8 DUP2 EQ PUSH2 0x7E0 JUMP JUMPDEST POP PUSH2 0x1F4 DUP2 EQ PUSH2 0x7D9 JUMP JUMPDEST POP SWAP1 CALLVALUE PUSH2 0x352 JUMPI PUSH1 0x20 CALLDATASIZE PUSH1 0x3 NOT ADD SLT PUSH2 0x352 JUMPI DUP2 CALLDATALOAD SWAP2 CALLER DUP5 MSTORE PUSH1 0x1 PUSH1 0x20 MSTORE PUSH2 0x84E PUSH1 0xFF DUP4 DUP7 KECCAK256 SLOAD AND PUSH2 0x2BCD JUMP JUMPDEST DUP3 DUP5 MSTORE PUSH1 0xB PUSH1 0x20 MSTORE PUSH1 0xFF DUP3 DUP6 KECCAK256 SLOAD AND PUSH2 0x8F7 JUMPI PUSH1 0xD SLOAD SWAP1 PUSH1 0x1 PUSH1 0x40 SHL DUP3 LT ISZERO PUSH2 0x8E4 JUMPI POP DUP3 PUSH2 0x886 DUP3 PUSH1 0x1 PUSH2 0x89F SWAP5 ADD PUSH1 0xD SSTORE PUSH2 0x2A8B JUMP JUMPDEST SWAP1 SWAP2 SWAP1 DUP3 SLOAD SWAP1 PUSH1 0x3 SHL SWAP2 DUP3 SHL SWAP2 PUSH1 0x0 NOT SWAP1 SHL NOT AND OR SWAP1 SSTORE JUMP JUMPDEST DUP2 DUP4 MSTORE PUSH1 0xB PUSH1 0x20 MSTORE DUP3 KECCAK256 DUP1 SLOAD PUSH1 0xFF NOT AND PUSH1 0x1 OR SWAP1 SSTORE PUSH2 0x8BD DUP2 PUSH2 0x3512 JUMP JUMPDEST PUSH32 0x3D0A2B1C6F8E72F333688E33B7FC1767F042D33EAEF1D3B5DB5968567033E91F DUP3 DUP1 LOG2 DUP1 RETURN JUMPDEST PUSH4 0x4E487B71 PUSH1 0xE0 SHL DUP6 MSTORE PUSH1 0x41 SWAP1 MSTORE PUSH1 0x24 DUP5 REVERT JUMPDEST PUSH1 0x20 PUSH1 0x64 SWAP3 MLOAD SWAP2 PUSH3 0x461BCD PUSH1 0xE5 SHL DUP4 MSTORE DUP3 ADD MSTORE PUSH1 0xF PUSH1 0x24 DUP3 ADD MSTORE PUSH15 0x105B1C9958591E481B585B9859D959 PUSH1 0x8A SHL PUSH1 0x44 DUP3 ADD MSTORE REVERT JUMPDEST POP POP CALLVALUE PUSH2 0x390 JUMPI DUP2 PUSH1 0x3 NOT CALLDATASIZE ADD SLT PUSH2 0x390 JUMPI PUSH2 0x95C SWAP1 PUSH2 0x949 PUSH2 0x2CF9 JUMP JUMPDEST SWAP1 MLOAD SWAP2 DUP3 SWAP2 PUSH1 0x20 DUP4 MSTORE PUSH1 0x20 DUP4 ADD SWAP1 PUSH2 0x2AC2 JUMP JUMPDEST SUB SWAP1 RETURN JUMPDEST POP POP CALLVALUE PUSH2 0x390 JUMPI DUP2 PUSH1 0x3 NOT CALLDATASIZE ADD SLT PUSH2 0x390 JUMPI PUSH1 0x20 SWAP1 PUSH1 0x3 SLOAD SWAP1 MLOAD SWAP1 DUP2 MSTORE RETURN JUMPDEST POP SWAP2 SWAP1 CALLVALUE PUSH2 0x390 JUMPI DUP2 PUSH1 0x3 NOT CALLDATASIZE ADD SLT PUSH2 0x390 JUMPI DUP1 MLOAD PUSH4 0x3111B0D1 PUSH1 0xE2 SHL DUP2 MSTORE ADDRESS SWAP4 DUP2 ADD SWAP4 SWAP1 SWAP4 MSTORE PUSH1 0x20 DUP4 PUSH1 0x24 DUP2 PUSH32 0x0 PUSH1 0x1 PUSH1 0x1 PUSH1 0xA0 SHL SUB AND GAS STATICCALL SWAP2 DUP3 ISZERO PUSH2 0xA23 JUMPI SWAP2 PUSH2 0x9EF JUMPI JUMPDEST PUSH1 0x20 SWAP3 POP MLOAD SWAP1 DUP2 MSTORE RETURN JUMPDEST SWAP1 POP PUSH1 0x20 DUP3 RETURNDATASIZE DUP3 GT PUSH2 0xA1B JUMPI JUMPDEST DUP2 PUSH2 0xA09 PUSH1 0x20 SWAP4 DUP4 PUSH2 0x2CD7 JUMP JUMPDEST DUP2 ADD SUB SLT PUSH2 0x6ED JUMPI PUSH1 0x20 SWAP2 MLOAD SWAP1 PUSH2 0x9E5 JUMP JUMPDEST RETURNDATASIZE SWAP2 POP PUSH2 0x9FC JUMP JUMPDEST SWAP1 MLOAD SWAP1 RETURNDATASIZE SWAP1 DUP3 RETURNDATACOPY RETURNDATASIZE SWAP1 REVERT JUMPDEST POP POP CALLVALUE PUSH2 0x390 JUMPI DUP2 PUSH1 0x3 NOT CALLDATASIZE ADD SLT PUSH2 0x390 JUMPI PUSH1 0x20 SWAP1 MLOAD PUSH20 0x7A5028BDA40E7B173C278C5342087826455EA25A DUP2 MSTORE RETURN JUMPDEST POP POP CALLVALUE PUSH2 0x390 JUMPI DUP2 PUSH1 0x3 NOT CALLDATASIZE ADD SLT PUSH2 0x390 JUMPI PUSH1 0x20 SWAP1 MLOAD PUSH20 0x91AD9E2E6E5ED44C1C66DB50E49A601F9F36CF6 DUP2 MSTORE RETURN JUMPDEST POP SWAP1 CALLVALUE PUSH2 0x352 JUMPI DUP3 PUSH1 0x3 NOT CALLDATASIZE ADD SLT PUSH2 0x352 JUMPI PUSH1 0xC0 SWAP3 POP PUSH1 0xFF PUSH1 0x3 SLOAD SWAP3 SLOAD SWAP2 PUSH1 0x5 SLOAD PUSH1 0x6 SLOAD SWAP2 PUSH1 0x7 SLOAD SWAP5 DUP2 MLOAD SWAP7 DUP8 MSTORE PUSH1 0x20 DUP8 ADD MSTORE DUP6 ADD MSTORE PUSH3 0xFFFFFF DUP2 AND PUSH1 0x60 DUP6 ADD MSTORE PUSH1 0x18 SHR AND ISZERO ISZERO PUSH1 0x80 DUP4 ADD MSTORE PUSH1 0xA0 DUP3 ADD MSTORE RETURN JUMPDEST POP CALLVALUE PUSH2 0x352 JUMPI PUSH1 0x20 CALLDATASIZE PUSH1 0x3 NOT ADD SLT PUSH2 0x352 JUMPI DUP1 CALLDATALOAD SWAP2 CALLER DUP5 MSTORE PUSH1 0x1 SWAP1 DUP2 PUSH1 0x20 MSTORE PUSH2 0xB0D PUSH1 0xFF DUP3 DUP8 KECCAK256 SLOAD AND PUSH2 0x2BCD JUMP JUMPDEST DUP4 DUP6 MSTORE PUSH1 0xB PUSH1 0x20 MSTORE PUSH1 0xFF DUP2 DUP7 KECCAK256 SLOAD AND ISZERO PUSH2 0xC28 JUMPI DUP4 DUP6 MSTORE PUSH1 0xB PUSH1 0x20 MSTORE DUP5 KECCAK256 DUP1 SLOAD PUSH1 0xFF NOT AND SWAP1 SSTORE DUP3 SWAP2 SWAP1 DUP5 DUP2 JUMPDEST PUSH2 0xB67 JUMPI JUMPDEST DUP6 DUP5 PUSH32 0x8DAB17171CEB83ACCA6E0D86E9C8B6D3F2EEC3A1EC6A5A2F9A3F1B7E17AD1035 DUP3 DUP1 LOG2 DUP1 RETURN JUMPDEST PUSH1 0xD DUP1 SLOAD DUP1 DUP4 LT ISZERO PUSH2 0xC21 JUMPI PUSH2 0xB7C DUP4 PUSH2 0x2A8B JUMP JUMPDEST SWAP7 SWAP1 SLOAD PUSH1 0x3 SWAP8 DUP9 SHL SHR EQ PUSH2 0xBA2 JUMPI POP POP PUSH2 0xB98 SWAP2 SWAP3 SWAP4 POP PUSH2 0x2C43 JUMP JUMPDEST SWAP1 DUP4 SWAP3 SWAP2 DUP2 PUSH2 0xB39 JUMP JUMPDEST SWAP3 POP SWAP3 SWAP1 PUSH1 0x0 NOT SWAP3 DUP4 DUP2 ADD SWAP1 DUP2 GT PUSH2 0xC0E JUMPI SWAP1 PUSH2 0x886 PUSH2 0xBC4 PUSH2 0xBD0 SWAP4 PUSH2 0x2A8B JUMP JUMPDEST SWAP1 SLOAD SWAP1 DUP9 SHL SHR SWAP2 PUSH2 0x2A8B JUMP JUMPDEST DUP3 SLOAD SWAP1 DUP2 ISZERO PUSH2 0xBFB JUMPI POP DUP2 ADD SWAP3 PUSH2 0xBE6 DUP5 PUSH2 0x2A8B JUMP JUMPDEST DUP2 SWAP4 SWAP2 SLOAD SWAP3 SHL SHL NOT AND SWAP1 SSTORE SSTORE DUP1 CODESIZE DUP1 DUP1 PUSH2 0xB3E JUMP JUMPDEST PUSH4 0x4E487B71 PUSH1 0xE0 SHL DUP8 MSTORE PUSH1 0x31 SWAP1 MSTORE PUSH1 0x24 DUP7 REVERT JUMPDEST PUSH4 0x4E487B71 PUSH1 0xE0 SHL DUP9 MSTORE PUSH1 0x11 DUP4 MSTORE PUSH1 0x24 DUP9 REVERT JUMPDEST POP POP PUSH2 0xB3E JUMP JUMPDEST MLOAD PUSH3 0x461BCD PUSH1 0xE5 SHL DUP2 MSTORE PUSH1 0x20 DUP2 DUP5 ADD MSTORE PUSH1 0xB PUSH1 0x24 DUP3 ADD MSTORE PUSH11 0x139BDD081B585B9859D959 PUSH1 0xAA SHL PUSH1 0x44 DUP3 ADD MSTORE PUSH1 0x64 SWAP1 REVERT JUMPDEST POP POP CALLVALUE PUSH2 0x390 JUMPI PUSH2 0xC8A PUSH2 0xCA9 PUSH2 0x32B SWAP3 PUSH1 0xFF PUSH2 0xC74 CALLDATASIZE PUSH2 0x2B9A JUMP JUMPDEST SWAP6 SWAP2 SWAP3 SWAP1 SWAP4 CALLER DUP10 MSTORE PUSH1 0x1 PUSH1 0x20 MSTORE DUP9 KECCAK256 SLOAD AND PUSH2 0x2BCD JUMP JUMPDEST PUSH2 0xC9C PUSH1 0xFF PUSH1 0x6 SLOAD PUSH1 0x18 SHR AND ISZERO PUSH2 0x3712 JUMP JUMPDEST PUSH2 0xCA4 PUSH2 0x3753 JUMP JUMPDEST PUSH2 0x5313 JUMP JUMPDEST PUSH2 0x40F3 JUMP JUMPDEST POP SWAP2 CALLVALUE PUSH2 0x4CC JUMPI DUP1 PUSH1 0x3 NOT CALLDATASIZE ADD SLT PUSH2 0x4CC JUMPI DUP2 MLOAD PUSH4 0x60217267 PUSH1 0xE0 SHL DUP2 MSTORE ADDRESS DUP5 DUP3 ADD MSTORE SWAP2 PUSH32 0x0 PUSH1 0x1 PUSH1 0x1 PUSH1 0xA0 SHL SUB AND PUSH1 0x20 DUP1 DUP6 PUSH1 0x24 DUP2 DUP6 GAS STATICCALL SWAP5 DUP6 ISZERO PUSH2 0xE13 JUMPI DUP5 SWAP6 PUSH2 0xDE4 JUMPI JUMPDEST POP DUP3 MLOAD PUSH4 0x3111B0D1 PUSH1 0xE2 SHL DUP2 MSTORE ADDRESS DUP8 DUP3 ADD MSTORE SWAP2 DUP2 DUP4 PUSH1 0x24 DUP2 DUP5 GAS STATICCALL SWAP3 DUP4 ISZERO PUSH2 0xDDA JUMPI DUP6 SWAP4 PUSH2 0xDAB JUMPI JUMPDEST POP DUP2 SWAP1 DUP5 MLOAD SWAP8 DUP9 DUP1 SWAP3 PUSH4 0x40BD8E69 PUSH1 0xE1 SHL DUP3 MSTORE GAS STATICCALL SWAP4 DUP5 ISZERO PUSH2 0xDA0 JUMPI SWAP4 PUSH2 0xD70 JUMPI JUMPDEST PUSH1 0x60 SWAP6 POP DUP3 MLOAD SWAP5 DUP6 MSTORE DUP5 ADD MSTORE DUP3 ADD MSTORE RETURN JUMPDEST DUP1 SWAP4 POP DUP6 DUP2 RETURNDATASIZE DUP4 GT PUSH2 0xD99 JUMPI JUMPDEST PUSH2 0xD87 DUP2 DUP4 PUSH2 0x2CD7 JUMP JUMPDEST DUP2 ADD SUB SLT PUSH2 0x6ED JUMPI PUSH1 0x60 SWAP5 MLOAD SWAP3 PUSH2 0xD5F JUMP JUMPDEST POP RETURNDATASIZE PUSH2 0xD7D JUMP JUMPDEST DUP4 MLOAD SWAP1 RETURNDATASIZE SWAP1 DUP3 RETURNDATACOPY RETURNDATASIZE SWAP1 REVERT JUMPDEST SWAP1 SWAP3 POP DUP2 DUP2 DUP2 RETURNDATASIZE DUP4 GT PUSH2 0xDD3 JUMPI JUMPDEST PUSH2 0xDC3 DUP2 DUP4 PUSH2 0x2CD7 JUMP JUMPDEST DUP2 ADD SUB SLT PUSH2 0x6ED JUMPI MLOAD SWAP2 DUP2 PUSH2 0xD3D JUMP JUMPDEST POP RETURNDATASIZE PUSH2 0xDB9 JUMP JUMPDEST DUP5 MLOAD RETURNDATASIZE DUP8 DUP3 RETURNDATACOPY RETURNDATASIZE SWAP1 REVERT JUMPDEST SWAP1 DUP1 SWAP6 POP DUP2 DUP2 RETURNDATASIZE DUP4 GT PUSH2 0xE0C JUMPI JUMPDEST PUSH2 0xDFC DUP2 DUP4 PUSH2 0x2CD7 JUMP JUMPDEST DUP2 ADD SUB SLT PUSH2 0x6ED JUMPI MLOAD SWAP4 CODESIZE PUSH2 0xD14 JUMP JUMPDEST POP RETURNDATASIZE PUSH2 0xDF2 JUMP JUMPDEST POP POP POP MLOAD SWAP1 RETURNDATASIZE SWAP1 DUP3 RETURNDATACOPY RETURNDATASIZE SWAP1 REVERT JUMPDEST POP CALLVALUE PUSH2 0x352 JUMPI DUP2 PUSH1 0x3 NOT CALLDATASIZE ADD SLT PUSH2 0x352 JUMPI PUSH2 0xE39 PUSH2 0x29A0 JUMP JUMPDEST SWAP2 PUSH2 0xE42 PUSH2 0x29B6 JUMP JUMPDEST SWAP2 CALLER DUP6 MSTORE PUSH1 0x20 SWAP2 PUSH1 0x1 DUP4 MSTORE PUSH2 0xE5C PUSH1 0xFF DUP3 DUP9 KECCAK256 SLOAD AND PUSH2 0x2BCD JUMP JUMPDEST PUSH1 0x1 PUSH1 0x1 PUSH1 0xA0 SHL SUB DUP5 DUP2 AND SWAP6 PUSH2 0xE73 DUP8 ISZERO ISZERO PUSH2 0x2C08 JUMP JUMPDEST AND SWAP4 DUP2 MLOAD PUSH4 0x70A08231 PUSH1 0xE0 SHL DUP2 MSTORE ADDRESS DUP5 DUP3 ADD MSTORE DUP5 DUP2 PUSH1 0x24 DUP2 DUP10 GAS STATICCALL SWAP1 DUP2 ISZERO PUSH2 0xF64 JUMPI DUP9 SWAP2 PUSH2 0xF37 JUMPI JUMPDEST POP DUP6 DUP9 MSTORE PUSH1 0xE DUP6 MSTORE DUP3 DUP9 KECCAK256 SLOAD DUP1 DUP3 GT ISZERO PUSH2 0xF2E JUMPI PUSH2 0xEB9 SWAP2 PUSH2 0x2C68 JUMP JUMPDEST SWAP3 JUMPDEST DUP4 ISZERO PUSH2 0xEF9 JUMPI POP SWAP1 PUSH2 0xEF1 DUP4 PUSH32 0xDE13184E8CBB6ECCBCECFC796BF8820E5FFDE0534C01B4FABED4B05982964A44 SWAP6 SWAP5 SWAP4 DUP8 PUSH2 0x5292 JUMP JUMPDEST MLOAD SWAP1 DUP2 MSTORE LOG3 DUP1 RETURN JUMPDEST DUP3 MLOAD PUSH3 0x461BCD PUSH1 0xE5 SHL DUP2 MSTORE SWAP1 DUP2 ADD DUP6 SWAP1 MSTORE PUSH1 0xF PUSH1 0x24 DUP3 ADD MSTORE PUSH15 0x4E6F20667265652062616C616E6365 PUSH1 0x88 SHL PUSH1 0x44 DUP3 ADD MSTORE PUSH1 0x64 SWAP1 REVERT JUMPDEST POP POP DUP7 SWAP3 PUSH2 0xEBB JUMP JUMPDEST SWAP1 POP DUP5 DUP2 DUP2 RETURNDATASIZE DUP4 GT PUSH2 0xF5D JUMPI JUMPDEST PUSH2 0xF4E DUP2 DUP4 PUSH2 0x2CD7 JUMP JUMPDEST DUP2 ADD SUB SLT PUSH2 0x6ED JUMPI MLOAD CODESIZE PUSH2 0xE9C JUMP JUMPDEST POP RETURNDATASIZE PUSH2 0xF44 JUMP JUMPDEST DUP4 MLOAD RETURNDATASIZE DUP11 DUP3 RETURNDATACOPY RETURNDATASIZE SWAP1 REVERT JUMPDEST DUP3 DUP5 CALLVALUE PUSH2 0x4CC JUMPI DUP1 PUSH1 0x3 NOT CALLDATASIZE ADD SLT PUSH2 0x4CC JUMPI POP DUP1 MLOAD DUP1 SWAP2 DUP3 PUSH1 0x2 SLOAD DUP1 DUP5 MSTORE PUSH1 0x20 DUP1 SWAP5 ADD SWAP1 PUSH1 0x2 PUSH1 0x0 MSTORE PUSH32 0x405787FA12A823E0F2B7631CC41B3BA8828B3321CA811111FA75CD3AA3BB5ACE SWAP1 PUSH1 0x0 JUMPDEST DUP7 DUP3 DUP3 LT PUSH2 0xFE5 JUMPI DUP6 SWAP1 PUSH2 0x95C DUP9 PUSH2 0xFD6 DUP5 DUP10 SUB DUP6 PUSH2 0x2CD7 JUMP JUMPDEST MLOAD SWAP3 DUP3 DUP5 SWAP4 DUP5 MSTORE DUP4 ADD SWAP1 PUSH2 0x2AC2 JUMP JUMPDEST DUP4 SLOAD PUSH1 0x1 PUSH1 0x1 PUSH1 0xA0 SHL SUB AND DUP6 MSTORE DUP9 SWAP6 POP SWAP1 SWAP4 ADD SWAP3 PUSH1 0x1 SWAP3 DUP4 ADD SWAP3 ADD PUSH2 0xFBC JUMP JUMPDEST POP CALLVALUE PUSH2 0x352 JUMPI PUSH1 0x20 CALLDATASIZE PUSH1 0x3 NOT ADD SLT PUSH2 0x352 JUMPI PUSH2 0x1031 PUSH1 0xFF PUSH2 0x32B SWAP4 CALLER DUP7 MSTORE PUSH1 0x1 PUSH1 0x20 MSTORE DUP6 KECCAK256 SLOAD AND PUSH2 0x2BCD JUMP JUMPDEST PUSH2 0x1043 PUSH1 0xFF PUSH1 0x6 SLOAD PUSH1 0x18 SHR AND ISZERO PUSH2 0x3712 JUMP JUMPDEST PUSH2 0x104B PUSH2 0x3753 JUMP JUMPDEST CALLDATALOAD PUSH2 0x3795 JUMP JUMPDEST POP POP CALLVALUE PUSH2 0x390 JUMPI DUP2 PUSH1 0x3 NOT CALLDATASIZE ADD SLT PUSH2 0x390 JUMPI SWAP1 SLOAD SWAP1 MLOAD PUSH1 0x1 PUSH1 0x1 PUSH1 0xA0 SHL SUB SWAP1 SWAP2 AND DUP2 MSTORE PUSH1 0x20 SWAP1 RETURN JUMPDEST POP CALLVALUE PUSH2 0x352 JUMPI PUSH1 0x20 CALLDATASIZE PUSH1 0x3 NOT ADD SLT PUSH2 0x352 JUMPI CALLDATALOAD SWAP2 PUSH1 0xD SLOAD DUP4 LT ISZERO PUSH2 0x4CC JUMPI POP PUSH2 0x10A3 PUSH1 0x20 SWAP3 PUSH2 0x2A8B JUMP JUMPDEST SWAP2 SWAP1 SLOAD SWAP1 MLOAD SWAP2 PUSH1 0x3 SHL SHR DUP2 MSTORE RETURN JUMPDEST POP POP CALLVALUE PUSH2 0x390 JUMPI PUSH2 0xC8A PUSH2 0x326 PUSH2 0x32B SWAP3 PUSH1 0xFF PUSH2 0xC74 CALLDATASIZE PUSH2 0x2B9A JUMP JUMPDEST POP POP CALLVALUE PUSH2 0x390 JUMPI PUSH1 0x20 CALLDATASIZE PUSH1 0x3 NOT ADD SLT PUSH2 0x390 JUMPI PUSH2 0x1108 SWAP1 PUSH2 0x1103 PUSH1 0xFF PUSH2 0x10F1 PUSH2 0x29A0 JUMP JUMPDEST SWAP3 CALLER DUP7 MSTORE PUSH1 0x1 PUSH1 0x20 MSTORE DUP6 KECCAK256 SLOAD AND PUSH2 0x2BCD JUMP JUMPDEST PUSH2 0x2F11 JUMP JUMPDEST DUP1 RETURN JUMPDEST POP SWAP2 SWAP1 CALLVALUE PUSH2 0x390 JUMPI PUSH2 0x111C CALLDATASIZE PUSH2 0x2B33 JUMP JUMPDEST SWAP3 SWAP2 SWAP3 CALLER DUP6 MSTORE PUSH1 0x20 PUSH1 0x1 DUP2 MSTORE PUSH2 0x1137 PUSH1 0xFF DUP6 DUP9 KECCAK256 SLOAD AND PUSH2 0x2BCD JUMP JUMPDEST PUSH1 0x1 PUSH1 0x1 PUSH1 0xA0 SHL SUB DUP6 DUP2 AND SWAP6 SWAP1 PUSH2 0x114F DUP8 ISZERO ISZERO PUSH2 0x2C08 JUMP JUMPDEST DUP1 PUSH32 0x0 AND DUP8 EQ PUSH2 0x130D JUMPI DUP7 DUP9 MSTORE PUSH1 0xA DUP4 MSTORE PUSH1 0xFF DUP7 DUP10 KECCAK256 SLOAD AND PUSH2 0x12DA JUMPI PUSH2 0x11A8 PUSH2 0x251C PUSH2 0x11A1 DUP8 PUSH2 0x119C PUSH2 0x2ED4 JUMP JUMPDEST PUSH2 0x2E31 JUMP JUMPDEST GT ISZERO PUSH2 0x2E3E JUMP JUMPDEST PUSH3 0xFFFFFF DUP1 SWAP5 AND SWAP4 PUSH1 0x64 DUP6 EQ DUP1 ISZERO PUSH2 0x12CF JUMPI JUMPDEST DUP1 ISZERO PUSH2 0x12C4 JUMPI JUMPDEST DUP1 ISZERO PUSH2 0x12B9 JUMPI JUMPDEST PUSH2 0x11D2 SWAP1 PUSH2 0x2D71 JUMP JUMPDEST DUP8 DUP10 MSTORE PUSH1 0xA DUP5 MSTORE DUP7 DUP10 KECCAK256 DUP1 SLOAD PUSH1 0xFF NOT AND PUSH1 0x1 OR SWAP1 SSTORE DUP7 MLOAD PUSH2 0x11F2 DUP2 PUSH2 0x2C9F JUMP JUMPDEST DUP9 DUP2 MSTORE DUP5 DUP2 ADD DUP8 DUP2 MSTORE DUP9 DUP3 ADD SWAP4 DUP8 DUP6 MSTORE PUSH1 0x9 SLOAD PUSH1 0x1 PUSH1 0x40 SHL DUP2 LT ISZERO PUSH2 0x12A5 JUMPI DUP1 PUSH1 0x1 PUSH2 0x1221 SWAP3 ADD PUSH1 0x9 SSTORE PUSH2 0x29CC JUMP JUMPDEST SWAP4 SWAP1 SWAP4 PUSH2 0x1292 JUMPI PUSH32 0x62AF8756D07B97A733AD743C241ABDEC5D8242D9974DB0FD855F7540EBD7D47E SWAP12 SWAP13 SWAP14 POP SWAP2 PUSH2 0x1286 SWAP7 SWAP6 SWAP5 SWAP4 SWAP2 PUSH1 0x2 SWAP4 MLOAD AND PUSH1 0x1 PUSH1 0x1 PUSH1 0x60 SHL SUB PUSH1 0xA0 SHL DUP4 SLOAD AND OR DUP3 SSTORE MLOAD PUSH1 0x1 DUP3 ADD SSTORE ADD SWAP2 MLOAD AND PUSH3 0xFFFFFF NOT DUP3 SLOAD AND OR SWAP1 SSTORE PUSH2 0x2F11 JUMP JUMPDEST DUP4 MLOAD SWAP3 DUP4 MSTORE DUP3 ADD MSTORE LOG2 DUP1 RETURN JUMPDEST POP PUSH4 0x4E487B71 PUSH1 0xE0 SHL DUP13 MSTORE DUP12 DUP14 MSTORE PUSH1 0x24 DUP13 REVERT JUMPDEST POP PUSH4 0x4E487B71 PUSH1 0xE0 SHL DUP13 MSTORE PUSH1 0x41 DUP14 MSTORE PUSH1 0x24 DUP13 REVERT JUMPDEST POP PUSH2 0x2710 DUP6 EQ PUSH2 0x11C9 JUMP JUMPDEST POP PUSH2 0xBB8 DUP6 EQ PUSH2 0x11C2 JUMP JUMPDEST POP PUSH2 0x1F4 DUP6 EQ PUSH2 0x11BB JUMP JUMPDEST DUP6 MLOAD PUSH3 0x461BCD PUSH1 0xE5 SHL DUP2 MSTORE DUP1 DUP11 ADD DUP5 SWAP1 MSTORE PUSH1 0xD PUSH1 0x24 DUP3 ADD MSTORE PUSH13 0x105B1C9958591E481859191959 PUSH1 0x9A SHL PUSH1 0x44 DUP3 ADD MSTORE PUSH1 0x64 SWAP1 REVERT JUMPDEST DUP6 MLOAD PUSH3 0x461BCD PUSH1 0xE5 SHL DUP2 MSTORE DUP1 DUP11 ADD DUP5 SWAP1 MSTORE PUSH1 0x1F PUSH1 0x24 DUP3 ADD MSTORE PUSH32 0x43616E6E6F74206469737472696275746520574C4420746F20697473656C6600 PUSH1 0x44 DUP3 ADD MSTORE PUSH1 0x64 SWAP1 REVERT JUMPDEST POP POP CALLVALUE PUSH2 0x390 JUMPI PUSH3 0xFFFFFF SWAP1 PUSH2 0x1365 CALLDATASIZE PUSH2 0x2B33 JUMP JUMPDEST SWAP1 SWAP2 SWAP3 CALLER DUP7 MSTORE PUSH1 0x1 SWAP5 DUP6 SWAP3 DUP4 PUSH1 0x20 MSTORE PUSH2 0x1383 PUSH1 0xFF DUP5 DUP11 KECCAK256 SLOAD AND PUSH2 0x2BCD JUMP JUMPDEST PUSH1 0x1 PUSH1 0x1 PUSH1 0xA0 SHL SUB SWAP6 DUP7 AND DUP1 DUP10 MSTORE PUSH1 0xA PUSH1 0x20 MSTORE SWAP3 DUP9 KECCAK256 SLOAD PUSH2 0x13A6 SWAP1 PUSH1 0xFF AND PUSH2 0x2E7D JUMP JUMPDEST AND SWAP4 PUSH1 0x64 DUP6 EQ DUP1 ISZERO PUSH2 0x147F JUMPI JUMPDEST DUP1 ISZERO PUSH2 0x1474 JUMPI JUMPDEST DUP1 ISZERO PUSH2 0x1469 JUMPI JUMPDEST PUSH2 0x13CD SWAP2 SWAP3 SWAP4 POP PUSH2 0x2D71 JUMP JUMPDEST DUP6 DUP6 JUMPDEST PUSH2 0x13D8 JUMPI DUP7 DUP1 RETURN JUMPDEST PUSH1 0x9 SLOAD DUP2 LT ISZERO PUSH2 0x1465 JUMPI DUP3 DUP3 PUSH2 0x13ED DUP4 PUSH2 0x29CC JUMP JUMPDEST POP SLOAD AND EQ PUSH2 0x1409 JUMPI SWAP1 PUSH2 0x1401 DUP7 SWAP4 SWAP3 PUSH2 0x2C43 JUMP JUMPDEST SWAP1 SWAP2 SWAP3 PUSH2 0x13D0 JUMP JUMPDEST SWAP2 POP POP DUP2 PUSH1 0x2 SWAP4 SWAP5 PUSH2 0x143C PUSH2 0x251C PUSH2 0x11A1 PUSH2 0x144D SWAP7 PUSH2 0x119C PUSH2 0x1429 PUSH2 0x2ED4 JUMP JUMPDEST DUP7 PUSH2 0x1433 DUP11 PUSH2 0x29CC JUMP JUMPDEST POP ADD SLOAD SWAP1 PUSH2 0x2C68 JUMP JUMPDEST PUSH2 0x1445 DUP4 PUSH2 0x29CC JUMP JUMPDEST POP ADD SSTORE PUSH2 0x29CC JUMP JUMPDEST POP ADD SWAP1 PUSH3 0xFFFFFF NOT DUP3 SLOAD AND OR SWAP1 SSTORE CODESIZE DUP1 DUP1 DUP1 DUP1 DUP1 DUP7 DUP1 RETURN JUMPDEST DUP7 DUP1 RETURN JUMPDEST POP PUSH2 0x2710 DUP6 EQ PUSH2 0x13C1 JUMP JUMPDEST POP PUSH2 0xBB8 DUP6 EQ PUSH2 0x13BA JUMP JUMPDEST POP PUSH2 0x1F4 DUP6 EQ PUSH2 0x13B3 JUMP JUMPDEST POP POP CALLVALUE PUSH2 0x390 JUMPI DUP2 PUSH1 0x3 NOT CALLDATASIZE ADD SLT PUSH2 0x390 JUMPI PUSH2 0x95C SWAP1 PUSH2 0x14A8 PUSH2 0x3332 JUMP JUMPDEST SWAP1 MLOAD SWAP2 DUP3 SWAP2 PUSH1 0x20 DUP4 MSTORE PUSH1 0x20 DUP4 ADD SWAP1 PUSH2 0x2AFF JUMP JUMPDEST POP POP CALLVALUE PUSH2 0x390 JUMPI DUP2 PUSH1 0x3 NOT CALLDATASIZE ADD SLT PUSH2 0x390 JUMPI PUSH2 0x14D5 PUSH2 0x2CF9 JUMP JUMPDEST SWAP2 PUSH1 0xF SLOAD PUSH2 0x14E2 DUP2 PUSH2 0x2FA4 JUMP JUMPDEST SWAP2 DUP1 JUMPDEST DUP3 DUP2 LT PUSH2 0x1514 JUMPI POP POP POP PUSH2 0x95C SWAP1 PUSH2 0x1506 DUP4 MLOAD SWAP5 DUP5 DUP7 SWAP6 DUP7 MSTORE DUP6 ADD SWAP1 PUSH2 0x2AC2 JUMP JUMPDEST SWAP1 DUP4 DUP3 SUB PUSH1 0x20 DUP6 ADD MSTORE PUSH2 0x2AFF JUMP JUMPDEST DUP1 PUSH2 0x1521 PUSH2 0x154E SWAP3 PUSH2 0x2A54 JUMP JUMPDEST SWAP1 SLOAD PUSH1 0x3 SWAP2 SWAP1 SWAP2 SHL SHR PUSH1 0x1 PUSH1 0x1 PUSH1 0xA0 SHL SUB AND DUP4 MSTORE PUSH1 0xE PUSH1 0x20 MSTORE DUP6 DUP4 KECCAK256 SLOAD PUSH2 0x1548 DUP3 DUP8 PUSH2 0x2FD6 JUMP JUMPDEST MSTORE PUSH2 0x2C43 JUMP JUMPDEST PUSH2 0x14E5 JUMP JUMPDEST POP SWAP2 SWAP1 CALLVALUE PUSH2 0x390 JUMPI DUP2 PUSH1 0x3 NOT CALLDATASIZE ADD SLT PUSH2 0x390 JUMPI DUP1 MLOAD PUSH4 0x60217267 PUSH1 0xE0 SHL DUP2 MSTORE ADDRESS SWAP4 DUP2 ADD SWAP4 SWAP1 SWAP4 MSTORE PUSH1 0x20 DUP4 PUSH1 0x24 DUP2 PUSH32 0x0 PUSH1 0x1 PUSH1 0x1 PUSH1 0xA0 SHL SUB AND GAS STATICCALL SWAP2 DUP3 ISZERO PUSH2 0xA23 JUMPI SWAP2 PUSH2 0x9EF JUMPI PUSH1 0x20 SWAP3 POP MLOAD SWAP1 DUP2 MSTORE RETURN JUMPDEST POP POP CALLVALUE PUSH2 0x390 JUMPI DUP2 PUSH1 0x3 NOT CALLDATASIZE ADD SLT PUSH2 0x390 JUMPI PUSH1 0x20 SWAP1 PUSH3 0xFFFFFF PUSH1 0x6 SLOAD AND SWAP1 MLOAD SWAP1 DUP2 MSTORE RETURN JUMPDEST POP SWAP1 CALLVALUE PUSH2 0x352 JUMPI PUSH1 0x20 CALLDATASIZE PUSH1 0x3 NOT ADD SLT PUSH2 0x352 JUMPI SWAP1 PUSH2 0x1602 PUSH2 0x29A0 JUMP JUMPDEST CALLER DUP5 MSTORE PUSH1 0x1 SWAP2 DUP3 PUSH1 0x20 MSTORE PUSH2 0x161B PUSH1 0xFF DUP6 DUP8 KECCAK256 SLOAD AND PUSH2 0x2BCD JUMP JUMPDEST PUSH1 0x1 PUSH1 0x1 PUSH1 0xA0 SHL SUB SWAP2 DUP3 AND DUP1 DUP7 MSTORE PUSH1 0xA PUSH1 0x20 MSTORE DUP5 DUP7 KECCAK256 SLOAD SWAP1 SWAP5 SWAP1 PUSH2 0x1641 SWAP1 PUSH1 0xFF AND PUSH2 0x2E7D JUMP JUMPDEST DUP5 DUP7 MSTORE PUSH1 0xA PUSH1 0x20 MSTORE DUP6 KECCAK256 DUP1 SLOAD PUSH1 0xFF NOT AND SWAP1 SSTORE DUP5 DUP4 JUMPDEST PUSH2 0x1684 JUMPI JUMPDEST DUP6 DUP6 PUSH32 0x75254DC44A4C4F2E11D0F93D23F1EE0EB2AC4C84BC077389979B70878A49FDD7 DUP3 DUP1 LOG2 DUP1 RETURN JUMPDEST PUSH1 0x9 DUP1 SLOAD DUP1 DUP4 LT ISZERO PUSH2 0x17AB JUMPI DUP7 DUP6 PUSH2 0x169B DUP6 PUSH2 0x29CC JUMP JUMPDEST POP SLOAD AND EQ PUSH2 0x16BD JUMPI POP POP SWAP1 PUSH2 0x16B3 DUP5 SWAP6 SWAP5 SWAP4 SWAP3 PUSH2 0x2C43 JUMP JUMPDEST SWAP1 SWAP2 SWAP3 SWAP4 SWAP5 PUSH2 0x1656 JUMP JUMPDEST SWAP1 SWAP4 PUSH1 0x0 NOT SWAP3 SWAP2 DUP4 DUP2 ADD SWAP1 DUP2 GT PUSH2 0x1798 JUMPI PUSH2 0x16DA PUSH2 0x16E1 SWAP2 PUSH2 0x29CC JUMP JUMPDEST POP SWAP3 PUSH2 0x29CC JUMP JUMPDEST PUSH2 0x1786 JUMPI DUP3 DUP2 SUB PUSH2 0x1749 JUMPI JUMPDEST POP POP POP DUP3 SLOAD DUP1 ISZERO PUSH2 0x1736 JUMPI ADD SWAP3 PUSH2 0x1703 DUP5 PUSH2 0x29CC JUMP JUMPDEST SWAP3 SWAP1 SWAP3 PUSH2 0x1724 JUMPI POP DUP2 PUSH1 0x0 PUSH1 0x2 SWAP3 DUP9 DUP1 SWAP6 SSTORE DUP3 ADD SSTORE ADD SSTORE SSTORE CODESIZE DUP1 DUP1 DUP1 PUSH2 0x165B JUMP JUMPDEST PUSH4 0x4E487B71 PUSH1 0xE0 SHL DUP8 MSTORE DUP7 SWAP1 MSTORE PUSH1 0x24 DUP7 REVERT JUMPDEST PUSH4 0x4E487B71 PUSH1 0xE0 SHL DUP8 MSTORE PUSH1 0x31 DUP4 MSTORE PUSH1 0x24 DUP8 REVERT JUMPDEST PUSH3 0xFFFFFF SWAP2 DUP4 SLOAD AND PUSH1 0x1 PUSH1 0x1 PUSH1 0x60 SHL SUB PUSH1 0xA0 SHL DUP3 SLOAD AND OR DUP2 SSTORE DUP7 DUP4 ADD SLOAD DUP8 DUP3 ADD SSTORE PUSH1 0x2 DUP1 SWAP2 ADD SWAP3 ADD SLOAD AND PUSH3 0xFFFFFF NOT DUP3 SLOAD AND OR SWAP1 SSTORE CODESIZE DUP1 DUP1 PUSH2 0x16ED JUMP JUMPDEST PUSH4 0x4E487B71 PUSH1 0xE0 SHL DUP10 MSTORE DUP9 DUP6 MSTORE PUSH1 0x24 DUP10 REVERT JUMPDEST PUSH4 0x4E487B71 PUSH1 0xE0 SHL DUP10 MSTORE PUSH1 0x11 DUP6 MSTORE PUSH1 0x24 DUP10 REVERT JUMPDEST POP POP PUSH2 0x165B JUMP JUMPDEST POP POP CALLVALUE PUSH2 0x390 JUMPI PUSH1 0x20 CALLDATASIZE PUSH1 0x3 NOT ADD SLT PUSH2 0x390 JUMPI PUSH1 0x20 SWAP2 PUSH1 0xFF SWAP1 DUP3 SWAP1 PUSH1 0x1 PUSH1 0x1 PUSH1 0xA0 SHL SUB PUSH2 0x17DD PUSH2 0x29A0 JUMP JUMPDEST AND DUP2 MSTORE PUSH1 0xA DUP6 MSTORE KECCAK256 SLOAD AND SWAP1 MLOAD SWAP1 ISZERO ISZERO DUP2 MSTORE RETURN JUMPDEST POP CALLVALUE PUSH2 0x352 JUMPI PUSH1 0x20 CALLDATASIZE PUSH1 0x3 NOT ADD SLT PUSH2 0x352 JUMPI PUSH2 0x180A PUSH2 0x29A0 JUMP JUMPDEST SWAP1 CALLER DUP5 MSTORE PUSH1 0x1 PUSH1 0x20 MSTORE PUSH2 0x1822 PUSH1 0xFF DUP5 DUP7 KECCAK256 SLOAD AND PUSH2 0x2BCD JUMP JUMPDEST PUSH1 0x1 PUSH1 0x1 PUSH1 0xA0 SHL SUB DUP3 AND SWAP3 PUSH2 0x1838 DUP5 ISZERO ISZERO PUSH2 0x2C08 JUMP JUMPDEST DUP4 DUP6 MSTORE PUSH1 0x1 PUSH1 0x20 MSTORE PUSH1 0xFF DUP2 DUP7 KECCAK256 SLOAD AND PUSH2 0x18E0 JUMPI DUP4 DUP6 MSTORE PUSH1 0x1 PUSH1 0x20 MSTORE DUP5 KECCAK256 PUSH1 0x1 PUSH1 0xFF NOT DUP3 SLOAD AND OR SWAP1 SSTORE PUSH1 0x2 SLOAD SWAP1 PUSH1 0x1 PUSH1 0x40 SHL DUP3 LT ISZERO PUSH2 0x18CB JUMPI POP SWAP1 PUSH2 0x1885 DUP3 PUSH1 0x1 PUSH2 0x18A4 SWAP5 ADD PUSH1 0x2 SSTORE PUSH2 0x2A1D JUMP JUMPDEST SWAP1 SWAP2 SWAP1 DUP3 SLOAD SWAP1 PUSH1 0x3 SHL SWAP2 PUSH1 0x1 DUP1 PUSH1 0xA0 SHL SUB DUP1 SWAP2 AND DUP4 SHL SWAP3 SHL NOT AND OR SWAP1 SSTORE JUMP JUMPDEST PUSH32 0x994A936646FE87FFE4F1E469D3D6AA417D6B855598397F323DE5B449F765F0C3 DUP3 DUP1 LOG2 DUP1 RETURN JUMPDEST PUSH1 0x41 SWAP1 PUSH4 0x4E487B71 PUSH1 0xE0 SHL PUSH1 0x0 MSTORE MSTORE PUSH1 0x24 PUSH1 0x0 REVERT JUMPDEST SWAP1 PUSH1 0x20 PUSH1 0x64 SWAP3 MLOAD SWAP2 PUSH3 0x461BCD PUSH1 0xE5 SHL DUP4 MSTORE DUP3 ADD MSTORE PUSH1 0xD PUSH1 0x24 DUP3 ADD MSTORE PUSH13 0x20B63932B0B23C9037BBB732B9 PUSH1 0x99 SHL PUSH1 0x44 DUP3 ADD MSTORE REVERT JUMPDEST POP POP CALLVALUE PUSH2 0x390 JUMPI PUSH1 0x20 CALLDATASIZE PUSH1 0x3 NOT ADD SLT PUSH2 0x390 JUMPI PUSH1 0x20 SWAP2 PUSH1 0xFF SWAP1 DUP3 SWAP1 PUSH1 0x1 PUSH1 0x1 PUSH1 0xA0 SHL SUB PUSH2 0x193E PUSH2 0x29A0 JUMP JUMPDEST AND DUP2 MSTORE PUSH1 0x10 DUP6 MSTORE KECCAK256 SLOAD AND SWAP1 MLOAD SWAP1 ISZERO ISZERO DUP2 MSTORE RETURN JUMPDEST POP CALLVALUE PUSH2 0x352 JUMPI DUP3 PUSH1 0x3 NOT CALLDATASIZE ADD SLT PUSH2 0x352 JUMPI PUSH1 0x20 SWAP3 POP SLOAD SWAP1 MLOAD SWAP1 DUP2 MSTORE RETURN JUMPDEST POP SWAP1 CALLVALUE PUSH2 0x352 JUMPI PUSH1 0x20 CALLDATASIZE PUSH1 0x3 NOT ADD SLT PUSH2 0x352 JUMPI DUP3 DUP3 CALLDATALOAD SWAP3 CALLER DUP3 MSTORE PUSH1 0x1 PUSH1 0x20 MSTORE PUSH2 0x199C PUSH1 0xFF DUP5 DUP5 KECCAK256 SLOAD AND PUSH2 0x2BCD JUMP JUMPDEST PUSH2 0x19A7 DUP5 ISZERO ISZERO PUSH2 0x2FEA JUMP JUMPDEST PUSH32 0x0 PUSH1 0x1 PUSH1 0x1 PUSH1 0xA0 SHL SUB AND SWAP1 DUP2 EXTCODESIZE ISZERO PUSH2 0x352 JUMPI DUP5 PUSH1 0x24 DUP5 SWAP3 DUP4 DUP8 MLOAD SWAP6 DUP7 SWAP5 DUP6 SWAP4 PUSH4 0x5C2FBCF PUSH1 0xE3 SHL DUP6 MSTORE DUP5 ADD MSTORE GAS CALL DUP1 ISZERO PUSH2 0x1A42 JUMPI PUSH2 0x1A2E JUMPI JUMPDEST POP PUSH32 0xE349D50C3AB0B3BF3B1AE799A3CD33B2993BE0C809D854D8DD5C13ED6ACD7497 PUSH1 0x20 DUP5 DUP5 MLOAD SWAP1 DUP2 MSTORE LOG1 DUP1 RETURN JUMPDEST PUSH2 0x1A37 SWAP1 PUSH2 0x2C75 JUMP JUMPDEST PUSH2 0x352 JUMPI DUP3 CODESIZE PUSH2 0x1A00 JUMP JUMPDEST DUP4 MLOAD RETURNDATASIZE DUP5 DUP3 RETURNDATACOPY RETURNDATASIZE SWAP1 REVERT JUMPDEST POP POP CALLVALUE PUSH2 0x390 JUMPI DUP2 PUSH1 0x3 NOT CALLDATASIZE ADD SLT PUSH2 0x390 JUMPI PUSH1 0x20 SWAP1 PUSH1 0xFF PUSH1 0x6 SLOAD PUSH1 0x18 SHR AND SWAP1 MLOAD SWAP1 ISZERO ISZERO DUP2 MSTORE RETURN JUMPDEST POP POP CALLVALUE PUSH2 0x390 JUMPI DUP2 PUSH1 0x3 NOT CALLDATASIZE ADD SLT PUSH2 0x390 JUMPI PUSH1 0x20 SWAP1 PUSH1 0x5 SLOAD SWAP1 MLOAD SWAP1 DUP2 MSTORE RETURN JUMPDEST POP CALLVALUE PUSH2 0x352 JUMPI PUSH1 0x20 CALLDATASIZE PUSH1 0x3 NOT ADD SLT PUSH2 0x352 JUMPI DUP2 PUSH1 0x20 SWAP4 PUSH1 0xFF SWAP3 CALLDATALOAD DUP2 MSTORE PUSH1 0xB DUP6 MSTORE KECCAK256 SLOAD AND SWAP1 MLOAD SWAP1 ISZERO ISZERO DUP2 MSTORE RETURN JUMPDEST POP CALLVALUE PUSH2 0x352 JUMPI PUSH1 0x20 CALLDATASIZE PUSH1 0x3 NOT ADD SLT PUSH2 0x352 JUMPI DUP1 CALLDATALOAD SWAP1 CALLER DUP5 MSTORE PUSH1 0x1 PUSH1 0x20 MSTORE PUSH2 0x1AEA PUSH1 0xFF DUP5 DUP7 KECCAK256 SLOAD AND PUSH2 0x2BCD JUMP JUMPDEST PUSH2 0xBB8 DUP3 GT PUSH2 0x1B45 JUMPI SWAP2 DUP2 PUSH1 0x80 SWAP3 PUSH32 0x12C9DCCD129FF783F1C8228EACDFA8E334DDECB7EC5C9A79EC662A4AED3D012A SWAP5 SSTORE PUSH1 0xD DUP3 MLOAD SWAP3 DUP1 DUP5 MSTORE DUP4 ADD MSTORE PUSH13 0x72657365727665466565427073 PUSH1 0x98 SHL PUSH1 0x60 DUP4 ADD MSTORE PUSH1 0x20 DUP3 ADD MSTORE LOG1 DUP1 RETURN JUMPDEST PUSH1 0x64 SWAP1 PUSH1 0x20 DUP5 MLOAD SWAP2 PUSH3 0x461BCD PUSH1 0xE5 SHL DUP4 MSTORE DUP3 ADD MSTORE PUSH1 0x7 PUSH1 0x24 DUP3 ADD MSTORE PUSH7 0x4D617820333025 PUSH1 0xC8 SHL PUSH1 0x44 DUP3 ADD MSTORE REVERT JUMPDEST POP CALLVALUE PUSH2 0x352 JUMPI PUSH1 0x20 CALLDATASIZE PUSH1 0x3 NOT ADD SLT PUSH2 0x352 JUMPI DUP2 PUSH1 0x20 SWAP4 PUSH1 0xFF SWAP3 CALLDATALOAD DUP2 MSTORE PUSH1 0xC DUP6 MSTORE KECCAK256 SLOAD AND SWAP1 MLOAD SWAP1 ISZERO ISZERO DUP2 MSTORE RETURN JUMPDEST POP POP CALLVALUE PUSH2 0x390 JUMPI DUP2 PUSH1 0x3 NOT CALLDATASIZE ADD SLT PUSH2 0x390 JUMPI PUSH1 0x20 SWAP1 PUSH1 0x7 SLOAD SWAP1 MLOAD SWAP1 DUP2 MSTORE RETURN JUMPDEST POP POP CALLVALUE PUSH2 0x390 JUMPI PUSH1 0x20 CALLDATASIZE PUSH1 0x3 NOT ADD SLT PUSH2 0x390 JUMPI PUSH1 0x20 SWAP2 PUSH1 0xFF SWAP1 DUP3 SWAP1 PUSH1 0x1 PUSH1 0x1 PUSH1 0xA0 SHL SUB PUSH2 0x1BE8 PUSH2 0x29A0 JUMP JUMPDEST AND DUP2 MSTORE PUSH1 0x1 DUP6 MSTORE KECCAK256 SLOAD AND SWAP1 MLOAD SWAP1 ISZERO ISZERO DUP2 MSTORE RETURN JUMPDEST POP DUP3 SWAP1 CALLVALUE PUSH2 0x390 JUMPI PUSH1 0xC0 CALLDATASIZE PUSH1 0x3 NOT ADD SLT PUSH2 0x390 JUMPI PUSH2 0x1C17 PUSH2 0x29A0 JUMP JUMPDEST SWAP1 PUSH2 0x1C20 PUSH2 0x29B6 JUMP JUMPDEST SWAP2 PUSH1 0x44 CALLDATALOAD PUSH1 0x84 CALLDATALOAD SWAP3 PUSH3 0xFFFFFF DUP5 AND DUP5 SUB PUSH2 0x6ED JUMPI CALLER DUP7 MSTORE PUSH1 0x20 PUSH1 0x1 DUP2 MSTORE PUSH2 0x1C4C PUSH1 0xFF DUP10 DUP10 KECCAK256 SLOAD AND PUSH2 0x2BCD JUMP JUMPDEST PUSH2 0x1C54 PUSH2 0x3753 JUMP JUMPDEST PUSH2 0x1C5F DUP4 ISZERO ISZERO PUSH2 0x2FEA JUMP JUMPDEST DUP8 MLOAD PUSH4 0x70A08231 PUSH1 0xE0 SHL DUP2 MSTORE ADDRESS DUP4 DUP3 ADD MSTORE DUP2 DUP2 PUSH1 0x24 DUP2 PUSH1 0x1 PUSH1 0x1 PUSH1 0xA0 SHL SUB DUP10 AND GAS STATICCALL SWAP1 DUP2 ISZERO PUSH2 0x1D17 JUMPI SWAP1 DUP5 SWAP2 DUP10 SWAP2 PUSH2 0x1CE6 JUMPI JUMPDEST POP LT PUSH2 0x1CAD JUMPI POP POP PUSH2 0x32B SWAP5 SWAP6 POP PUSH1 0xA4 CALLDATALOAD SWAP4 PUSH1 0x64 CALLDATALOAD SWAP3 PUSH2 0x4DD9 JUMP JUMPDEST DUP8 MLOAD PUSH3 0x461BCD PUSH1 0xE5 SHL DUP2 MSTORE SWAP2 DUP3 ADD MSTORE PUSH1 0x14 PUSH1 0x24 DUP3 ADD MSTORE PUSH20 0x496E73756666696369656E742062616C616E6365 PUSH1 0x60 SHL PUSH1 0x44 DUP3 ADD MSTORE PUSH1 0x64 SWAP2 POP REVERT JUMPDEST DUP1 SWAP3 POP DUP4 DUP1 SWAP3 POP RETURNDATASIZE DUP4 GT PUSH2 0x1D10 JUMPI JUMPDEST PUSH2 0x1CFF DUP2 DUP4 PUSH2 0x2CD7 JUMP JUMPDEST DUP2 ADD SUB SLT PUSH2 0x6ED JUMPI DUP4 SWAP1 MLOAD DUP11 PUSH2 0x1C92 JUMP JUMPDEST POP RETURNDATASIZE PUSH2 0x1CF5 JUMP JUMPDEST DUP10 MLOAD RETURNDATASIZE DUP11 DUP3 RETURNDATACOPY RETURNDATASIZE SWAP1 REVERT JUMPDEST DUP3 DUP5 CALLVALUE PUSH2 0x4CC JUMPI DUP1 PUSH1 0x3 NOT CALLDATASIZE ADD SLT PUSH2 0x4CC JUMPI PUSH1 0x9 SLOAD PUSH2 0x1D3F DUP2 PUSH2 0x2EBC JUMP JUMPDEST SWAP2 PUSH2 0x1D4C DUP5 MLOAD SWAP4 DUP5 PUSH2 0x2CD7 JUMP JUMPDEST DUP2 DUP4 MSTORE PUSH1 0x9 DUP2 MSTORE PUSH1 0x20 SWAP3 DUP4 DUP2 ADD SWAP3 DUP3 PUSH32 0x6E1540171B6C0C960B71A7020D9F60077F6AF931A8BBF590DA0223DACF75C7AF DUP6 JUMPDEST DUP4 DUP4 LT PUSH2 0x1DDF JUMPI POP POP POP POP DUP5 MLOAD SWAP4 DUP1 DUP6 ADD SWAP2 DUP2 DUP7 MSTORE MLOAD DUP1 SWAP3 MSTORE DUP6 DUP6 ADD SWAP4 SWAP3 JUMPDEST DUP3 DUP2 LT PUSH2 0x1DAA JUMPI DUP6 DUP6 SUB DUP7 RETURN JUMPDEST DUP4 MLOAD DUP1 MLOAD PUSH1 0x1 PUSH1 0x1 PUSH1 0xA0 SHL SUB AND DUP7 MSTORE DUP1 DUP4 ADD MLOAD DUP7 DUP5 ADD MSTORE DUP8 ADD MLOAD PUSH3 0xFFFFFF AND DUP8 DUP7 ADD MSTORE PUSH1 0x60 SWAP1 SWAP5 ADD SWAP4 SWAP3 DUP2 ADD SWAP3 PUSH1 0x1 ADD PUSH2 0x1D9D JUMP JUMPDEST PUSH1 0x3 DUP9 PUSH1 0x1 SWAP3 DUP12 SWAP11 SWAP8 SWAP9 SWAP11 MLOAD PUSH2 0x1DF4 DUP2 PUSH2 0x2C9F JUMP JUMPDEST DUP5 DUP1 PUSH1 0xA0 SHL SUB DUP7 SLOAD AND DUP2 MSTORE DUP5 DUP7 ADD SLOAD DUP4 DUP3 ADD MSTORE PUSH3 0xFFFFFF PUSH1 0x2 DUP8 ADD SLOAD AND DUP14 DUP3 ADD MSTORE DUP2 MSTORE ADD SWAP3 ADD SWAP3 ADD SWAP2 SWAP1 SWAP7 SWAP5 SWAP4 SWAP7 PUSH2 0x1D7E JUMP JUMPDEST POP CALLVALUE PUSH2 0x352 JUMPI PUSH1 0x20 CALLDATASIZE PUSH1 0x3 NOT ADD SLT PUSH2 0x352 JUMPI CALLDATALOAD SWAP2 PUSH1 0xF SLOAD DUP4 LT ISZERO PUSH2 0x4CC JUMPI POP PUSH2 0x575 PUSH1 0x20 SWAP3 PUSH2 0x2A54 JUMP JUMPDEST POP POP CALLVALUE PUSH2 0x390 JUMPI DUP2 PUSH1 0x3 NOT CALLDATASIZE ADD SLT PUSH2 0x390 JUMPI MLOAD PUSH32 0x0 PUSH1 0x1 PUSH1 0x1 PUSH1 0xA0 SHL SUB AND DUP2 MSTORE PUSH1 0x20 SWAP1 RETURN JUMPDEST POP CALLVALUE PUSH2 0x352 JUMPI PUSH1 0x20 CALLDATASIZE PUSH1 0x3 NOT ADD SLT PUSH2 0x352 JUMPI CALLDATALOAD SWAP2 PUSH1 0x9 SLOAD DUP4 LT ISZERO PUSH2 0x4CC JUMPI POP PUSH2 0x1EBF PUSH1 0x60 SWAP3 PUSH2 0x29CC JUMP JUMPDEST POP PUSH1 0x1 DUP1 PUSH1 0xA0 SHL SUB DUP2 SLOAD AND SWAP2 PUSH3 0xFFFFFF PUSH1 0x2 PUSH1 0x1 DUP5 ADD SLOAD SWAP4 ADD SLOAD AND SWAP2 DUP2 MLOAD SWAP4 DUP5 MSTORE PUSH1 0x20 DUP5 ADD MSTORE DUP3 ADD MSTORE RETURN JUMPDEST POP CALLVALUE PUSH2 0x352 JUMPI PUSH1 0x60 CALLDATASIZE PUSH1 0x3 NOT ADD SLT PUSH2 0x352 JUMPI PUSH2 0x1F04 PUSH2 0x29A0 JUMP JUMPDEST PUSH1 0x1 PUSH1 0x1 PUSH1 0xA0 SHL SUB PUSH1 0x44 CALLDATALOAD DUP2 DUP2 AND SWAP5 PUSH1 0x24 CALLDATALOAD SWAP4 SWAP1 SWAP3 SWAP1 DUP7 DUP4 SUB PUSH2 0x6ED JUMPI CALLER DUP9 MSTORE PUSH1 0x1 PUSH1 0x20 MSTORE PUSH2 0x1F38 PUSH1 0xFF DUP6 DUP11 KECCAK256 SLOAD AND PUSH2 0x2BCD JUMP JUMPDEST PUSH2 0x1F43 DUP8 ISZERO ISZERO PUSH2 0x2C08 JUMP JUMPDEST AND SWAP4 DUP5 DUP8 MSTORE PUSH1 0xE PUSH1 0x20 MSTORE DUP4 DUP4 DUP9 KECCAK256 SLOAD LT PUSH2 0x1F9F JUMPI POP SWAP2 PUSH1 0x20 SWAP2 PUSH2 0xEF1 DUP3 PUSH32 0xDE13184E8CBB6ECCBCECFC796BF8820E5FFDE0534C01B4FABED4B05982964A44 SWAP6 DUP8 DUP11 MSTORE PUSH1 0xE DUP7 MSTORE DUP4 DUP11 KECCAK256 PUSH2 0x1F97 DUP4 DUP3 SLOAD PUSH2 0x2C68 JUMP JUMPDEST SWAP1 SSTORE DUP8 PUSH2 0x5292 JUMP JUMPDEST PUSH1 0x64 SWAP1 PUSH1 0x20 DUP5 MLOAD SWAP2 PUSH3 0x461BCD PUSH1 0xE5 SHL DUP4 MSTORE DUP3 ADD MSTORE PUSH1 0x14 PUSH1 0x24 DUP3 ADD MSTORE PUSH20 0x496E73756666696369656E742072657365727665 PUSH1 0x60 SHL PUSH1 0x44 DUP3 ADD MSTORE REVERT JUMPDEST POP POP CALLVALUE PUSH2 0x390 JUMPI DUP2 PUSH1 0x3 NOT CALLDATASIZE ADD SLT PUSH2 0x390 JUMPI PUSH1 0x20 SWAP1 MLOAD PUSH1 0x0 DUP1 MLOAD PUSH1 0x20 PUSH2 0x534F DUP4 CODECOPY DUP2 MLOAD SWAP2 MSTORE DUP2 MSTORE RETURN JUMPDEST POP POP CALLVALUE PUSH2 0x390 JUMPI DUP2 PUSH1 0x3 NOT CALLDATASIZE ADD SLT PUSH2 0x390 JUMPI CALLER DUP3 MSTORE PUSH2 0x202C PUSH1 0xFF PUSH1 0x1 SWAP3 DUP4 PUSH1 0x20 MSTORE DUP5 KECCAK256 SLOAD AND PUSH2 0x2BCD JUMP JUMPDEST DUP2 DUP2 JUMPDEST PUSH2 0x2037 JUMPI DUP3 DUP1 RETURN JUMPDEST PUSH1 0xD SLOAD DUP2 LT ISZERO PUSH2 0x2063 JUMPI DUP1 PUSH2 0x789 PUSH2 0x2051 PUSH2 0x205D SWAP4 PUSH2 0x2A8B JUMP JUMPDEST SWAP1 SLOAD SWAP1 PUSH1 0x3 SHL SHR PUSH2 0x3512 JUMP JUMPDEST DUP2 PUSH2 0x202F JUMP JUMPDEST DUP3 DUP1 RETURN JUMPDEST POP CALLVALUE PUSH2 0x352 JUMPI PUSH1 0x20 CALLDATASIZE PUSH1 0x3 NOT ADD SLT PUSH2 0x352 JUMPI DUP1 CALLDATALOAD SWAP1 CALLER DUP5 MSTORE PUSH1 0x1 PUSH1 0x20 MSTORE PUSH2 0x2093 PUSH1 0xFF DUP5 DUP7 KECCAK256 SLOAD AND PUSH2 0x2BCD JUMP JUMPDEST PUSH2 0x2710 DUP3 LT ISZERO PUSH2 0x20EF JUMPI POP PUSH32 0x12C9DCCD129FF783F1C8228EACDFA8E334DDECB7EC5C9A79EC662A4AED3D012A SWAP2 DUP2 PUSH1 0x80 SWAP3 PUSH1 0x5 SSTORE PUSH1 0xB DUP3 MLOAD SWAP3 DUP1 DUP5 MSTORE DUP4 ADD MSTORE PUSH11 0x736C697070616765427073 PUSH1 0xA8 SHL PUSH1 0x60 DUP4 ADD MSTORE PUSH1 0x20 DUP3 ADD MSTORE LOG1 DUP1 RETURN JUMPDEST PUSH1 0x64 SWAP1 PUSH1 0x20 DUP5 MLOAD SWAP2 PUSH3 0x461BCD PUSH1 0xE5 SHL DUP4 MSTORE DUP3 ADD MSTORE PUSH1 0xF PUSH1 0x24 DUP3 ADD MSTORE PUSH15 0x4D757374206265203C20313030303 PUSH1 0x8C SHL PUSH1 0x44 DUP3 ADD MSTORE REVERT JUMPDEST POP CALLVALUE PUSH2 0x352 JUMPI PUSH1 0x20 SWAP1 DUP2 PUSH1 0x3 NOT CALLDATASIZE ADD SLT PUSH2 0x792 JUMPI PUSH2 0x2140 PUSH2 0x29A0 JUMP JUMPDEST CALLER DUP6 MSTORE PUSH1 0x1 SWAP4 DUP5 DUP5 MSTORE PUSH2 0x2158 PUSH1 0xFF DUP3 DUP9 KECCAK256 SLOAD AND PUSH2 0x2BCD JUMP JUMPDEST PUSH1 0x1 PUSH1 0x1 PUSH1 0xA0 SHL SUB SWAP2 DUP3 AND DUP1 DUP8 MSTORE PUSH1 0x10 DUP6 MSTORE DUP2 DUP8 KECCAK256 SLOAD SWAP1 SWAP5 SWAP1 PUSH1 0xFF AND ISZERO PUSH2 0x22D8 JUMPI DUP3 PUSH32 0x0 AND DUP6 EQ PUSH2 0x22A2 JUMPI DUP5 DUP8 MSTORE PUSH1 0x10 SWAP1 MSTORE DUP6 KECCAK256 DUP1 SLOAD PUSH1 0xFF NOT AND SWAP1 SSTORE DUP5 DUP5 JUMPDEST PUSH2 0x21E4 JUMPI JUMPDEST DUP6 DUP5 PUSH32 0x413FB108AF65F1A0AB76C4598C831EB7800C030DFB5589C3BB325273E9AA12BA DUP3 DUP1 LOG2 DUP1 RETURN JUMPDEST PUSH1 0xF DUP1 SLOAD DUP1 DUP4 LT ISZERO PUSH2 0x229B JUMPI DUP4 DUP7 PUSH2 0x21FB DUP6 PUSH2 0x2A54 JUMP JUMPDEST SWAP3 SWAP1 SLOAD PUSH1 0x3 SWAP4 DUP5 SHL SHR AND EQ PUSH2 0x221C JUMPI POP POP POP PUSH2 0x2216 SWAP1 PUSH2 0x2C43 JUMP JUMPDEST DUP5 PUSH2 0x21B6 JUMP JUMPDEST SWAP6 SWAP7 POP SWAP1 SWAP5 PUSH1 0x0 NOT SWAP5 SWAP4 SWAP2 DUP6 DUP2 ADD SWAP1 DUP2 GT PUSH2 0x1798 JUMPI SWAP2 PUSH2 0x1885 SWAP2 PUSH2 0x2243 PUSH2 0x224F SWAP6 SWAP5 PUSH2 0x2A54 JUMP JUMPDEST SWAP1 SLOAD SWAP2 SHL SHR AND SWAP2 PUSH2 0x2A54 JUMP JUMPDEST DUP3 SLOAD SWAP1 DUP2 ISZERO PUSH2 0x2286 JUMPI POP ADD SWAP1 PUSH2 0x227C PUSH2 0x2267 DUP4 PUSH2 0x2A54 JUMP JUMPDEST DUP2 SLOAD SWAP1 PUSH1 0x1 DUP1 PUSH1 0xA0 SHL SUB SWAP1 PUSH1 0x3 SHL SHL NOT AND SWAP1 SSTORE JUMP JUMPDEST SSTORE DUP1 CODESIZE DUP1 DUP1 PUSH2 0x21BB JUMP JUMPDEST PUSH1 0x31 SWAP1 PUSH4 0x4E487B71 PUSH1 0xE0 SHL PUSH1 0x0 MSTORE MSTORE PUSH1 0x24 PUSH1 0x0 REVERT JUMPDEST POP POP PUSH2 0x21BB JUMP JUMPDEST DUP4 SWAP1 PUSH1 0x64 SWAP3 MLOAD SWAP2 PUSH3 0x461BCD PUSH1 0xE5 SHL DUP4 MSTORE DUP3 ADD MSTORE PUSH1 0x11 PUSH1 0x24 DUP3 ADD MSTORE PUSH17 0x10D85B9B9BDD081C995B5BDD994815D311 PUSH1 0x7A SHL PUSH1 0x44 DUP3 ADD MSTORE REVERT JUMPDEST DUP4 SWAP1 PUSH1 0x64 SWAP3 MLOAD SWAP2 PUSH3 0x461BCD PUSH1 0xE5 SHL DUP4 MSTORE DUP3 ADD MSTORE PUSH1 0xB PUSH1 0x24 DUP3 ADD MSTORE PUSH11 0x139BDD081D1C9858DAD959 PUSH1 0xAA SHL PUSH1 0x44 DUP3 ADD MSTORE REVERT JUMPDEST POP CALLVALUE PUSH2 0x352 JUMPI PUSH1 0x20 CALLDATASIZE PUSH1 0x3 NOT ADD SLT PUSH2 0x352 JUMPI PUSH2 0x2322 PUSH2 0x29A0 JUMP JUMPDEST DUP4 SLOAD PUSH1 0x1 PUSH1 0x1 PUSH1 0xA0 SHL SUB SWAP1 DUP2 AND SWAP3 SWAP2 CALLER DUP5 SWAP1 SUB PUSH2 0x246D JUMPI DUP2 AND SWAP3 DUP4 EQ PUSH2 0x2432 JUMPI DUP3 DUP6 MSTORE PUSH1 0x1 SWAP4 DUP5 PUSH1 0x20 MSTORE PUSH2 0x235B PUSH1 0xFF DUP3 DUP9 KECCAK256 SLOAD AND PUSH2 0x2BCD JUMP JUMPDEST DUP4 DUP7 MSTORE PUSH1 0x20 DUP6 SWAP1 MSTORE DUP6 KECCAK256 DUP1 SLOAD PUSH1 0xFF NOT AND SWAP1 SSTORE DUP5 DUP5 JUMPDEST PUSH2 0x239E JUMPI JUMPDEST DUP6 DUP5 PUSH32 0x58619076ADF5BB0943D100EF88D52D7C3FD691B19D3A9071B555B651FBF418DA DUP3 DUP1 LOG2 DUP1 RETURN JUMPDEST PUSH1 0x2 DUP1 SLOAD DUP1 DUP4 LT ISZERO PUSH2 0x242B JUMPI DUP4 DUP7 PUSH2 0x23B5 DUP6 PUSH2 0x2A1D JUMP JUMPDEST SWAP3 SWAP1 SLOAD PUSH1 0x3 SWAP4 DUP5 SHL SHR AND EQ PUSH2 0x23D6 JUMPI POP POP POP PUSH2 0x23D0 SWAP1 PUSH2 0x2C43 JUMP JUMPDEST DUP5 PUSH2 0x2370 JUMP JUMPDEST SWAP6 SWAP7 POP SWAP1 SWAP5 PUSH1 0x0 NOT SWAP5 SWAP4 SWAP2 DUP6 DUP2 ADD SWAP1 DUP2 GT PUSH2 0x1798 JUMPI SWAP2 PUSH2 0x1885 SWAP2 PUSH2 0x23FD PUSH2 0x2409 SWAP6 SWAP5 PUSH2 0x2A1D JUMP JUMPDEST SWAP1 SLOAD SWAP2 SHL SHR AND SWAP2 PUSH2 0x2A1D JUMP JUMPDEST DUP3 SLOAD SWAP1 DUP2 ISZERO PUSH2 0x2286 JUMPI POP ADD SWAP1 PUSH2 0x2421 PUSH2 0x2267 DUP4 PUSH2 0x2A1D JUMP JUMPDEST SSTORE DUP1 CODESIZE DUP1 DUP1 PUSH2 0x2375 JUMP JUMPDEST POP POP PUSH2 0x2375 JUMP JUMPDEST DUP4 MLOAD PUSH3 0x461BCD PUSH1 0xE5 SHL DUP2 MSTORE PUSH1 0x20 DUP2 DUP5 ADD MSTORE PUSH1 0x15 PUSH1 0x24 DUP3 ADD MSTORE PUSH21 0x43616E6E6F742072656D6F7665207072696D617279 PUSH1 0x58 SHL PUSH1 0x44 DUP3 ADD MSTORE PUSH1 0x64 SWAP1 REVERT JUMPDEST DUP5 MLOAD PUSH3 0x461BCD PUSH1 0xE5 SHL DUP2 MSTORE PUSH1 0x20 DUP2 DUP6 ADD MSTORE PUSH1 0x12 PUSH1 0x24 DUP3 ADD MSTORE PUSH18 0x27B7363C90383934B6B0B93C9037BBB732B9 PUSH1 0x71 SHL PUSH1 0x44 DUP3 ADD MSTORE PUSH1 0x64 SWAP1 REVERT JUMPDEST POP CALLVALUE PUSH2 0x352 JUMPI PUSH1 0x20 CALLDATASIZE PUSH1 0x3 NOT ADD SLT PUSH2 0x352 JUMPI CALLDATALOAD SWAP1 DUP2 ISZERO ISZERO DUP1 SWAP3 SUB PUSH2 0x352 JUMPI PUSH32 0x752D7E161FF5146F80E3820893176EB40532811E5E20400DFDDE57455213706A SWAP2 PUSH1 0x20 SWAP2 CALLER DUP6 MSTORE PUSH1 0x1 DUP4 MSTORE PUSH2 0x24FE PUSH1 0xFF DUP3 DUP8 KECCAK256 SLOAD AND PUSH2 0x2BCD JUMP JUMPDEST PUSH1 0x6 SLOAD PUSH4 0xFF000000 DUP4 PUSH1 0x18 SHL AND SWAP1 PUSH4 0xFF000000 NOT AND OR PUSH1 0x6 SSTORE MLOAD SWAP1 DUP2 MSTORE LOG1 DUP1 RETURN JUMPDEST POP CALLVALUE PUSH2 0x352 JUMPI PUSH1 0x20 CALLDATASIZE PUSH1 0x3 NOT ADD SLT PUSH2 0x352 JUMPI DUP1 CALLDATALOAD SWAP1 CALLER DUP5 MSTORE PUSH1 0x1 PUSH1 0x20 MSTORE PUSH2 0x254B PUSH1 0xFF DUP5 DUP7 KECCAK256 SLOAD AND PUSH2 0x2BCD JUMP JUMPDEST PUSH1 0x3C DUP3 LT PUSH2 0x25AE JUMPI POP PUSH32 0x12C9DCCD129FF783F1C8228EACDFA8E334DDECB7EC5C9A79EC662A4AED3D012A SWAP2 DUP2 PUSH1 0x80 SWAP3 PUSH1 0x3 SSTORE PUSH1 0x14 DUP3 MLOAD SWAP3 DUP1 DUP5 MSTORE DUP4 ADD MSTORE PUSH20 0x7265696E76657374496E74657276616C53656373 PUSH1 0x60 SHL PUSH1 0x60 DUP4 ADD MSTORE PUSH1 0x20 DUP3 ADD MSTORE LOG1 DUP1 RETURN JUMPDEST PUSH1 0x64 SWAP1 PUSH1 0x20 DUP5 MLOAD SWAP2 PUSH3 0x461BCD PUSH1 0xE5 SHL DUP4 MSTORE DUP3 ADD MSTORE PUSH1 0x7 PUSH1 0x24 DUP3 ADD MSTORE PUSH7 0x4D696E20363073 PUSH1 0xC8 SHL PUSH1 0x44 DUP3 ADD MSTORE REVERT JUMPDEST POP SWAP2 SWAP1 CALLVALUE PUSH2 0x390 JUMPI PUSH1 0x20 SWAP1 DUP2 PUSH1 0x3 NOT CALLDATASIZE ADD SLT PUSH2 0x352 JUMPI DUP4 CALLDATALOAD SWAP1 CALLER DUP5 MSTORE PUSH1 0x1 DUP4 MSTORE PUSH2 0x260A PUSH1 0xFF DUP3 DUP7 KECCAK256 SLOAD AND PUSH2 0x2BCD JUMP JUMPDEST PUSH2 0x2615 DUP3 ISZERO ISZERO PUSH2 0x2FEA JUMP JUMPDEST DUP1 MLOAD PUSH4 0x95EA7B3 PUSH1 0xE0 SHL DUP1 DUP7 MSTORE PUSH32 0x0 PUSH1 0x1 PUSH1 0x1 PUSH1 0xA0 SHL SUB DUP2 DUP2 AND DUP1 DUP11 MSTORE PUSH1 0x24 DUP8 DUP2 MSTORE SWAP10 SWAP5 PUSH32 0x0 SWAP1 SWAP3 AND SWAP4 SWAP2 DUP9 DUP11 PUSH1 0x44 DUP2 DUP1 DUP10 GAS CALL SWAP1 PUSH1 0x1 DUP12 MLOAD EQ DUP3 AND ISZERO PUSH2 0x2827 JUMPI JUMPDEST DUP8 MSTORE ISZERO PUSH2 0x279F JUMPI JUMPDEST DUP1 EXTCODESIZE ISZERO PUSH2 0x279B JUMPI DUP6 MLOAD PUSH4 0x534A7E1D PUSH1 0xE1 SHL DUP2 MSTORE DUP6 DUP2 ADD DUP9 SWAP1 MSTORE DUP10 DUP2 DUP13 DUP2 DUP4 DUP7 GAS CALL DUP1 ISZERO PUSH2 0x2791 JUMPI PUSH2 0x277E JUMPI JUMPDEST POP DUP8 SWAP1 PUSH1 0x0 SWAP1 DUP8 MLOAD SWAP4 DUP3 MSTORE DUP7 MSTORE DUP1 DUP12 MSTORE PUSH1 0x44 DUP2 DUP1 DUP8 GAS CALL SWAP1 PUSH1 0x1 PUSH1 0x0 MLOAD EQ DUP3 AND ISZERO PUSH2 0x276F JUMPI JUMPDEST DUP6 MSTORE ISZERO PUSH2 0x2724 JUMPI JUMPDEST DUP7 PUSH32 0x38D8C3E304A8001683D048DCC3E1B148BE830F6035082131E02A42D24F683DCE DUP8 DUP8 DUP8 MLOAD SWAP1 DUP2 MSTORE LOG1 DUP1 RETURN JUMPDEST PUSH2 0x272E DUP2 DUP4 PUSH2 0x32ED JUMP JUMPDEST ISZERO PUSH2 0x275B JUMPI PUSH2 0x273D SWAP1 DUP3 PUSH2 0x32ED JUMP JUMPDEST ISZERO PUSH2 0x2748 JUMPI DUP1 PUSH2 0x26F7 JUMP JUMPDEST DUP7 SWAP3 MLOAD SWAP2 PUSH4 0x5274AFE7 PUSH1 0xE0 SHL DUP4 MSTORE DUP3 ADD MSTORE REVERT JUMPDEST POP DUP7 SWAP3 MLOAD SWAP2 PUSH4 0x5274AFE7 PUSH1 0xE0 SHL DUP4 MSTORE DUP3 ADD MSTORE REVERT JUMPDEST SWAP1 DUP4 EXTCODESIZE ISZERO ISZERO RETURNDATASIZE ISZERO AND AND SWAP1 PUSH2 0x26EF JUMP JUMPDEST SWAP9 PUSH2 0x278A DUP10 SWAP3 SWAP11 PUSH2 0x2C75 JUMP JUMPDEST SWAP9 SWAP1 PUSH2 0x26C9 JUMP JUMPDEST DUP8 MLOAD RETURNDATASIZE DUP13 DUP3 RETURNDATACOPY RETURNDATASIZE SWAP1 REVERT JUMPDEST DUP9 DUP1 REVERT JUMPDEST PUSH2 0x27A9 DUP4 DUP6 PUSH2 0x32ED JUMP JUMPDEST ISZERO PUSH2 0x2810 JUMPI DUP6 MLOAD DUP3 DUP11 MSTORE DUP2 DUP7 MSTORE DUP8 DUP12 MSTORE DUP9 DUP11 PUSH1 0x44 DUP2 DUP1 DUP10 GAS CALL PUSH1 0x1 DUP12 MLOAD EQ DUP2 AND ISZERO PUSH2 0x27F1 JUMPI JUMPDEST DUP2 DUP9 MSTORE ISZERO PUSH2 0x27DD JUMPI POP PUSH2 0x269D JUMP JUMPDEST PUSH4 0x5274AFE7 PUSH1 0xE0 SHL DUP2 MSTORE DUP6 DUP2 ADD DUP6 SWAP1 MSTORE DUP11 SWAP1 REVERT JUMPDEST PUSH1 0x1 DUP2 ISZERO AND PUSH2 0x2807 JUMPI DUP6 EXTCODESIZE ISZERO ISZERO RETURNDATASIZE ISZERO AND AND PUSH2 0x27CF JUMP JUMPDEST POP RETURNDATASIZE DUP11 DUP3 RETURNDATACOPY RETURNDATASIZE SWAP1 REVERT JUMPDEST POP POP SWAP3 MLOAD PUSH4 0x5274AFE7 PUSH1 0xE0 SHL DUP2 MSTORE SWAP2 DUP3 ADD MSTORE DUP6 SWAP2 POP REVERT JUMPDEST SWAP1 DUP6 EXTCODESIZE ISZERO ISZERO RETURNDATASIZE ISZERO AND AND SWAP1 PUSH2 0x2695 JUMP JUMPDEST POP CALLVALUE PUSH2 0x352 JUMPI DUP2 PUSH1 0x3 NOT CALLDATASIZE ADD SLT PUSH2 0x352 JUMPI PUSH2 0x284F PUSH2 0x29A0 JUMP JUMPDEST SWAP2 PUSH2 0x2858 PUSH2 0x29B6 JUMP JUMPDEST SWAP2 CALLER DUP6 MSTORE PUSH1 0x20 SWAP2 PUSH1 0x1 DUP4 MSTORE PUSH2 0x2872 PUSH1 0xFF DUP3 DUP9 KECCAK256 SLOAD AND PUSH2 0x2BCD JUMP JUMPDEST PUSH1 0x1 PUSH1 0x1 PUSH1 0xA0 SHL SUB DUP5 DUP2 AND SWAP6 PUSH2 0x2889 DUP8 ISZERO ISZERO PUSH2 0x2C08 JUMP JUMPDEST AND SWAP4 DUP2 MLOAD SWAP3 PUSH4 0x70A08231 PUSH1 0xE0 SHL DUP5 MSTORE ADDRESS DUP2 DUP6 ADD MSTORE DUP5 DUP5 PUSH1 0x24 DUP2 DUP10 GAS STATICCALL SWAP4 DUP5 ISZERO PUSH2 0xF64 JUMPI DUP9 SWAP5 PUSH2 0x2942 JUMPI JUMPDEST POP DUP4 ISZERO PUSH2 0x2909 JUMPI POP SWAP1 PUSH2 0xEF1 DUP4 PUSH32 0xDE13184E8CBB6ECCBCECFC796BF8820E5FFDE0534C01B4FABED4B05982964A44 SWAP6 SWAP5 SWAP4 DUP8 DUP11 MSTORE PUSH1 0xE DUP7 MSTORE DUP10 DUP5 DUP2 KECCAK256 DUP4 DUP2 SLOAD LT ISZERO PUSH1 0x0 EQ PUSH2 0x2903 JUMPI SSTORE JUMPDEST DUP8 PUSH2 0x5292 JUMP JUMPDEST SSTORE PUSH2 0x28FD JUMP JUMPDEST DUP3 MLOAD PUSH3 0x461BCD PUSH1 0xE5 SHL DUP2 MSTORE SWAP1 DUP2 ADD DUP6 SWAP1 MSTORE PUSH1 0x13 PUSH1 0x24 DUP3 ADD MSTORE PUSH19 0x4E6F7468696E6720746F207769746864726177 PUSH1 0x68 SHL PUSH1 0x44 DUP3 ADD MSTORE PUSH1 0x64 SWAP1 REVERT JUMPDEST SWAP1 SWAP4 POP DUP5 DUP2 DUP2 RETURNDATASIZE DUP4 GT PUSH2 0x296E JUMPI JUMPDEST PUSH2 0x295A DUP2 DUP4 PUSH2 0x2CD7 JUMP JUMPDEST DUP2 ADD SUB SLT PUSH2 0x296A JUMPI MLOAD SWAP3 CODESIZE PUSH2 0x28B3 JUMP JUMPDEST DUP8 DUP1 REVERT JUMPDEST POP RETURNDATASIZE PUSH2 0x2950 JUMP JUMPDEST SWAP3 SWAP2 SWAP1 POP CALLVALUE PUSH2 0x792 JUMPI PUSH1 0x20 CALLDATASIZE PUSH1 0x3 NOT ADD SLT PUSH2 0x792 JUMPI CALLDATALOAD DUP4 MSTORE PUSH1 0x8 PUSH1 0x20 SWAP1 DUP2 MSTORE SWAP3 KECCAK256 SLOAD PUSH3 0xFFFFFF AND DUP2 MSTORE RETURN JUMPDEST PUSH1 0x4 CALLDATALOAD SWAP1 PUSH1 0x1 PUSH1 0x1 PUSH1 0xA0 SHL SUB DUP3 AND DUP3 SUB PUSH2 0x6ED JUMPI JUMP JUMPDEST PUSH1 0x24 CALLDATALOAD SWAP1 PUSH1 0x1 PUSH1 0x1 PUSH1 0xA0 SHL SUB DUP3 AND DUP3 SUB PUSH2 0x6ED JUMPI JUMP JUMPDEST PUSH1 0x9 SLOAD DUP2 LT ISZERO PUSH2 0x2A07 JUMPI PUSH1 0x3 SWAP1 PUSH1 0x9 PUSH1 0x0 MSTORE MUL PUSH32 0x6E1540171B6C0C960B71A7020D9F60077F6AF931A8BBF590DA0223DACF75C7AF ADD SWAP1 PUSH1 0x0 SWAP1 JUMP JUMPDEST PUSH4 0x4E487B71 PUSH1 0xE0 SHL PUSH1 0x0 MSTORE PUSH1 0x32 PUSH1 0x4 MSTORE PUSH1 0x24 PUSH1 0x0 REVERT JUMPDEST PUSH1 0x2 SLOAD DUP2 LT ISZERO PUSH2 0x2A07 JUMPI PUSH1 0x2 PUSH1 0x0 MSTORE PUSH32 0x405787FA12A823E0F2B7631CC41B3BA8828B3321CA811111FA75CD3AA3BB5ACE ADD SWAP1 PUSH1 0x0 SWAP1 JUMP JUMPDEST PUSH1 0xF SLOAD DUP2 LT ISZERO PUSH2 0x2A07 JUMPI PUSH1 0xF PUSH1 0x0 MSTORE PUSH32 0x8D1108E10BCB7C27DDDFC02ED9D693A074039D026CF4EA4240B40F7D581AC802 ADD SWAP1 PUSH1 0x0 SWAP1 JUMP JUMPDEST PUSH1 0xD SLOAD DUP2 LT ISZERO PUSH2 0x2A07 JUMPI PUSH1 0xD PUSH1 0x0 MSTORE PUSH32 0xD7B6990105719101DABEB77144F2A3385C8033ACD3AF97E9423A695E81AD1EB5 ADD SWAP1 PUSH1 0x0 SWAP1 JUMP JUMPDEST SWAP1 DUP2 MLOAD DUP1 DUP3 MSTORE PUSH1 0x20 DUP1 DUP1 SWAP4 ADD SWAP4 ADD SWAP2 PUSH1 0x0 JUMPDEST DUP3 DUP2 LT PUSH2 0x2AE2 JUMPI POP POP POP POP SWAP1 JUMP JUMPDEST DUP4 MLOAD PUSH1 0x1 PUSH1 0x1 PUSH1 0xA0 SHL SUB AND DUP6 MSTORE SWAP4 DUP2 ADD SWAP4 SWAP3 DUP2 ADD SWAP3 PUSH1 0x1 ADD PUSH2 0x2AD4 JUMP JUMPDEST SWAP1 DUP2 MLOAD DUP1 DUP3 MSTORE PUSH1 0x20 DUP1 DUP1 SWAP4 ADD SWAP4 ADD SWAP2 PUSH1 0x0 JUMPDEST DUP3 DUP2 LT PUSH2 0x2B1F JUMPI POP POP POP POP SWAP1 JUMP JUMPDEST DUP4 MLOAD DUP6 MSTORE SWAP4 DUP2 ADD SWAP4 SWAP3 DUP2 ADD SWAP3 PUSH1 0x1 ADD PUSH2 0x2B11 JUMP JUMPDEST PUSH1 0x60 SWAP1 PUSH1 0x3 NOT ADD SLT PUSH2 0x6ED JUMPI PUSH1 0x4 CALLDATALOAD PUSH1 0x1 PUSH1 0x1 PUSH1 0xA0 SHL SUB DUP2 AND DUP2 SUB PUSH2 0x6ED JUMPI SWAP1 PUSH1 0x24 CALLDATALOAD SWAP1 PUSH1 0x44 CALLDATALOAD PUSH3 0xFFFFFF DUP2 AND DUP2 SUB PUSH2 0x6ED JUMPI SWAP1 JUMP JUMPDEST SWAP2 DUP2 PUSH1 0x1F DUP5 ADD SLT ISZERO PUSH2 0x6ED JUMPI DUP3 CALLDATALOAD SWAP2 PUSH8 0xFFFFFFFFFFFFFFFF DUP4 GT PUSH2 0x6ED JUMPI PUSH1 0x20 DUP1 DUP6 ADD SWAP5 DUP5 PUSH1 0x5 SHL ADD ADD GT PUSH2 0x6ED JUMPI JUMP JUMPDEST PUSH1 0x40 PUSH1 0x3 NOT DUP3 ADD SLT PUSH2 0x6ED JUMPI PUSH1 0x4 CALLDATALOAD SWAP1 PUSH8 0xFFFFFFFFFFFFFFFF DUP3 GT PUSH2 0x6ED JUMPI PUSH2 0x2BC5 SWAP2 PUSH1 0x4 ADD PUSH2 0x2B69 JUMP JUMPDEST SWAP1 SWAP2 PUSH1 0x24 CALLDATALOAD SWAP1 JUMP JUMPDEST ISZERO PUSH2 0x2BD4 JUMPI JUMP JUMPDEST PUSH1 0x40 MLOAD PUSH3 0x461BCD PUSH1 0xE5 SHL DUP2 MSTORE PUSH1 0x20 PUSH1 0x4 DUP3 ADD MSTORE PUSH1 0xC PUSH1 0x24 DUP3 ADD MSTORE PUSH12 0x2737BA1030B71037BBB732B9 PUSH1 0xA1 SHL PUSH1 0x44 DUP3 ADD MSTORE PUSH1 0x64 SWAP1 REVERT JUMPDEST ISZERO PUSH2 0x2C0F JUMPI JUMP JUMPDEST PUSH1 0x40 MLOAD PUSH3 0x461BCD PUSH1 0xE5 SHL DUP2 MSTORE PUSH1 0x20 PUSH1 0x4 DUP3 ADD MSTORE PUSH1 0xC PUSH1 0x24 DUP3 ADD MSTORE PUSH12 0x5A65726F2061646472657373 PUSH1 0xA0 SHL PUSH1 0x44 DUP3 ADD MSTORE PUSH1 0x64 SWAP1 REVERT JUMPDEST PUSH1 0x0 NOT DUP2 EQ PUSH2 0x2C52 JUMPI PUSH1 0x1 ADD SWAP1 JUMP JUMPDEST PUSH4 0x4E487B71 PUSH1 0xE0 SHL PUSH1 0x0 MSTORE PUSH1 0x11 PUSH1 0x4 MSTORE PUSH1 0x24 PUSH1 0x0 REVERT JUMPDEST SWAP2 SWAP1 DUP3 SUB SWAP2 DUP3 GT PUSH2 0x2C52 JUMPI JUMP JUMPDEST PUSH8 0xFFFFFFFFFFFFFFFF DUP2 GT PUSH2 0x2C89 JUMPI PUSH1 0x40 MSTORE JUMP JUMPDEST PUSH4 0x4E487B71 PUSH1 0xE0 SHL PUSH1 0x0 MSTORE PUSH1 0x41 PUSH1 0x4 MSTORE PUSH1 0x24 PUSH1 0x0 REVERT JUMPDEST PUSH1 0x60 DUP2 ADD SWAP1 DUP2 LT PUSH8 0xFFFFFFFFFFFFFFFF DUP3 GT OR PUSH2 0x2C89 JUMPI PUSH1 0x40 MSTORE JUMP JUMPDEST PUSH1 0x80 DUP2 ADD SWAP1 DUP2 LT PUSH8 0xFFFFFFFFFFFFFFFF DUP3 GT OR PUSH2 0x2C89 JUMPI PUSH1 0x40 MSTORE JUMP JUMPDEST SWAP1 PUSH1 0x1F DUP1 NOT SWAP2 ADD AND DUP2 ADD SWAP1 DUP2 LT PUSH8 0xFFFFFFFFFFFFFFFF DUP3 GT OR PUSH2 0x2C89 JUMPI PUSH1 0x40 MSTORE JUMP JUMPDEST PUSH1 0x40 MLOAD SWAP1 PUSH1 0xF SLOAD DUP1 DUP4 MSTORE DUP3 PUSH1 0x20 SWAP2 DUP3 DUP3 ADD SWAP1 PUSH1 0xF PUSH1 0x0 MSTORE PUSH32 0x8D1108E10BCB7C27DDDFC02ED9D693A074039D026CF4EA4240B40F7D581AC802 SWAP4 PUSH1 0x0 SWAP1 JUMPDEST DUP3 DUP3 LT PUSH2 0x2D4E JUMPI POP POP POP PUSH2 0x2D4C SWAP3 POP SUB DUP4 PUSH2 0x2CD7 JUMP JUMPDEST JUMP JUMPDEST DUP6 SLOAD PUSH1 0x1 PUSH1 0x1 PUSH1 0xA0 SHL SUB AND DUP5 MSTORE PUSH1 0x1 SWAP6 DUP7 ADD SWAP6 DUP9 SWAP6 POP SWAP4 DUP2 ADD SWAP4 SWAP1 SWAP2 ADD SWAP1 PUSH2 0x2D36 JUMP JUMPDEST ISZERO PUSH2 0x2D78 JUMPI JUMP JUMPDEST PUSH1 0x40 MLOAD PUSH3 0x461BCD PUSH1 0xE5 SHL DUP2 MSTORE PUSH1 0x20 PUSH1 0x4 DUP3 ADD MSTORE PUSH1 0xC PUSH1 0x24 DUP3 ADD MSTORE PUSH12 0x24B73B30B634B2103A34B2B9 PUSH1 0xA1 SHL PUSH1 0x44 DUP3 ADD MSTORE PUSH1 0x64 SWAP1 REVERT JUMPDEST PUSH1 0x1 PUSH1 0x1 PUSH1 0xA0 SHL SUB DUP3 DUP2 AND SWAP1 DUP3 AND LT ISZERO PUSH2 0x2E24 JUMPI PUSH2 0x2DF7 PUSH2 0x68E SWAP2 SWAP3 JUMPDEST PUSH1 0x40 MLOAD SWAP3 DUP4 SWAP2 PUSH1 0x20 DUP4 ADD SWAP6 DUP7 SWAP1 PUSH1 0x28 SWAP3 PUSH1 0x1 PUSH1 0x1 PUSH1 0x60 SHL SUB NOT DUP1 SWAP3 PUSH1 0x60 SHL AND DUP4 MSTORE PUSH1 0x60 SHL AND PUSH1 0x14 DUP3 ADD MSTORE ADD SWAP1 JUMP JUMPDEST MLOAD SWAP1 KECCAK256 PUSH1 0x0 MSTORE PUSH1 0x8 PUSH1 0x20 MSTORE PUSH3 0xFFFFFF DUP1 PUSH1 0x40 PUSH1 0x0 KECCAK256 SLOAD AND DUP1 ISZERO PUSH1 0x0 EQ PUSH2 0x2E1F JUMPI POP PUSH1 0x6 SLOAD AND SWAP1 JUMP JUMPDEST SWAP1 POP SWAP1 JUMP JUMPDEST PUSH2 0x68E SWAP1 PUSH2 0x2DF7 SWAP1 PUSH2 0x2DC9 JUMP JUMPDEST SWAP2 SWAP1 DUP3 ADD DUP1 SWAP3 GT PUSH2 0x2C52 JUMPI JUMP JUMPDEST ISZERO PUSH2 0x2E45 JUMPI JUMP JUMPDEST PUSH1 0x40 MLOAD PUSH3 0x461BCD PUSH1 0xE5 SHL DUP2 MSTORE PUSH1 0x20 PUSH1 0x4 DUP3 ADD MSTORE PUSH1 0x10 PUSH1 0x24 DUP3 ADD MSTORE PUSH16 0x546F74616C2064697374203E20393525 PUSH1 0x80 SHL PUSH1 0x44 DUP3 ADD MSTORE PUSH1 0x64 SWAP1 REVERT JUMPDEST ISZERO PUSH2 0x2E84 JUMPI JUMP JUMPDEST PUSH1 0x40 MLOAD PUSH3 0x461BCD PUSH1 0xE5 SHL DUP2 MSTORE PUSH1 0x20 PUSH1 0x4 DUP3 ADD MSTORE PUSH1 0x10 PUSH1 0x24 DUP3 ADD MSTORE PUSH16 0x2737BA1030903234B9BA103A37B5B2B7 PUSH1 0x81 SHL PUSH1 0x44 DUP3 ADD MSTORE PUSH1 0x64 SWAP1 REVERT JUMPDEST PUSH8 0xFFFFFFFFFFFFFFFF DUP2 GT PUSH2 0x2C89 JUMPI PUSH1 0x5 SHL PUSH1 0x20 ADD SWAP1 JUMP JUMPDEST PUSH1 0x0 SWAP1 PUSH1 0x0 PUSH1 0x9 SLOAD JUMPDEST DUP1 DUP3 LT PUSH2 0x2EE8 JUMPI POP POP JUMP JUMPDEST SWAP1 SWAP3 PUSH2 0x2F05 PUSH2 0x2F0B SWAP2 PUSH1 0x1 PUSH2 0x2EFC DUP8 PUSH2 0x29CC JUMP JUMPDEST POP ADD SLOAD SWAP1 PUSH2 0x2E31 JUMP JUMPDEST SWAP4 PUSH2 0x2C43 JUMP JUMPDEST SWAP1 PUSH2 0x2EDD JUMP JUMPDEST PUSH1 0x1 PUSH1 0x1 PUSH1 0xA0 SHL SUB DUP2 AND PUSH1 0x0 DUP2 DUP2 MSTORE PUSH1 0x10 PUSH1 0x20 MSTORE PUSH1 0x40 DUP2 KECCAK256 DUP1 SLOAD SWAP3 SWAP4 SWAP2 SWAP3 PUSH1 0xFF DUP2 AND PUSH2 0x2F9D JUMPI PUSH1 0xFF NOT AND PUSH1 0x1 OR SWAP1 SSTORE PUSH1 0xF SLOAD PUSH1 0x1 PUSH1 0x40 SHL DUP2 LT ISZERO PUSH2 0x2F89 JUMPI PUSH32 0xDD710997ABACDF4E5052B0F85F257D182157D5488113CE7E50FCDDD9409E4F83 SWAP3 SWAP2 PUSH2 0x1885 DUP3 PUSH1 0x1 PUSH2 0x2F85 SWAP5 ADD PUSH1 0xF SSTORE PUSH2 0x2A54 JUMP JUMPDEST DUP1 LOG2 JUMP JUMPDEST PUSH4 0x4E487B71 PUSH1 0xE0 SHL DUP4 MSTORE PUSH1 0x41 PUSH1 0x4 MSTORE PUSH1 0x24 DUP4 REVERT JUMPDEST POP POP POP POP POP JUMP JUMPDEST SWAP1 PUSH2 0x2FAE DUP3 PUSH2 0x2EBC JUMP JUMPDEST PUSH2 0x2FBB PUSH1 0x40 MLOAD SWAP2 DUP3 PUSH2 0x2CD7 JUMP JUMPDEST DUP3 DUP2 MSTORE DUP1 SWAP3 PUSH2 0x2FCC PUSH1 0x1F NOT SWAP2 PUSH2 0x2EBC JUMP JUMPDEST ADD SWAP1 PUSH1 0x20 CALLDATASIZE SWAP2 ADD CALLDATACOPY JUMP JUMPDEST DUP1 MLOAD DUP3 LT ISZERO PUSH2 0x2A07 JUMPI PUSH1 0x20 SWAP2 PUSH1 0x5 SHL ADD ADD SWAP1 JUMP JUMPDEST ISZERO PUSH2 0x2FF1 JUMPI JUMP JUMPDEST PUSH1 0x40 MLOAD PUSH3 0x461BCD PUSH1 0xE5 SHL DUP2 MSTORE PUSH1 0x20 PUSH1 0x4 DUP3 ADD MSTORE PUSH1 0xB PUSH1 0x24 DUP3 ADD MSTORE PUSH11 0x16995C9BC8185B5BDD5B9D PUSH1 0xAA SHL PUSH1 0x44 DUP3 ADD MSTORE PUSH1 0x64 SWAP1 REVERT JUMPDEST PUSH1 0x0 PUSH1 0x40 MLOAD SWAP3 PUSH4 0x95EA7B3 PUSH1 0xE0 SHL SWAP4 DUP5 DUP4 MSTORE PUSH1 0x20 PUSH1 0x0 DUP1 MLOAD PUSH1 0x20 PUSH2 0x534F DUP4 CODECOPY DUP2 MLOAD SWAP2 MSTORE SWAP4 DUP5 PUSH1 0x4 MSTORE DUP4 PUSH1 0x24 MSTORE PUSH1 0x44 DUP2 DUP1 DUP9 GAS CALL SWAP1 PUSH1 0x1 PUSH1 0x0 MLOAD EQ DUP3 AND ISZERO PUSH2 0x311A JUMPI JUMPDEST PUSH1 0x40 MSTORE ISZERO PUSH2 0x3075 JUMPI JUMPDEST POP POP POP POP JUMP JUMPDEST PUSH2 0x307E DUP4 PUSH2 0x3237 JUMP JUMPDEST ISZERO PUSH2 0x30F9 JUMPI SWAP1 PUSH1 0x20 SWAP2 PUSH1 0x0 SWAP2 PUSH1 0x40 MLOAD SWAP6 DUP4 MSTORE PUSH1 0x4 MSTORE PUSH1 0x24 MSTORE PUSH1 0x44 DUP2 DUP1 DUP6 GAS CALL PUSH1 0x1 PUSH1 0x0 MLOAD EQ DUP2 AND ISZERO PUSH2 0x30D9 JUMPI JUMPDEST DUP3 PUSH1 0x40 MSTORE ISZERO PUSH2 0x30BB JUMPI DUP1 DUP1 PUSH2 0x306F JUMP JUMPDEST PUSH4 0x5274AFE7 PUSH1 0xE0 SHL DUP3 MSTORE PUSH1 0x1 PUSH1 0x1 PUSH1 0xA0 SHL SUB AND PUSH1 0x4 DUP3 ADD MSTORE PUSH1 0x24 SWAP2 POP REVERT JUMPDEST PUSH1 0x1 DUP2 ISZERO AND PUSH2 0x30EF JUMPI DUP2 EXTCODESIZE ISZERO ISZERO RETURNDATASIZE ISZERO AND AND PUSH2 0x30AB JUMP JUMPDEST DUP3 RETURNDATASIZE PUSH1 0x0 DUP3 RETURNDATACOPY RETURNDATASIZE SWAP1 REVERT JUMPDEST PUSH1 0x40 MLOAD PUSH4 0x5274AFE7 PUSH1 0xE0 SHL DUP2 MSTORE PUSH1 0x1 PUSH1 0x1 PUSH1 0xA0 SHL SUB DUP5 AND PUSH1 0x4 DUP3 ADD MSTORE PUSH1 0x24 SWAP1 REVERT JUMPDEST SWAP1 DUP5 EXTCODESIZE ISZERO ISZERO RETURNDATASIZE ISZERO AND AND SWAP1 PUSH2 0x3066 JUMP JUMPDEST PUSH1 0x0 PUSH1 0x20 PUSH1 0x40 MLOAD SWAP2 PUSH4 0x95EA7B3 PUSH1 0xE0 SHL DUP2 MSTORE PUSH1 0x0 DUP1 MLOAD PUSH1 0x20 PUSH2 0x534F DUP4 CODECOPY DUP2 MLOAD SWAP2 MSTORE PUSH1 0x4 MSTORE DUP1 PUSH1 0x24 MSTORE PUSH1 0x44 DUP2 DUP1 DUP7 GAS CALL SWAP1 PUSH1 0x1 PUSH1 0x0 MLOAD EQ DUP3 AND ISZERO PUSH2 0x31B3 JUMPI JUMPDEST PUSH1 0x40 MSTORE ISZERO PUSH2 0x3172 JUMPI POP JUMP JUMPDEST PUSH2 0x317B DUP2 PUSH2 0x3237 JUMP JUMPDEST ISZERO PUSH2 0x3191 JUMPI PUSH2 0x3189 DUP2 PUSH2 0x3237 JUMP JUMPDEST ISZERO PUSH2 0x3191 JUMPI POP JUMP JUMPDEST PUSH1 0x40 MLOAD PUSH4 0x5274AFE7 PUSH1 0xE0 SHL DUP2 MSTORE PUSH1 0x1 PUSH1 0x1 PUSH1 0xA0 SHL SUB SWAP1 SWAP2 AND PUSH1 0x4 DUP3 ADD MSTORE PUSH1 0x24 SWAP1 REVERT JUMPDEST SWAP1 DUP3 EXTCODESIZE ISZERO ISZERO RETURNDATASIZE ISZERO AND AND SWAP1 PUSH2 0x3167 JUMP JUMPDEST PUSH1 0x0 PUSH1 0x20 PUSH1 0x40 MLOAD SWAP2 PUSH4 0x95EA7B3 PUSH1 0xE0 SHL DUP2 MSTORE PUSH20 0x91AD9E2E6E5ED44C1C66DB50E49A601F9F36CF6 PUSH1 0x4 MSTORE DUP1 PUSH1 0x24 MSTORE PUSH1 0x44 DUP2 DUP1 DUP7 GAS CALL SWAP1 PUSH1 0x1 PUSH1 0x0 MLOAD EQ DUP3 AND ISZERO PUSH2 0x3228 JUMPI JUMPDEST PUSH1 0x40 MSTORE ISZERO PUSH2 0x3211 JUMPI POP JUMP JUMPDEST PUSH2 0x321A DUP2 PUSH2 0x32A2 JUMP JUMPDEST ISZERO PUSH2 0x3191 JUMPI PUSH2 0x3189 DUP2 PUSH2 0x32A2 JUMP JUMPDEST SWAP1 DUP3 EXTCODESIZE ISZERO ISZERO RETURNDATASIZE ISZERO AND AND SWAP1 PUSH2 0x3206 JUMP JUMPDEST SWAP1 PUSH1 0x40 MLOAD PUSH1 0x0 SWAP3 PUSH4 0x95EA7B3 PUSH1 0xE0 SHL DUP5 MSTORE PUSH1 0x0 DUP1 MLOAD PUSH1 0x20 PUSH2 0x534F DUP4 CODECOPY DUP2 MLOAD SWAP2 MSTORE PUSH1 0x4 MSTORE DUP4 PUSH1 0x24 MSTORE PUSH1 0x20 DUP5 PUSH1 0x44 DUP2 DUP1 DUP6 GAS CALL SWAP4 PUSH1 0x1 DUP2 MLOAD EQ DUP6 AND ISZERO PUSH2 0x327D JUMPI JUMPDEST POP POP PUSH1 0x40 MSTORE JUMP JUMPDEST PUSH1 0x1 DUP6 SWAP4 SWAP6 ISZERO AND PUSH2 0x3298 JUMPI POP EXTCODESIZE ISZERO ISZERO RETURNDATASIZE ISZERO AND AND SWAP2 CODESIZE DUP1 PUSH2 0x3276 JUMP JUMPDEST DUP5 SWAP1 RETURNDATASIZE SWAP1 DUP3 RETURNDATACOPY RETURNDATASIZE SWAP1 REVERT JUMPDEST SWAP1 PUSH1 0x40 MLOAD PUSH1 0x0 SWAP3 PUSH4 0x95EA7B3 PUSH1 0xE0 SHL DUP5 MSTORE PUSH20 0x91AD9E2E6E5ED44C1C66DB50E49A601F9F36CF6 PUSH1 0x4 MSTORE DUP4 PUSH1 0x24 MSTORE PUSH1 0x20 DUP5 PUSH1 0x44 DUP2 DUP1 DUP6 GAS CALL SWAP4 PUSH1 0x1 DUP2 MLOAD EQ DUP6 AND ISZERO PUSH2 0x327D JUMPI POP POP PUSH1 0x40 MSTORE JUMP JUMPDEST PUSH1 0x40 MLOAD PUSH4 0x95EA7B3 PUSH1 0xE0 SHL PUSH1 0x0 SWAP1 DUP2 MSTORE PUSH1 0x1 PUSH1 0x1 PUSH1 0xA0 SHL SUB SWAP1 SWAP4 AND PUSH1 0x4 MSTORE PUSH1 0x24 DUP4 SWAP1 MSTORE SWAP2 SWAP3 SWAP2 SWAP1 PUSH1 0x20 DUP5 PUSH1 0x44 DUP2 DUP1 DUP6 GAS CALL SWAP4 PUSH1 0x1 DUP2 MLOAD EQ DUP6 AND ISZERO PUSH2 0x327D JUMPI POP POP PUSH1 0x40 MSTORE JUMP JUMPDEST PUSH1 0x40 MLOAD SWAP1 PUSH1 0xD SLOAD DUP1 DUP4 MSTORE DUP3 PUSH1 0x20 SWAP2 DUP3 DUP3 ADD SWAP1 PUSH1 0xD PUSH1 0x0 MSTORE PUSH32 0xD7B6990105719101DABEB77144F2A3385C8033ACD3AF97E9423A695E81AD1EB5 SWAP4 PUSH1 0x0 SWAP1 JUMPDEST DUP3 DUP3 LT PUSH2 0x3385 JUMPI POP POP POP PUSH2 0x2D4C SWAP3 POP SUB DUP4 PUSH2 0x2CD7 JUMP JUMPDEST DUP6 SLOAD DUP5 MSTORE PUSH1 0x1 SWAP6 DUP7 ADD SWAP6 DUP9 SWAP6 POP SWAP4 DUP2 ADD SWAP4 SWAP1 SWAP2 ADD SWAP1 PUSH2 0x336F JUMP JUMPDEST SWAP2 SWAP1 DUP2 LT ISZERO PUSH2 0x2A07 JUMPI PUSH1 0x5 SHL ADD SWAP1 JUMP JUMPDEST MLOAD SWAP1 PUSH1 0x1 PUSH1 0x1 PUSH1 0xA0 SHL SUB DUP3 AND DUP3 SUB PUSH2 0x6ED JUMPI JUMP JUMPDEST MLOAD SWAP1 DUP2 PUSH1 0x2 SIGNEXTEND DUP3 SUB PUSH2 0x6ED JUMPI JUMP JUMPDEST MLOAD SWAP1 PUSH1 0x1 PUSH1 0x1 PUSH1 0x80 SHL SUB DUP3 AND DUP3 SUB PUSH2 0x6ED JUMPI JUMP JUMPDEST SWAP2 SWAP1 DUP3 PUSH2 0x180 SWAP2 SUB SLT PUSH2 0x6ED JUMPI DUP2 MLOAD PUSH1 0x1 PUSH1 0x1 PUSH1 0x60 SHL SUB DUP2 AND DUP2 SUB PUSH2 0x6ED JUMPI SWAP2 PUSH2 0x3411 PUSH1 0x20 DUP3 ADD PUSH2 0x33AF JUMP JUMPDEST SWAP2 PUSH2 0x341E PUSH1 0x40 DUP4 ADD PUSH2 0x33AF JUMP JUMPDEST SWAP2 PUSH2 0x342B PUSH1 0x60 DUP3 ADD PUSH2 0x33AF JUMP JUMPDEST SWAP2 PUSH1 0x80 DUP3 ADD MLOAD PUSH3 0xFFFFFF DUP2 AND DUP2 SUB PUSH2 0x6ED JUMPI SWAP2 PUSH2 0x344A PUSH1 0xA0 DUP3 ADD PUSH2 0x33C3 JUMP JUMPDEST SWAP2 PUSH2 0x3457 PUSH1 0xC0 DUP4 ADD PUSH2 0x33C3 JUMP JUMPDEST SWAP2 PUSH2 0x3464 PUSH1 0xE0 DUP3 ADD PUSH2 0x33D1 JUMP JUMPDEST SWAP2 PUSH2 0x100 DUP3 ADD MLOAD SWAP2 PUSH2 0x120 DUP2 ADD MLOAD SWAP2 PUSH2 0x348D PUSH2 0x160 PUSH2 0x3486 PUSH2 0x140 DUP6 ADD PUSH2 0x33D1 JUMP JUMPDEST SWAP4 ADD PUSH2 0x33D1 JUMP JUMPDEST SWAP1 JUMP JUMPDEST MLOAD SWAP1 PUSH2 0xFFFF DUP3 AND DUP3 SUB PUSH2 0x6ED JUMPI JUMP JUMPDEST SWAP1 DUP2 PUSH1 0xE0 SWAP2 SUB SLT PUSH2 0x6ED JUMPI DUP1 MLOAD PUSH1 0x1 PUSH1 0x1 PUSH1 0xA0 SHL SUB DUP2 AND DUP2 SUB PUSH2 0x6ED JUMPI SWAP2 PUSH2 0x34C9 PUSH1 0x20 DUP4 ADD PUSH2 0x33C3 JUMP JUMPDEST SWAP2 PUSH2 0x34D6 PUSH1 0x40 DUP3 ADD PUSH2 0x3490 JUMP JUMPDEST SWAP2 PUSH2 0x34E3 PUSH1 0x60 DUP4 ADD PUSH2 0x3490 JUMP JUMPDEST SWAP2 PUSH2 0x34F0 PUSH1 0x80 DUP3 ADD PUSH2 0x3490 JUMP JUMPDEST SWAP2 PUSH1 0xA0 DUP3 ADD MLOAD PUSH1 0xFF DUP2 AND DUP2 SUB PUSH2 0x6ED JUMPI PUSH1 0xC0 SWAP1 SWAP3 ADD MLOAD DUP1 ISZERO ISZERO DUP2 SUB PUSH2 0x6ED JUMPI SWAP1 JUMP JUMPDEST PUSH1 0x40 DUP1 MLOAD PUSH4 0x133F7571 PUSH1 0xE3 SHL DUP2 MSTORE PUSH1 0x4 DUP2 ADD DUP4 SWAP1 MSTORE SWAP2 PUSH2 0x180 DUP1 DUP5 PUSH1 0x24 DUP2 PUSH1 0x0 DUP1 MLOAD PUSH1 0x20 PUSH2 0x534F DUP4 CODECOPY DUP2 MLOAD SWAP2 MSTORE GAS STATICCALL SWAP4 DUP5 ISZERO PUSH2 0x3707 JUMPI PUSH1 0x0 DUP1 DUP1 SWAP3 DUP2 SWAP5 DUP3 SWAP9 PUSH2 0x36CF JUMPI JUMPDEST POP POP DUP6 MLOAD PUSH4 0xB4C7741 PUSH1 0xE1 SHL DUP2 MSTORE PUSH1 0x1 PUSH1 0x1 PUSH1 0xA0 SHL SUB SWAP2 DUP3 AND PUSH1 0x4 DUP3 ADD MSTORE SWAP2 AND PUSH1 0x24 DUP3 ADD MSTORE PUSH3 0xFFFFFF SWAP2 SWAP1 SWAP2 AND PUSH1 0x44 DUP3 ADD MSTORE PUSH1 0x20 DUP2 PUSH1 0x64 DUP2 PUSH20 0x7A5028BDA40E7B173C278C5342087826455EA25A GAS STATICCALL SWAP1 DUP2 ISZERO PUSH2 0x36C4 JUMPI PUSH1 0x0 SWAP2 PUSH2 0x368B JUMPI JUMPDEST POP PUSH1 0x1 PUSH1 0x1 PUSH1 0xA0 SHL SUB SWAP1 DUP2 AND SWAP1 DUP2 PUSH2 0x35CF JUMPI JUMPDEST POP POP POP POP POP POP JUMP JUMPDEST PUSH1 0xE0 PUSH1 0x4 SWAP3 DUP7 MLOAD SWAP4 DUP5 DUP1 SWAP3 PUSH4 0x3850C7BD DUP6 SHL DUP3 MSTORE GAS STATICCALL SWAP2 DUP3 ISZERO PUSH2 0x3680 JUMPI PUSH1 0x0 SWAP1 DUP2 SWAP4 PUSH2 0x3648 JUMPI JUMPDEST POP AND PUSH2 0x3603 JUMPI JUMPDEST DUP1 PUSH2 0x35C7 JUMP JUMPDEST PUSH1 0x2 SIGNEXTEND SWAP1 PUSH1 0x2 SIGNEXTEND DUP2 SLT ISZERO SWAP4 DUP5 PUSH2 0x363A JUMPI JUMPDEST POP POP PUSH1 0x0 MSTORE PUSH1 0xC PUSH1 0x20 MSTORE PUSH1 0x0 KECCAK256 SWAP1 PUSH1 0xFF DUP1 NOT DUP4 SLOAD AND SWAP2 ISZERO ISZERO AND OR SWAP1 SSTORE CODESIZE DUP1 DUP1 DUP1 DUP1 PUSH2 0x35FD JUMP JUMPDEST PUSH1 0x2 SIGNEXTEND SLT ISZERO SWAP3 POP CODESIZE DUP1 PUSH2 0x3614 JUMP JUMPDEST SWAP1 POP PUSH2 0x366C SWAP2 SWAP3 POP PUSH1 0xE0 RETURNDATASIZE DUP2 GT PUSH2 0x3679 JUMPI JUMPDEST PUSH2 0x3664 DUP2 DUP4 PUSH2 0x2CD7 JUMP JUMPDEST DUP2 ADD SWAP1 PUSH2 0x349F JUMP JUMPDEST POP POP POP POP POP SWAP2 SWAP1 CODESIZE PUSH2 0x35F6 JUMP JUMPDEST POP RETURNDATASIZE PUSH2 0x365A JUMP JUMPDEST DUP6 MLOAD RETURNDATASIZE PUSH1 0x0 DUP3 RETURNDATACOPY RETURNDATASIZE SWAP1 REVERT JUMPDEST SWAP1 PUSH1 0x20 DUP3 RETURNDATASIZE DUP3 GT PUSH2 0x36BC JUMPI JUMPDEST DUP2 PUSH2 0x36A4 PUSH1 0x20 SWAP4 DUP4 PUSH2 0x2CD7 JUMP JUMPDEST DUP2 ADD SUB SLT PUSH2 0x4CC JUMPI POP PUSH2 0x36B6 SWAP1 PUSH2 0x33AF JUMP JUMPDEST CODESIZE PUSH2 0x35B4 JUMP JUMPDEST RETURNDATASIZE SWAP2 POP PUSH2 0x3697 JUMP JUMPDEST DUP5 MLOAD RETURNDATASIZE PUSH1 0x0 DUP3 RETURNDATACOPY RETURNDATASIZE SWAP1 REVERT JUMPDEST SWAP3 POP SWAP3 POP POP PUSH1 0x20 SWAP6 POP PUSH2 0x36EE SWAP3 POP DUP1 RETURNDATASIZE LT PUSH2 0x4BB JUMPI PUSH2 0x496 DUP2 DUP4 PUSH2 0x2CD7 JUMP JUMPDEST POP POP POP POP POP SWAP6 POP SWAP4 POP SWAP1 SWAP7 SWAP2 SWAP7 SWAP1 SWAP3 SWAP4 SWAP7 SWAP1 SWAP2 CODESIZE PUSH2 0x3556 JUMP JUMPDEST DUP4 MLOAD RETURNDATASIZE PUSH1 0x0 DUP3 RETURNDATACOPY RETURNDATASIZE SWAP1 REVERT JUMPDEST ISZERO PUSH2 0x3719 JUMPI JUMP JUMPDEST PUSH1 0x40 MLOAD PUSH3 0x461BCD PUSH1 0xE5 SHL DUP2 MSTORE PUSH1 0x20 PUSH1 0x4 DUP3 ADD MSTORE PUSH1 0x12 PUSH1 0x24 DUP3 ADD MSTORE PUSH18 0x10DBDB9D1C9858DD081A5CC81C185D5CD959 PUSH1 0x72 SHL PUSH1 0x44 DUP3 ADD MSTORE PUSH1 0x64 SWAP1 REVERT JUMPDEST PUSH32 0x9B779B17422D0DF92223018B32B4D1FA46E071723D6817E2486D003BECC55F00 PUSH1 0x2 DUP2 SLOAD EQ PUSH2 0x3783 JUMPI PUSH1 0x2 SWAP1 SSTORE JUMP JUMPDEST PUSH1 0x40 MLOAD PUSH4 0x3EE5AEB5 PUSH1 0xE0 SHL DUP2 MSTORE PUSH1 0x4 SWAP1 REVERT JUMPDEST PUSH1 0x40 DUP1 MLOAD PUSH4 0x70A08231 PUSH1 0xE0 SHL DUP1 DUP3 MSTORE ADDRESS PUSH1 0x4 DUP4 ADD MSTORE SWAP3 SWAP4 SWAP3 PUSH1 0x20 SWAP2 PUSH1 0x1 PUSH1 0x1 PUSH1 0xA0 SHL SUB PUSH32 0x0 DUP2 AND SWAP3 PUSH1 0x0 SWAP2 DUP6 DUP5 PUSH1 0x24 DUP2 DUP9 GAS STATICCALL SWAP4 DUP5 ISZERO PUSH2 0x39C7 JUMPI DUP4 SWAP5 PUSH2 0x3998 JUMPI JUMPDEST POP PUSH32 0x0 AND DUP1 EXTCODESIZE ISZERO PUSH2 0x352 JUMPI DUP3 DUP1 SWAP2 PUSH1 0x4 DUP10 MLOAD DUP1 SWAP5 DUP2 SWAP4 PUSH4 0x6FB01C6F PUSH1 0xE0 SHL DUP4 MSTORE GAS CALL SWAP1 DUP2 PUSH2 0x3985 JUMPI JUMPDEST POP PUSH2 0x384C JUMPI POP POP POP POP POP POP SWAP1 POP JUMP JUMPDEST DUP5 SWAP1 PUSH1 0x24 DUP8 MLOAD DUP1 SWAP7 DUP2 SWAP4 DUP3 MSTORE ADDRESS PUSH1 0x4 DUP4 ADD MSTORE GAS STATICCALL SWAP1 DUP2 ISZERO PUSH2 0x397A JUMPI SWAP1 PUSH2 0x394B JUMPI JUMPDEST PUSH2 0x3877 SWAP3 POP PUSH2 0x2C68 JUMP JUMPDEST DUP1 ISZERO PUSH2 0x3944 JUMPI PUSH32 0x3648C0BF88F1BC1BFF753A51023E66EAFBF42F937066E3C6F888E8B8CBDCA680 DUP3 DUP5 MLOAD DUP4 DUP2 MSTORE LOG1 DUP3 MLOAD SWAP5 DUP6 DUP4 PUSH1 0xD SLOAD SWAP8 DUP9 DUP2 MSTORE ADD SWAP7 PUSH1 0xD PUSH1 0x0 MSTORE PUSH32 0xD7B6990105719101DABEB77144F2A3385C8033ACD3AF97E9423A695E81AD1EB5 SWAP1 PUSH1 0x0 JUMPDEST DUP2 DUP2 LT PUSH2 0x3930 JUMPI POP POP POP SWAP1 DUP2 PUSH2 0x391A PUSH2 0x3920 SWAP4 PUSH32 0xC9AD57538C87A56B42547BA3335109C64ED9619D5CF403928283E46967B80C44 SWAP9 SWAP10 SUB DUP3 PUSH2 0x2CD7 JUMP JUMPDEST DUP4 PUSH2 0x4789 JUMP JUMPDEST TIMESTAMP PUSH1 0x7 SSTORE DUP3 MLOAD SWAP2 TIMESTAMP DUP4 MSTORE DUP3 ADD MSTORE LOG1 JUMP JUMPDEST DUP3 SLOAD DUP11 MSTORE SWAP9 DUP7 ADD SWAP9 PUSH1 0x1 SWAP3 DUP4 ADD SWAP3 ADD PUSH2 0x38DD JUMP JUMPDEST POP POP POP SWAP1 POP JUMP JUMPDEST POP DUP3 DUP3 DUP2 RETURNDATASIZE DUP4 GT PUSH2 0x3973 JUMPI JUMPDEST PUSH2 0x3961 DUP2 DUP4 PUSH2 0x2CD7 JUMP JUMPDEST DUP2 ADD SUB SLT PUSH2 0x6ED JUMPI PUSH2 0x3877 SWAP2 MLOAD PUSH2 0x386D JUMP JUMPDEST POP RETURNDATASIZE PUSH2 0x3957 JUMP JUMPDEST DUP6 MLOAD SWAP1 RETURNDATASIZE SWAP1 DUP3 RETURNDATACOPY RETURNDATASIZE SWAP1 REVERT JUMPDEST PUSH2 0x3991 SWAP1 SWAP4 SWAP2 SWAP4 PUSH2 0x2C75 JUMP JUMPDEST SWAP2 CODESIZE PUSH2 0x383D JUMP JUMPDEST SWAP1 SWAP4 POP DUP6 DUP2 DUP2 RETURNDATASIZE DUP4 GT PUSH2 0x39C0 JUMPI JUMPDEST PUSH2 0x39B0 DUP2 DUP4 PUSH2 0x2CD7 JUMP JUMPDEST DUP2 ADD SUB SLT PUSH2 0x352 JUMPI MLOAD SWAP3 CODESIZE PUSH2 0x37F5 JUMP JUMPDEST POP RETURNDATASIZE PUSH2 0x39A6 JUMP JUMPDEST DUP8 MLOAD RETURNDATASIZE DUP6 DUP3 RETURNDATACOPY RETURNDATASIZE SWAP1 REVERT JUMPDEST PUSH1 0x40 MLOAD PUSH4 0x70A08231 PUSH1 0xE0 SHL DUP2 MSTORE ADDRESS PUSH1 0x4 DUP3 ADD MSTORE PUSH1 0x0 SWAP4 SWAP3 SWAP1 PUSH1 0x20 DUP2 PUSH1 0x24 DUP2 PUSH32 0x0 PUSH1 0x1 PUSH1 0x1 PUSH1 0xA0 SHL SUB AND GAS STATICCALL SWAP1 DUP2 ISZERO PUSH2 0x40E8 JUMPI DUP6 SWAP2 PUSH2 0x40B6 JUMPI JUMPDEST POP DUP5 PUSH32 0x0 PUSH1 0x1 PUSH1 0x1 PUSH1 0xA0 SHL SUB AND DUP1 EXTCODESIZE ISZERO PUSH2 0x390 JUMPI DUP2 SWAP1 PUSH1 0x4 PUSH1 0x40 MLOAD DUP1 SWAP5 DUP2 SWAP4 PUSH4 0x6FB01C6F PUSH1 0xE0 SHL DUP4 MSTORE GAS CALL SWAP1 DUP2 PUSH2 0x40A3 JUMPI JUMPDEST POP PUSH2 0x3FD0 JUMPI JUMPDEST POP DUP4 JUMPDEST DUP3 MLOAD DUP2 LT ISZERO PUSH2 0x3D0A JUMPI PUSH2 0x3A96 DUP2 DUP5 PUSH2 0x2FD6 JUMP JUMPDEST MLOAD SWAP1 DUP2 DUP7 MSTORE PUSH1 0xB PUSH1 0x20 MSTORE PUSH1 0xFF PUSH1 0x40 DUP8 KECCAK256 SLOAD AND ISZERO PUSH2 0x3D00 JUMPI PUSH1 0x40 MLOAD PUSH4 0x133F7571 PUSH1 0xE3 SHL DUP2 MSTORE PUSH1 0x4 DUP2 ADD DUP4 SWAP1 MSTORE PUSH2 0x180 DUP2 PUSH1 0x24 DUP2 PUSH1 0x0 DUP1 MLOAD PUSH1 0x20 PUSH2 0x534F DUP4 CODECOPY DUP2 MLOAD SWAP2 MSTORE GAS STATICCALL SWAP1 DUP2 ISZERO PUSH2 0x3CF5 JUMPI DUP8 SWAP1 DUP9 SWAP3 PUSH2 0x3CC6 JUMPI JUMPDEST POP PUSH1 0x40 MLOAD SWAP4 PUSH2 0x3AF7 DUP6 PUSH2 0x2CBB JUMP JUMPDEST DUP1 DUP6 MSTORE ADDRESS PUSH1 0x20 DUP7 ADD SWAP1 DUP2 MSTORE PUSH1 0x1 PUSH1 0x1 PUSH1 0x80 SHL SUB PUSH1 0x40 DUP1 DUP9 ADD DUP3 DUP2 MSTORE PUSH1 0x60 DUP10 ADD DUP4 DUP2 MSTORE DUP3 MLOAD PUSH4 0xFC6F7865 PUSH1 0xE0 SHL DUP2 MSTORE SWAP10 MLOAD PUSH1 0x4 DUP12 ADD MSTORE SWAP4 MLOAD PUSH1 0x1 PUSH1 0x1 PUSH1 0xA0 SHL SUB AND PUSH1 0x24 DUP11 ADD MSTORE MLOAD DUP3 AND PUSH1 0x44 DUP10 ADD MSTORE SWAP2 MLOAD AND PUSH1 0x64 DUP8 ADD MSTORE DUP6 PUSH1 0x84 DUP2 DUP13 PUSH1 0x0 DUP1 MLOAD PUSH1 0x20 PUSH2 0x534F DUP4 CODECOPY DUP2 MLOAD SWAP2 MSTORE GAS CALL SWAP2 DUP10 DUP4 DUP12 SWAP5 PUSH2 0x3C85 JUMPI JUMPDEST PUSH2 0x3B80 SWAP8 POP PUSH2 0x3B85 JUMPI JUMPDEST POP POP POP POP POP PUSH2 0x2C43 JUMP JUMPDEST PUSH2 0x3A83 JUMP JUMPDEST PUSH1 0x40 DUP1 MLOAD PUSH1 0x1 PUSH1 0x1 PUSH1 0xA0 SHL SUB DUP5 DUP2 AND DUP1 DUP4 MSTORE SWAP1 DUP9 AND PUSH1 0x20 DUP4 ADD DUP2 SWAP1 MSTORE SWAP3 DUP3 ADD DUP5 SWAP1 MSTORE PUSH1 0x60 DUP3 ADD DUP8 SWAP1 MSTORE SWAP2 SWAP5 SWAP1 PUSH32 0x529BBA57BDB8378BB850B7BD9677F1E8FC38DBA3D309FDA743A7B2921D534A0A SWAP1 PUSH1 0x80 SWAP1 LOG2 PUSH32 0x0 PUSH1 0x1 PUSH1 0x1 PUSH1 0xA0 SHL SUB AND EQ ISZERO SWAP1 DUP2 PUSH2 0x3C7B JUMPI JUMPDEST POP PUSH2 0x3C6C JUMPI JUMPDEST POP PUSH32 0x0 PUSH1 0x1 PUSH1 0x1 PUSH1 0xA0 SHL SUB AND EQ ISZERO SWAP1 DUP2 PUSH2 0x3C62 JUMPI JUMPDEST POP PUSH2 0x3C53 JUMPI JUMPDEST DUP1 DUP1 DUP1 DUP1 PUSH2 0x3B76 JUMP JUMPDEST PUSH2 0x3C5C SWAP1 PUSH2 0x2F11 JUMP JUMPDEST CODESIZE PUSH2 0x3C4A JUMP JUMPDEST SWAP1 POP ISZERO ISZERO CODESIZE PUSH2 0x3C44 JUMP JUMPDEST PUSH2 0x3C75 SWAP1 PUSH2 0x2F11 JUMP JUMPDEST CODESIZE PUSH2 0x3C10 JUMP JUMPDEST SWAP1 POP ISZERO ISZERO CODESIZE PUSH2 0x3C0A JUMP JUMPDEST SWAP4 POP POP PUSH1 0x40 DUP7 RETURNDATASIZE PUSH1 0x40 GT PUSH2 0x3CBE JUMPI JUMPDEST DUP2 PUSH2 0x3CA1 PUSH1 0x40 SWAP4 DUP4 PUSH2 0x2CD7 JUMP JUMPDEST DUP2 ADD SUB SLT PUSH2 0x3CBA JUMPI DUP6 PUSH1 0x20 PUSH2 0x3B80 SWAP8 MLOAD SWAP2 ADD MLOAD SWAP4 PUSH2 0x3B6C JUMP JUMPDEST DUP10 DUP1 REVERT JUMPDEST RETURNDATASIZE SWAP2 POP PUSH2 0x3C94 JUMP JUMPDEST SWAP1 POP PUSH2 0x3CE3 SWAP2 POP PUSH2 0x180 RETURNDATASIZE PUSH2 0x180 GT PUSH2 0x4BB JUMPI PUSH2 0x496 DUP2 DUP4 PUSH2 0x2CD7 JUMP JUMPDEST POP POP POP POP POP POP POP POP SWAP3 POP SWAP1 POP CODESIZE PUSH2 0x3AE9 JUMP JUMPDEST PUSH1 0x40 MLOAD RETURNDATASIZE DUP10 DUP3 RETURNDATACOPY RETURNDATASIZE SWAP1 REVERT JUMPDEST PUSH2 0x3B80 SWAP2 POP PUSH2 0x2C43 JUMP JUMPDEST POP SWAP1 SWAP2 DUP4 JUMPDEST PUSH1 0xF SLOAD DUP2 LT ISZERO PUSH2 0x3EA0 JUMPI PUSH2 0x3D22 DUP2 PUSH2 0x2A54 JUMP JUMPDEST SWAP1 SLOAD PUSH1 0x1 PUSH1 0x1 PUSH1 0xA0 SHL SUB PUSH1 0x3 SWAP3 SWAP1 SWAP3 SHL SHR DUP2 AND SWAP2 SWAP1 PUSH32 0x0 AND DUP3 EQ PUSH2 0x3E96 JUMPI DUP2 DUP7 MSTORE PUSH1 0xA PUSH1 0x20 MSTORE PUSH1 0xFF PUSH1 0x40 DUP8 KECCAK256 SLOAD AND PUSH2 0x3E96 JUMPI PUSH1 0x40 MLOAD PUSH4 0x70A08231 PUSH1 0xE0 SHL DUP2 MSTORE ADDRESS PUSH1 0x4 DUP3 ADD MSTORE SWAP2 PUSH1 0x20 DUP4 PUSH1 0x24 DUP2 DUP5 GAS STATICCALL DUP1 ISZERO PUSH2 0x3CF5 JUMPI DUP6 SWAP1 DUP9 SWAP1 PUSH2 0x3E60 JUMPI JUMPDEST DUP3 DUP10 MSTORE PUSH1 0xE PUSH1 0x20 MSTORE PUSH1 0x40 DUP10 KECCAK256 SLOAD PUSH2 0x3E4B SWAP6 POP DUP1 DUP3 GT ISZERO PUSH2 0x3E58 JUMPI PUSH2 0x3DC2 SWAP2 PUSH2 0x2C68 JUMP JUMPDEST DUP1 ISZERO PUSH2 0x3E50 JUMPI PUSH2 0x789 SWAP3 PUSH2 0x3DF6 PUSH32 0x0 DUP3 PUSH2 0x2DAC JUMP JUMPDEST SWAP2 PUSH2 0x3E23 DUP4 DUP3 PUSH32 0x0 DUP6 PUSH2 0x4523 JUMP JUMPDEST SWAP2 PUSH32 0x0 SWAP1 PUSH2 0x4DD9 JUMP JUMPDEST PUSH2 0x3D0F JUMP JUMPDEST POP POP POP PUSH2 0x2C43 JUMP JUMPDEST POP POP DUP8 PUSH2 0x3DC2 JUMP JUMPDEST POP POP PUSH1 0x20 DUP4 RETURNDATASIZE PUSH1 0x20 GT PUSH2 0x3E8E JUMPI JUMPDEST DUP2 PUSH2 0x3E7B PUSH1 0x20 SWAP4 DUP4 PUSH2 0x2CD7 JUMP JUMPDEST DUP2 ADD SUB SLT PUSH2 0x6ED JUMPI DUP5 PUSH2 0x3E4B SWAP4 MLOAD PUSH2 0x3D9F JUMP JUMPDEST RETURNDATASIZE SWAP2 POP PUSH2 0x3E6E JUMP JUMPDEST PUSH2 0x3E4B SWAP2 POP PUSH2 0x2C43 JUMP JUMPDEST POP PUSH1 0x40 MLOAD PUSH4 0x70A08231 PUSH1 0xE0 SHL DUP2 MSTORE ADDRESS PUSH1 0x4 DUP3 ADD MSTORE SWAP1 SWAP4 SWAP1 PUSH1 0x20 DUP2 PUSH1 0x24 DUP2 PUSH32 0x0 PUSH1 0x1 PUSH1 0x1 PUSH1 0xA0 SHL SUB AND GAS STATICCALL SWAP1 DUP2 ISZERO PUSH2 0x3FC5 JUMPI DUP3 SWAP2 PUSH2 0x3F93 JUMPI JUMPDEST POP PUSH32 0x0 PUSH1 0x1 PUSH1 0x1 PUSH1 0xA0 SHL SUB AND DUP3 MSTORE PUSH1 0xE PUSH1 0x20 MSTORE PUSH1 0x40 DUP3 KECCAK256 SLOAD SWAP1 DUP2 DUP2 GT ISZERO PUSH2 0x3F8C JUMPI PUSH2 0x3F41 SWAP3 POP PUSH2 0x2C68 JUMP JUMPDEST DUP1 ISZERO PUSH2 0x3F87 JUMPI PUSH2 0x3F75 PUSH1 0x40 SWAP3 PUSH32 0xC9AD57538C87A56B42547BA3335109C64ED9619D5CF403928283E46967B80C44 SWAP5 DUP4 PUSH2 0x4789 JUMP JUMPDEST TIMESTAMP PUSH1 0x7 SSTORE DUP2 MLOAD SWAP1 TIMESTAMP DUP3 MSTORE PUSH1 0x20 DUP3 ADD MSTORE LOG1 JUMP JUMPDEST POP POP POP JUMP JUMPDEST POP POP PUSH2 0x3F41 JUMP JUMPDEST SWAP1 POP PUSH1 0x20 DUP2 RETURNDATASIZE PUSH1 0x20 GT PUSH2 0x3FBD JUMPI JUMPDEST DUP2 PUSH2 0x3FAE PUSH1 0x20 SWAP4 DUP4 PUSH2 0x2CD7 JUMP JUMPDEST DUP2 ADD SUB SLT PUSH2 0x6ED JUMPI MLOAD CODESIZE PUSH2 0x3EF7 JUMP JUMPDEST RETURNDATASIZE SWAP2 POP PUSH2 0x3FA1 JUMP JUMPDEST PUSH1 0x40 MLOAD RETURNDATASIZE DUP5 DUP3 RETURNDATACOPY RETURNDATASIZE SWAP1 REVERT JUMPDEST PUSH1 0x40 MLOAD PUSH4 0x70A08231 PUSH1 0xE0 SHL DUP2 MSTORE ADDRESS PUSH1 0x4 DUP3 ADD MSTORE SWAP1 PUSH1 0x20 DUP3 PUSH1 0x24 DUP2 PUSH32 0x0 PUSH1 0x1 PUSH1 0x1 PUSH1 0xA0 SHL SUB AND GAS STATICCALL DUP1 ISZERO PUSH2 0x4098 JUMPI DUP7 SWAP1 PUSH2 0x4064 JUMPI JUMPDEST PUSH2 0x402D SWAP3 POP PUSH2 0x2C68 JUMP JUMPDEST DUP1 ISZERO PUSH2 0x3A80 JUMPI PUSH1 0x20 PUSH32 0x3648C0BF88F1BC1BFF753A51023E66EAFBF42F937066E3C6F888E8B8CBDCA680 SWAP2 PUSH1 0x40 MLOAD SWAP1 DUP2 MSTORE LOG1 CODESIZE PUSH2 0x3A80 JUMP JUMPDEST POP PUSH1 0x20 DUP3 RETURNDATASIZE PUSH1 0x20 GT PUSH2 0x4090 JUMPI JUMPDEST DUP2 PUSH2 0x407E PUSH1 0x20 SWAP4 DUP4 PUSH2 0x2CD7 JUMP JUMPDEST DUP2 ADD SUB SLT PUSH2 0x6ED JUMPI PUSH2 0x402D SWAP2 MLOAD PUSH2 0x4023 JUMP JUMPDEST RETURNDATASIZE SWAP2 POP PUSH2 0x4071 JUMP JUMPDEST PUSH1 0x40 MLOAD RETURNDATASIZE DUP9 DUP3 RETURNDATACOPY RETURNDATASIZE SWAP1 REVERT JUMPDEST PUSH2 0x40AF SWAP1 SWAP7 SWAP2 SWAP7 PUSH2 0x2C75 JUMP JUMPDEST SWAP5 CODESIZE PUSH2 0x3A7A JUMP JUMPDEST SWAP1 POP PUSH1 0x20 DUP2 RETURNDATASIZE PUSH1 0x20 GT PUSH2 0x40E0 JUMPI JUMPDEST DUP2 PUSH2 0x40D1 PUSH1 0x20 SWAP4 DUP4 PUSH2 0x2CD7 JUMP JUMPDEST DUP2 ADD SUB SLT PUSH2 0x78E JUMPI MLOAD CODESIZE PUSH2 0x3A29 JUMP JUMPDEST RETURNDATASIZE SWAP2 POP PUSH2 0x40C4 JUMP JUMPDEST PUSH1 0x40 MLOAD RETURNDATASIZE DUP8 DUP3 RETURNDATACOPY RETURNDATASIZE SWAP1 REVERT JUMPDEST PUSH1 0x40 MLOAD PUSH4 0x70A08231 PUSH1 0xE0 SHL DUP2 MSTORE ADDRESS PUSH1 0x4 DUP3 ADD MSTORE SWAP1 SWAP2 SWAP1 PUSH1 0x20 DUP2 PUSH1 0x24 DUP2 PUSH32 0x0 PUSH1 0x1 PUSH1 0x1 PUSH1 0xA0 SHL SUB AND GAS STATICCALL DUP1 ISZERO PUSH2 0x42C7 JUMPI PUSH2 0x44C5 JUMPI JUMPDEST POP SWAP2 SWAP1 PUSH1 0x0 SWAP3 JUMPDEST DUP2 MLOAD DUP5 LT ISZERO PUSH2 0x42E0 JUMPI PUSH2 0x4160 DUP5 DUP4 PUSH2 0x2FD6 JUMP JUMPDEST MLOAD SWAP4 DUP5 PUSH1 0x0 MSTORE PUSH1 0xB PUSH1 0x20 MSTORE PUSH1 0xFF PUSH1 0x40 PUSH1 0x0 KECCAK256 SLOAD AND ISZERO PUSH2 0x42D3 JUMPI PUSH1 0x40 MLOAD PUSH4 0x133F7571 PUSH1 0xE3 SHL DUP2 MSTORE PUSH1 0x4 DUP2 ADD DUP7 SWAP1 MSTORE PUSH2 0x180 DUP2 PUSH1 0x24 DUP2 PUSH1 0x0 DUP1 MLOAD PUSH1 0x20 PUSH2 0x534F DUP4 CODECOPY DUP2 MLOAD SWAP2 MSTORE GAS STATICCALL SWAP1 DUP2 ISZERO PUSH2 0x42C7 JUMPI PUSH1 0x0 SWAP1 DUP2 SWAP3 PUSH2 0x4298 JUMPI JUMPDEST POP PUSH1 0x40 MLOAD SWAP7 PUSH2 0x41C4 DUP9 PUSH2 0x2CBB JUMP JUMPDEST DUP1 DUP9 MSTORE ADDRESS PUSH1 0x20 DUP10 ADD SWAP1 DUP2 MSTORE PUSH1 0x1 PUSH1 0x1 PUSH1 0x80 SHL SUB PUSH1 0x40 DUP1 DUP12 ADD DUP3 DUP2 MSTORE PUSH1 0x60 DUP13 ADD DUP4 DUP2 MSTORE DUP3 MLOAD PUSH4 0xFC6F7865 PUSH1 0xE0 SHL DUP2 MSTORE SWAP13 MLOAD PUSH1 0x4 DUP15 ADD MSTORE SWAP4 MLOAD PUSH1 0x1 PUSH1 0x1 PUSH1 0xA0 SHL SUB AND PUSH1 0x24 DUP14 ADD MSTORE MLOAD DUP3 AND PUSH1 0x44 DUP13 ADD MSTORE SWAP2 MLOAD AND PUSH1 0x64 DUP11 ADD MSTORE DUP9 PUSH1 0x84 DUP2 PUSH1 0x0 PUSH1 0x0 DUP1 MLOAD PUSH1 0x20 PUSH2 0x534F DUP4 CODECOPY DUP2 MLOAD SWAP2 MSTORE GAS CALL SWAP2 PUSH1 0x0 DUP4 DUP2 SWAP5 PUSH2 0x4259 JUMPI JUMPDEST PUSH2 0x4251 SWAP8 SWAP9 SWAP10 SWAP11 POP PUSH2 0x3B85 JUMPI POP POP POP POP POP PUSH2 0x2C43 JUMP JUMPDEST SWAP3 SWAP2 SWAP1 PUSH2 0x414D JUMP JUMPDEST SWAP4 POP SWAP9 PUSH1 0x40 DUP2 RETURNDATASIZE PUSH1 0x40 GT PUSH2 0x4290 JUMPI JUMPDEST DUP2 PUSH2 0x4275 PUSH1 0x40 SWAP4 DUP4 PUSH2 0x2CD7 JUMP JUMPDEST DUP2 ADD SUB SLT PUSH2 0x3CBA JUMPI DUP1 MLOAD PUSH1 0x20 SWAP1 SWAP2 ADD MLOAD SWAP9 SWAP10 POP DUP10 SWAP9 SWAP4 PUSH2 0x423B JUMP JUMPDEST RETURNDATASIZE SWAP2 POP PUSH2 0x4268 JUMP JUMPDEST SWAP1 POP PUSH2 0x42B5 SWAP2 POP PUSH2 0x180 RETURNDATASIZE PUSH2 0x180 GT PUSH2 0x4BB JUMPI PUSH2 0x496 DUP2 DUP4 PUSH2 0x2CD7 JUMP JUMPDEST POP POP POP POP POP POP POP POP SWAP3 POP SWAP1 POP CODESIZE PUSH2 0x41B6 JUMP JUMPDEST PUSH1 0x40 MLOAD RETURNDATASIZE PUSH1 0x0 DUP3 RETURNDATACOPY RETURNDATASIZE SWAP1 REVERT JUMPDEST PUSH2 0x4251 SWAP2 SWAP3 SWAP4 SWAP5 POP PUSH2 0x2C43 JUMP JUMPDEST SWAP3 POP SWAP1 PUSH1 0x0 JUMPDEST PUSH1 0xF SLOAD DUP2 LT ISZERO PUSH2 0x43ED JUMPI PUSH2 0x42F9 DUP2 PUSH2 0x2A54 JUMP JUMPDEST SWAP1 SLOAD PUSH1 0x1 PUSH1 0x1 PUSH1 0xA0 SHL SUB PUSH1 0x3 SWAP3 SWAP1 SWAP3 SHL SHR DUP2 AND SWAP1 PUSH32 0x0 AND DUP2 EQ PUSH2 0x43E3 JUMPI DUP1 PUSH1 0x0 MSTORE PUSH1 0xA PUSH1 0x20 MSTORE PUSH1 0xFF PUSH1 0x40 PUSH1 0x0 KECCAK256 SLOAD AND PUSH2 0x43E3 JUMPI PUSH1 0x40 MLOAD PUSH4 0x70A08231 PUSH1 0xE0 SHL DUP2 MSTORE ADDRESS PUSH1 0x4 DUP3 ADD MSTORE PUSH1 0x20 DUP2 PUSH1 0x24 DUP2 DUP6 GAS STATICCALL DUP1 ISZERO PUSH2 0x42C7 JUMPI DUP7 SWAP2 PUSH1 0x0 SWAP2 PUSH2 0x43AC JUMPI JUMPDEST POP PUSH1 0x0 DUP4 DUP2 MSTORE PUSH1 0xE PUSH1 0x20 MSTORE PUSH1 0x40 DUP2 KECCAK256 SLOAD PUSH2 0x43A0 SWAP6 SWAP5 SWAP4 SWAP3 DUP2 DUP2 GT ISZERO PUSH2 0x43A5 JUMPI PUSH2 0x3DC2 SWAP3 POP PUSH2 0x2C68 JUMP JUMPDEST PUSH2 0x42E6 JUMP JUMPDEST POP POP PUSH2 0x3DC2 JUMP JUMPDEST SWAP2 POP PUSH1 0x20 DUP3 RETURNDATASIZE PUSH1 0x20 GT PUSH2 0x43DB JUMPI JUMPDEST DUP2 PUSH2 0x43C7 PUSH1 0x20 SWAP4 DUP4 PUSH2 0x2CD7 JUMP JUMPDEST DUP2 ADD SUB SLT PUSH2 0x4CC JUMPI POP MLOAD DUP6 SWAP1 PUSH2 0x43A0 PUSH2 0x4377 JUMP JUMPDEST RETURNDATASIZE SWAP2 POP PUSH2 0x43BA JUMP JUMPDEST POP PUSH2 0x43A0 SWAP1 PUSH2 0x2C43 JUMP JUMPDEST POP PUSH1 0x40 MLOAD PUSH4 0x70A08231 PUSH1 0xE0 SHL DUP2 MSTORE ADDRESS PUSH1 0x4 DUP3 ADD MSTORE SWAP1 SWAP3 SWAP1 PUSH1 0x20 DUP2 PUSH1 0x24 DUP2 PUSH32 0x0 PUSH1 0x1 PUSH1 0x1 PUSH1 0xA0 SHL SUB AND GAS STATICCALL SWAP1 DUP2 ISZERO PUSH2 0x42C7 JUMPI PUSH1 0x0 SWAP2 PUSH2 0x4493 JUMPI JUMPDEST POP PUSH32 0x0 PUSH1 0x1 PUSH1 0x1 PUSH1 0xA0 SHL SUB AND PUSH1 0x0 SWAP1 DUP2 MSTORE PUSH1 0xE PUSH1 0x20 MSTORE PUSH1 0x40 DUP2 KECCAK256 SLOAD SWAP1 SWAP2 DUP2 DUP2 GT ISZERO PUSH2 0x3F8C JUMPI PUSH2 0x3F41 SWAP3 POP PUSH2 0x2C68 JUMP JUMPDEST SWAP1 PUSH1 0x20 DUP3 RETURNDATASIZE PUSH1 0x20 GT PUSH2 0x44BD JUMPI JUMPDEST DUP2 PUSH2 0x44AD PUSH1 0x20 SWAP4 DUP4 PUSH2 0x2CD7 JUMP JUMPDEST DUP2 ADD SUB SLT PUSH2 0x4CC JUMPI POP MLOAD CODESIZE PUSH2 0x4445 JUMP JUMPDEST RETURNDATASIZE SWAP2 POP PUSH2 0x44A0 JUMP JUMPDEST PUSH1 0x20 SWAP1 DUP2 RETURNDATASIZE DUP4 GT PUSH2 0x44E9 JUMPI JUMPDEST PUSH2 0x44DB DUP2 DUP4 PUSH2 0x2CD7 JUMP JUMPDEST DUP2 ADD SUB SLT PUSH2 0x6ED JUMPI CODESIZE PUSH2 0x4146 JUMP JUMPDEST POP RETURNDATASIZE PUSH2 0x44D1 JUMP JUMPDEST DUP2 DUP2 MUL SWAP3 SWAP2 DUP2 ISZERO SWAP2 DUP5 DIV EQ OR ISZERO PUSH2 0x2C52 JUMPI JUMP JUMPDEST DUP2 ISZERO PUSH2 0x450D JUMPI DIV SWAP1 JUMP JUMPDEST PUSH4 0x4E487B71 PUSH1 0xE0 SHL PUSH1 0x0 MSTORE PUSH1 0x12 PUSH1 0x4 MSTORE PUSH1 0x24 PUSH1 0x0 REVERT JUMPDEST PUSH1 0x5 SLOAD SWAP4 DUP5 ISZERO DUP1 ISZERO PUSH2 0x46AA JUMPI JUMPDEST PUSH2 0x46A0 JUMPI PUSH1 0x40 MLOAD PUSH4 0xB4C7741 PUSH1 0xE1 SHL DUP2 MSTORE PUSH1 0x1 PUSH1 0x1 PUSH1 0xA0 SHL SUB DUP4 DUP2 AND PUSH1 0x4 DUP4 ADD MSTORE DUP5 AND PUSH1 0x24 DUP3 ADD MSTORE PUSH3 0xFFFFFF SWAP2 SWAP1 SWAP2 AND PUSH1 0x44 DUP3 ADD MSTORE PUSH1 0x20 DUP2 PUSH1 0x64 DUP2 PUSH20 0x7A5028BDA40E7B173C278C5342087826455EA25A GAS STATICCALL SWAP1 DUP2 ISZERO PUSH2 0x42C7 JUMPI PUSH1 0x0 SWAP2 PUSH2 0x4667 JUMPI JUMPDEST POP PUSH1 0x1 PUSH1 0x1 PUSH1 0xA0 SHL SUB SWAP1 DUP2 AND DUP1 ISZERO PUSH2 0x4636 JUMPI PUSH1 0xE0 PUSH1 0x4 SWAP2 PUSH1 0x40 MLOAD SWAP3 DUP4 DUP1 SWAP3 PUSH4 0x3850C7BD DUP6 SHL DUP3 MSTORE GAS STATICCALL PUSH1 0x0 SWAP2 DUP2 PUSH2 0x4641 JUMPI JUMPDEST POP PUSH2 0x45D3 JUMPI POP POP POP POP POP POP PUSH1 0x0 SWAP1 JUMP JUMPDEST DUP2 AND SWAP3 DUP4 ISZERO PUSH2 0x4636 JUMPI DUP2 AND SWAP2 AND LT ISZERO PUSH2 0x461F JUMPI PUSH2 0x45F3 DUP2 PUSH2 0x45F8 SWAP4 PUSH2 0x4743 JUMP JUMPDEST PUSH2 0x4743 JUMP JUMPDEST DUP1 ISZERO PUSH2 0x4618 JUMPI PUSH2 0x2710 SWAP2 DUP3 SUB DUP3 DUP2 GT PUSH2 0x2C52 JUMPI PUSH2 0x4614 SWAP2 PUSH2 0x44F0 JUMP JUMPDEST DIV SWAP1 JUMP JUMPDEST POP POP PUSH1 0x0 SWAP1 JUMP JUMPDEST PUSH2 0x462C DUP2 PUSH2 0x4631 SWAP4 PUSH2 0x46B2 JUMP JUMPDEST PUSH2 0x46B2 JUMP JUMPDEST PUSH2 0x45F8 JUMP JUMPDEST POP POP POP POP POP POP PUSH1 0x0 SWAP1 JUMP JUMPDEST PUSH2 0x465A SWAP2 SWAP3 POP PUSH1 0xE0 RETURNDATASIZE DUP2 GT PUSH2 0x3679 JUMPI PUSH2 0x3664 DUP2 DUP4 PUSH2 0x2CD7 JUMP JUMPDEST POP POP POP POP POP POP SWAP1 CODESIZE PUSH2 0x45C3 JUMP JUMPDEST SWAP1 PUSH1 0x20 DUP3 RETURNDATASIZE DUP3 GT PUSH2 0x4698 JUMPI JUMPDEST DUP2 PUSH2 0x4680 PUSH1 0x20 SWAP4 DUP4 PUSH2 0x2CD7 JUMP JUMPDEST DUP2 ADD SUB SLT PUSH2 0x4CC JUMPI POP PUSH2 0x4692 SWAP1 PUSH2 0x33AF JUMP JUMPDEST CODESIZE PUSH2 0x4591 JUMP JUMPDEST RETURNDATASIZE SWAP2 POP PUSH2 0x4673 JUMP JUMPDEST POP POP POP POP POP PUSH1 0x0 SWAP1 JUMP JUMPDEST POP DUP4 ISZERO PUSH2 0x4530 JUMP JUMPDEST PUSH1 0x1 PUSH1 0x60 SHL SWAP2 PUSH1 0x60 DUP3 SWAP1 SHL SWAP2 PUSH1 0x0 NOT DUP5 DUP3 MULMOD SWAP4 DUP4 DUP1 DUP7 LT SWAP6 SUB SWAP5 DUP1 DUP7 SUB SWAP6 EQ PUSH2 0x472F JUMPI DUP5 DUP4 GT ISZERO PUSH2 0x46A0 JUMPI DUP3 SWAP2 MULMOD PUSH1 0x1 DUP3 NOT ADD DUP3 AND DUP1 SWAP3 DIV PUSH1 0x2 DUP1 DUP3 PUSH1 0x3 MUL XOR DUP1 DUP4 MUL DUP3 SUB MUL DUP1 DUP4 MUL DUP3 SUB MUL DUP1 DUP4 MUL DUP3 SUB MUL DUP1 DUP4 MUL DUP3 SUB MUL DUP1 DUP4 MUL DUP3 SUB MUL DUP1 SWAP3 MUL SWAP1 SUB MUL SWAP4 PUSH1 0x1 DUP4 DUP1 PUSH1 0x0 SUB DIV ADD SWAP1 DUP5 DUP4 GT SWAP1 SUB MUL SWAP3 SUB DIV OR MUL SWAP1 JUMP JUMPDEST POP POP DUP1 SWAP2 SWAP3 POP ISZERO PUSH2 0x4618 JUMPI PUSH2 0x348D SWAP2 PUSH2 0x4503 JUMP JUMPDEST DUP2 DUP2 MUL SWAP2 SWAP1 PUSH1 0x0 NOT DUP3 DUP3 MULMOD SWAP2 DUP4 DUP1 DUP5 LT SWAP4 SUB SWAP3 DUP1 DUP5 SUB SWAP4 EQ PUSH2 0x4780 JUMPI PUSH1 0x1 PUSH1 0x60 SHL SWAP2 DUP4 DUP4 GT ISZERO PUSH2 0x46A0 JUMPI MULMOD SWAP1 DUP3 DUP3 GT SWAP1 SUB PUSH1 0xA0 SHL SWAP2 SUB PUSH1 0x60 SHR OR SWAP1 JUMP JUMPDEST POP POP POP PUSH1 0x60 SHR SWAP1 JUMP JUMPDEST SWAP3 SWAP2 SWAP1 SWAP2 PUSH2 0x2710 SWAP1 DUP2 PUSH2 0x479E PUSH1 0x4 SLOAD DUP8 PUSH2 0x44F0 JUMP JUMPDEST DIV SWAP2 PUSH2 0x47EE PUSH32 0x0 SWAP4 PUSH1 0x1 DUP1 PUSH1 0xA0 SHL SUB DUP6 AND PUSH1 0x0 MSTORE PUSH1 0xE PUSH1 0x20 MSTORE PUSH1 0x40 PUSH1 0x0 KECCAK256 PUSH2 0x47E6 DUP3 DUP3 SLOAD PUSH2 0x2E31 JUMP JUMPDEST SWAP1 SSTORE DUP8 PUSH2 0x2C68 JUMP JUMPDEST SWAP2 PUSH1 0x0 SWAP3 JUMPDEST PUSH1 0x9 SLOAD DUP5 LT DUP1 PUSH2 0x4DD0 JUMPI JUMPDEST ISZERO PUSH2 0x48B7 JUMPI DUP3 PUSH2 0x481B PUSH1 0x1 PUSH2 0x4812 DUP8 PUSH2 0x29CC JUMP JUMPDEST POP ADD SLOAD DUP11 PUSH2 0x44F0 JUMP JUMPDEST DIV SWAP1 DUP1 DUP3 GT PUSH2 0x48AF JUMPI JUMPDEST DUP2 ISZERO PUSH2 0x48A4 JUMPI DUP2 PUSH2 0x2F05 SWAP2 PUSH2 0x4899 DUP10 DUP9 DUP11 PUSH2 0x489E SWAP8 PUSH2 0x4843 DUP4 PUSH2 0x29CC JUMP JUMPDEST POP SLOAD PUSH1 0x1 PUSH1 0x1 PUSH1 0xA0 SHL SUB AND PUSH2 0x4870 PUSH2 0x485A DUP6 PUSH2 0x29CC JUMP JUMPDEST POP SWAP4 DUP4 PUSH3 0xFFFFFF SWAP4 DUP5 PUSH1 0x2 DUP1 SWAP9 ADD SLOAD AND SWAP3 PUSH2 0x4523 JUMP JUMPDEST SWAP3 PUSH2 0x488E PUSH2 0x487D DUP7 PUSH2 0x29CC JUMP JUMPDEST POP SLOAD PUSH1 0x1 PUSH1 0x1 PUSH1 0xA0 SHL SUB AND SWAP6 PUSH2 0x29CC JUMP JUMPDEST POP ADD SLOAD AND SWAP3 DUP14 PUSH2 0x4DD9 JUMP JUMPDEST PUSH2 0x2C68 JUMP JUMPDEST SWAP3 PUSH2 0x47F3 JUMP JUMPDEST SWAP4 PUSH2 0x489E SWAP2 POP PUSH2 0x2C43 JUMP JUMPDEST SWAP1 POP DUP1 PUSH2 0x4825 JUMP JUMPDEST SWAP5 SWAP4 SWAP6 SWAP3 POP SWAP6 POP POP DUP3 ISZERO ISZERO DUP1 PUSH2 0x4DC6 JUMPI JUMPDEST PUSH2 0x48D2 JUMPI POP POP POP POP JUMP JUMPDEST SWAP1 SWAP2 SWAP3 SWAP4 PUSH1 0x0 SWAP3 PUSH1 0x0 JUMPDEST DUP4 MLOAD DUP2 LT ISZERO PUSH2 0x4A00 JUMPI PUSH2 0x48EF DUP2 DUP6 PUSH2 0x2FD6 JUMP JUMPDEST MLOAD PUSH1 0x0 MSTORE PUSH1 0xB PUSH1 0x20 MSTORE PUSH1 0xFF DUP1 PUSH1 0x40 PUSH1 0x0 KECCAK256 SLOAD AND ISZERO SWAP1 DUP2 ISZERO PUSH2 0x49DD JUMPI JUMPDEST POP PUSH2 0x4977 JUMPI PUSH2 0x491A DUP2 DUP6 PUSH2 0x2FD6 JUMP JUMPDEST MLOAD PUSH1 0x40 MLOAD SWAP1 PUSH4 0x133F7571 PUSH1 0xE3 SHL DUP3 MSTORE PUSH1 0x4 DUP3 ADD MSTORE PUSH2 0x180 DUP1 DUP3 PUSH1 0x24 DUP2 PUSH1 0x0 DUP1 MLOAD PUSH1 0x20 PUSH2 0x534F DUP4 CODECOPY DUP2 MLOAD SWAP2 MSTORE GAS STATICCALL SWAP2 DUP3 ISZERO PUSH2 0x42C7 JUMPI PUSH1 0x0 SWAP2 PUSH1 0x0 SWAP4 PUSH2 0x49B0 JUMPI JUMPDEST POP POP PUSH1 0x1 PUSH1 0x1 PUSH1 0xA0 SHL SUB DUP10 DUP2 AND SWAP2 AND EQ SWAP1 DUP2 ISZERO PUSH2 0x499A JUMPI JUMPDEST POP PUSH2 0x4985 JUMPI JUMPDEST PUSH2 0x4980 SWAP1 PUSH2 0x2C43 JUMP JUMPDEST PUSH2 0x48DC JUMP JUMPDEST SWAP4 PUSH2 0x4992 PUSH2 0x4980 SWAP2 PUSH2 0x2C43 JUMP JUMPDEST SWAP5 SWAP1 POP PUSH2 0x4977 JUMP JUMPDEST PUSH1 0x1 PUSH1 0x1 PUSH1 0xA0 SHL SUB DUP10 DUP2 AND SWAP2 AND EQ SWAP1 POP CODESIZE PUSH2 0x4971 JUMP JUMPDEST PUSH2 0x49CA SWAP4 POP DUP1 SWAP2 SWAP3 POP SWAP1 RETURNDATASIZE LT PUSH2 0x4BB JUMPI PUSH2 0x496 DUP2 DUP4 PUSH2 0x2CD7 JUMP JUMPDEST POP POP POP POP POP POP POP POP SWAP3 POP SWAP1 POP CODESIZE DUP1 PUSH2 0x4959 JUMP JUMPDEST SWAP1 POP PUSH2 0x49E9 DUP3 DUP7 PUSH2 0x2FD6 JUMP JUMPDEST MLOAD PUSH1 0x0 MSTORE PUSH1 0xC PUSH1 0x20 MSTORE PUSH1 0x40 PUSH1 0x0 KECCAK256 SLOAD AND ISZERO CODESIZE PUSH2 0x490B JUMP JUMPDEST POP SWAP3 SWAP1 SWAP4 SWAP5 SWAP2 SWAP5 DUP2 PUSH2 0x4A16 JUMPI JUMPDEST POP DUP4 SWAP5 POP PUSH2 0x306F JUMP JUMPDEST SWAP1 PUSH2 0x4A20 SWAP2 PUSH2 0x4503 JUMP JUMPDEST SWAP1 PUSH1 0x0 JUMPDEST DUP6 MLOAD DUP2 LT ISZERO PUSH2 0x4DBB JUMPI PUSH2 0x4A37 DUP2 DUP8 PUSH2 0x2FD6 JUMP JUMPDEST MLOAD PUSH1 0x0 MSTORE PUSH1 0xB PUSH1 0x20 MSTORE PUSH1 0xFF DUP1 PUSH1 0x40 PUSH1 0x0 KECCAK256 SLOAD AND ISZERO SWAP1 DUP2 ISZERO PUSH2 0x4D98 JUMPI JUMPDEST POP PUSH2 0x4D8F JUMPI DUP3 ISZERO PUSH2 0x4D7E JUMPI PUSH2 0x4A68 DUP2 DUP8 PUSH2 0x2FD6 JUMP JUMPDEST MLOAD SWAP1 PUSH1 0x40 MLOAD SWAP2 PUSH4 0x133F7571 PUSH1 0xE3 SHL DUP4 MSTORE PUSH1 0x4 DUP4 ADD MSTORE PUSH2 0x180 DUP3 PUSH1 0x24 DUP2 PUSH1 0x0 DUP1 MLOAD PUSH1 0x20 PUSH2 0x534F DUP4 CODECOPY DUP2 MLOAD SWAP2 MSTORE GAS STATICCALL SWAP2 DUP3 ISZERO PUSH2 0x42C7 JUMPI PUSH1 0x0 SWAP1 PUSH1 0x0 SWAP4 PUSH2 0x4D4D JUMPI JUMPDEST POP PUSH1 0x1 PUSH1 0x1 PUSH1 0xA0 SHL SUB DUP2 DUP2 AND SWAP1 DUP6 AND EQ SWAP3 DUP4 DUP1 ISZERO PUSH2 0x4D38 JUMPI JUMPDEST PUSH2 0x4AD6 JUMPI JUMPDEST POP POP PUSH2 0x4AD1 SWAP2 POP PUSH2 0x2C43 JUMP JUMPDEST PUSH2 0x4A24 JUMP JUMPDEST PUSH2 0x4AE0 DUP4 DUP11 PUSH2 0x2FD6 JUMP JUMPDEST MLOAD SWAP2 DUP5 ISZERO PUSH2 0x4D30 JUMPI POP SWAP1 JUMPDEST PUSH1 0x40 MLOAD PUSH4 0x70A08231 PUSH1 0xE0 SHL DUP2 MSTORE ADDRESS PUSH1 0x4 DUP3 ADD MSTORE PUSH1 0x20 DUP2 PUSH1 0x24 DUP2 PUSH1 0x1 PUSH1 0x1 PUSH1 0xA0 SHL SUB DUP8 AND GAS STATICCALL SWAP1 DUP2 ISZERO PUSH2 0x42C7 JUMPI PUSH1 0x0 SWAP2 PUSH2 0x4CFE JUMPI JUMPDEST POP PUSH1 0x1 PUSH1 0x1 PUSH1 0xA0 SHL SUB DUP4 AND PUSH1 0x0 SWAP1 DUP2 MSTORE PUSH1 0xE PUSH1 0x20 MSTORE PUSH1 0x40 SWAP1 KECCAK256 SLOAD DUP1 DUP3 GT ISZERO PUSH2 0x4CF4 JUMPI PUSH2 0x4B4A SWAP2 PUSH2 0x2C68 JUMP JUMPDEST SWAP1 JUMPDEST PUSH2 0x4B5F DUP8 PUSH1 0x1 PUSH1 0x1 PUSH1 0xA0 SHL SUB DUP9 AND PUSH2 0x3024 JUMP JUMPDEST DUP2 PUSH2 0x4CDC JUMPI JUMPDEST DUP5 ISZERO PUSH2 0x4CD5 JUMPI DUP7 SWAP5 JUMPDEST ISZERO PUSH2 0x4CCF JUMPI DUP2 JUMPDEST PUSH1 0x40 MLOAD SWAP6 DUP7 PUSH1 0xC0 DUP2 ADD LT PUSH8 0xFFFFFFFFFFFFFFFF PUSH1 0xC0 DUP10 ADD GT OR PUSH2 0x2C89 JUMPI PUSH1 0xC0 DUP8 ADD PUSH1 0x40 MSTORE DUP3 DUP8 MSTORE PUSH1 0x20 DUP8 ADD SWAP1 DUP2 MSTORE PUSH1 0x40 DUP8 ADD SWAP2 DUP3 MSTORE PUSH1 0x60 SWAP2 DUP3 DUP9 ADD PUSH1 0x0 DUP2 MSTORE PUSH1 0x80 DUP10 ADD SWAP2 PUSH1 0x0 DUP4 MSTORE PUSH1 0xA0 DUP11 ADD SWAP4 DUP14 DUP6 MSTORE PUSH1 0x40 MLOAD SWAP11 PUSH4 0x219F5D17 PUSH1 0xE0 SHL DUP13 MSTORE MLOAD PUSH1 0x4 DUP13 ADD MSTORE MLOAD PUSH1 0x24 DUP12 ADD MSTORE MLOAD PUSH1 0x44 DUP11 ADD MSTORE MLOAD PUSH1 0x64 DUP10 ADD MSTORE MLOAD PUSH1 0x84 DUP9 ADD MSTORE MLOAD PUSH1 0xA4 DUP8 ADD MSTORE DUP1 DUP7 PUSH1 0xC4 DUP2 PUSH1 0x0 PUSH1 0x0 DUP1 MLOAD PUSH1 0x20 PUSH2 0x534F DUP4 CODECOPY DUP2 MLOAD SWAP2 MSTORE GAS CALL PUSH1 0x0 SWAP2 DUP2 PUSH2 0x4C96 JUMPI JUMPDEST POP PUSH2 0x4AD1 SWAP7 POP PUSH2 0x4C5B JUMPI JUMPDEST POP PUSH2 0x4C38 SWAP1 POP PUSH1 0x1 PUSH1 0x1 PUSH1 0xA0 SHL SUB DUP7 AND PUSH2 0x3129 JUMP JUMPDEST PUSH2 0x4C43 JUMPI JUMPDEST DUP1 PUSH2 0x4AC5 JUMP JUMPDEST PUSH2 0x4C55 SWAP1 PUSH1 0x1 PUSH1 0x1 PUSH1 0xA0 SHL SUB AND PUSH2 0x3129 JUMP JUMPDEST CODESIZE PUSH2 0x4C3D JUMP JUMPDEST PUSH1 0x20 PUSH32 0x9204F5F210613C88BBFEDBCF63911B917A440C100AFC438464FCA61B3D9E6CDD SWAP2 PUSH1 0x1 PUSH1 0x1 PUSH1 0x80 SHL SUB PUSH1 0x40 MLOAD SWAP2 AND DUP2 MSTORE LOG2 CODESIZE DUP1 PUSH2 0x4C23 JUMP JUMPDEST SWAP1 SWAP2 POP DUP7 DUP2 RETURNDATASIZE DUP4 GT PUSH2 0x4CC8 JUMPI JUMPDEST PUSH2 0x4CAD DUP2 DUP4 PUSH2 0x2CD7 JUMP JUMPDEST DUP2 ADD SUB SLT PUSH2 0x6ED JUMPI PUSH2 0x4CC1 PUSH2 0x4AD1 SWAP7 PUSH2 0x33D1 JUMP JUMPDEST SWAP1 CODESIZE PUSH2 0x4C18 JUMP JUMPDEST POP RETURNDATASIZE PUSH2 0x4CA3 JUMP JUMPDEST DUP7 PUSH2 0x4B75 JUMP JUMPDEST DUP2 SWAP5 PUSH2 0x4B6E JUMP JUMPDEST PUSH2 0x4CEF DUP3 PUSH1 0x1 PUSH1 0x1 PUSH1 0xA0 SHL SUB DUP6 AND PUSH2 0x3024 JUMP JUMPDEST PUSH2 0x4B65 JUMP JUMPDEST POP POP PUSH1 0x0 SWAP1 PUSH2 0x4B4C JUMP JUMPDEST SWAP1 POP PUSH1 0x20 DUP2 RETURNDATASIZE PUSH1 0x20 GT PUSH2 0x4D28 JUMPI JUMPDEST DUP2 PUSH2 0x4D19 PUSH1 0x20 SWAP4 DUP4 PUSH2 0x2CD7 JUMP JUMPDEST DUP2 ADD SUB SLT PUSH2 0x6ED JUMPI MLOAD CODESIZE PUSH2 0x4B1F JUMP JUMPDEST RETURNDATASIZE SWAP2 POP PUSH2 0x4D0C JUMP JUMPDEST SWAP1 POP SWAP1 PUSH2 0x4AEB JUMP JUMPDEST POP PUSH1 0x1 PUSH1 0x1 PUSH1 0xA0 SHL SUB DUP2 DUP2 AND SWAP1 DUP7 AND EQ PUSH2 0x4AC0 JUMP JUMPDEST SWAP1 POP PUSH2 0x4D6B SWAP2 SWAP3 POP PUSH2 0x180 RETURNDATASIZE PUSH2 0x180 GT PUSH2 0x4BB JUMPI PUSH2 0x496 DUP2 DUP4 PUSH2 0x2CD7 JUMP JUMPDEST POP POP POP POP POP POP POP POP SWAP4 SWAP3 POP SWAP1 POP CODESIZE PUSH2 0x4AA7 JUMP JUMPDEST POP POP POP POP SWAP1 POP JUMPDEST DUP1 CODESIZE DUP1 DUP1 DUP1 PUSH2 0x4A0D JUMP JUMPDEST PUSH2 0x4AD1 SWAP1 PUSH2 0x2C43 JUMP JUMPDEST SWAP1 POP PUSH2 0x4DA4 DUP3 DUP9 PUSH2 0x2FD6 JUMP JUMPDEST MLOAD PUSH1 0x0 MSTORE PUSH1 0xC PUSH1 0x20 MSTORE PUSH1 0x40 PUSH1 0x0 KECCAK256 SLOAD AND ISZERO CODESIZE PUSH2 0x4A53 JUMP JUMPDEST POP POP POP POP SWAP1 POP PUSH2 0x4D85 JUMP JUMPDEST POP DUP1 MLOAD ISZERO ISZERO PUSH2 0x48C8 JUMP JUMPDEST POP DUP1 ISZERO ISZERO PUSH2 0x47FE JUMP JUMPDEST SWAP3 SWAP1 SWAP4 SWAP6 SWAP5 DUP3 ISZERO PUSH2 0x5289 JUMPI PUSH1 0x40 MLOAD PUSH2 0x4DF0 DUP2 PUSH2 0x2CBB JUMP JUMPDEST PUSH3 0xFFFFFF DUP9 AND DUP2 MSTORE PUSH2 0xBB8 PUSH1 0x20 DUP3 ADD MSTORE PUSH2 0x1F4 PUSH1 0x40 DUP3 ADD MSTORE PUSH2 0x2710 PUSH1 0x60 DUP3 ADD MSTORE PUSH1 0x0 DUP1 JUMPDEST PUSH1 0x4 DUP2 LT DUP1 DUP1 PUSH2 0x5281 JUMPI JUMPDEST ISZERO PUSH2 0x5227 JUMPI ISZERO PUSH2 0x2A07 JUMPI PUSH3 0xFFFFFF DUP2 PUSH1 0x5 SHL DUP5 ADD MLOAD AND DUP2 ISZERO ISZERO DUP1 PUSH2 0x5219 JUMPI JUMPDEST PUSH2 0x51D5 JUMPI PUSH1 0x40 MLOAD PUSH4 0xB4C7741 PUSH1 0xE1 SHL DUP2 MSTORE PUSH1 0x1 PUSH1 0x1 PUSH1 0xA0 SHL SUB DUP10 DUP2 AND PUSH1 0x4 DUP4 ADD MSTORE DUP11 AND PUSH1 0x24 DUP3 ADD MSTORE PUSH3 0xFFFFFF DUP3 AND PUSH1 0x44 DUP3 ADD MSTORE PUSH1 0x20 DUP2 PUSH1 0x64 DUP2 PUSH20 0x7A5028BDA40E7B173C278C5342087826455EA25A GAS STATICCALL SWAP1 DUP2 ISZERO PUSH2 0x42C7 JUMPI PUSH1 0x0 SWAP2 PUSH2 0x51DF JUMPI JUMPDEST POP PUSH1 0x1 PUSH1 0x1 PUSH1 0xA0 SHL SUB AND ISZERO PUSH2 0x51D5 JUMPI PUSH1 0x40 MLOAD PUSH4 0x95EA7B3 PUSH1 0xE0 SHL PUSH1 0x0 SWAP1 DUP2 MSTORE PUSH20 0x91AD9E2E6E5ED44C1C66DB50E49A601F9F36CF6 PUSH1 0x4 MSTORE PUSH1 0x24 DUP10 SWAP1 MSTORE PUSH1 0x20 SWAP1 PUSH1 0x44 DUP2 DUP1 PUSH1 0x1 PUSH1 0x1 PUSH1 0xA0 SHL SUB DUP15 AND GAS CALL SWAP1 PUSH1 0x1 PUSH1 0x0 MLOAD EQ DUP3 AND ISZERO PUSH2 0x51BC JUMPI JUMPDEST PUSH1 0x40 MSTORE ISZERO PUSH2 0x50E0 JUMPI JUMPDEST PUSH1 0x40 MLOAD SWAP1 DUP2 PUSH2 0x100 DUP2 ADD LT PUSH8 0xFFFFFFFFFFFFFFFF PUSH2 0x100 DUP5 ADD GT OR PUSH2 0x2C89 JUMPI PUSH2 0x100 DUP3 ADD PUSH1 0x40 SWAP1 DUP2 MSTORE PUSH1 0x1 PUSH1 0x1 PUSH1 0xA0 SHL SUB DUP11 DUP2 AND DUP5 MSTORE DUP12 DUP2 AND PUSH1 0x20 DUP1 DUP7 ADD SWAP2 DUP3 MSTORE DUP4 DUP7 ADD SWAP5 DUP6 MSTORE ADDRESS PUSH1 0x60 DUP8 ADD SWAP1 DUP2 MSTORE PUSH1 0x80 DUP8 ADD DUP12 DUP2 MSTORE PUSH1 0xA0 DUP9 ADD DUP15 DUP2 MSTORE PUSH1 0xC0 DUP10 ADD DUP15 DUP2 MSTORE PUSH1 0x0 PUSH1 0xE0 DUP12 ADD DUP2 DUP2 MSTORE SWAP9 MLOAD PUSH4 0x414BF389 PUSH1 0xE0 SHL DUP2 MSTORE SWAP11 MLOAD DUP9 AND PUSH1 0x4 DUP13 ADD MSTORE SWAP6 MLOAD DUP8 AND PUSH1 0x24 DUP12 ADD MSTORE SWAP8 MLOAD PUSH3 0xFFFFFF AND PUSH1 0x44 DUP11 ADD MSTORE SWAP2 MLOAD DUP6 AND PUSH1 0x64 DUP10 ADD MSTORE MLOAD PUSH1 0x84 DUP9 ADD MSTORE MLOAD PUSH1 0xA4 DUP8 ADD MSTORE SWAP4 MLOAD PUSH1 0xC4 DUP7 ADD MSTORE SWAP2 MLOAD AND PUSH1 0xE4 DUP5 ADD MSTORE DUP3 SWAP1 PUSH2 0x104 SWAP1 DUP3 SWAP1 PUSH20 0x91AD9E2E6E5ED44C1C66DB50E49A601F9F36CF6 GAS CALL PUSH1 0x0 SWAP2 DUP2 PUSH2 0x50AC JUMPI JUMPDEST POP PUSH2 0x5008 JUMPI POP PUSH2 0x5003 SWAP1 PUSH2 0x789 PUSH1 0x1 PUSH1 0x1 PUSH1 0xA0 SHL SUB DUP10 AND PUSH2 0x31C2 JUMP JUMPDEST PUSH2 0x4E14 JUMP JUMPDEST SWAP1 SWAP2 POP PUSH2 0x501D PUSH1 0x1 PUSH1 0x1 PUSH1 0xA0 SHL SUB DUP9 AND PUSH2 0x31C2 JUMP JUMPDEST PUSH1 0x40 DUP1 MLOAD DUP8 DUP2 MSTORE PUSH1 0x20 DUP2 ADD SWAP3 SWAP1 SWAP3 MSTORE PUSH1 0x1 PUSH1 0x1 PUSH1 0xA0 SHL SUB DUP10 DUP2 AND SWAP3 SWAP1 DUP10 AND SWAP2 PUSH32 0xA078C4190ABE07940190EFFC1846BE0CCF03AD6007BC9E93F9697D0B460BEFBB SWAP2 LOG3 PUSH1 0x1 PUSH1 0x1 PUSH1 0xA0 SHL SUB PUSH32 0x0 DUP2 AND SWAP1 DUP9 AND SUB PUSH2 0x509E JUMPI JUMPDEST PUSH2 0x5003 PUSH1 0x1 SWAP2 PUSH2 0x2C43 JUMP JUMPDEST PUSH2 0x50A7 DUP8 PUSH2 0x2F11 JUMP JUMPDEST PUSH2 0x5093 JUMP JUMPDEST SWAP1 SWAP2 PUSH1 0x20 DUP3 RETURNDATASIZE PUSH1 0x20 GT PUSH2 0x50D8 JUMPI JUMPDEST DUP2 PUSH2 0x50C7 PUSH1 0x20 SWAP4 DUP4 PUSH2 0x2CD7 JUMP JUMPDEST DUP2 ADD SUB SLT PUSH2 0x4CC JUMPI POP MLOAD SWAP1 CODESIZE PUSH2 0x4FE7 JUMP JUMPDEST RETURNDATASIZE SWAP2 POP PUSH2 0x50BA JUMP JUMPDEST PUSH2 0x50F2 PUSH1 0x1 PUSH1 0x1 PUSH1 0xA0 SHL SUB DUP10 AND PUSH2 0x32A2 JUMP JUMPDEST ISZERO PUSH2 0x519B JUMPI PUSH1 0x40 MLOAD PUSH4 0x95EA7B3 PUSH1 0xE0 SHL PUSH1 0x0 SWAP1 DUP2 MSTORE PUSH20 0x91AD9E2E6E5ED44C1C66DB50E49A601F9F36CF6 PUSH1 0x4 MSTORE PUSH1 0x24 DUP10 SWAP1 MSTORE PUSH1 0x20 SWAP1 PUSH1 0x44 DUP2 DUP1 PUSH1 0x1 PUSH1 0x1 PUSH1 0xA0 SHL SUB DUP15 AND GAS CALL PUSH1 0x1 PUSH1 0x0 MLOAD EQ DUP2 AND ISZERO PUSH2 0x5172 JUMPI JUMPDEST DUP2 PUSH1 0x40 MSTORE ISZERO PUSH2 0x5154 JUMPI POP PUSH2 0x4F04 JUMP JUMPDEST PUSH4 0x5274AFE7 PUSH1 0xE0 SHL DUP2 MSTORE PUSH1 0x1 PUSH1 0x1 PUSH1 0xA0 SHL SUB DUP10 AND PUSH1 0x4 DUP3 ADD MSTORE PUSH1 0x24 SWAP1 REVERT JUMPDEST PUSH1 0x1 DUP2 ISZERO AND PUSH2 0x5191 JUMPI RETURNDATASIZE ISZERO PUSH1 0x1 PUSH1 0x1 PUSH1 0xA0 SHL SUB DUP12 AND EXTCODESIZE ISZERO ISZERO AND AND PUSH2 0x5145 JUMP JUMPDEST POP RETURNDATASIZE PUSH1 0x0 DUP3 RETURNDATACOPY RETURNDATASIZE SWAP1 REVERT JUMPDEST PUSH1 0x40 MLOAD PUSH4 0x5274AFE7 PUSH1 0xE0 SHL DUP2 MSTORE PUSH1 0x1 PUSH1 0x1 PUSH1 0xA0 SHL SUB DUP10 AND PUSH1 0x4 DUP3 ADD MSTORE PUSH1 0x24 SWAP1 REVERT JUMPDEST RETURNDATASIZE ISZERO PUSH1 0x1 PUSH1 0x1 PUSH1 0xA0 SHL SUB DUP12 AND EXTCODESIZE ISZERO ISZERO AND SWAP1 SWAP2 AND SWAP1 PUSH2 0x4EFB JUMP JUMPDEST POP PUSH2 0x5003 SWAP1 PUSH2 0x2C43 JUMP JUMPDEST SWAP1 PUSH1 0x20 DUP3 RETURNDATASIZE PUSH1 0x20 GT PUSH2 0x5211 JUMPI JUMPDEST DUP2 PUSH2 0x51F9 PUSH1 0x20 SWAP4 DUP4 PUSH2 0x2CD7 JUMP JUMPDEST DUP2 ADD SUB SLT PUSH2 0x4CC JUMPI POP PUSH2 0x520B SWAP1 PUSH2 0x33AF JUMP JUMPDEST CODESIZE PUSH2 0x4E9D JUMP JUMPDEST RETURNDATASIZE SWAP2 POP PUSH2 0x51EC JUMP JUMPDEST POP PUSH3 0xFFFFFF DUP12 AND DUP2 EQ PUSH2 0x4E3E JUMP JUMPDEST POP POP SWAP4 SWAP7 SWAP8 POP POP POP POP SWAP2 SWAP1 SWAP2 ISZERO PUSH2 0x523D JUMPI POP POP POP JUMP JUMPDEST PUSH1 0x40 MLOAD SWAP3 DUP4 MSTORE PUSH2 0x2D4C SWAP3 PUSH1 0x1 PUSH1 0x1 PUSH1 0xA0 SHL SUB SWAP2 DUP3 AND SWAP2 DUP4 AND SWAP1 PUSH32 0x6930176329C33F663176F0F242132119497DB425BB44D32F9FFEF8683D10B0C0 SWAP1 PUSH1 0x20 SWAP1 LOG3 PUSH2 0x2F11 JUMP JUMPDEST POP DUP3 ISZERO PUSH2 0x4E1F JUMP JUMPDEST POP POP POP POP POP SWAP1 POP JUMP JUMPDEST PUSH1 0x40 MLOAD PUSH4 0xA9059CBB PUSH1 0xE0 SHL PUSH1 0x0 SWAP1 DUP2 MSTORE PUSH1 0x1 PUSH1 0x1 PUSH1 0xA0 SHL SUB SWAP4 DUP5 AND PUSH1 0x4 MSTORE PUSH1 0x24 SWAP5 SWAP1 SWAP5 MSTORE SWAP3 PUSH1 0x20 SWAP1 PUSH1 0x44 DUP2 DUP1 DUP6 GAS CALL PUSH1 0x1 PUSH1 0x0 MLOAD EQ DUP2 AND ISZERO PUSH2 0x52F3 JUMPI JUMPDEST DUP4 PUSH1 0x40 MSTORE ISZERO PUSH2 0x52DD JUMPI POP POP POP JUMP JUMPDEST PUSH4 0x5274AFE7 PUSH1 0xE0 SHL DUP4 MSTORE AND PUSH1 0x4 DUP3 ADD MSTORE PUSH1 0x24 SWAP2 POP REVERT JUMPDEST PUSH1 0x1 DUP2 ISZERO AND PUSH2 0x5309 JUMPI DUP2 EXTCODESIZE ISZERO ISZERO RETURNDATASIZE ISZERO AND AND PUSH2 0x52CF JUMP JUMPDEST DUP4 RETURNDATASIZE PUSH1 0x0 DUP3 RETURNDATACOPY RETURNDATASIZE SWAP1 REVERT JUMPDEST SWAP2 SWAP1 SWAP2 PUSH2 0x531F DUP4 PUSH2 0x2FA4 JUMP JUMPDEST SWAP3 PUSH1 0x0 JUMPDEST DUP2 DUP2 LT PUSH2 0x532F JUMPI POP POP POP JUMP JUMPDEST DUP1 PUSH2 0x533E PUSH2 0x5349 SWAP3 DUP5 DUP7 PUSH2 0x339F JUMP JUMPDEST CALLDATALOAD PUSH2 0x1548 DUP3 DUP9 PUSH2 0x2FD6 JUMP JUMPDEST PUSH2 0x5323 JUMP INVALID STOP STOP STOP STOP STOP STOP STOP STOP STOP STOP STOP STOP 0xEC SLT 0xA9 0xF9 LOG0 SWAP16 POP SSTORE MOD DUP7 CALLDATASIZE CALLDATACOPY PUSH7 0xCC153D03C27B5E LOG2 PUSH5 0x6970667358 0x22 SLT KECCAK256 0xEF MUL EXTCODECOPY SWAP4 0xBD RETURNDATACOPY 0xC2 NUMBER SWAP13 0xC2 0xF7 JUMPI CALLER ISZERO 0xAB 0x29 PUSH8 0xD73AE464F9E1A361 0xEA 0xF6 SWAP15 0x2A SWAP10 PUSH14 0xB064736F6C634300081400330000 "},"methodIdentifiers":{"POSITION_MANAGER()":"1bea83fe","SWAP_ROUTER()":"c6005893","TIME_STAKING()":"e02ef7b6","TIME_TOKEN()":"22046088","UNISWAP_FACTORY()":"c74c0fac","WLD()":"de061d66","addDistToken(address,uint256,uint24)":"871f6b05","addOwner(address)":"7065cb48","addPosition(uint256)":"d2d6a872","addReserveToken(address)":"8762dad9","claimStakingRewards(uint256)":"8fad2627","collectAll(uint256[],uint256)":"8d0b3c7c","collectAllManaged(uint256)":"f48d9cd5","collectFees(uint256[],uint256)":"c006ee2d","defaultSwapFeeTier()":"75290605","distTokens(uint256)":"2015a677","getConfig()":"c3f909d4","getDistTokens()":"2c69fdef","getManagedPositions()":"82f8fe78","getOwners()":"a0e67e2b","getPairFeeTier(address,address)":"eb18c45e","getPosition(uint256)":"eb02c301","getReserveBalance(address)":"15226b54","getReserveBalances()":"77d56a04","getReserveTokens()":"d1f3ae1b","getStakingInfo()":"b40cd21d","inRange(uint256)":"40ec97c6","isDistToken(address)":"720feffc","isManaged(uint256)":"55b6cce1","isOwner(address)":"2f54bf6e","isReserveToken(address)":"68c31dd5","lastReinvestAt()":"3cd57d61","managedPositions(uint256)":"8d95c2cf","manualSwap(address,address,uint256,uint256,uint24,uint256)":"2f435e55","ownerList(uint256)":"def79ab5","pairFeeTier(bytes32)":"06c16b3f","paused()":"5c975abb","pendingStakingReward()":"cb609064","primaryOwner()":"8e10be33","reinvestIntervalSecs()":"ce8021de","removeDistToken(address)":"73427b99","removeOwner(address)":"173825d9","removePosition(uint256)":"c0467422","removeReserveToken(address)":"19eb7845","reserve(address)":"e75179a4","reserveFeeBps()":"65db6579","reserveTokenList(uint256)":"252d2a08","setDefaultSwapFeeTier(uint24)":"d639ab1c","setDistTokenShare(address,uint256,uint24)":"86629ec4","setPairFeeTier(address,address,uint24)":"da276804","setPaused(bool)":"16c38b3c","setReinvestInterval(uint256)":"10a135ca","setReserveFeeBps(uint256)":"4b41cb27","setSlippageBps(uint256)":"1a3ce4e6","slippageBps()":"578c71d9","stakeTime(uint256)":"0a42f049","stakedTimeBalance()":"76d3fe8a","unstakeTime(uint256)":"616e1661","updateAllRanges()":"1b74cea2","updateRanges(uint256[])":"d7759e6a","withdrawAll(address,address)":"09cae2c8","withdrawFreeBalance(address,address)":"a840702b","withdrawReserve(address,uint256,address)":"1d8d7c66"}}}}}