{"contracts/AutoReinvestBotV5.sol":{"AutoReinvestBotV5":{"abi":[{"inputs":[{"internalType":"address","name":"_WLD","type":"address"},{"internalType":"address","name":"_H2O","type":"address"},{"internalType":"address","name":"_BTCH2O","type":"address"},{"internalType":"address","name":"_timeToken","type":"address"},{"internalType":"address","name":"_stakingContract","type":"address"}],"stateMutability":"nonpayable","type":"constructor"},{"inputs":[],"name":"ReentrancyGuardReentrantCall","type":"error"},{"inputs":[{"internalType":"address","name":"token","type":"address"}],"name":"SafeERC20FailedOperation","type":"error"},{"anonymous":false,"inputs":[{"indexed":false,"internalType":"string","name":"key","type":"string"},{"indexed":false,"internalType":"uint256","name":"value","type":"uint256"}],"name":"ConfigUpdated","type":"event"},{"anonymous":false,"inputs":[{"indexed":false,"internalType":"bool","name":"isPaused","type":"bool"}],"name":"ContractPaused","type":"event"},{"anonymous":false,"inputs":[{"indexed":true,"internalType":"uint256","name":"tokenId","type":"uint256"},{"indexed":false,"internalType":"uint256","name":"amount0","type":"uint256"},{"indexed":false,"internalType":"uint256","name":"amount1","type":"uint256"}],"name":"FeesCollected","type":"event"},{"anonymous":false,"inputs":[{"indexed":true,"internalType":"uint256","name":"tokenId","type":"uint256"},{"indexed":false,"internalType":"uint128","name":"liquidity","type":"uint128"}],"name":"LiquidityAdded","type":"event"},{"anonymous":false,"inputs":[{"indexed":true,"internalType":"address","name":"owner","type":"address"}],"name":"OwnerAdded","type":"event"},{"anonymous":false,"inputs":[{"indexed":true,"internalType":"address","name":"owner","type":"address"}],"name":"OwnerRemoved","type":"event"},{"anonymous":false,"inputs":[{"indexed":true,"internalType":"uint256","name":"tokenId","type":"uint256"}],"name":"PositionAdded","type":"event"},{"anonymous":false,"inputs":[{"indexed":true,"internalType":"uint256","name":"tokenId","type":"uint256"}],"name":"PositionRemoved","type":"event"},{"anonymous":false,"inputs":[{"indexed":false,"internalType":"uint256","name":"timestamp","type":"uint256"},{"indexed":false,"internalType":"uint256","name":"totalWLD","type":"uint256"}],"name":"ReinvestCompleted","type":"event"},{"anonymous":false,"inputs":[{"indexed":true,"internalType":"address","name":"token","type":"address"},{"indexed":true,"internalType":"address","name":"to","type":"address"},{"indexed":false,"internalType":"uint256","name":"amount","type":"uint256"}],"name":"ReserveWithdrawn","type":"event"},{"anonymous":false,"inputs":[{"indexed":false,"internalType":"uint256","name":"wldAmount","type":"uint256"}],"name":"StakingRewardClaimed","type":"event"},{"anonymous":false,"inputs":[{"indexed":true,"internalType":"address","name":"tokenIn","type":"address"},{"indexed":true,"internalType":"address","name":"tokenOut","type":"address"},{"indexed":false,"internalType":"uint256","name":"amountIn","type":"uint256"},{"indexed":false,"internalType":"bytes","name":"reason","type":"bytes"}],"name":"SwapFailed","type":"event"},{"anonymous":false,"inputs":[{"indexed":true,"internalType":"address","name":"tokenIn","type":"address"},{"indexed":true,"internalType":"address","name":"tokenOut","type":"address"},{"indexed":false,"internalType":"uint256","name":"amountIn","type":"uint256"},{"indexed":false,"internalType":"uint256","name":"amountOut","type":"uint256"}],"name":"Swapped","type":"event"},{"anonymous":false,"inputs":[{"indexed":false,"internalType":"uint256","name":"amount","type":"uint256"}],"name":"TimeStaked","type":"event"},{"anonymous":false,"inputs":[{"indexed":false,"internalType":"uint256","name":"amount","type":"uint256"}],"name":"TimeUnstaked","type":"event"},{"inputs":[],"name":"BTCH2O","outputs":[{"internalType":"address","name":"","type":"address"}],"stateMutability":"view","type":"function"},{"inputs":[],"name":"H2O","outputs":[{"internalType":"address","name":"","type":"address"}],"stateMutability":"view","type":"function"},{"inputs":[],"name":"POSITION_MANAGER","outputs":[{"internalType":"address","name":"","type":"address"}],"stateMutability":"view","type":"function"},{"inputs":[],"name":"STAKING_CONTRACT","outputs":[{"internalType":"address","name":"","type":"address"}],"stateMutability":"view","type":"function"},{"inputs":[],"name":"SWAP_ROUTER","outputs":[{"internalType":"address","name":"","type":"address"}],"stateMutability":"view","type":"function"},{"inputs":[],"name":"TIME_TOKEN","outputs":[{"internalType":"address","name":"","type":"address"}],"stateMutability":"view","type":"function"},{"inputs":[],"name":"UNISWAP_FACTORY","outputs":[{"internalType":"address","name":"","type":"address"}],"stateMutability":"view","type":"function"},{"inputs":[],"name":"WLD","outputs":[{"internalType":"address","name":"","type":"address"}],"stateMutability":"view","type":"function"},{"inputs":[{"internalType":"address","name":"newOwner","type":"address"}],"name":"addOwner","outputs":[],"stateMutability":"nonpayable","type":"function"},{"inputs":[{"internalType":"uint256","name":"tokenId","type":"uint256"}],"name":"addPosition","outputs":[],"stateMutability":"nonpayable","type":"function"},{"inputs":[],"name":"btch2oShareBps","outputs":[{"internalType":"uint256","name":"","type":"uint256"}],"stateMutability":"view","type":"function"},{"inputs":[{"internalType":"uint256","name":"deadline","type":"uint256"}],"name":"claimStakingRewards","outputs":[],"stateMutability":"nonpayable","type":"function"},{"inputs":[{"internalType":"uint256[]","name":"tokenIds","type":"uint256[]"},{"internalType":"uint256","name":"deadline","type":"uint256"}],"name":"collectAll","outputs":[],"stateMutability":"nonpayable","type":"function"},{"inputs":[{"internalType":"uint256[]","name":"tokenIds","type":"uint256[]"},{"internalType":"uint256","name":"deadline","type":"uint256"}],"name":"collectFees","outputs":[],"stateMutability":"nonpayable","type":"function"},{"inputs":[],"name":"getConfig","outputs":[{"internalType":"uint256","name":"_reinvestIntervalSecs","type":"uint256"},{"internalType":"uint256","name":"_reserveFeeBps","type":"uint256"},{"internalType":"uint256","name":"_h2oShareBps","type":"uint256"},{"internalType":"uint256","name":"_btch2oShareBps","type":"uint256"},{"internalType":"bool","name":"_paused","type":"bool"},{"internalType":"uint256","name":"_lastReinvestAt","type":"uint256"}],"stateMutability":"view","type":"function"},{"inputs":[],"name":"getManagedPositions","outputs":[{"internalType":"uint256[]","name":"","type":"uint256[]"}],"stateMutability":"view","type":"function"},{"inputs":[],"name":"getOwners","outputs":[{"internalType":"address[]","name":"","type":"address[]"}],"stateMutability":"view","type":"function"},{"inputs":[{"internalType":"uint256","name":"tokenId","type":"uint256"}],"name":"getPosition","outputs":[{"internalType":"address","name":"token0","type":"address"},{"internalType":"address","name":"token1","type":"address"},{"internalType":"uint24","name":"fee","type":"uint24"},{"internalType":"int24","name":"tickLower","type":"int24"},{"internalType":"int24","name":"tickUpper","type":"int24"},{"internalType":"uint128","name":"liquidity","type":"uint128"},{"internalType":"uint128","name":"tokensOwed0","type":"uint128"},{"internalType":"uint128","name":"tokensOwed1","type":"uint128"},{"internalType":"bool","name":"managed","type":"bool"},{"internalType":"bool","name":"isInRange","type":"bool"}],"stateMutability":"view","type":"function"},{"inputs":[],"name":"getReserves","outputs":[{"internalType":"uint256","name":"wldReserve","type":"uint256"},{"internalType":"uint256","name":"h2oReserve","type":"uint256"},{"internalType":"uint256","name":"btch2oReserve","type":"uint256"}],"stateMutability":"view","type":"function"},{"inputs":[],"name":"getStakingInfo","outputs":[{"internalType":"uint256","name":"stakedTime","type":"uint256"},{"internalType":"uint256","name":"pendingWLD","type":"uint256"},{"internalType":"uint256","name":"totalStakedInContract","type":"uint256"}],"stateMutability":"view","type":"function"},{"inputs":[],"name":"h2oShareBps","outputs":[{"internalType":"uint256","name":"","type":"uint256"}],"stateMutability":"view","type":"function"},{"inputs":[{"internalType":"uint256","name":"","type":"uint256"}],"name":"inRange","outputs":[{"internalType":"bool","name":"","type":"bool"}],"stateMutability":"view","type":"function"},{"inputs":[{"internalType":"uint256","name":"","type":"uint256"}],"name":"isManaged","outputs":[{"internalType":"bool","name":"","type":"bool"}],"stateMutability":"view","type":"function"},{"inputs":[{"internalType":"address","name":"","type":"address"}],"name":"isOwner","outputs":[{"internalType":"bool","name":"","type":"bool"}],"stateMutability":"view","type":"function"},{"inputs":[],"name":"lastReinvestAt","outputs":[{"internalType":"uint256","name":"","type":"uint256"}],"stateMutability":"view","type":"function"},{"inputs":[{"internalType":"uint256","name":"","type":"uint256"}],"name":"managedPositions","outputs":[{"internalType":"uint256","name":"","type":"uint256"}],"stateMutability":"view","type":"function"},{"inputs":[{"internalType":"uint256","name":"","type":"uint256"}],"name":"ownerList","outputs":[{"internalType":"address","name":"","type":"address"}],"stateMutability":"view","type":"function"},{"inputs":[],"name":"paused","outputs":[{"internalType":"bool","name":"","type":"bool"}],"stateMutability":"view","type":"function"},{"inputs":[],"name":"pendingStakingReward","outputs":[{"internalType":"uint256","name":"","type":"uint256"}],"stateMutability":"view","type":"function"},{"inputs":[],"name":"primaryOwner","outputs":[{"internalType":"address","name":"","type":"address"}],"stateMutability":"view","type":"function"},{"inputs":[],"name":"reinvestIntervalSecs","outputs":[{"internalType":"uint256","name":"","type":"uint256"}],"stateMutability":"view","type":"function"},{"inputs":[{"internalType":"address","name":"owner","type":"address"}],"name":"removeOwner","outputs":[],"stateMutability":"nonpayable","type":"function"},{"inputs":[{"internalType":"uint256","name":"tokenId","type":"uint256"}],"name":"removePosition","outputs":[],"stateMutability":"nonpayable","type":"function"},{"inputs":[{"internalType":"address","name":"","type":"address"}],"name":"reserve","outputs":[{"internalType":"uint256","name":"","type":"uint256"}],"stateMutability":"view","type":"function"},{"inputs":[],"name":"reserveFeeBps","outputs":[{"internalType":"uint256","name":"","type":"uint256"}],"stateMutability":"view","type":"function"},{"inputs":[{"internalType":"uint256","name":"_h2oShareBps","type":"uint256"},{"internalType":"uint256","name":"_btch2oShareBps","type":"uint256"}],"name":"setDistribution","outputs":[],"stateMutability":"nonpayable","type":"function"},{"inputs":[{"internalType":"bool","name":"_paused","type":"bool"}],"name":"setPaused","outputs":[],"stateMutability":"nonpayable","type":"function"},{"inputs":[{"internalType":"uint256","name":"secs","type":"uint256"}],"name":"setReinvestInterval","outputs":[],"stateMutability":"nonpayable","type":"function"},{"inputs":[{"internalType":"uint256","name":"bps","type":"uint256"}],"name":"setReserveFeeBps","outputs":[],"stateMutability":"nonpayable","type":"function"},{"inputs":[{"internalType":"uint256","name":"amount","type":"uint256"}],"name":"stakeTime","outputs":[],"stateMutability":"nonpayable","type":"function"},{"inputs":[],"name":"stakedTimeBalance","outputs":[{"internalType":"uint256","name":"","type":"uint256"}],"stateMutability":"view","type":"function"},{"inputs":[{"internalType":"uint256","name":"amount","type":"uint256"}],"name":"unstakeTime","outputs":[],"stateMutability":"nonpayable","type":"function"},{"inputs":[{"internalType":"uint256[]","name":"tokenIds","type":"uint256[]"}],"name":"updateRanges","outputs":[],"stateMutability":"nonpayable","type":"function"},{"inputs":[{"internalType":"address","name":"token","type":"address"},{"internalType":"address","name":"to","type":"address"}],"name":"withdrawAll","outputs":[],"stateMutability":"nonpayable","type":"function"},{"inputs":[{"internalType":"address","name":"token","type":"address"},{"internalType":"uint256","name":"amount","type":"uint256"},{"internalType":"address","name":"to","type":"address"}],"name":"withdrawReserve","outputs":[],"stateMutability":"nonpayable","type":"function"}],"evm":{"bytecode":{"linkReferences":{},"object":"610120346200025f57601f6200376f38819003918201601f19168301916001600160401b03831184841017620002645780849260a0946040528339810103126200025f576200004e816200027a565b906200005d602082016200027a565b6200006b604083016200027a565b9062000088608062000080606086016200027a565b94016200027a565b9360017f9b779b17422d0df92223018b32b4d1fa46e071723d6817e2486d003becc55f005560805260a05260c05260e05261010090815260018060a01b031960003382825416178155338152600160205260408120600160ff1982541617905560025490680100000000000000008210156200024b5760018201806002558210156200023757600290527f405787fa12a823e0f2b7631cc41b3ba8828b3321ca811111fa75cd3aa3bb5ace0180549091163317905561012c60035560c8600455610fa0600555610bb86006556040516134df918262000290833960805182818161052501528181611b0a015281816124cf0152818161279801528181612b2801528181612c4b01528181612d7401528181612da901528181612f8d0152818161307201526130c4015260a05182818161022701528181611b3901528181612dd101528181612fb401526130a3015260c051828181610c4e01528181611b620152613051015260e05182818161131401526117e30152518181816105690152818161079501528181610ad801528181610ec9015281816110ad015281816117ad0152818161250d01526127d60152f35b634e487b7160e01b81526032600452602490fd5b634e487b7160e01b81526041600452602490fd5b600080fd5b634e487b7160e01b600052604160045260246000fd5b51906001600160a01b03821682036200025f5756fe608060408181526004918236101561001657600080fd5b600092833560e01c9182630902f1ac14611ae65750816309cae2c8146119bf5781630a42f0491461176557816310a135ca146116a857816316c38b3c14611637578163173825d91461145f5781631bea83fe146114305781631d8d7c661461134357816322046088146112ff5781632f54bf6e146112c157816335e93277146112a25781633cd57d611461128357816340ec97c6146112565781634b41cb27146111a157816355b6cce1146111745781635c975abb14611150578163616e16611461107157816365db6579146110535781637065cb4814610f0957816376d3fe8a14610e9b57816382f8fe7814610e415781638d0b3c7c14610e0c5781638d95c2cf14610dd35781638e10be3314610dab5781638fad262714610d6157816398fb86d314610d42578163a0e67e2b14610c7d578163acb4767014610c39578163b40cd21d14610ab3578163c006ee2d14610a41578163c0467422146108c7578163c3f909d414610878578163c600589314610849578163c74c0fac1461081a578163cb60906414610767578163ce8021de14610748578163d2d6a8721461063d578163d7759e6a14610598578163da19ddfb14610554578163de061d6614610510578163def79ab5146104cb578163e75179a414610493578163eb02c30114610352578163f18dba261461025a575063feaa524d1461021457600080fd5b34610256578160031936011261025657517f00000000000000000000000000000000000000000000000000000000000000006001600160a01b03168152602090f35b5080fd5b83915034610256578260031936011261025657803560243591338452600160205261028a60ff8686205416611c9c565b6127106102978484611d55565b1161032057508360809282849360055581600655825190838252600b848301526a68326f536861726542707360a81b606083015260208201527f12c9dccd129ff783f1c8228eacdfa8e334ddecb7ec5c9a79ec662a4aed3d012a948591a1600e8251928084528301526d62746368326f536861726542707360901b60608301526020820152a180f35b606490602086519162461bcd60e51b8352820152600c60248201526b45786365656473203130302560a01b6044820152fd5b828434610490576020366003190112610490578235908183519463133f757160e31b8652850152610180808560248173ec12a9f9a09f50550686363766cc153d03c27b5e5afa8015610486576101409583948496859086918793889589988a98610433575b50509062ffffff918952600960205260ff8381818c2054169a600a6020522054169983519b60018060a01b038092168d521660208c0152169089015260020b606088015260020b60808701526001600160801b03928380921660a08801521660c08601521660e084015215156101008301521515610120820152f35b9550955096505097505062ffffff95506104629250803d1061047f575b61045a8183611d33565b810190612171565b979e989d909b979a509298509296939593949392508e90506103b7565b503d610450565b84513d84823e3d90fd5b80fd5b5050346102565760203660031901126102565760209181906001600160a01b036104bb611b9e565b168152600c845220549051908152f35b90503461050c57602036600319011261050c57359160025483101561049057506104f6602092611c18565b905491519160018060a01b039160031b1c168152f35b8280fd5b505034610256578160031936011261025657517f00000000000000000000000000000000000000000000000000000000000000006001600160a01b03168152602090f35b505034610256578160031936011261025657517f00000000000000000000000000000000000000000000000000000000000000006001600160a01b03168152602090f35b9190503461050c57602091826003193601126106395780359067ffffffffffffffff8211610635576105cc91369101611bb4565b913385526001845260ff906105e5828288205416611c9c565b855b8481106105f2578680f35b8061060161061792878761212b565b3588526009875283838920541661061c57611cd7565b6105e7565b61063061062a82888861212b565b35612230565b611cd7565b8480fd5b8380fd5b9190503461050c57602036600319011261050c57813591338452600160205261066b60ff8386205416611c9c565b828452600960205260ff828520541661071457600b5490600160401b8210156107015750826106a38260016106bc9401600b55611c65565b90919082549060031b91821b91600019901b1916179055565b81835260096020528220805460ff191660011790556106da81612230565b7f3d0a2b1c6f8e72f333688e33b7fc1767f042d33eaef1d3b5db5968567033e91f8280a280f35b634e487b7160e01b855260419052602484fd5b6020606492519162461bcd60e51b8352820152600f60248201526e105b1c9958591e481b585b9859d959608a1b6044820152fd5b5050346102565781600319360112610256576020906003549051908152f35b8383346102565781600319360112610256578051633111b0d160e21b815230938101939093526020836024817f00000000000000000000000000000000000000000000000000000000000000006001600160a01b03165afa91821561080f57916107d6575b6020925051908152f35b90506020823d8211610807575b816107f060209383611d33565b810103126108025760209151906107cc565b600080fd5b3d91506107e3565b9051903d90823e3d90fd5b50503461025657816003193601126102565760209051737a5028bda40e7b173c278c5342087826455ea25a8152f35b5050346102565781600319360112610256576020905173091ad9e2e6e5ed44c1c66db50e49a601f9f36cf68152f35b9190503461050c578260031936011261050c5760c092506003549154906005546006549060ff6007541692600854948151968752602087015285015260608401521515608083015260a0820152f35b90503461050c57602036600319011261050c57803591338452600190816020526108f660ff8287205416611c9c565b838552600960205260ff818620541615610a115783855260096020528420805460ff1916905582919084815b610950575b85847f8dab17171ceb83acca6e0d86e9c8b6d3f2eec3a1ec6a5a2f9a3f1b7e17ad10358280a280f35b600b805480831015610a0a5761096583611c65565b969054600397881b1c1461098b57505061098191929350611cd7565b9083929181610922565b92509290600019928381019081116109f757906106a36109ad6109b993611c65565b905490881b1c91611c65565b82549081156109e457508101926109cf84611c65565b81939154921b1b191690555580388080610927565b634e487b7160e01b875260319052602486fd5b634e487b7160e01b885260118352602488fd5b5050610927565b5162461bcd60e51b8152602081840152600b60248201526a139bdd081b585b9859d95960aa1b6044820152606490fd5b50503461025657610a70610a8c9160ff610a5a36611be5565b9491929093338852600160205287205416611c9c565b610a7f60ff600754161561246c565b610a87612682565b61271b565b60017f9b779b17422d0df92223018b32b4d1fa46e071723d6817e2486d003becc55f005580f35b90503461050c578260031936011261050c578151636021726760e01b815230828201527f00000000000000000000000000000000000000000000000000000000000000006001600160a01b031693909260208085602481895afa948515610c2d578395610bfe575b508151633111b0d160e21b81523085820152958187602481845afa968715610bf1578497610bc2575b5081908351958680926340bd8e6960e11b82525afa928315610bb75792610b85575b50519283526020830193909352506040810191909152606090f35b0390f35b90915082813d8311610bb0575b610b9c8183611d33565b8101031261080257610b8191519038610b66565b503d610b92565b8251903d90823e3d90fd5b9096508181813d8311610bea575b610bda8183611d33565b8101031261080257519581610b44565b503d610bd0565b50505051903d90823e3d90fd5b9080955081813d8311610c26575b610c168183611d33565b8101031261080257519338610b1b565b503d610c0c565b505051903d90823e3d90fd5b505034610256578160031936011261025657517f00000000000000000000000000000000000000000000000000000000000000006001600160a01b03168152602090f35b8284346104905780600319360112610490579080519182906002549182855260208095018093600284527f405787fa12a823e0f2b7631cc41b3ba8828b3321ca811111fa75cd3aa3bb5ace90845b818110610d255750505081610ce1910382611d33565b83519485948186019282875251809352850193925b828110610d0557505050500390f35b83516001600160a01b031685528695509381019392810192600101610cf6565b82546001600160a01b031684529288019260019283019201610ccb565b5050346102565781600319360112610256576020906005549051908152f35b90503461050c57602036600319011261050c57610d8e60ff610a8c93338652600160205285205416611c9c565b610d9d60ff600754161561246c565b610da5612682565b356124ad565b505034610256578160031936011261025657905490516001600160a01b039091168152602090f35b90503461050c57602036600319011261050c573591600b548310156104905750610dfe602092611c65565b91905490519160031b1c8152f35b50503461025657610e25610a8c9160ff610a5a36611be5565b610e3460ff600754161561246c565b610e3c612682565b612771565b505034610256578160031936011261025657610e5b6120bc565b815192839260208080860192818752855180945286019401925b828110610e8457505050500390f35b835185528695509381019392810192600101610e75565b8383346102565781600319360112610256578051636021726760e01b815230938101939093526020836024817f00000000000000000000000000000000000000000000000000000000000000006001600160a01b03165afa91821561080f57916107d6576020925051908152f35b838334610256576020908160031936011261050c57610f26611b9e565b9033845260018352610f3d60ff8286205416611c9c565b6001600160a01b038216928315611022578385526001815260ff8286205416610ff057600190848652528320600160ff19825416179055600254600160401b811015610fdd5790610f97826001610fb69401600255611c18565b90919082549060031b9160018060a01b03809116831b921b1916179055565b7f994a936646fe87ffe4f1e469d3d6aa417d6b855598397f323de5b449f765f0c38280a280f35b634e487b7160e01b845260418552602484fd5b8590606492519162461bcd60e51b8352820152600d60248201526c20b63932b0b23c9037bbb732b960991b6044820152fd5b8590606492519162461bcd60e51b8352820152600c60248201526b5a65726f206164647265737360a01b6044820152fd5b90503461050c578260031936011261050c5760209250549051908152f35b9190503461050c57602036600319011261050c578282359233825260016020526110a060ff8484205416611c9c565b6110ab841515611d62565b7f00000000000000000000000000000000000000000000000000000000000000006001600160a01b031690813b1561050c57846024849283875195869485936305c2fbcf60e31b85528401525af1801561114657611132575b507fe349d50c3ab0b3bf3b1ae799a3cd33b2993be0c809d854d8dd5c13ed6acd74976020848451908152a180f35b61113b90611d09565b61050c578238611104565b83513d84823e3d90fd5b50503461025657816003193601126102565760209060ff6007541690519015158152f35b90503461050c57602036600319011261050c578160209360ff923581526009855220541690519015158152f35b90503461050c57602036600319011261050c5780359033845260016020526111ce60ff8486205416611c9c565b6107d082116112295791816080927f12c9dccd129ff783f1c8228eacdfa8e334ddecb7ec5c9a79ec662a4aed3d012a9455600d8251928084528301526c7265736572766546656542707360981b60608301526020820152a180f35b606490602084519162461bcd60e51b835282015260076024820152664d61782032302560c81b6044820152fd5b90503461050c57602036600319011261050c578160209360ff92358152600a855220541690519015158152f35b5050346102565781600319360112610256576020906008549051908152f35b5050346102565781600319360112610256576020906006549051908152f35b5050346102565760203660031901126102565760209160ff9082906001600160a01b036112ec611b9e565b1681526001855220541690519015158152f35b505034610256578160031936011261025657517f00000000000000000000000000000000000000000000000000000000000000006001600160a01b03168152602090f35b90503461050c57606036600319011261050c5761135e611b9e565b6001600160a01b03604435818116946024359390929086830361080257338852600160205261139260ff858a205416611c9c565b1693848752600c6020528383882054106113f65750916020916113ee827fde13184e8cbb6eccbcecfc796bf8820e5ffde0534c01b4fabed4b05982964a4495878a52600c8652838a206113e6838254611cfc565b905587613428565b51908152a380f35b606490602084519162461bcd60e51b83528201526014602482015273496e73756666696369656e74207265736572766560601b6044820152fd5b5050346102565781600319360112610256576020905173ec12a9f9a09f50550686363766cc153d03c27b5e8152f35b90503461050c57602036600319011261050c5761147a611b9e565b83546001600160a01b03908116929091338490036115ff5782169283146115bc57828552600193846020526114b460ff8288205416611c9c565b83865260208590528520805460ff1916905584845b6114f7575b85847f58619076adf5bb0943d100ef88d52d7c3fd691b19d3a9071b555b651fbf418da8280a280f35b60028054808310156115b5579084918661151085611c18565b949054600395861b1c16146115315750505061152b90611cd7565b846114c9565b9290949391959650600019928381019081116115a25790610f978561155861156594611c18565b9054908a1b1c1691611c18565b835490811561158f5750019261157a84611c18565b81939154921b1b1916905555803880806114ce565b634e487b7160e01b885260319052602487fd5b634e487b7160e01b895260118352602489fd5b50506114ce565b606490602085519162461bcd60e51b8352820152601b60248201527f43616e6e6f742072656d6f7665207072696d617279206f776e657200000000006044820152fd5b845162461bcd60e51b8152602081840152601260248201527127b7363c90383934b6b0b93c9037bbb732b960711b6044820152606490fd5b90503461050c57602036600319011261050c57359081151580920361050c577f752d7e161ff5146f80e3820893176eb40532811e5e20400dfdde57455213706a916020913385526001835261169160ff8287205416611c9c565b60ff196007541660ff83161760075551908152a180f35b90503461050c57602036600319011261050c5780359033845260016020526116d560ff8486205416611c9c565b603c821061173857507f12c9dccd129ff783f1c8228eacdfa8e334ddecb7ec5c9a79ec662a4aed3d012a91816080926003556014825192808452830152737265696e76657374496e74657276616c5365637360601b60608301526020820152a180f35b606490602084519162461bcd60e51b835282015260076024820152664d696e2036307360c81b6044820152fd5b838334610256576020908160031936011261050c578335903384526001835261179360ff8286205416611c9c565b61179e821515611d62565b805163095ea7b360e01b8086527f00000000000000000000000000000000000000000000000000000000000000006001600160a01b03818116808a52602487815299947f00000000000000000000000000000000000000000000000000000000000000009092169391888a60448180895af19060018b51148216156119b0575b875215611928575b803b1561192457855163534a7e1d60e11b815285810188905289818c8183865af1801561191a57611907575b50879060009087519382528652808b5260448180875af1906001600051148216156118f8575b8552156118ad575b867f38d8c3e304a8001683d048dcc3e1b148be830f6035082131e02a42d24f683dce87878751908152a180f35b6118b78183612077565b156118e4576118c69082612077565b156118d15780611880565b86925191635274afe760e01b8352820152fd5b5086925191635274afe760e01b8352820152fd5b90833b15153d15161690611878565b9861191389929a611d09565b9890611852565b87513d8c823e3d90fd5b8880fd5b6119328385612077565b15611999578551828a52818652878b52888a60448180895af160018b511481161561197a575b818852156119665750611826565b635274afe760e01b81528581018590528a90fd5b600181151661199057853b15153d151616611958565b503d8a823e3d90fd5b50509251635274afe760e01b815291820152859150fd5b90853b15153d1516169061181e565b90503461050c578160031936011261050c576119d9611b9e565b6001600160a01b0360243581811694909391858503611ae25733875260209360018552611a0b60ff848a205416611c9c565b16938151926370a0823160e01b845230818501528484602481895afa938415611ad8578894611aa5575b508315611a6c5750906113ee837fde13184e8cbb6eccbcecfc796bf8820e5ffde0534c01b4fabed4b05982964a4495949387613428565b825162461bcd60e51b815290810185905260136024820152724e6f7468696e6720746f20776974686472617760681b6044820152606490fd5b9093508481813d8311611ad1575b611abd8183611d33565b81010312611acd57519238611a35565b8780fd5b503d611ab3565b83513d8a823e3d90fd5b8680fd5b8490843461050c578260031936011261050c578192610b819160018060a01b0390817f0000000000000000000000000000000000000000000000000000000000000000168352600c6020528083205492827f000000000000000000000000000000000000000000000000000000000000000016815281812054927f0000000000000000000000000000000000000000000000000000000000000000168152205491846040919493926060820195825260208201520152565b600435906001600160a01b038216820361080257565b9181601f840112156108025782359167ffffffffffffffff8311610802576020808501948460051b01011161080257565b6040600319820112610802576004359067ffffffffffffffff821161080257611c1091600401611bb4565b909160243590565b600254811015611c4f5760026000527f405787fa12a823e0f2b7631cc41b3ba8828b3321ca811111fa75cd3aa3bb5ace0190600090565b634e487b7160e01b600052603260045260246000fd5b600b54811015611c4f57600b6000527f0175b7a638427703f0dbe7bb9bbf987a2551717b34e79f33b5b1008d1fa01db90190600090565b15611ca357565b60405162461bcd60e51b815260206004820152600c60248201526b2737ba1030b71037bbb732b960a11b6044820152606490fd5b6000198114611ce65760010190565b634e487b7160e01b600052601160045260246000fd5b91908203918211611ce657565b67ffffffffffffffff8111611d1d57604052565b634e487b7160e01b600052604160045260246000fd5b90601f8019910116810190811067ffffffffffffffff821117611d1d57604052565b91908201809211611ce657565b15611d6957565b60405162461bcd60e51b815260206004820152600b60248201526a16995c9bc8185b5bdd5b9d60aa1b6044820152606490fd5b60006040519263095ea7b360e01b93848352602073ec12a9f9a09f50550686363766cc153d03c27b5e93846004528360245260448180885af190600160005114821615611e98575b60405215611df3575b50505050565b611dfc83611fbb565b15611e77579060209160009160405195835260045260245260448180855af1600160005114811615611e57575b8260405215611e39578080611ded565b635274afe760e01b82526001600160a01b0316600482015260249150fd5b6001811516611e6d57813b15153d151616611e29565b823d6000823e3d90fd5b604051635274afe760e01b81526001600160a01b0384166004820152602490fd5b90843b15153d15161690611de4565b600060206040519163095ea7b360e01b815273ec12a9f9a09f50550686363766cc153d03c27b5e6004528060245260448180865af190600160005114821615611f37575b60405215611ef65750565b611eff81611fbb565b15611f1557611f0d81611fbb565b15611f155750565b604051635274afe760e01b81526001600160a01b039091166004820152602490fd5b90823b15153d15161690611eeb565b600060206040519163095ea7b360e01b815273091ad9e2e6e5ed44c1c66db50e49a601f9f36cf66004528060245260448180865af190600160005114821615611fac575b60405215611f955750565b611f9e8161202c565b15611f1557611f0d8161202c565b90823b15153d15161690611f8a565b9060405160009263095ea7b360e01b845273ec12a9f9a09f50550686363766cc153d03c27b5e6004528360245260208460448180855af1936001815114851615612007575b5050604052565b6001859395151661202257503b15153d151616913880612000565b84903d90823e3d90fd5b9060405160009263095ea7b360e01b845273091ad9e2e6e5ed44c1c66db50e49a601f9f36cf66004528360245260208460448180855af1936001815114851615612007575050604052565b60405163095ea7b360e01b60009081526001600160a01b0390931660045260248390529192919060208460448180855af1936001815114851615612007575050604052565b60405190600b548083528260209182820190600b6000527f0175b7a638427703f0dbe7bb9bbf987a2551717b34e79f33b5b1008d1fa01db9936000905b8282106121115750505061210f92500383611d33565b565b8554845260019586019588955093810193909101906120f9565b9190811015611c4f5760051b0190565b51906001600160a01b038216820361080257565b51908160020b820361080257565b51906001600160801b038216820361080257565b9190826101809103126108025781516bffffffffffffffffffffffff8116810361080257916121a26020820161213b565b916121af6040830161213b565b916121bc6060820161213b565b91608082015162ffffff8116810361080257916121db60a0820161214f565b916121e860c0830161214f565b916121f560e0820161215d565b91610100820151916101208101519161221e610160612217610140850161215d565b930161215d565b90565b519061ffff8216820361080257565b6040805163133f757160e31b81526004810183905261018092838260248173ec12a9f9a09f50550686363766cc153d03c27b5e5afa938415612461576000928390849085938698612427575b50508551630b4c774160e11b81526001600160a01b039586166004820152918516602483015262ffffff166044820152602093908481606481737a5028bda40e7b173c278c5342087826455ea25a5afa9081156123e5579082916000916123f0575b501690816122f0575b50505050505050565b60e0600492875193848092633850c7bd851b82525afa9081156123e557600091612360575b50905060020b9060020b8112159485612351575b505090600a91600052526000209060ff801983541691151516179055388080808080806122e7565b60020b12159350600a38612329565b60e0833d82116123dd575b8161237860e09383611d33565b81010312610256578251908116036104905760c061239786840161214f565b926123a3888201612221565b506123b060608201612221565b506123bd60808201612221565b506123ca60a08201612221565b5001518015150361049057508038612315565b3d915061236b565b86513d6000823e3d90fd5b91508582813d8311612420575b6124078183611d33565b81010312610490575061241a829161213b565b386122de565b503d6123fd565b925092505061244992955062ffffff9350803d1061047f5761045a8183611d33565b5050505050945097945091949091969296903861227c565b83513d6000823e3d90fd5b1561247357565b60405162461bcd60e51b815260206004820152601260248201527110dbdb9d1c9858dd081a5cc81c185d5cd95960721b6044820152606490fd5b604080516370a0823160e01b8082523060048301526020916001600160a01b037f00000000000000000000000000000000000000000000000000000000000000008116926000918584602481885afa938415612678578394612649575b507f000000000000000000000000000000000000000000000000000000000000000016803b1561050c578280916004895180948193636fb01c6f60e01b83525af19081612636575b506125605750505050505050565b8490602487518096819382523060048301525afa90811561262b57906125fc575b61258b9250611cfc565b8015611ded576125ec7fc9ad57538c87a56b42547ba3335109c64ed9619d5cf403928283e46967b80c44947f3648c0bf88f1bc1bff753a51023e66eafbf42f937066e3c6f888e8b8cbdca680848651858152a16125e66120bc565b83612c21565b42600855825191428352820152a1565b508282813d8311612624575b6126128183611d33565b810103126108025761258b9151612581565b503d612608565b8551903d90823e3d90fd5b61264290939193611d09565b9138612552565b9093508581813d8311612671575b6126618183611d33565b8101031261050c5751923861250a565b503d612657565b87513d85823e3d90fd5b7f9b779b17422d0df92223018b32b4d1fa46e071723d6817e2486d003becc55f0060028154146126b25760029055565b604051633ee5aeb560e01b8152600490fd5b90929167ffffffffffffffff8411611d1d578360051b60405192602080946126ee82850182611d33565b809781520191810192831161080257905b82821061270c5750505050565b813581529083019083016126ff565b61272582826129c2565b908115611ded577fc9ad57538c87a56b42547ba3335109c64ed9619d5cf403928283e46967b80c44936125e661275f9260409536916126c4565b426008558151904282526020820152a1565b604080516370a0823160e01b80825230600483015293949193602093916001600160a01b037f00000000000000000000000000000000000000000000000000000000000000008116926000918784602481885afa938415612976578394612993575b507f000000000000000000000000000000000000000000000000000000000000000016803b1561050c57908280899360048c5180948193636fb01c6f60e01b83525af19081612980575b506128d0575b61282d8a876129c2565b50602489518096819382523060048301525afa9081156128c55790612896575b6128579250611cfc565b91821561288e576125e66125ec927fc9ad57538c87a56b42547ba3335109c64ed9619d5cf403928283e46967b80c449736916126c4565b505050505050565b508482813d83116128be575b6128ac8183611d33565b8101031261080257612857915161284d565b503d6128a2565b8751903d90823e3d90fd5b905087518181523060048201528781602481885afa9081156129765788929185918591612940575b509061290391611cfc565b8281612911575b5050612823565b7f3648c0bf88f1bc1bff753a51023e66eafbf42f937066e3c6f888e8b8cbdca680918b51908152a1388261290a565b938092508491503d831161296f575b6129598183611d33565b81010312610802576129038489935190916128f8565b503d61294f565b89513d85823e3d90fd5b61298c90949194611d09565b923861281d565b9093508781813d83116129bb575b6129ab8183611d33565b8101031261050c575192386127d3565b503d6129a1565b91600091600090815b8181106129da57505050909150565b6129e581838861212b565b35808452602060098152604060ff818720541615612bee57805163133f757160e31b81526004808201859052936101809260249273ec12a9f9a09f50550686363766cc153d03c27b5e9085818681855afa958615612be4578b96612bb9575b50508151906080820182811067ffffffffffffffff821117612ba75790839291835284825287820195308752838301906001600160801b038281809452606086019282845287519d8e9763fc6f786560e01b89525190880152600160a01b60019003809b5116908701525116604485015251166064830152818c5a92608493f194858a978b97612b6e575b50612aea575b50505050505050612ae590611cd7565b6129cb565b917fa54e6c2fc0861aa9c991b26891d71059d517983b9e84b91020f42609c452eb9d82612b5998969488612ae59b9f9997955191898352820152a2807f000000000000000000000000000000000000000000000000000000000000000016911614600014612b66575090611d55565b9490388080808080612ad5565b905090611d55565b975095508187813d8111612ba0575b612b878183611d33565b81010312612b9c578087519701519538612acf565b8980fd5b503d612b7d565b634e487b7160e01b8c5260418952858cfd5b612bd0929650803d1061047f5761045a8183611d33565b505050505050505050915050933880612a44565b83513d8d823e3d90fd5b505050612ae590611cd7565b81810292918115918404141715611ce657565b8051821015611c4f5760209160051b010190565b612cb09093929193612cb5612c8a6127109283612c4060045483612bfa565b049060018060a01b037f000000000000000000000000000000000000000000000000000000000000000016600052600c6020526040600020612c83838254611d55565b9055611cfc565b82612c9760055483612bfa565b04938493612ca760065484612bfa565b04938492611cfc565b611cfc565b91838161309d575b90508161304b575b505080151580613041575b612cdb575b50509050565b835193841561302b5760005b815181101561301d57612cfa8183612c0d565b51600052600a60205260ff6040600020541680613012575b612d25575b612d2090611cd7565b612ce7565b612d2f8183612c0d565b519060405163133f757160e31b81528260048201526101808160248173ec12a9f9a09f50550686363766cc153d03c27b5e5afa90811561300657600091612fd9575b507f00000000000000000000000000000000000000000000000000000000000000006001600160a01b039081169116148015612fb2577f0000000000000000000000000000000000000000000000000000000000000000905b15612f8b577f0000000000000000000000000000000000000000000000000000000000000000905b612e078987046001600160a01b038316611d9c565b612e1c8987046001600160a01b038416611d9c565b6040518060c081011067ffffffffffffffff60c083011117611d1d5760c08101604052848152602081018a8804815260408201908b890482526060918284016000815260808501916000835260a08601938d85526040519663219f5d1760e01b88525160048801525160248701525160448601525160648501525160848401525160a4830152808260c481600073ec12a9f9a09f50550686363766cc153d03c27b5e5af1918291600093612f40575b505091612d2095612ef092612efe9594612f05575b50506001600160a01b0316611ea7565b6001600160a01b0316611ea7565b9050612d17565b60207f9204f5f210613c88bbfedbcf63911b917a440c100afc438464fca61b3d9e6cdd916001600160801b0360405191168152a23880612ee0565b9080935081959492953d8311612f84575b612f5b8183611d33565b8101031261080257612d2095612efe94612f77612ef09461215d565b9350919394819750612ecb565b503d612f51565b7f000000000000000000000000000000000000000000000000000000000000000090612df2565b7f000000000000000000000000000000000000000000000000000000000000000090612dca565b612ff491506101803d6101801161047f5761045a8183611d33565b50505050505050505091505038612d71565b6040513d6000823e3d90fd5b508583041515612d12565b505050509050803880612cd5565b634e487b7160e01b600052601260045260246000fd5b5083511515612cd0565b613096917f00000000000000000000000000000000000000000000000000000000000000007f00000000000000000000000000000000000000000000000000000000000000006130ef565b3882612cc5565b6130e8917f00000000000000000000000000000000000000000000000000000000000000007f00000000000000000000000000000000000000000000000000000000000000006130ef565b3883612cbd565b60405163095ea7b360e01b600081815273091ad9e2e6e5ed44c1c66db50e49a601f9f36cf6600452602486905293956001600160a01b03909316949390919060209060448180895af190600160005114821615613419575b60405215613379575b5060405190610100820182811067ffffffffffffffff821117611d1d5760409081528483526001600160a01b038681166020808601918252610bb886850190815230606088019081526080880196875260a08801898152600060c08a0181815260e08b01828152985163414bf38960e01b81529a51881660048c01529551871660248b0152925162ffffff1660448a015290518516606489015295516084880152945160a4870152905160c486015291511660e484015290829061010490829073091ad9e2e6e5ed44c1c66db50e49a601f9f36cf65af160009181613345575b506132ff57503d156132f7573d9267ffffffffffffffff8411611d1d5760405193613265601f8201601f191660200186611d33565b84523d6000602086013e5b61327983611f46565b6040519182526040602083015283519384604084015260005b8581106132e1575050906060817f4a99e9308af0d62abb0e8dd29183f0fb3daeac398042972ca4a5f4c387dbd8ac93600083888401015260018060a01b031695601f80199101168101030190a3565b8060208092840101516060828701015201613292565b606092613270565b7fa078c4190abe07940190effc1846be0ccf03ad6007bc9e93f9697d0b460befbb919360409161332e85611f46565b825195865260208601526001600160a01b031693a3565b90916020823d602011613371575b8161336060209383611d33565b810103126104905750519038613230565b3d9150613353565b6133828461202c565b15613400576020600060405192815273091ad9e2e6e5ed44c1c66db50e49a601f9f36cf66004528460245260448180885af16001600051148116156133e0575b8160405261315057635274afe760e01b815260048101849052602490fd5b60018115166133f657843b15153d1516166133c2565b503d6000823e3d90fd5b604051635274afe760e01b815260048101859052602490fd5b90853b15153d15161690613147565b60405163a9059cbb60e01b60009081526001600160a01b039384166004526024949094529260209060448180855af1600160005114811615613489575b836040521561347357505050565b635274afe760e01b835216600482015260249150fd5b600181151661349f57813b15153d151616613465565b833d6000823e3d90fdfea2646970667358221220bedbf0a3c96e8d629ea7a15560ecdc3932e534f1fccfe8a998f44d953040cc4d64736f6c63430008140033","opcodes":"PUSH2 0x120 CALLVALUE PUSH3 0x25F JUMPI PUSH1 0x1F PUSH3 0x376F CODESIZE DUP2 SWAP1 SUB SWAP2 DUP3 ADD PUSH1 0x1F NOT AND DUP4 ADD SWAP2 PUSH1 0x1 PUSH1 0x1 PUSH1 0x40 SHL SUB DUP4 GT DUP5 DUP5 LT OR PUSH3 0x264 JUMPI DUP1 DUP5 SWAP3 PUSH1 0xA0 SWAP5 PUSH1 0x40 MSTORE DUP4 CODECOPY DUP2 ADD SUB SLT PUSH3 0x25F JUMPI PUSH3 0x4E DUP2 PUSH3 0x27A JUMP JUMPDEST SWAP1 PUSH3 0x5D PUSH1 0x20 DUP3 ADD PUSH3 0x27A JUMP JUMPDEST PUSH3 0x6B PUSH1 0x40 DUP4 ADD PUSH3 0x27A JUMP JUMPDEST SWAP1 PUSH3 0x88 PUSH1 0x80 PUSH3 0x80 PUSH1 0x60 DUP7 ADD PUSH3 0x27A JUMP JUMPDEST SWAP5 ADD PUSH3 0x27A JUMP JUMPDEST SWAP4 PUSH1 0x1 PUSH32 0x9B779B17422D0DF92223018B32B4D1FA46E071723D6817E2486D003BECC55F00 SSTORE PUSH1 0x80 MSTORE PUSH1 0xA0 MSTORE PUSH1 0xC0 MSTORE PUSH1 0xE0 MSTORE PUSH2 0x100 SWAP1 DUP2 MSTORE PUSH1 0x1 DUP1 PUSH1 0xA0 SHL SUB NOT PUSH1 0x0 CALLER DUP3 DUP3 SLOAD AND OR DUP2 SSTORE CALLER DUP2 MSTORE PUSH1 0x1 PUSH1 0x20 MSTORE PUSH1 0x40 DUP2 KECCAK256 PUSH1 0x1 PUSH1 0xFF NOT DUP3 SLOAD AND OR SWAP1 SSTORE PUSH1 0x2 SLOAD SWAP1 PUSH9 0x10000000000000000 DUP3 LT ISZERO PUSH3 0x24B JUMPI PUSH1 0x1 DUP3 ADD DUP1 PUSH1 0x2 SSTORE DUP3 LT ISZERO PUSH3 0x237 JUMPI PUSH1 0x2 SWAP1 MSTORE PUSH32 0x405787FA12A823E0F2B7631CC41B3BA8828B3321CA811111FA75CD3AA3BB5ACE ADD DUP1 SLOAD SWAP1 SWAP2 AND CALLER OR SWAP1 SSTORE PUSH2 0x12C PUSH1 0x3 SSTORE PUSH1 0xC8 PUSH1 0x4 SSTORE PUSH2 0xFA0 PUSH1 0x5 SSTORE PUSH2 0xBB8 PUSH1 0x6 SSTORE PUSH1 0x40 MLOAD PUSH2 0x34DF SWAP2 DUP3 PUSH3 0x290 DUP4 CODECOPY PUSH1 0x80 MLOAD DUP3 DUP2 DUP2 PUSH2 0x525 ADD MSTORE DUP2 DUP2 PUSH2 0x1B0A ADD MSTORE DUP2 DUP2 PUSH2 0x24CF ADD MSTORE DUP2 DUP2 PUSH2 0x2798 ADD MSTORE DUP2 DUP2 PUSH2 0x2B28 ADD MSTORE DUP2 DUP2 PUSH2 0x2C4B ADD MSTORE DUP2 DUP2 PUSH2 0x2D74 ADD MSTORE DUP2 DUP2 PUSH2 0x2DA9 ADD MSTORE DUP2 DUP2 PUSH2 0x2F8D ADD MSTORE DUP2 DUP2 PUSH2 0x3072 ADD MSTORE PUSH2 0x30C4 ADD MSTORE PUSH1 0xA0 MLOAD DUP3 DUP2 DUP2 PUSH2 0x227 ADD MSTORE DUP2 DUP2 PUSH2 0x1B39 ADD MSTORE DUP2 DUP2 PUSH2 0x2DD1 ADD MSTORE DUP2 DUP2 PUSH2 0x2FB4 ADD MSTORE PUSH2 0x30A3 ADD MSTORE PUSH1 0xC0 MLOAD DUP3 DUP2 DUP2 PUSH2 0xC4E ADD MSTORE DUP2 DUP2 PUSH2 0x1B62 ADD MSTORE PUSH2 0x3051 ADD MSTORE PUSH1 0xE0 MLOAD DUP3 DUP2 DUP2 PUSH2 0x1314 ADD MSTORE PUSH2 0x17E3 ADD MSTORE MLOAD DUP2 DUP2 DUP2 PUSH2 0x569 ADD MSTORE DUP2 DUP2 PUSH2 0x795 ADD MSTORE DUP2 DUP2 PUSH2 0xAD8 ADD MSTORE DUP2 DUP2 PUSH2 0xEC9 ADD MSTORE DUP2 DUP2 PUSH2 0x10AD ADD MSTORE DUP2 DUP2 PUSH2 0x17AD ADD MSTORE DUP2 DUP2 PUSH2 0x250D ADD MSTORE PUSH2 0x27D6 ADD MSTORE RETURN JUMPDEST PUSH4 0x4E487B71 PUSH1 0xE0 SHL DUP2 MSTORE PUSH1 0x32 PUSH1 0x4 MSTORE PUSH1 0x24 SWAP1 REVERT JUMPDEST PUSH4 0x4E487B71 PUSH1 0xE0 SHL DUP2 MSTORE PUSH1 0x41 PUSH1 0x4 MSTORE PUSH1 0x24 SWAP1 REVERT JUMPDEST PUSH1 0x0 DUP1 REVERT JUMPDEST PUSH4 0x4E487B71 PUSH1 0xE0 SHL PUSH1 0x0 MSTORE PUSH1 0x41 PUSH1 0x4 MSTORE PUSH1 0x24 PUSH1 0x0 REVERT JUMPDEST MLOAD SWAP1 PUSH1 0x1 PUSH1 0x1 PUSH1 0xA0 SHL SUB DUP3 AND DUP3 SUB PUSH3 0x25F JUMPI JUMP INVALID PUSH1 0x80 PUSH1 0x40 DUP2 DUP2 MSTORE PUSH1 0x4 SWAP2 DUP3 CALLDATASIZE LT ISZERO PUSH2 0x16 JUMPI PUSH1 0x0 DUP1 REVERT JUMPDEST PUSH1 0x0 SWAP3 DUP4 CALLDATALOAD PUSH1 0xE0 SHR SWAP2 DUP3 PUSH4 0x902F1AC EQ PUSH2 0x1AE6 JUMPI POP DUP2 PUSH4 0x9CAE2C8 EQ PUSH2 0x19BF JUMPI DUP2 PUSH4 0xA42F049 EQ PUSH2 0x1765 JUMPI DUP2 PUSH4 0x10A135CA EQ PUSH2 0x16A8 JUMPI DUP2 PUSH4 0x16C38B3C EQ PUSH2 0x1637 JUMPI DUP2 PUSH4 0x173825D9 EQ PUSH2 0x145F JUMPI DUP2 PUSH4 0x1BEA83FE EQ PUSH2 0x1430 JUMPI DUP2 PUSH4 0x1D8D7C66 EQ PUSH2 0x1343 JUMPI DUP2 PUSH4 0x22046088 EQ PUSH2 0x12FF JUMPI DUP2 PUSH4 0x2F54BF6E EQ PUSH2 0x12C1 JUMPI DUP2 PUSH4 0x35E93277 EQ PUSH2 0x12A2 JUMPI DUP2 PUSH4 0x3CD57D61 EQ PUSH2 0x1283 JUMPI DUP2 PUSH4 0x40EC97C6 EQ PUSH2 0x1256 JUMPI DUP2 PUSH4 0x4B41CB27 EQ PUSH2 0x11A1 JUMPI DUP2 PUSH4 0x55B6CCE1 EQ PUSH2 0x1174 JUMPI DUP2 PUSH4 0x5C975ABB EQ PUSH2 0x1150 JUMPI DUP2 PUSH4 0x616E1661 EQ PUSH2 0x1071 JUMPI DUP2 PUSH4 0x65DB6579 EQ PUSH2 0x1053 JUMPI DUP2 PUSH4 0x7065CB48 EQ PUSH2 0xF09 JUMPI DUP2 PUSH4 0x76D3FE8A EQ PUSH2 0xE9B JUMPI DUP2 PUSH4 0x82F8FE78 EQ PUSH2 0xE41 JUMPI DUP2 PUSH4 0x8D0B3C7C EQ PUSH2 0xE0C JUMPI DUP2 PUSH4 0x8D95C2CF EQ PUSH2 0xDD3 JUMPI DUP2 PUSH4 0x8E10BE33 EQ PUSH2 0xDAB JUMPI DUP2 PUSH4 0x8FAD2627 EQ PUSH2 0xD61 JUMPI DUP2 PUSH4 0x98FB86D3 EQ PUSH2 0xD42 JUMPI DUP2 PUSH4 0xA0E67E2B EQ PUSH2 0xC7D JUMPI DUP2 PUSH4 0xACB47670 EQ PUSH2 0xC39 JUMPI DUP2 PUSH4 0xB40CD21D EQ PUSH2 0xAB3 JUMPI DUP2 PUSH4 0xC006EE2D EQ PUSH2 0xA41 JUMPI DUP2 PUSH4 0xC0467422 EQ PUSH2 0x8C7 JUMPI DUP2 PUSH4 0xC3F909D4 EQ PUSH2 0x878 JUMPI DUP2 PUSH4 0xC6005893 EQ PUSH2 0x849 JUMPI DUP2 PUSH4 0xC74C0FAC EQ PUSH2 0x81A JUMPI DUP2 PUSH4 0xCB609064 EQ PUSH2 0x767 JUMPI DUP2 PUSH4 0xCE8021DE EQ PUSH2 0x748 JUMPI DUP2 PUSH4 0xD2D6A872 EQ PUSH2 0x63D JUMPI DUP2 PUSH4 0xD7759E6A EQ PUSH2 0x598 JUMPI DUP2 PUSH4 0xDA19DDFB EQ PUSH2 0x554 JUMPI DUP2 PUSH4 0xDE061D66 EQ PUSH2 0x510 JUMPI DUP2 PUSH4 0xDEF79AB5 EQ PUSH2 0x4CB JUMPI DUP2 PUSH4 0xE75179A4 EQ PUSH2 0x493 JUMPI DUP2 PUSH4 0xEB02C301 EQ PUSH2 0x352 JUMPI DUP2 PUSH4 0xF18DBA26 EQ PUSH2 0x25A JUMPI POP PUSH4 0xFEAA524D EQ PUSH2 0x214 JUMPI PUSH1 0x0 DUP1 REVERT JUMPDEST CALLVALUE PUSH2 0x256 JUMPI DUP2 PUSH1 0x3 NOT CALLDATASIZE ADD SLT PUSH2 0x256 JUMPI MLOAD PUSH32 0x0 PUSH1 0x1 PUSH1 0x1 PUSH1 0xA0 SHL SUB AND DUP2 MSTORE PUSH1 0x20 SWAP1 RETURN JUMPDEST POP DUP1 REVERT JUMPDEST DUP4 SWAP2 POP CALLVALUE PUSH2 0x256 JUMPI DUP3 PUSH1 0x3 NOT CALLDATASIZE ADD SLT PUSH2 0x256 JUMPI DUP1 CALLDATALOAD PUSH1 0x24 CALLDATALOAD SWAP2 CALLER DUP5 MSTORE PUSH1 0x1 PUSH1 0x20 MSTORE PUSH2 0x28A PUSH1 0xFF DUP7 DUP7 KECCAK256 SLOAD AND PUSH2 0x1C9C JUMP JUMPDEST PUSH2 0x2710 PUSH2 0x297 DUP5 DUP5 PUSH2 0x1D55 JUMP JUMPDEST GT PUSH2 0x320 JUMPI POP DUP4 PUSH1 0x80 SWAP3 DUP3 DUP5 SWAP4 PUSH1 0x5 SSTORE DUP2 PUSH1 0x6 SSTORE DUP3 MLOAD SWAP1 DUP4 DUP3 MSTORE PUSH1 0xB DUP5 DUP4 ADD MSTORE PUSH11 0x68326F5368617265427073 PUSH1 0xA8 SHL PUSH1 0x60 DUP4 ADD MSTORE PUSH1 0x20 DUP3 ADD MSTORE PUSH32 0x12C9DCCD129FF783F1C8228EACDFA8E334DDECB7EC5C9A79EC662A4AED3D012A SWAP5 DUP6 SWAP2 LOG1 PUSH1 0xE DUP3 MLOAD SWAP3 DUP1 DUP5 MSTORE DUP4 ADD MSTORE PUSH14 0x62746368326F5368617265427073 PUSH1 0x90 SHL PUSH1 0x60 DUP4 ADD MSTORE PUSH1 0x20 DUP3 ADD MSTORE LOG1 DUP1 RETURN JUMPDEST PUSH1 0x64 SWAP1 PUSH1 0x20 DUP7 MLOAD SWAP2 PUSH3 0x461BCD PUSH1 0xE5 SHL DUP4 MSTORE DUP3 ADD MSTORE PUSH1 0xC PUSH1 0x24 DUP3 ADD MSTORE PUSH12 0x457863656564732031303025 PUSH1 0xA0 SHL PUSH1 0x44 DUP3 ADD MSTORE REVERT JUMPDEST DUP3 DUP5 CALLVALUE PUSH2 0x490 JUMPI PUSH1 0x20 CALLDATASIZE PUSH1 0x3 NOT ADD SLT PUSH2 0x490 JUMPI DUP3 CALLDATALOAD SWAP1 DUP2 DUP4 MLOAD SWAP5 PUSH4 0x133F7571 PUSH1 0xE3 SHL DUP7 MSTORE DUP6 ADD MSTORE PUSH2 0x180 DUP1 DUP6 PUSH1 0x24 DUP2 PUSH20 0xEC12A9F9A09F50550686363766CC153D03C27B5E GAS STATICCALL DUP1 ISZERO PUSH2 0x486 JUMPI PUSH2 0x140 SWAP6 DUP4 SWAP5 DUP5 SWAP7 DUP6 SWAP1 DUP7 SWAP2 DUP8 SWAP4 DUP9 SWAP6 DUP10 SWAP9 DUP11 SWAP9 PUSH2 0x433 JUMPI JUMPDEST POP POP SWAP1 PUSH3 0xFFFFFF SWAP2 DUP10 MSTORE PUSH1 0x9 PUSH1 0x20 MSTORE PUSH1 0xFF DUP4 DUP2 DUP2 DUP13 KECCAK256 SLOAD AND SWAP11 PUSH1 0xA PUSH1 0x20 MSTORE KECCAK256 SLOAD AND SWAP10 DUP4 MLOAD SWAP12 PUSH1 0x1 DUP1 PUSH1 0xA0 SHL SUB DUP1 SWAP3 AND DUP14 MSTORE AND PUSH1 0x20 DUP13 ADD MSTORE AND SWAP1 DUP10 ADD MSTORE PUSH1 0x2 SIGNEXTEND PUSH1 0x60 DUP9 ADD MSTORE PUSH1 0x2 SIGNEXTEND PUSH1 0x80 DUP8 ADD MSTORE PUSH1 0x1 PUSH1 0x1 PUSH1 0x80 SHL SUB SWAP3 DUP4 DUP1 SWAP3 AND PUSH1 0xA0 DUP9 ADD MSTORE AND PUSH1 0xC0 DUP7 ADD MSTORE AND PUSH1 0xE0 DUP5 ADD MSTORE ISZERO ISZERO PUSH2 0x100 DUP4 ADD MSTORE ISZERO ISZERO PUSH2 0x120 DUP3 ADD MSTORE RETURN JUMPDEST SWAP6 POP SWAP6 POP SWAP7 POP POP SWAP8 POP POP PUSH3 0xFFFFFF SWAP6 POP PUSH2 0x462 SWAP3 POP DUP1 RETURNDATASIZE LT PUSH2 0x47F JUMPI JUMPDEST PUSH2 0x45A DUP2 DUP4 PUSH2 0x1D33 JUMP JUMPDEST DUP2 ADD SWAP1 PUSH2 0x2171 JUMP JUMPDEST SWAP8 SWAP15 SWAP9 SWAP14 SWAP1 SWAP12 SWAP8 SWAP11 POP SWAP3 SWAP9 POP SWAP3 SWAP7 SWAP4 SWAP6 SWAP4 SWAP5 SWAP4 SWAP3 POP DUP15 SWAP1 POP PUSH2 0x3B7 JUMP JUMPDEST POP RETURNDATASIZE PUSH2 0x450 JUMP JUMPDEST DUP5 MLOAD RETURNDATASIZE DUP5 DUP3 RETURNDATACOPY RETURNDATASIZE SWAP1 REVERT JUMPDEST DUP1 REVERT JUMPDEST POP POP CALLVALUE PUSH2 0x256 JUMPI PUSH1 0x20 CALLDATASIZE PUSH1 0x3 NOT ADD SLT PUSH2 0x256 JUMPI PUSH1 0x20 SWAP2 DUP2 SWAP1 PUSH1 0x1 PUSH1 0x1 PUSH1 0xA0 SHL SUB PUSH2 0x4BB PUSH2 0x1B9E JUMP JUMPDEST AND DUP2 MSTORE PUSH1 0xC DUP5 MSTORE KECCAK256 SLOAD SWAP1 MLOAD SWAP1 DUP2 MSTORE RETURN JUMPDEST SWAP1 POP CALLVALUE PUSH2 0x50C JUMPI PUSH1 0x20 CALLDATASIZE PUSH1 0x3 NOT ADD SLT PUSH2 0x50C JUMPI CALLDATALOAD SWAP2 PUSH1 0x2 SLOAD DUP4 LT ISZERO PUSH2 0x490 JUMPI POP PUSH2 0x4F6 PUSH1 0x20 SWAP3 PUSH2 0x1C18 JUMP JUMPDEST SWAP1 SLOAD SWAP2 MLOAD SWAP2 PUSH1 0x1 DUP1 PUSH1 0xA0 SHL SUB SWAP2 PUSH1 0x3 SHL SHR AND DUP2 MSTORE RETURN JUMPDEST DUP3 DUP1 REVERT JUMPDEST POP POP CALLVALUE PUSH2 0x256 JUMPI DUP2 PUSH1 0x3 NOT CALLDATASIZE ADD SLT PUSH2 0x256 JUMPI MLOAD PUSH32 0x0 PUSH1 0x1 PUSH1 0x1 PUSH1 0xA0 SHL SUB AND DUP2 MSTORE PUSH1 0x20 SWAP1 RETURN JUMPDEST POP POP CALLVALUE PUSH2 0x256 JUMPI DUP2 PUSH1 0x3 NOT CALLDATASIZE ADD SLT PUSH2 0x256 JUMPI MLOAD PUSH32 0x0 PUSH1 0x1 PUSH1 0x1 PUSH1 0xA0 SHL SUB AND DUP2 MSTORE PUSH1 0x20 SWAP1 RETURN JUMPDEST SWAP2 SWAP1 POP CALLVALUE PUSH2 0x50C JUMPI PUSH1 0x20 SWAP2 DUP3 PUSH1 0x3 NOT CALLDATASIZE ADD SLT PUSH2 0x639 JUMPI DUP1 CALLDATALOAD SWAP1 PUSH8 0xFFFFFFFFFFFFFFFF DUP3 GT PUSH2 0x635 JUMPI PUSH2 0x5CC SWAP2 CALLDATASIZE SWAP2 ADD PUSH2 0x1BB4 JUMP JUMPDEST SWAP2 CALLER DUP6 MSTORE PUSH1 0x1 DUP5 MSTORE PUSH1 0xFF SWAP1 PUSH2 0x5E5 DUP3 DUP3 DUP9 KECCAK256 SLOAD AND PUSH2 0x1C9C JUMP JUMPDEST DUP6 JUMPDEST DUP5 DUP2 LT PUSH2 0x5F2 JUMPI DUP7 DUP1 RETURN JUMPDEST DUP1 PUSH2 0x601 PUSH2 0x617 SWAP3 DUP8 DUP8 PUSH2 0x212B JUMP JUMPDEST CALLDATALOAD DUP9 MSTORE PUSH1 0x9 DUP8 MSTORE DUP4 DUP4 DUP10 KECCAK256 SLOAD AND PUSH2 0x61C JUMPI PUSH2 0x1CD7 JUMP JUMPDEST PUSH2 0x5E7 JUMP JUMPDEST PUSH2 0x630 PUSH2 0x62A DUP3 DUP9 DUP9 PUSH2 0x212B JUMP JUMPDEST CALLDATALOAD PUSH2 0x2230 JUMP JUMPDEST PUSH2 0x1CD7 JUMP JUMPDEST DUP5 DUP1 REVERT JUMPDEST DUP4 DUP1 REVERT JUMPDEST SWAP2 SWAP1 POP CALLVALUE PUSH2 0x50C JUMPI PUSH1 0x20 CALLDATASIZE PUSH1 0x3 NOT ADD SLT PUSH2 0x50C JUMPI DUP2 CALLDATALOAD SWAP2 CALLER DUP5 MSTORE PUSH1 0x1 PUSH1 0x20 MSTORE PUSH2 0x66B PUSH1 0xFF DUP4 DUP7 KECCAK256 SLOAD AND PUSH2 0x1C9C JUMP JUMPDEST DUP3 DUP5 MSTORE PUSH1 0x9 PUSH1 0x20 MSTORE PUSH1 0xFF DUP3 DUP6 KECCAK256 SLOAD AND PUSH2 0x714 JUMPI PUSH1 0xB SLOAD SWAP1 PUSH1 0x1 PUSH1 0x40 SHL DUP3 LT ISZERO PUSH2 0x701 JUMPI POP DUP3 PUSH2 0x6A3 DUP3 PUSH1 0x1 PUSH2 0x6BC SWAP5 ADD PUSH1 0xB SSTORE PUSH2 0x1C65 JUMP JUMPDEST SWAP1 SWAP2 SWAP1 DUP3 SLOAD SWAP1 PUSH1 0x3 SHL SWAP2 DUP3 SHL SWAP2 PUSH1 0x0 NOT SWAP1 SHL NOT AND OR SWAP1 SSTORE JUMP JUMPDEST DUP2 DUP4 MSTORE PUSH1 0x9 PUSH1 0x20 MSTORE DUP3 KECCAK256 DUP1 SLOAD PUSH1 0xFF NOT AND PUSH1 0x1 OR SWAP1 SSTORE PUSH2 0x6DA DUP2 PUSH2 0x2230 JUMP JUMPDEST PUSH32 0x3D0A2B1C6F8E72F333688E33B7FC1767F042D33EAEF1D3B5DB5968567033E91F DUP3 DUP1 LOG2 DUP1 RETURN JUMPDEST PUSH4 0x4E487B71 PUSH1 0xE0 SHL DUP6 MSTORE PUSH1 0x41 SWAP1 MSTORE PUSH1 0x24 DUP5 REVERT JUMPDEST PUSH1 0x20 PUSH1 0x64 SWAP3 MLOAD SWAP2 PUSH3 0x461BCD PUSH1 0xE5 SHL DUP4 MSTORE DUP3 ADD MSTORE PUSH1 0xF PUSH1 0x24 DUP3 ADD MSTORE PUSH15 0x105B1C9958591E481B585B9859D959 PUSH1 0x8A SHL PUSH1 0x44 DUP3 ADD MSTORE REVERT JUMPDEST POP POP CALLVALUE PUSH2 0x256 JUMPI DUP2 PUSH1 0x3 NOT CALLDATASIZE ADD SLT PUSH2 0x256 JUMPI PUSH1 0x20 SWAP1 PUSH1 0x3 SLOAD SWAP1 MLOAD SWAP1 DUP2 MSTORE RETURN JUMPDEST DUP4 DUP4 CALLVALUE PUSH2 0x256 JUMPI DUP2 PUSH1 0x3 NOT CALLDATASIZE ADD SLT PUSH2 0x256 JUMPI DUP1 MLOAD PUSH4 0x3111B0D1 PUSH1 0xE2 SHL DUP2 MSTORE ADDRESS SWAP4 DUP2 ADD SWAP4 SWAP1 SWAP4 MSTORE PUSH1 0x20 DUP4 PUSH1 0x24 DUP2 PUSH32 0x0 PUSH1 0x1 PUSH1 0x1 PUSH1 0xA0 SHL SUB AND GAS STATICCALL SWAP2 DUP3 ISZERO PUSH2 0x80F JUMPI SWAP2 PUSH2 0x7D6 JUMPI JUMPDEST PUSH1 0x20 SWAP3 POP MLOAD SWAP1 DUP2 MSTORE RETURN JUMPDEST SWAP1 POP PUSH1 0x20 DUP3 RETURNDATASIZE DUP3 GT PUSH2 0x807 JUMPI JUMPDEST DUP2 PUSH2 0x7F0 PUSH1 0x20 SWAP4 DUP4 PUSH2 0x1D33 JUMP JUMPDEST DUP2 ADD SUB SLT PUSH2 0x802 JUMPI PUSH1 0x20 SWAP2 MLOAD SWAP1 PUSH2 0x7CC JUMP JUMPDEST PUSH1 0x0 DUP1 REVERT JUMPDEST RETURNDATASIZE SWAP2 POP PUSH2 0x7E3 JUMP JUMPDEST SWAP1 MLOAD SWAP1 RETURNDATASIZE SWAP1 DUP3 RETURNDATACOPY RETURNDATASIZE SWAP1 REVERT JUMPDEST POP POP CALLVALUE PUSH2 0x256 JUMPI DUP2 PUSH1 0x3 NOT CALLDATASIZE ADD SLT PUSH2 0x256 JUMPI PUSH1 0x20 SWAP1 MLOAD PUSH20 0x7A5028BDA40E7B173C278C5342087826455EA25A DUP2 MSTORE RETURN JUMPDEST POP POP CALLVALUE PUSH2 0x256 JUMPI DUP2 PUSH1 0x3 NOT CALLDATASIZE ADD SLT PUSH2 0x256 JUMPI PUSH1 0x20 SWAP1 MLOAD PUSH20 0x91AD9E2E6E5ED44C1C66DB50E49A601F9F36CF6 DUP2 MSTORE RETURN JUMPDEST SWAP2 SWAP1 POP CALLVALUE PUSH2 0x50C JUMPI DUP3 PUSH1 0x3 NOT CALLDATASIZE ADD SLT PUSH2 0x50C JUMPI PUSH1 0xC0 SWAP3 POP PUSH1 0x3 SLOAD SWAP2 SLOAD SWAP1 PUSH1 0x5 SLOAD PUSH1 0x6 SLOAD SWAP1 PUSH1 0xFF PUSH1 0x7 SLOAD AND SWAP3 PUSH1 0x8 SLOAD SWAP5 DUP2 MLOAD SWAP7 DUP8 MSTORE PUSH1 0x20 DUP8 ADD MSTORE DUP6 ADD MSTORE PUSH1 0x60 DUP5 ADD MSTORE ISZERO ISZERO PUSH1 0x80 DUP4 ADD MSTORE PUSH1 0xA0 DUP3 ADD MSTORE RETURN JUMPDEST SWAP1 POP CALLVALUE PUSH2 0x50C JUMPI PUSH1 0x20 CALLDATASIZE PUSH1 0x3 NOT ADD SLT PUSH2 0x50C JUMPI DUP1 CALLDATALOAD SWAP2 CALLER DUP5 MSTORE PUSH1 0x1 SWAP1 DUP2 PUSH1 0x20 MSTORE PUSH2 0x8F6 PUSH1 0xFF DUP3 DUP8 KECCAK256 SLOAD AND PUSH2 0x1C9C JUMP JUMPDEST DUP4 DUP6 MSTORE PUSH1 0x9 PUSH1 0x20 MSTORE PUSH1 0xFF DUP2 DUP7 KECCAK256 SLOAD AND ISZERO PUSH2 0xA11 JUMPI DUP4 DUP6 MSTORE PUSH1 0x9 PUSH1 0x20 MSTORE DUP5 KECCAK256 DUP1 SLOAD PUSH1 0xFF NOT AND SWAP1 SSTORE DUP3 SWAP2 SWAP1 DUP5 DUP2 JUMPDEST PUSH2 0x950 JUMPI JUMPDEST DUP6 DUP5 PUSH32 0x8DAB17171CEB83ACCA6E0D86E9C8B6D3F2EEC3A1EC6A5A2F9A3F1B7E17AD1035 DUP3 DUP1 LOG2 DUP1 RETURN JUMPDEST PUSH1 0xB DUP1 SLOAD DUP1 DUP4 LT ISZERO PUSH2 0xA0A JUMPI PUSH2 0x965 DUP4 PUSH2 0x1C65 JUMP JUMPDEST SWAP7 SWAP1 SLOAD PUSH1 0x3 SWAP8 DUP9 SHL SHR EQ PUSH2 0x98B JUMPI POP POP PUSH2 0x981 SWAP2 SWAP3 SWAP4 POP PUSH2 0x1CD7 JUMP JUMPDEST SWAP1 DUP4 SWAP3 SWAP2 DUP2 PUSH2 0x922 JUMP JUMPDEST SWAP3 POP SWAP3 SWAP1 PUSH1 0x0 NOT SWAP3 DUP4 DUP2 ADD SWAP1 DUP2 GT PUSH2 0x9F7 JUMPI SWAP1 PUSH2 0x6A3 PUSH2 0x9AD PUSH2 0x9B9 SWAP4 PUSH2 0x1C65 JUMP JUMPDEST SWAP1 SLOAD SWAP1 DUP9 SHL SHR SWAP2 PUSH2 0x1C65 JUMP JUMPDEST DUP3 SLOAD SWAP1 DUP2 ISZERO PUSH2 0x9E4 JUMPI POP DUP2 ADD SWAP3 PUSH2 0x9CF DUP5 PUSH2 0x1C65 JUMP JUMPDEST DUP2 SWAP4 SWAP2 SLOAD SWAP3 SHL SHL NOT AND SWAP1 SSTORE SSTORE DUP1 CODESIZE DUP1 DUP1 PUSH2 0x927 JUMP JUMPDEST PUSH4 0x4E487B71 PUSH1 0xE0 SHL DUP8 MSTORE PUSH1 0x31 SWAP1 MSTORE PUSH1 0x24 DUP7 REVERT JUMPDEST PUSH4 0x4E487B71 PUSH1 0xE0 SHL DUP9 MSTORE PUSH1 0x11 DUP4 MSTORE PUSH1 0x24 DUP9 REVERT JUMPDEST POP POP PUSH2 0x927 JUMP JUMPDEST MLOAD PUSH3 0x461BCD PUSH1 0xE5 SHL DUP2 MSTORE PUSH1 0x20 DUP2 DUP5 ADD MSTORE PUSH1 0xB PUSH1 0x24 DUP3 ADD MSTORE PUSH11 0x139BDD081B585B9859D959 PUSH1 0xAA SHL PUSH1 0x44 DUP3 ADD MSTORE PUSH1 0x64 SWAP1 REVERT JUMPDEST POP POP CALLVALUE PUSH2 0x256 JUMPI PUSH2 0xA70 PUSH2 0xA8C SWAP2 PUSH1 0xFF PUSH2 0xA5A CALLDATASIZE PUSH2 0x1BE5 JUMP JUMPDEST SWAP5 SWAP2 SWAP3 SWAP1 SWAP4 CALLER DUP9 MSTORE PUSH1 0x1 PUSH1 0x20 MSTORE DUP8 KECCAK256 SLOAD AND PUSH2 0x1C9C JUMP JUMPDEST PUSH2 0xA7F PUSH1 0xFF PUSH1 0x7 SLOAD AND ISZERO PUSH2 0x246C JUMP JUMPDEST PUSH2 0xA87 PUSH2 0x2682 JUMP JUMPDEST PUSH2 0x271B JUMP JUMPDEST PUSH1 0x1 PUSH32 0x9B779B17422D0DF92223018B32B4D1FA46E071723D6817E2486D003BECC55F00 SSTORE DUP1 RETURN JUMPDEST SWAP1 POP CALLVALUE PUSH2 0x50C JUMPI DUP3 PUSH1 0x3 NOT CALLDATASIZE ADD SLT PUSH2 0x50C JUMPI DUP2 MLOAD PUSH4 0x60217267 PUSH1 0xE0 SHL DUP2 MSTORE ADDRESS DUP3 DUP3 ADD MSTORE PUSH32 0x0 PUSH1 0x1 PUSH1 0x1 PUSH1 0xA0 SHL SUB AND SWAP4 SWAP1 SWAP3 PUSH1 0x20 DUP1 DUP6 PUSH1 0x24 DUP2 DUP10 GAS STATICCALL SWAP5 DUP6 ISZERO PUSH2 0xC2D JUMPI DUP4 SWAP6 PUSH2 0xBFE JUMPI JUMPDEST POP DUP2 MLOAD PUSH4 0x3111B0D1 PUSH1 0xE2 SHL DUP2 MSTORE ADDRESS DUP6 DUP3 ADD MSTORE SWAP6 DUP2 DUP8 PUSH1 0x24 DUP2 DUP5 GAS STATICCALL SWAP7 DUP8 ISZERO PUSH2 0xBF1 JUMPI DUP5 SWAP8 PUSH2 0xBC2 JUMPI JUMPDEST POP DUP2 SWAP1 DUP4 MLOAD SWAP6 DUP7 DUP1 SWAP3 PUSH4 0x40BD8E69 PUSH1 0xE1 SHL DUP3 MSTORE GAS STATICCALL SWAP3 DUP4 ISZERO PUSH2 0xBB7 JUMPI SWAP3 PUSH2 0xB85 JUMPI JUMPDEST POP MLOAD SWAP3 DUP4 MSTORE PUSH1 0x20 DUP4 ADD SWAP4 SWAP1 SWAP4 MSTORE POP PUSH1 0x40 DUP2 ADD SWAP2 SWAP1 SWAP2 MSTORE PUSH1 0x60 SWAP1 RETURN JUMPDEST SUB SWAP1 RETURN JUMPDEST SWAP1 SWAP2 POP DUP3 DUP2 RETURNDATASIZE DUP4 GT PUSH2 0xBB0 JUMPI JUMPDEST PUSH2 0xB9C DUP2 DUP4 PUSH2 0x1D33 JUMP JUMPDEST DUP2 ADD SUB SLT PUSH2 0x802 JUMPI PUSH2 0xB81 SWAP2 MLOAD SWAP1 CODESIZE PUSH2 0xB66 JUMP JUMPDEST POP RETURNDATASIZE PUSH2 0xB92 JUMP JUMPDEST DUP3 MLOAD SWAP1 RETURNDATASIZE SWAP1 DUP3 RETURNDATACOPY RETURNDATASIZE SWAP1 REVERT JUMPDEST SWAP1 SWAP7 POP DUP2 DUP2 DUP2 RETURNDATASIZE DUP4 GT PUSH2 0xBEA JUMPI JUMPDEST PUSH2 0xBDA DUP2 DUP4 PUSH2 0x1D33 JUMP JUMPDEST DUP2 ADD SUB SLT PUSH2 0x802 JUMPI MLOAD SWAP6 DUP2 PUSH2 0xB44 JUMP JUMPDEST POP RETURNDATASIZE PUSH2 0xBD0 JUMP JUMPDEST POP POP POP MLOAD SWAP1 RETURNDATASIZE SWAP1 DUP3 RETURNDATACOPY RETURNDATASIZE SWAP1 REVERT JUMPDEST SWAP1 DUP1 SWAP6 POP DUP2 DUP2 RETURNDATASIZE DUP4 GT PUSH2 0xC26 JUMPI JUMPDEST PUSH2 0xC16 DUP2 DUP4 PUSH2 0x1D33 JUMP JUMPDEST DUP2 ADD SUB SLT PUSH2 0x802 JUMPI MLOAD SWAP4 CODESIZE PUSH2 0xB1B JUMP JUMPDEST POP RETURNDATASIZE PUSH2 0xC0C JUMP JUMPDEST POP POP MLOAD SWAP1 RETURNDATASIZE SWAP1 DUP3 RETURNDATACOPY RETURNDATASIZE SWAP1 REVERT JUMPDEST POP POP CALLVALUE PUSH2 0x256 JUMPI DUP2 PUSH1 0x3 NOT CALLDATASIZE ADD SLT PUSH2 0x256 JUMPI MLOAD PUSH32 0x0 PUSH1 0x1 PUSH1 0x1 PUSH1 0xA0 SHL SUB AND DUP2 MSTORE PUSH1 0x20 SWAP1 RETURN JUMPDEST DUP3 DUP5 CALLVALUE PUSH2 0x490 JUMPI DUP1 PUSH1 0x3 NOT CALLDATASIZE ADD SLT PUSH2 0x490 JUMPI SWAP1 DUP1 MLOAD SWAP2 DUP3 SWAP1 PUSH1 0x2 SLOAD SWAP2 DUP3 DUP6 MSTORE PUSH1 0x20 DUP1 SWAP6 ADD DUP1 SWAP4 PUSH1 0x2 DUP5 MSTORE PUSH32 0x405787FA12A823E0F2B7631CC41B3BA8828B3321CA811111FA75CD3AA3BB5ACE SWAP1 DUP5 JUMPDEST DUP2 DUP2 LT PUSH2 0xD25 JUMPI POP POP POP DUP2 PUSH2 0xCE1 SWAP2 SUB DUP3 PUSH2 0x1D33 JUMP JUMPDEST DUP4 MLOAD SWAP5 DUP6 SWAP5 DUP2 DUP7 ADD SWAP3 DUP3 DUP8 MSTORE MLOAD DUP1 SWAP4 MSTORE DUP6 ADD SWAP4 SWAP3 JUMPDEST DUP3 DUP2 LT PUSH2 0xD05 JUMPI POP POP POP POP SUB SWAP1 RETURN JUMPDEST DUP4 MLOAD PUSH1 0x1 PUSH1 0x1 PUSH1 0xA0 SHL SUB AND DUP6 MSTORE DUP7 SWAP6 POP SWAP4 DUP2 ADD SWAP4 SWAP3 DUP2 ADD SWAP3 PUSH1 0x1 ADD PUSH2 0xCF6 JUMP JUMPDEST DUP3 SLOAD PUSH1 0x1 PUSH1 0x1 PUSH1 0xA0 SHL SUB AND DUP5 MSTORE SWAP3 DUP9 ADD SWAP3 PUSH1 0x1 SWAP3 DUP4 ADD SWAP3 ADD PUSH2 0xCCB JUMP JUMPDEST POP POP CALLVALUE PUSH2 0x256 JUMPI DUP2 PUSH1 0x3 NOT CALLDATASIZE ADD SLT PUSH2 0x256 JUMPI PUSH1 0x20 SWAP1 PUSH1 0x5 SLOAD SWAP1 MLOAD SWAP1 DUP2 MSTORE RETURN JUMPDEST SWAP1 POP CALLVALUE PUSH2 0x50C JUMPI PUSH1 0x20 CALLDATASIZE PUSH1 0x3 NOT ADD SLT PUSH2 0x50C JUMPI PUSH2 0xD8E PUSH1 0xFF PUSH2 0xA8C SWAP4 CALLER DUP7 MSTORE PUSH1 0x1 PUSH1 0x20 MSTORE DUP6 KECCAK256 SLOAD AND PUSH2 0x1C9C JUMP JUMPDEST PUSH2 0xD9D PUSH1 0xFF PUSH1 0x7 SLOAD AND ISZERO PUSH2 0x246C JUMP JUMPDEST PUSH2 0xDA5 PUSH2 0x2682 JUMP JUMPDEST CALLDATALOAD PUSH2 0x24AD JUMP JUMPDEST POP POP CALLVALUE PUSH2 0x256 JUMPI DUP2 PUSH1 0x3 NOT CALLDATASIZE ADD SLT PUSH2 0x256 JUMPI SWAP1 SLOAD SWAP1 MLOAD PUSH1 0x1 PUSH1 0x1 PUSH1 0xA0 SHL SUB SWAP1 SWAP2 AND DUP2 MSTORE PUSH1 0x20 SWAP1 RETURN JUMPDEST SWAP1 POP CALLVALUE PUSH2 0x50C JUMPI PUSH1 0x20 CALLDATASIZE PUSH1 0x3 NOT ADD SLT PUSH2 0x50C JUMPI CALLDATALOAD SWAP2 PUSH1 0xB SLOAD DUP4 LT ISZERO PUSH2 0x490 JUMPI POP PUSH2 0xDFE PUSH1 0x20 SWAP3 PUSH2 0x1C65 JUMP JUMPDEST SWAP2 SWAP1 SLOAD SWAP1 MLOAD SWAP2 PUSH1 0x3 SHL SHR DUP2 MSTORE RETURN JUMPDEST POP POP CALLVALUE PUSH2 0x256 JUMPI PUSH2 0xE25 PUSH2 0xA8C SWAP2 PUSH1 0xFF PUSH2 0xA5A CALLDATASIZE PUSH2 0x1BE5 JUMP JUMPDEST PUSH2 0xE34 PUSH1 0xFF PUSH1 0x7 SLOAD AND ISZERO PUSH2 0x246C JUMP JUMPDEST PUSH2 0xE3C PUSH2 0x2682 JUMP JUMPDEST PUSH2 0x2771 JUMP JUMPDEST POP POP CALLVALUE PUSH2 0x256 JUMPI DUP2 PUSH1 0x3 NOT CALLDATASIZE ADD SLT PUSH2 0x256 JUMPI PUSH2 0xE5B PUSH2 0x20BC JUMP JUMPDEST DUP2 MLOAD SWAP3 DUP4 SWAP3 PUSH1 0x20 DUP1 DUP1 DUP7 ADD SWAP3 DUP2 DUP8 MSTORE DUP6 MLOAD DUP1 SWAP5 MSTORE DUP7 ADD SWAP5 ADD SWAP3 JUMPDEST DUP3 DUP2 LT PUSH2 0xE84 JUMPI POP POP POP POP SUB SWAP1 RETURN JUMPDEST DUP4 MLOAD DUP6 MSTORE DUP7 SWAP6 POP SWAP4 DUP2 ADD SWAP4 SWAP3 DUP2 ADD SWAP3 PUSH1 0x1 ADD PUSH2 0xE75 JUMP JUMPDEST DUP4 DUP4 CALLVALUE PUSH2 0x256 JUMPI DUP2 PUSH1 0x3 NOT CALLDATASIZE ADD SLT PUSH2 0x256 JUMPI DUP1 MLOAD PUSH4 0x60217267 PUSH1 0xE0 SHL DUP2 MSTORE ADDRESS SWAP4 DUP2 ADD SWAP4 SWAP1 SWAP4 MSTORE PUSH1 0x20 DUP4 PUSH1 0x24 DUP2 PUSH32 0x0 PUSH1 0x1 PUSH1 0x1 PUSH1 0xA0 SHL SUB AND GAS STATICCALL SWAP2 DUP3 ISZERO PUSH2 0x80F JUMPI SWAP2 PUSH2 0x7D6 JUMPI PUSH1 0x20 SWAP3 POP MLOAD SWAP1 DUP2 MSTORE RETURN JUMPDEST DUP4 DUP4 CALLVALUE PUSH2 0x256 JUMPI PUSH1 0x20 SWAP1 DUP2 PUSH1 0x3 NOT CALLDATASIZE ADD SLT PUSH2 0x50C JUMPI PUSH2 0xF26 PUSH2 0x1B9E JUMP JUMPDEST SWAP1 CALLER DUP5 MSTORE PUSH1 0x1 DUP4 MSTORE PUSH2 0xF3D PUSH1 0xFF DUP3 DUP7 KECCAK256 SLOAD AND PUSH2 0x1C9C JUMP JUMPDEST PUSH1 0x1 PUSH1 0x1 PUSH1 0xA0 SHL SUB DUP3 AND SWAP3 DUP4 ISZERO PUSH2 0x1022 JUMPI DUP4 DUP6 MSTORE PUSH1 0x1 DUP2 MSTORE PUSH1 0xFF DUP3 DUP7 KECCAK256 SLOAD AND PUSH2 0xFF0 JUMPI PUSH1 0x1 SWAP1 DUP5 DUP7 MSTORE MSTORE DUP4 KECCAK256 PUSH1 0x1 PUSH1 0xFF NOT DUP3 SLOAD AND OR SWAP1 SSTORE PUSH1 0x2 SLOAD PUSH1 0x1 PUSH1 0x40 SHL DUP2 LT ISZERO PUSH2 0xFDD JUMPI SWAP1 PUSH2 0xF97 DUP3 PUSH1 0x1 PUSH2 0xFB6 SWAP5 ADD PUSH1 0x2 SSTORE PUSH2 0x1C18 JUMP JUMPDEST SWAP1 SWAP2 SWAP1 DUP3 SLOAD SWAP1 PUSH1 0x3 SHL SWAP2 PUSH1 0x1 DUP1 PUSH1 0xA0 SHL SUB DUP1 SWAP2 AND DUP4 SHL SWAP3 SHL NOT AND OR SWAP1 SSTORE JUMP JUMPDEST PUSH32 0x994A936646FE87FFE4F1E469D3D6AA417D6B855598397F323DE5B449F765F0C3 DUP3 DUP1 LOG2 DUP1 RETURN JUMPDEST PUSH4 0x4E487B71 PUSH1 0xE0 SHL DUP5 MSTORE PUSH1 0x41 DUP6 MSTORE PUSH1 0x24 DUP5 REVERT JUMPDEST DUP6 SWAP1 PUSH1 0x64 SWAP3 MLOAD SWAP2 PUSH3 0x461BCD PUSH1 0xE5 SHL DUP4 MSTORE DUP3 ADD MSTORE PUSH1 0xD PUSH1 0x24 DUP3 ADD MSTORE PUSH13 0x20B63932B0B23C9037BBB732B9 PUSH1 0x99 SHL PUSH1 0x44 DUP3 ADD MSTORE REVERT JUMPDEST DUP6 SWAP1 PUSH1 0x64 SWAP3 MLOAD SWAP2 PUSH3 0x461BCD PUSH1 0xE5 SHL DUP4 MSTORE DUP3 ADD MSTORE PUSH1 0xC PUSH1 0x24 DUP3 ADD MSTORE PUSH12 0x5A65726F2061646472657373 PUSH1 0xA0 SHL PUSH1 0x44 DUP3 ADD MSTORE REVERT JUMPDEST SWAP1 POP CALLVALUE PUSH2 0x50C JUMPI DUP3 PUSH1 0x3 NOT CALLDATASIZE ADD SLT PUSH2 0x50C JUMPI PUSH1 0x20 SWAP3 POP SLOAD SWAP1 MLOAD SWAP1 DUP2 MSTORE RETURN JUMPDEST SWAP2 SWAP1 POP CALLVALUE PUSH2 0x50C JUMPI PUSH1 0x20 CALLDATASIZE PUSH1 0x3 NOT ADD SLT PUSH2 0x50C JUMPI DUP3 DUP3 CALLDATALOAD SWAP3 CALLER DUP3 MSTORE PUSH1 0x1 PUSH1 0x20 MSTORE PUSH2 0x10A0 PUSH1 0xFF DUP5 DUP5 KECCAK256 SLOAD AND PUSH2 0x1C9C JUMP JUMPDEST PUSH2 0x10AB DUP5 ISZERO ISZERO PUSH2 0x1D62 JUMP JUMPDEST PUSH32 0x0 PUSH1 0x1 PUSH1 0x1 PUSH1 0xA0 SHL SUB AND SWAP1 DUP2 EXTCODESIZE ISZERO PUSH2 0x50C JUMPI DUP5 PUSH1 0x24 DUP5 SWAP3 DUP4 DUP8 MLOAD SWAP6 DUP7 SWAP5 DUP6 SWAP4 PUSH4 0x5C2FBCF PUSH1 0xE3 SHL DUP6 MSTORE DUP5 ADD MSTORE GAS CALL DUP1 ISZERO PUSH2 0x1146 JUMPI PUSH2 0x1132 JUMPI JUMPDEST POP PUSH32 0xE349D50C3AB0B3BF3B1AE799A3CD33B2993BE0C809D854D8DD5C13ED6ACD7497 PUSH1 0x20 DUP5 DUP5 MLOAD SWAP1 DUP2 MSTORE LOG1 DUP1 RETURN JUMPDEST PUSH2 0x113B SWAP1 PUSH2 0x1D09 JUMP JUMPDEST PUSH2 0x50C JUMPI DUP3 CODESIZE PUSH2 0x1104 JUMP JUMPDEST DUP4 MLOAD RETURNDATASIZE DUP5 DUP3 RETURNDATACOPY RETURNDATASIZE SWAP1 REVERT JUMPDEST POP POP CALLVALUE PUSH2 0x256 JUMPI DUP2 PUSH1 0x3 NOT CALLDATASIZE ADD SLT PUSH2 0x256 JUMPI PUSH1 0x20 SWAP1 PUSH1 0xFF PUSH1 0x7 SLOAD AND SWAP1 MLOAD SWAP1 ISZERO ISZERO DUP2 MSTORE RETURN JUMPDEST SWAP1 POP CALLVALUE PUSH2 0x50C JUMPI PUSH1 0x20 CALLDATASIZE PUSH1 0x3 NOT ADD SLT PUSH2 0x50C JUMPI DUP2 PUSH1 0x20 SWAP4 PUSH1 0xFF SWAP3 CALLDATALOAD DUP2 MSTORE PUSH1 0x9 DUP6 MSTORE KECCAK256 SLOAD AND SWAP1 MLOAD SWAP1 ISZERO ISZERO DUP2 MSTORE RETURN JUMPDEST SWAP1 POP CALLVALUE PUSH2 0x50C JUMPI PUSH1 0x20 CALLDATASIZE PUSH1 0x3 NOT ADD SLT PUSH2 0x50C JUMPI DUP1 CALLDATALOAD SWAP1 CALLER DUP5 MSTORE PUSH1 0x1 PUSH1 0x20 MSTORE PUSH2 0x11CE PUSH1 0xFF DUP5 DUP7 KECCAK256 SLOAD AND PUSH2 0x1C9C JUMP JUMPDEST PUSH2 0x7D0 DUP3 GT PUSH2 0x1229 JUMPI SWAP2 DUP2 PUSH1 0x80 SWAP3 PUSH32 0x12C9DCCD129FF783F1C8228EACDFA8E334DDECB7EC5C9A79EC662A4AED3D012A SWAP5 SSTORE PUSH1 0xD DUP3 MLOAD SWAP3 DUP1 DUP5 MSTORE DUP4 ADD MSTORE PUSH13 0x72657365727665466565427073 PUSH1 0x98 SHL PUSH1 0x60 DUP4 ADD MSTORE PUSH1 0x20 DUP3 ADD MSTORE LOG1 DUP1 RETURN JUMPDEST PUSH1 0x64 SWAP1 PUSH1 0x20 DUP5 MLOAD SWAP2 PUSH3 0x461BCD PUSH1 0xE5 SHL DUP4 MSTORE DUP3 ADD MSTORE PUSH1 0x7 PUSH1 0x24 DUP3 ADD MSTORE PUSH7 0x4D617820323025 PUSH1 0xC8 SHL PUSH1 0x44 DUP3 ADD MSTORE REVERT JUMPDEST SWAP1 POP CALLVALUE PUSH2 0x50C JUMPI PUSH1 0x20 CALLDATASIZE PUSH1 0x3 NOT ADD SLT PUSH2 0x50C JUMPI DUP2 PUSH1 0x20 SWAP4 PUSH1 0xFF SWAP3 CALLDATALOAD DUP2 MSTORE PUSH1 0xA DUP6 MSTORE KECCAK256 SLOAD AND SWAP1 MLOAD SWAP1 ISZERO ISZERO DUP2 MSTORE RETURN JUMPDEST POP POP CALLVALUE PUSH2 0x256 JUMPI DUP2 PUSH1 0x3 NOT CALLDATASIZE ADD SLT PUSH2 0x256 JUMPI PUSH1 0x20 SWAP1 PUSH1 0x8 SLOAD SWAP1 MLOAD SWAP1 DUP2 MSTORE RETURN JUMPDEST POP POP CALLVALUE PUSH2 0x256 JUMPI DUP2 PUSH1 0x3 NOT CALLDATASIZE ADD SLT PUSH2 0x256 JUMPI PUSH1 0x20 SWAP1 PUSH1 0x6 SLOAD SWAP1 MLOAD SWAP1 DUP2 MSTORE RETURN JUMPDEST POP POP CALLVALUE PUSH2 0x256 JUMPI PUSH1 0x20 CALLDATASIZE PUSH1 0x3 NOT ADD SLT PUSH2 0x256 JUMPI PUSH1 0x20 SWAP2 PUSH1 0xFF SWAP1 DUP3 SWAP1 PUSH1 0x1 PUSH1 0x1 PUSH1 0xA0 SHL SUB PUSH2 0x12EC PUSH2 0x1B9E JUMP JUMPDEST AND DUP2 MSTORE PUSH1 0x1 DUP6 MSTORE KECCAK256 SLOAD AND SWAP1 MLOAD SWAP1 ISZERO ISZERO DUP2 MSTORE RETURN JUMPDEST POP POP CALLVALUE PUSH2 0x256 JUMPI DUP2 PUSH1 0x3 NOT CALLDATASIZE ADD SLT PUSH2 0x256 JUMPI MLOAD PUSH32 0x0 PUSH1 0x1 PUSH1 0x1 PUSH1 0xA0 SHL SUB AND DUP2 MSTORE PUSH1 0x20 SWAP1 RETURN JUMPDEST SWAP1 POP CALLVALUE PUSH2 0x50C JUMPI PUSH1 0x60 CALLDATASIZE PUSH1 0x3 NOT ADD SLT PUSH2 0x50C JUMPI PUSH2 0x135E PUSH2 0x1B9E JUMP JUMPDEST PUSH1 0x1 PUSH1 0x1 PUSH1 0xA0 SHL SUB PUSH1 0x44 CALLDATALOAD DUP2 DUP2 AND SWAP5 PUSH1 0x24 CALLDATALOAD SWAP4 SWAP1 SWAP3 SWAP1 DUP7 DUP4 SUB PUSH2 0x802 JUMPI CALLER DUP9 MSTORE PUSH1 0x1 PUSH1 0x20 MSTORE PUSH2 0x1392 PUSH1 0xFF DUP6 DUP11 KECCAK256 SLOAD AND PUSH2 0x1C9C JUMP JUMPDEST AND SWAP4 DUP5 DUP8 MSTORE PUSH1 0xC PUSH1 0x20 MSTORE DUP4 DUP4 DUP9 KECCAK256 SLOAD LT PUSH2 0x13F6 JUMPI POP SWAP2 PUSH1 0x20 SWAP2 PUSH2 0x13EE DUP3 PUSH32 0xDE13184E8CBB6ECCBCECFC796BF8820E5FFDE0534C01B4FABED4B05982964A44 SWAP6 DUP8 DUP11 MSTORE PUSH1 0xC DUP7 MSTORE DUP4 DUP11 KECCAK256 PUSH2 0x13E6 DUP4 DUP3 SLOAD PUSH2 0x1CFC JUMP JUMPDEST SWAP1 SSTORE DUP8 PUSH2 0x3428 JUMP JUMPDEST MLOAD SWAP1 DUP2 MSTORE LOG3 DUP1 RETURN JUMPDEST PUSH1 0x64 SWAP1 PUSH1 0x20 DUP5 MLOAD SWAP2 PUSH3 0x461BCD PUSH1 0xE5 SHL DUP4 MSTORE DUP3 ADD MSTORE PUSH1 0x14 PUSH1 0x24 DUP3 ADD MSTORE PUSH20 0x496E73756666696369656E742072657365727665 PUSH1 0x60 SHL PUSH1 0x44 DUP3 ADD MSTORE REVERT JUMPDEST POP POP CALLVALUE PUSH2 0x256 JUMPI DUP2 PUSH1 0x3 NOT CALLDATASIZE ADD SLT PUSH2 0x256 JUMPI PUSH1 0x20 SWAP1 MLOAD PUSH20 0xEC12A9F9A09F50550686363766CC153D03C27B5E DUP2 MSTORE RETURN JUMPDEST SWAP1 POP CALLVALUE PUSH2 0x50C JUMPI PUSH1 0x20 CALLDATASIZE PUSH1 0x3 NOT ADD SLT PUSH2 0x50C JUMPI PUSH2 0x147A PUSH2 0x1B9E JUMP JUMPDEST DUP4 SLOAD PUSH1 0x1 PUSH1 0x1 PUSH1 0xA0 SHL SUB SWAP1 DUP2 AND SWAP3 SWAP1 SWAP2 CALLER DUP5 SWAP1 SUB PUSH2 0x15FF JUMPI DUP3 AND SWAP3 DUP4 EQ PUSH2 0x15BC JUMPI DUP3 DUP6 MSTORE PUSH1 0x1 SWAP4 DUP5 PUSH1 0x20 MSTORE PUSH2 0x14B4 PUSH1 0xFF DUP3 DUP9 KECCAK256 SLOAD AND PUSH2 0x1C9C JUMP JUMPDEST DUP4 DUP7 MSTORE PUSH1 0x20 DUP6 SWAP1 MSTORE DUP6 KECCAK256 DUP1 SLOAD PUSH1 0xFF NOT AND SWAP1 SSTORE DUP5 DUP5 JUMPDEST PUSH2 0x14F7 JUMPI JUMPDEST DUP6 DUP5 PUSH32 0x58619076ADF5BB0943D100EF88D52D7C3FD691B19D3A9071B555B651FBF418DA DUP3 DUP1 LOG2 DUP1 RETURN JUMPDEST PUSH1 0x2 DUP1 SLOAD DUP1 DUP4 LT ISZERO PUSH2 0x15B5 JUMPI SWAP1 DUP5 SWAP2 DUP7 PUSH2 0x1510 DUP6 PUSH2 0x1C18 JUMP JUMPDEST SWAP5 SWAP1 SLOAD PUSH1 0x3 SWAP6 DUP7 SHL SHR AND EQ PUSH2 0x1531 JUMPI POP POP POP PUSH2 0x152B SWAP1 PUSH2 0x1CD7 JUMP JUMPDEST DUP5 PUSH2 0x14C9 JUMP JUMPDEST SWAP3 SWAP1 SWAP5 SWAP4 SWAP2 SWAP6 SWAP7 POP PUSH1 0x0 NOT SWAP3 DUP4 DUP2 ADD SWAP1 DUP2 GT PUSH2 0x15A2 JUMPI SWAP1 PUSH2 0xF97 DUP6 PUSH2 0x1558 PUSH2 0x1565 SWAP5 PUSH2 0x1C18 JUMP JUMPDEST SWAP1 SLOAD SWAP1 DUP11 SHL SHR AND SWAP2 PUSH2 0x1C18 JUMP JUMPDEST DUP4 SLOAD SWAP1 DUP2 ISZERO PUSH2 0x158F JUMPI POP ADD SWAP3 PUSH2 0x157A DUP5 PUSH2 0x1C18 JUMP JUMPDEST DUP2 SWAP4 SWAP2 SLOAD SWAP3 SHL SHL NOT AND SWAP1 SSTORE SSTORE DUP1 CODESIZE DUP1 DUP1 PUSH2 0x14CE JUMP JUMPDEST PUSH4 0x4E487B71 PUSH1 0xE0 SHL DUP9 MSTORE PUSH1 0x31 SWAP1 MSTORE PUSH1 0x24 DUP8 REVERT JUMPDEST PUSH4 0x4E487B71 PUSH1 0xE0 SHL DUP10 MSTORE PUSH1 0x11 DUP4 MSTORE PUSH1 0x24 DUP10 REVERT JUMPDEST POP POP PUSH2 0x14CE JUMP JUMPDEST PUSH1 0x64 SWAP1 PUSH1 0x20 DUP6 MLOAD SWAP2 PUSH3 0x461BCD PUSH1 0xE5 SHL DUP4 MSTORE DUP3 ADD MSTORE PUSH1 0x1B PUSH1 0x24 DUP3 ADD MSTORE PUSH32 0x43616E6E6F742072656D6F7665207072696D617279206F776E65720000000000 PUSH1 0x44 DUP3 ADD MSTORE REVERT JUMPDEST DUP5 MLOAD PUSH3 0x461BCD PUSH1 0xE5 SHL DUP2 MSTORE PUSH1 0x20 DUP2 DUP5 ADD MSTORE PUSH1 0x12 PUSH1 0x24 DUP3 ADD MSTORE PUSH18 0x27B7363C90383934B6B0B93C9037BBB732B9 PUSH1 0x71 SHL PUSH1 0x44 DUP3 ADD MSTORE PUSH1 0x64 SWAP1 REVERT JUMPDEST SWAP1 POP CALLVALUE PUSH2 0x50C JUMPI PUSH1 0x20 CALLDATASIZE PUSH1 0x3 NOT ADD SLT PUSH2 0x50C JUMPI CALLDATALOAD SWAP1 DUP2 ISZERO ISZERO DUP1 SWAP3 SUB PUSH2 0x50C JUMPI PUSH32 0x752D7E161FF5146F80E3820893176EB40532811E5E20400DFDDE57455213706A SWAP2 PUSH1 0x20 SWAP2 CALLER DUP6 MSTORE PUSH1 0x1 DUP4 MSTORE PUSH2 0x1691 PUSH1 0xFF DUP3 DUP8 KECCAK256 SLOAD AND PUSH2 0x1C9C JUMP JUMPDEST PUSH1 0xFF NOT PUSH1 0x7 SLOAD AND PUSH1 0xFF DUP4 AND OR PUSH1 0x7 SSTORE MLOAD SWAP1 DUP2 MSTORE LOG1 DUP1 RETURN JUMPDEST SWAP1 POP CALLVALUE PUSH2 0x50C JUMPI PUSH1 0x20 CALLDATASIZE PUSH1 0x3 NOT ADD SLT PUSH2 0x50C JUMPI DUP1 CALLDATALOAD SWAP1 CALLER DUP5 MSTORE PUSH1 0x1 PUSH1 0x20 MSTORE PUSH2 0x16D5 PUSH1 0xFF DUP5 DUP7 KECCAK256 SLOAD AND PUSH2 0x1C9C JUMP JUMPDEST PUSH1 0x3C DUP3 LT PUSH2 0x1738 JUMPI POP PUSH32 0x12C9DCCD129FF783F1C8228EACDFA8E334DDECB7EC5C9A79EC662A4AED3D012A SWAP2 DUP2 PUSH1 0x80 SWAP3 PUSH1 0x3 SSTORE PUSH1 0x14 DUP3 MLOAD SWAP3 DUP1 DUP5 MSTORE DUP4 ADD MSTORE PUSH20 0x7265696E76657374496E74657276616C53656373 PUSH1 0x60 SHL PUSH1 0x60 DUP4 ADD MSTORE PUSH1 0x20 DUP3 ADD MSTORE LOG1 DUP1 RETURN JUMPDEST PUSH1 0x64 SWAP1 PUSH1 0x20 DUP5 MLOAD SWAP2 PUSH3 0x461BCD PUSH1 0xE5 SHL DUP4 MSTORE DUP3 ADD MSTORE PUSH1 0x7 PUSH1 0x24 DUP3 ADD MSTORE PUSH7 0x4D696E20363073 PUSH1 0xC8 SHL PUSH1 0x44 DUP3 ADD MSTORE REVERT JUMPDEST DUP4 DUP4 CALLVALUE PUSH2 0x256 JUMPI PUSH1 0x20 SWAP1 DUP2 PUSH1 0x3 NOT CALLDATASIZE ADD SLT PUSH2 0x50C JUMPI DUP4 CALLDATALOAD SWAP1 CALLER DUP5 MSTORE PUSH1 0x1 DUP4 MSTORE PUSH2 0x1793 PUSH1 0xFF DUP3 DUP7 KECCAK256 SLOAD AND PUSH2 0x1C9C JUMP JUMPDEST PUSH2 0x179E DUP3 ISZERO ISZERO PUSH2 0x1D62 JUMP JUMPDEST DUP1 MLOAD PUSH4 0x95EA7B3 PUSH1 0xE0 SHL DUP1 DUP7 MSTORE PUSH32 0x0 PUSH1 0x1 PUSH1 0x1 PUSH1 0xA0 SHL SUB DUP2 DUP2 AND DUP1 DUP11 MSTORE PUSH1 0x24 DUP8 DUP2 MSTORE SWAP10 SWAP5 PUSH32 0x0 SWAP1 SWAP3 AND SWAP4 SWAP2 DUP9 DUP11 PUSH1 0x44 DUP2 DUP1 DUP10 GAS CALL SWAP1 PUSH1 0x1 DUP12 MLOAD EQ DUP3 AND ISZERO PUSH2 0x19B0 JUMPI JUMPDEST DUP8 MSTORE ISZERO PUSH2 0x1928 JUMPI JUMPDEST DUP1 EXTCODESIZE ISZERO PUSH2 0x1924 JUMPI DUP6 MLOAD PUSH4 0x534A7E1D PUSH1 0xE1 SHL DUP2 MSTORE DUP6 DUP2 ADD DUP9 SWAP1 MSTORE DUP10 DUP2 DUP13 DUP2 DUP4 DUP7 GAS CALL DUP1 ISZERO PUSH2 0x191A JUMPI PUSH2 0x1907 JUMPI JUMPDEST POP DUP8 SWAP1 PUSH1 0x0 SWAP1 DUP8 MLOAD SWAP4 DUP3 MSTORE DUP7 MSTORE DUP1 DUP12 MSTORE PUSH1 0x44 DUP2 DUP1 DUP8 GAS CALL SWAP1 PUSH1 0x1 PUSH1 0x0 MLOAD EQ DUP3 AND ISZERO PUSH2 0x18F8 JUMPI JUMPDEST DUP6 MSTORE ISZERO PUSH2 0x18AD JUMPI JUMPDEST DUP7 PUSH32 0x38D8C3E304A8001683D048DCC3E1B148BE830F6035082131E02A42D24F683DCE DUP8 DUP8 DUP8 MLOAD SWAP1 DUP2 MSTORE LOG1 DUP1 RETURN JUMPDEST PUSH2 0x18B7 DUP2 DUP4 PUSH2 0x2077 JUMP JUMPDEST ISZERO PUSH2 0x18E4 JUMPI PUSH2 0x18C6 SWAP1 DUP3 PUSH2 0x2077 JUMP JUMPDEST ISZERO PUSH2 0x18D1 JUMPI DUP1 PUSH2 0x1880 JUMP JUMPDEST DUP7 SWAP3 MLOAD SWAP2 PUSH4 0x5274AFE7 PUSH1 0xE0 SHL DUP4 MSTORE DUP3 ADD MSTORE REVERT JUMPDEST POP DUP7 SWAP3 MLOAD SWAP2 PUSH4 0x5274AFE7 PUSH1 0xE0 SHL DUP4 MSTORE DUP3 ADD MSTORE REVERT JUMPDEST SWAP1 DUP4 EXTCODESIZE ISZERO ISZERO RETURNDATASIZE ISZERO AND AND SWAP1 PUSH2 0x1878 JUMP JUMPDEST SWAP9 PUSH2 0x1913 DUP10 SWAP3 SWAP11 PUSH2 0x1D09 JUMP JUMPDEST SWAP9 SWAP1 PUSH2 0x1852 JUMP JUMPDEST DUP8 MLOAD RETURNDATASIZE DUP13 DUP3 RETURNDATACOPY RETURNDATASIZE SWAP1 REVERT JUMPDEST DUP9 DUP1 REVERT JUMPDEST PUSH2 0x1932 DUP4 DUP6 PUSH2 0x2077 JUMP JUMPDEST ISZERO PUSH2 0x1999 JUMPI DUP6 MLOAD DUP3 DUP11 MSTORE DUP2 DUP7 MSTORE DUP8 DUP12 MSTORE DUP9 DUP11 PUSH1 0x44 DUP2 DUP1 DUP10 GAS CALL PUSH1 0x1 DUP12 MLOAD EQ DUP2 AND ISZERO PUSH2 0x197A JUMPI JUMPDEST DUP2 DUP9 MSTORE ISZERO PUSH2 0x1966 JUMPI POP PUSH2 0x1826 JUMP JUMPDEST PUSH4 0x5274AFE7 PUSH1 0xE0 SHL DUP2 MSTORE DUP6 DUP2 ADD DUP6 SWAP1 MSTORE DUP11 SWAP1 REVERT JUMPDEST PUSH1 0x1 DUP2 ISZERO AND PUSH2 0x1990 JUMPI DUP6 EXTCODESIZE ISZERO ISZERO RETURNDATASIZE ISZERO AND AND PUSH2 0x1958 JUMP JUMPDEST POP RETURNDATASIZE DUP11 DUP3 RETURNDATACOPY RETURNDATASIZE SWAP1 REVERT JUMPDEST POP POP SWAP3 MLOAD PUSH4 0x5274AFE7 PUSH1 0xE0 SHL DUP2 MSTORE SWAP2 DUP3 ADD MSTORE DUP6 SWAP2 POP REVERT JUMPDEST SWAP1 DUP6 EXTCODESIZE ISZERO ISZERO RETURNDATASIZE ISZERO AND AND SWAP1 PUSH2 0x181E JUMP JUMPDEST SWAP1 POP CALLVALUE PUSH2 0x50C JUMPI DUP2 PUSH1 0x3 NOT CALLDATASIZE ADD SLT PUSH2 0x50C JUMPI PUSH2 0x19D9 PUSH2 0x1B9E JUMP JUMPDEST PUSH1 0x1 PUSH1 0x1 PUSH1 0xA0 SHL SUB PUSH1 0x24 CALLDATALOAD DUP2 DUP2 AND SWAP5 SWAP1 SWAP4 SWAP2 DUP6 DUP6 SUB PUSH2 0x1AE2 JUMPI CALLER DUP8 MSTORE PUSH1 0x20 SWAP4 PUSH1 0x1 DUP6 MSTORE PUSH2 0x1A0B PUSH1 0xFF DUP5 DUP11 KECCAK256 SLOAD AND PUSH2 0x1C9C JUMP JUMPDEST AND SWAP4 DUP2 MLOAD SWAP3 PUSH4 0x70A08231 PUSH1 0xE0 SHL DUP5 MSTORE ADDRESS DUP2 DUP6 ADD MSTORE DUP5 DUP5 PUSH1 0x24 DUP2 DUP10 GAS STATICCALL SWAP4 DUP5 ISZERO PUSH2 0x1AD8 JUMPI DUP9 SWAP5 PUSH2 0x1AA5 JUMPI JUMPDEST POP DUP4 ISZERO PUSH2 0x1A6C JUMPI POP SWAP1 PUSH2 0x13EE DUP4 PUSH32 0xDE13184E8CBB6ECCBCECFC796BF8820E5FFDE0534C01B4FABED4B05982964A44 SWAP6 SWAP5 SWAP4 DUP8 PUSH2 0x3428 JUMP JUMPDEST DUP3 MLOAD PUSH3 0x461BCD PUSH1 0xE5 SHL DUP2 MSTORE SWAP1 DUP2 ADD DUP6 SWAP1 MSTORE PUSH1 0x13 PUSH1 0x24 DUP3 ADD MSTORE PUSH19 0x4E6F7468696E6720746F207769746864726177 PUSH1 0x68 SHL PUSH1 0x44 DUP3 ADD MSTORE PUSH1 0x64 SWAP1 REVERT JUMPDEST SWAP1 SWAP4 POP DUP5 DUP2 DUP2 RETURNDATASIZE DUP4 GT PUSH2 0x1AD1 JUMPI JUMPDEST PUSH2 0x1ABD DUP2 DUP4 PUSH2 0x1D33 JUMP JUMPDEST DUP2 ADD SUB SLT PUSH2 0x1ACD JUMPI MLOAD SWAP3 CODESIZE PUSH2 0x1A35 JUMP JUMPDEST DUP8 DUP1 REVERT JUMPDEST POP RETURNDATASIZE PUSH2 0x1AB3 JUMP JUMPDEST DUP4 MLOAD RETURNDATASIZE DUP11 DUP3 RETURNDATACOPY RETURNDATASIZE SWAP1 REVERT JUMPDEST DUP7 DUP1 REVERT JUMPDEST DUP5 SWAP1 DUP5 CALLVALUE PUSH2 0x50C JUMPI DUP3 PUSH1 0x3 NOT CALLDATASIZE ADD SLT PUSH2 0x50C JUMPI DUP2 SWAP3 PUSH2 0xB81 SWAP2 PUSH1 0x1 DUP1 PUSH1 0xA0 SHL SUB SWAP1 DUP2 PUSH32 0x0 AND DUP4 MSTORE PUSH1 0xC PUSH1 0x20 MSTORE DUP1 DUP4 KECCAK256 SLOAD SWAP3 DUP3 PUSH32 0x0 AND DUP2 MSTORE DUP2 DUP2 KECCAK256 SLOAD SWAP3 PUSH32 0x0 AND DUP2 MSTORE KECCAK256 SLOAD SWAP2 DUP5 PUSH1 0x40 SWAP2 SWAP5 SWAP4 SWAP3 PUSH1 0x60 DUP3 ADD SWAP6 DUP3 MSTORE PUSH1 0x20 DUP3 ADD MSTORE ADD MSTORE JUMP JUMPDEST PUSH1 0x4 CALLDATALOAD SWAP1 PUSH1 0x1 PUSH1 0x1 PUSH1 0xA0 SHL SUB DUP3 AND DUP3 SUB PUSH2 0x802 JUMPI JUMP JUMPDEST SWAP2 DUP2 PUSH1 0x1F DUP5 ADD SLT ISZERO PUSH2 0x802 JUMPI DUP3 CALLDATALOAD SWAP2 PUSH8 0xFFFFFFFFFFFFFFFF DUP4 GT PUSH2 0x802 JUMPI PUSH1 0x20 DUP1 DUP6 ADD SWAP5 DUP5 PUSH1 0x5 SHL ADD ADD GT PUSH2 0x802 JUMPI JUMP JUMPDEST PUSH1 0x40 PUSH1 0x3 NOT DUP3 ADD SLT PUSH2 0x802 JUMPI PUSH1 0x4 CALLDATALOAD SWAP1 PUSH8 0xFFFFFFFFFFFFFFFF DUP3 GT PUSH2 0x802 JUMPI PUSH2 0x1C10 SWAP2 PUSH1 0x4 ADD PUSH2 0x1BB4 JUMP JUMPDEST SWAP1 SWAP2 PUSH1 0x24 CALLDATALOAD SWAP1 JUMP JUMPDEST PUSH1 0x2 SLOAD DUP2 LT ISZERO PUSH2 0x1C4F JUMPI PUSH1 0x2 PUSH1 0x0 MSTORE PUSH32 0x405787FA12A823E0F2B7631CC41B3BA8828B3321CA811111FA75CD3AA3BB5ACE ADD SWAP1 PUSH1 0x0 SWAP1 JUMP JUMPDEST PUSH4 0x4E487B71 PUSH1 0xE0 SHL PUSH1 0x0 MSTORE PUSH1 0x32 PUSH1 0x4 MSTORE PUSH1 0x24 PUSH1 0x0 REVERT JUMPDEST PUSH1 0xB SLOAD DUP2 LT ISZERO PUSH2 0x1C4F JUMPI PUSH1 0xB PUSH1 0x0 MSTORE PUSH32 0x175B7A638427703F0DBE7BB9BBF987A2551717B34E79F33B5B1008D1FA01DB9 ADD SWAP1 PUSH1 0x0 SWAP1 JUMP JUMPDEST ISZERO PUSH2 0x1CA3 JUMPI JUMP JUMPDEST PUSH1 0x40 MLOAD PUSH3 0x461BCD PUSH1 0xE5 SHL DUP2 MSTORE PUSH1 0x20 PUSH1 0x4 DUP3 ADD MSTORE PUSH1 0xC PUSH1 0x24 DUP3 ADD MSTORE PUSH12 0x2737BA1030B71037BBB732B9 PUSH1 0xA1 SHL PUSH1 0x44 DUP3 ADD MSTORE PUSH1 0x64 SWAP1 REVERT JUMPDEST PUSH1 0x0 NOT DUP2 EQ PUSH2 0x1CE6 JUMPI PUSH1 0x1 ADD SWAP1 JUMP JUMPDEST PUSH4 0x4E487B71 PUSH1 0xE0 SHL PUSH1 0x0 MSTORE PUSH1 0x11 PUSH1 0x4 MSTORE PUSH1 0x24 PUSH1 0x0 REVERT JUMPDEST SWAP2 SWAP1 DUP3 SUB SWAP2 DUP3 GT PUSH2 0x1CE6 JUMPI JUMP JUMPDEST PUSH8 0xFFFFFFFFFFFFFFFF DUP2 GT PUSH2 0x1D1D JUMPI PUSH1 0x40 MSTORE JUMP JUMPDEST PUSH4 0x4E487B71 PUSH1 0xE0 SHL PUSH1 0x0 MSTORE PUSH1 0x41 PUSH1 0x4 MSTORE PUSH1 0x24 PUSH1 0x0 REVERT JUMPDEST SWAP1 PUSH1 0x1F DUP1 NOT SWAP2 ADD AND DUP2 ADD SWAP1 DUP2 LT PUSH8 0xFFFFFFFFFFFFFFFF DUP3 GT OR PUSH2 0x1D1D JUMPI PUSH1 0x40 MSTORE JUMP JUMPDEST SWAP2 SWAP1 DUP3 ADD DUP1 SWAP3 GT PUSH2 0x1CE6 JUMPI JUMP JUMPDEST ISZERO PUSH2 0x1D69 JUMPI JUMP JUMPDEST PUSH1 0x40 MLOAD PUSH3 0x461BCD PUSH1 0xE5 SHL DUP2 MSTORE PUSH1 0x20 PUSH1 0x4 DUP3 ADD MSTORE PUSH1 0xB PUSH1 0x24 DUP3 ADD MSTORE PUSH11 0x16995C9BC8185B5BDD5B9D PUSH1 0xAA SHL PUSH1 0x44 DUP3 ADD MSTORE PUSH1 0x64 SWAP1 REVERT JUMPDEST PUSH1 0x0 PUSH1 0x40 MLOAD SWAP3 PUSH4 0x95EA7B3 PUSH1 0xE0 SHL SWAP4 DUP5 DUP4 MSTORE PUSH1 0x20 PUSH20 0xEC12A9F9A09F50550686363766CC153D03C27B5E SWAP4 DUP5 PUSH1 0x4 MSTORE DUP4 PUSH1 0x24 MSTORE PUSH1 0x44 DUP2 DUP1 DUP9 GAS CALL SWAP1 PUSH1 0x1 PUSH1 0x0 MLOAD EQ DUP3 AND ISZERO PUSH2 0x1E98 JUMPI JUMPDEST PUSH1 0x40 MSTORE ISZERO PUSH2 0x1DF3 JUMPI JUMPDEST POP POP POP POP JUMP JUMPDEST PUSH2 0x1DFC DUP4 PUSH2 0x1FBB JUMP JUMPDEST ISZERO PUSH2 0x1E77 JUMPI SWAP1 PUSH1 0x20 SWAP2 PUSH1 0x0 SWAP2 PUSH1 0x40 MLOAD SWAP6 DUP4 MSTORE PUSH1 0x4 MSTORE PUSH1 0x24 MSTORE PUSH1 0x44 DUP2 DUP1 DUP6 GAS CALL PUSH1 0x1 PUSH1 0x0 MLOAD EQ DUP2 AND ISZERO PUSH2 0x1E57 JUMPI JUMPDEST DUP3 PUSH1 0x40 MSTORE ISZERO PUSH2 0x1E39 JUMPI DUP1 DUP1 PUSH2 0x1DED JUMP JUMPDEST PUSH4 0x5274AFE7 PUSH1 0xE0 SHL DUP3 MSTORE PUSH1 0x1 PUSH1 0x1 PUSH1 0xA0 SHL SUB AND PUSH1 0x4 DUP3 ADD MSTORE PUSH1 0x24 SWAP2 POP REVERT JUMPDEST PUSH1 0x1 DUP2 ISZERO AND PUSH2 0x1E6D JUMPI DUP2 EXTCODESIZE ISZERO ISZERO RETURNDATASIZE ISZERO AND AND PUSH2 0x1E29 JUMP JUMPDEST DUP3 RETURNDATASIZE PUSH1 0x0 DUP3 RETURNDATACOPY RETURNDATASIZE SWAP1 REVERT JUMPDEST PUSH1 0x40 MLOAD PUSH4 0x5274AFE7 PUSH1 0xE0 SHL DUP2 MSTORE PUSH1 0x1 PUSH1 0x1 PUSH1 0xA0 SHL SUB DUP5 AND PUSH1 0x4 DUP3 ADD MSTORE PUSH1 0x24 SWAP1 REVERT JUMPDEST SWAP1 DUP5 EXTCODESIZE ISZERO ISZERO RETURNDATASIZE ISZERO AND AND SWAP1 PUSH2 0x1DE4 JUMP JUMPDEST PUSH1 0x0 PUSH1 0x20 PUSH1 0x40 MLOAD SWAP2 PUSH4 0x95EA7B3 PUSH1 0xE0 SHL DUP2 MSTORE PUSH20 0xEC12A9F9A09F50550686363766CC153D03C27B5E PUSH1 0x4 MSTORE DUP1 PUSH1 0x24 MSTORE PUSH1 0x44 DUP2 DUP1 DUP7 GAS CALL SWAP1 PUSH1 0x1 PUSH1 0x0 MLOAD EQ DUP3 AND ISZERO PUSH2 0x1F37 JUMPI JUMPDEST PUSH1 0x40 MSTORE ISZERO PUSH2 0x1EF6 JUMPI POP JUMP JUMPDEST PUSH2 0x1EFF DUP2 PUSH2 0x1FBB JUMP JUMPDEST ISZERO PUSH2 0x1F15 JUMPI PUSH2 0x1F0D DUP2 PUSH2 0x1FBB JUMP JUMPDEST ISZERO PUSH2 0x1F15 JUMPI POP JUMP JUMPDEST PUSH1 0x40 MLOAD PUSH4 0x5274AFE7 PUSH1 0xE0 SHL DUP2 MSTORE PUSH1 0x1 PUSH1 0x1 PUSH1 0xA0 SHL SUB SWAP1 SWAP2 AND PUSH1 0x4 DUP3 ADD MSTORE PUSH1 0x24 SWAP1 REVERT JUMPDEST SWAP1 DUP3 EXTCODESIZE ISZERO ISZERO RETURNDATASIZE ISZERO AND AND SWAP1 PUSH2 0x1EEB JUMP JUMPDEST PUSH1 0x0 PUSH1 0x20 PUSH1 0x40 MLOAD SWAP2 PUSH4 0x95EA7B3 PUSH1 0xE0 SHL DUP2 MSTORE PUSH20 0x91AD9E2E6E5ED44C1C66DB50E49A601F9F36CF6 PUSH1 0x4 MSTORE DUP1 PUSH1 0x24 MSTORE PUSH1 0x44 DUP2 DUP1 DUP7 GAS CALL SWAP1 PUSH1 0x1 PUSH1 0x0 MLOAD EQ DUP3 AND ISZERO PUSH2 0x1FAC JUMPI JUMPDEST PUSH1 0x40 MSTORE ISZERO PUSH2 0x1F95 JUMPI POP JUMP JUMPDEST PUSH2 0x1F9E DUP2 PUSH2 0x202C JUMP JUMPDEST ISZERO PUSH2 0x1F15 JUMPI PUSH2 0x1F0D DUP2 PUSH2 0x202C JUMP JUMPDEST SWAP1 DUP3 EXTCODESIZE ISZERO ISZERO RETURNDATASIZE ISZERO AND AND SWAP1 PUSH2 0x1F8A JUMP JUMPDEST SWAP1 PUSH1 0x40 MLOAD PUSH1 0x0 SWAP3 PUSH4 0x95EA7B3 PUSH1 0xE0 SHL DUP5 MSTORE PUSH20 0xEC12A9F9A09F50550686363766CC153D03C27B5E PUSH1 0x4 MSTORE DUP4 PUSH1 0x24 MSTORE PUSH1 0x20 DUP5 PUSH1 0x44 DUP2 DUP1 DUP6 GAS CALL SWAP4 PUSH1 0x1 DUP2 MLOAD EQ DUP6 AND ISZERO PUSH2 0x2007 JUMPI JUMPDEST POP POP PUSH1 0x40 MSTORE JUMP JUMPDEST PUSH1 0x1 DUP6 SWAP4 SWAP6 ISZERO AND PUSH2 0x2022 JUMPI POP EXTCODESIZE ISZERO ISZERO RETURNDATASIZE ISZERO AND AND SWAP2 CODESIZE DUP1 PUSH2 0x2000 JUMP JUMPDEST DUP5 SWAP1 RETURNDATASIZE SWAP1 DUP3 RETURNDATACOPY RETURNDATASIZE SWAP1 REVERT JUMPDEST SWAP1 PUSH1 0x40 MLOAD PUSH1 0x0 SWAP3 PUSH4 0x95EA7B3 PUSH1 0xE0 SHL DUP5 MSTORE PUSH20 0x91AD9E2E6E5ED44C1C66DB50E49A601F9F36CF6 PUSH1 0x4 MSTORE DUP4 PUSH1 0x24 MSTORE PUSH1 0x20 DUP5 PUSH1 0x44 DUP2 DUP1 DUP6 GAS CALL SWAP4 PUSH1 0x1 DUP2 MLOAD EQ DUP6 AND ISZERO PUSH2 0x2007 JUMPI POP POP PUSH1 0x40 MSTORE JUMP JUMPDEST PUSH1 0x40 MLOAD PUSH4 0x95EA7B3 PUSH1 0xE0 SHL PUSH1 0x0 SWAP1 DUP2 MSTORE PUSH1 0x1 PUSH1 0x1 PUSH1 0xA0 SHL SUB SWAP1 SWAP4 AND PUSH1 0x4 MSTORE PUSH1 0x24 DUP4 SWAP1 MSTORE SWAP2 SWAP3 SWAP2 SWAP1 PUSH1 0x20 DUP5 PUSH1 0x44 DUP2 DUP1 DUP6 GAS CALL SWAP4 PUSH1 0x1 DUP2 MLOAD EQ DUP6 AND ISZERO PUSH2 0x2007 JUMPI POP POP PUSH1 0x40 MSTORE JUMP JUMPDEST PUSH1 0x40 MLOAD SWAP1 PUSH1 0xB SLOAD DUP1 DUP4 MSTORE DUP3 PUSH1 0x20 SWAP2 DUP3 DUP3 ADD SWAP1 PUSH1 0xB PUSH1 0x0 MSTORE PUSH32 0x175B7A638427703F0DBE7BB9BBF987A2551717B34E79F33B5B1008D1FA01DB9 SWAP4 PUSH1 0x0 SWAP1 JUMPDEST DUP3 DUP3 LT PUSH2 0x2111 JUMPI POP POP POP PUSH2 0x210F SWAP3 POP SUB DUP4 PUSH2 0x1D33 JUMP JUMPDEST JUMP JUMPDEST DUP6 SLOAD DUP5 MSTORE PUSH1 0x1 SWAP6 DUP7 ADD SWAP6 DUP9 SWAP6 POP SWAP4 DUP2 ADD SWAP4 SWAP1 SWAP2 ADD SWAP1 PUSH2 0x20F9 JUMP JUMPDEST SWAP2 SWAP1 DUP2 LT ISZERO PUSH2 0x1C4F JUMPI PUSH1 0x5 SHL ADD SWAP1 JUMP JUMPDEST MLOAD SWAP1 PUSH1 0x1 PUSH1 0x1 PUSH1 0xA0 SHL SUB DUP3 AND DUP3 SUB PUSH2 0x802 JUMPI JUMP JUMPDEST MLOAD SWAP1 DUP2 PUSH1 0x2 SIGNEXTEND DUP3 SUB PUSH2 0x802 JUMPI JUMP JUMPDEST MLOAD SWAP1 PUSH1 0x1 PUSH1 0x1 PUSH1 0x80 SHL SUB DUP3 AND DUP3 SUB PUSH2 0x802 JUMPI JUMP JUMPDEST SWAP2 SWAP1 DUP3 PUSH2 0x180 SWAP2 SUB SLT PUSH2 0x802 JUMPI DUP2 MLOAD PUSH12 0xFFFFFFFFFFFFFFFFFFFFFFFF DUP2 AND DUP2 SUB PUSH2 0x802 JUMPI SWAP2 PUSH2 0x21A2 PUSH1 0x20 DUP3 ADD PUSH2 0x213B JUMP JUMPDEST SWAP2 PUSH2 0x21AF PUSH1 0x40 DUP4 ADD PUSH2 0x213B JUMP JUMPDEST SWAP2 PUSH2 0x21BC PUSH1 0x60 DUP3 ADD PUSH2 0x213B JUMP JUMPDEST SWAP2 PUSH1 0x80 DUP3 ADD MLOAD PUSH3 0xFFFFFF DUP2 AND DUP2 SUB PUSH2 0x802 JUMPI SWAP2 PUSH2 0x21DB PUSH1 0xA0 DUP3 ADD PUSH2 0x214F JUMP JUMPDEST SWAP2 PUSH2 0x21E8 PUSH1 0xC0 DUP4 ADD PUSH2 0x214F JUMP JUMPDEST SWAP2 PUSH2 0x21F5 PUSH1 0xE0 DUP3 ADD PUSH2 0x215D JUMP JUMPDEST SWAP2 PUSH2 0x100 DUP3 ADD MLOAD SWAP2 PUSH2 0x120 DUP2 ADD MLOAD SWAP2 PUSH2 0x221E PUSH2 0x160 PUSH2 0x2217 PUSH2 0x140 DUP6 ADD PUSH2 0x215D JUMP JUMPDEST SWAP4 ADD PUSH2 0x215D JUMP JUMPDEST SWAP1 JUMP JUMPDEST MLOAD SWAP1 PUSH2 0xFFFF DUP3 AND DUP3 SUB PUSH2 0x802 JUMPI JUMP JUMPDEST PUSH1 0x40 DUP1 MLOAD PUSH4 0x133F7571 PUSH1 0xE3 SHL DUP2 MSTORE PUSH1 0x4 DUP2 ADD DUP4 SWAP1 MSTORE PUSH2 0x180 SWAP3 DUP4 DUP3 PUSH1 0x24 DUP2 PUSH20 0xEC12A9F9A09F50550686363766CC153D03C27B5E GAS STATICCALL SWAP4 DUP5 ISZERO PUSH2 0x2461 JUMPI PUSH1 0x0 SWAP3 DUP4 SWAP1 DUP5 SWAP1 DUP6 SWAP4 DUP7 SWAP9 PUSH2 0x2427 JUMPI JUMPDEST POP POP DUP6 MLOAD PUSH4 0xB4C7741 PUSH1 0xE1 SHL DUP2 MSTORE PUSH1 0x1 PUSH1 0x1 PUSH1 0xA0 SHL SUB SWAP6 DUP7 AND PUSH1 0x4 DUP3 ADD MSTORE SWAP2 DUP6 AND PUSH1 0x24 DUP4 ADD MSTORE PUSH3 0xFFFFFF AND PUSH1 0x44 DUP3 ADD MSTORE PUSH1 0x20 SWAP4 SWAP1 DUP5 DUP2 PUSH1 0x64 DUP2 PUSH20 0x7A5028BDA40E7B173C278C5342087826455EA25A GAS STATICCALL SWAP1 DUP2 ISZERO PUSH2 0x23E5 JUMPI SWAP1 DUP3 SWAP2 PUSH1 0x0 SWAP2 PUSH2 0x23F0 JUMPI JUMPDEST POP AND SWAP1 DUP2 PUSH2 0x22F0 JUMPI JUMPDEST POP POP POP POP POP POP POP JUMP JUMPDEST PUSH1 0xE0 PUSH1 0x4 SWAP3 DUP8 MLOAD SWAP4 DUP5 DUP1 SWAP3 PUSH4 0x3850C7BD DUP6 SHL DUP3 MSTORE GAS STATICCALL SWAP1 DUP2 ISZERO PUSH2 0x23E5 JUMPI PUSH1 0x0 SWAP2 PUSH2 0x2360 JUMPI JUMPDEST POP SWAP1 POP PUSH1 0x2 SIGNEXTEND SWAP1 PUSH1 0x2 SIGNEXTEND DUP2 SLT ISZERO SWAP5 DUP6 PUSH2 0x2351 JUMPI JUMPDEST POP POP SWAP1 PUSH1 0xA SWAP2 PUSH1 0x0 MSTORE MSTORE PUSH1 0x0 KECCAK256 SWAP1 PUSH1 0xFF DUP1 NOT DUP4 SLOAD AND SWAP2 ISZERO ISZERO AND OR SWAP1 SSTORE CODESIZE DUP1 DUP1 DUP1 DUP1 DUP1 DUP1 PUSH2 0x22E7 JUMP JUMPDEST PUSH1 0x2 SIGNEXTEND SLT ISZERO SWAP4 POP PUSH1 0xA CODESIZE PUSH2 0x2329 JUMP JUMPDEST PUSH1 0xE0 DUP4 RETURNDATASIZE DUP3 GT PUSH2 0x23DD JUMPI JUMPDEST DUP2 PUSH2 0x2378 PUSH1 0xE0 SWAP4 DUP4 PUSH2 0x1D33 JUMP JUMPDEST DUP2 ADD SUB SLT PUSH2 0x256 JUMPI DUP3 MLOAD SWAP1 DUP2 AND SUB PUSH2 0x490 JUMPI PUSH1 0xC0 PUSH2 0x2397 DUP7 DUP5 ADD PUSH2 0x214F JUMP JUMPDEST SWAP3 PUSH2 0x23A3 DUP9 DUP3 ADD PUSH2 0x2221 JUMP JUMPDEST POP PUSH2 0x23B0 PUSH1 0x60 DUP3 ADD PUSH2 0x2221 JUMP JUMPDEST POP PUSH2 0x23BD PUSH1 0x80 DUP3 ADD PUSH2 0x2221 JUMP JUMPDEST POP PUSH2 0x23CA PUSH1 0xA0 DUP3 ADD PUSH2 0x2221 JUMP JUMPDEST POP ADD MLOAD DUP1 ISZERO ISZERO SUB PUSH2 0x490 JUMPI POP DUP1 CODESIZE PUSH2 0x2315 JUMP JUMPDEST RETURNDATASIZE SWAP2 POP PUSH2 0x236B JUMP JUMPDEST DUP7 MLOAD RETURNDATASIZE PUSH1 0x0 DUP3 RETURNDATACOPY RETURNDATASIZE SWAP1 REVERT JUMPDEST SWAP2 POP DUP6 DUP3 DUP2 RETURNDATASIZE DUP4 GT PUSH2 0x2420 JUMPI JUMPDEST PUSH2 0x2407 DUP2 DUP4 PUSH2 0x1D33 JUMP JUMPDEST DUP2 ADD SUB SLT PUSH2 0x490 JUMPI POP PUSH2 0x241A DUP3 SWAP2 PUSH2 0x213B JUMP JUMPDEST CODESIZE PUSH2 0x22DE JUMP JUMPDEST POP RETURNDATASIZE PUSH2 0x23FD JUMP JUMPDEST SWAP3 POP SWAP3 POP POP PUSH2 0x2449 SWAP3 SWAP6 POP PUSH3 0xFFFFFF SWAP4 POP DUP1 RETURNDATASIZE LT PUSH2 0x47F JUMPI PUSH2 0x45A DUP2 DUP4 PUSH2 0x1D33 JUMP JUMPDEST POP POP POP POP POP SWAP5 POP SWAP8 SWAP5 POP SWAP2 SWAP5 SWAP1 SWAP2 SWAP7 SWAP3 SWAP7 SWAP1 CODESIZE PUSH2 0x227C JUMP JUMPDEST DUP4 MLOAD RETURNDATASIZE PUSH1 0x0 DUP3 RETURNDATACOPY RETURNDATASIZE SWAP1 REVERT JUMPDEST ISZERO PUSH2 0x2473 JUMPI JUMP JUMPDEST PUSH1 0x40 MLOAD PUSH3 0x461BCD PUSH1 0xE5 SHL DUP2 MSTORE PUSH1 0x20 PUSH1 0x4 DUP3 ADD MSTORE PUSH1 0x12 PUSH1 0x24 DUP3 ADD MSTORE PUSH18 0x10DBDB9D1C9858DD081A5CC81C185D5CD959 PUSH1 0x72 SHL PUSH1 0x44 DUP3 ADD MSTORE PUSH1 0x64 SWAP1 REVERT JUMPDEST PUSH1 0x40 DUP1 MLOAD PUSH4 0x70A08231 PUSH1 0xE0 SHL DUP1 DUP3 MSTORE ADDRESS PUSH1 0x4 DUP4 ADD MSTORE PUSH1 0x20 SWAP2 PUSH1 0x1 PUSH1 0x1 PUSH1 0xA0 SHL SUB PUSH32 0x0 DUP2 AND SWAP3 PUSH1 0x0 SWAP2 DUP6 DUP5 PUSH1 0x24 DUP2 DUP9 GAS STATICCALL SWAP4 DUP5 ISZERO PUSH2 0x2678 JUMPI DUP4 SWAP5 PUSH2 0x2649 JUMPI JUMPDEST POP PUSH32 0x0 AND DUP1 EXTCODESIZE ISZERO PUSH2 0x50C JUMPI DUP3 DUP1 SWAP2 PUSH1 0x4 DUP10 MLOAD DUP1 SWAP5 DUP2 SWAP4 PUSH4 0x6FB01C6F PUSH1 0xE0 SHL DUP4 MSTORE GAS CALL SWAP1 DUP2 PUSH2 0x2636 JUMPI JUMPDEST POP PUSH2 0x2560 JUMPI POP POP POP POP POP POP POP JUMP JUMPDEST DUP5 SWAP1 PUSH1 0x24 DUP8 MLOAD DUP1 SWAP7 DUP2 SWAP4 DUP3 MSTORE ADDRESS PUSH1 0x4 DUP4 ADD MSTORE GAS STATICCALL SWAP1 DUP2 ISZERO PUSH2 0x262B JUMPI SWAP1 PUSH2 0x25FC JUMPI JUMPDEST PUSH2 0x258B SWAP3 POP PUSH2 0x1CFC JUMP JUMPDEST DUP1 ISZERO PUSH2 0x1DED JUMPI PUSH2 0x25EC PUSH32 0xC9AD57538C87A56B42547BA3335109C64ED9619D5CF403928283E46967B80C44 SWAP5 PUSH32 0x3648C0BF88F1BC1BFF753A51023E66EAFBF42F937066E3C6F888E8B8CBDCA680 DUP5 DUP7 MLOAD DUP6 DUP2 MSTORE LOG1 PUSH2 0x25E6 PUSH2 0x20BC JUMP JUMPDEST DUP4 PUSH2 0x2C21 JUMP JUMPDEST TIMESTAMP PUSH1 0x8 SSTORE DUP3 MLOAD SWAP2 TIMESTAMP DUP4 MSTORE DUP3 ADD MSTORE LOG1 JUMP JUMPDEST POP DUP3 DUP3 DUP2 RETURNDATASIZE DUP4 GT PUSH2 0x2624 JUMPI JUMPDEST PUSH2 0x2612 DUP2 DUP4 PUSH2 0x1D33 JUMP JUMPDEST DUP2 ADD SUB SLT PUSH2 0x802 JUMPI PUSH2 0x258B SWAP2 MLOAD PUSH2 0x2581 JUMP JUMPDEST POP RETURNDATASIZE PUSH2 0x2608 JUMP JUMPDEST DUP6 MLOAD SWAP1 RETURNDATASIZE SWAP1 DUP3 RETURNDATACOPY RETURNDATASIZE SWAP1 REVERT JUMPDEST PUSH2 0x2642 SWAP1 SWAP4 SWAP2 SWAP4 PUSH2 0x1D09 JUMP JUMPDEST SWAP2 CODESIZE PUSH2 0x2552 JUMP JUMPDEST SWAP1 SWAP4 POP DUP6 DUP2 DUP2 RETURNDATASIZE DUP4 GT PUSH2 0x2671 JUMPI JUMPDEST PUSH2 0x2661 DUP2 DUP4 PUSH2 0x1D33 JUMP JUMPDEST DUP2 ADD SUB SLT PUSH2 0x50C JUMPI MLOAD SWAP3 CODESIZE PUSH2 0x250A JUMP JUMPDEST POP RETURNDATASIZE PUSH2 0x2657 JUMP JUMPDEST DUP8 MLOAD RETURNDATASIZE DUP6 DUP3 RETURNDATACOPY RETURNDATASIZE SWAP1 REVERT JUMPDEST PUSH32 0x9B779B17422D0DF92223018B32B4D1FA46E071723D6817E2486D003BECC55F00 PUSH1 0x2 DUP2 SLOAD EQ PUSH2 0x26B2 JUMPI PUSH1 0x2 SWAP1 SSTORE JUMP JUMPDEST PUSH1 0x40 MLOAD PUSH4 0x3EE5AEB5 PUSH1 0xE0 SHL DUP2 MSTORE PUSH1 0x4 SWAP1 REVERT JUMPDEST SWAP1 SWAP3 SWAP2 PUSH8 0xFFFFFFFFFFFFFFFF DUP5 GT PUSH2 0x1D1D JUMPI DUP4 PUSH1 0x5 SHL PUSH1 0x40 MLOAD SWAP3 PUSH1 0x20 DUP1 SWAP5 PUSH2 0x26EE DUP3 DUP6 ADD DUP3 PUSH2 0x1D33 JUMP JUMPDEST DUP1 SWAP8 DUP2 MSTORE ADD SWAP2 DUP2 ADD SWAP3 DUP4 GT PUSH2 0x802 JUMPI SWAP1 JUMPDEST DUP3 DUP3 LT PUSH2 0x270C JUMPI POP POP POP POP JUMP JUMPDEST DUP2 CALLDATALOAD DUP2 MSTORE SWAP1 DUP4 ADD SWAP1 DUP4 ADD PUSH2 0x26FF JUMP JUMPDEST PUSH2 0x2725 DUP3 DUP3 PUSH2 0x29C2 JUMP JUMPDEST SWAP1 DUP2 ISZERO PUSH2 0x1DED JUMPI PUSH32 0xC9AD57538C87A56B42547BA3335109C64ED9619D5CF403928283E46967B80C44 SWAP4 PUSH2 0x25E6 PUSH2 0x275F SWAP3 PUSH1 0x40 SWAP6 CALLDATASIZE SWAP2 PUSH2 0x26C4 JUMP JUMPDEST TIMESTAMP PUSH1 0x8 SSTORE DUP2 MLOAD SWAP1 TIMESTAMP DUP3 MSTORE PUSH1 0x20 DUP3 ADD MSTORE LOG1 JUMP JUMPDEST PUSH1 0x40 DUP1 MLOAD PUSH4 0x70A08231 PUSH1 0xE0 SHL DUP1 DUP3 MSTORE ADDRESS PUSH1 0x4 DUP4 ADD MSTORE SWAP4 SWAP5 SWAP2 SWAP4 PUSH1 0x20 SWAP4 SWAP2 PUSH1 0x1 PUSH1 0x1 PUSH1 0xA0 SHL SUB PUSH32 0x0 DUP2 AND SWAP3 PUSH1 0x0 SWAP2 DUP8 DUP5 PUSH1 0x24 DUP2 DUP9 GAS STATICCALL SWAP4 DUP5 ISZERO PUSH2 0x2976 JUMPI DUP4 SWAP5 PUSH2 0x2993 JUMPI JUMPDEST POP PUSH32 0x0 AND DUP1 EXTCODESIZE ISZERO PUSH2 0x50C JUMPI SWAP1 DUP3 DUP1 DUP10 SWAP4 PUSH1 0x4 DUP13 MLOAD DUP1 SWAP5 DUP2 SWAP4 PUSH4 0x6FB01C6F PUSH1 0xE0 SHL DUP4 MSTORE GAS CALL SWAP1 DUP2 PUSH2 0x2980 JUMPI JUMPDEST POP PUSH2 0x28D0 JUMPI JUMPDEST PUSH2 0x282D DUP11 DUP8 PUSH2 0x29C2 JUMP JUMPDEST POP PUSH1 0x24 DUP10 MLOAD DUP1 SWAP7 DUP2 SWAP4 DUP3 MSTORE ADDRESS PUSH1 0x4 DUP4 ADD MSTORE GAS STATICCALL SWAP1 DUP2 ISZERO PUSH2 0x28C5 JUMPI SWAP1 PUSH2 0x2896 JUMPI JUMPDEST PUSH2 0x2857 SWAP3 POP PUSH2 0x1CFC JUMP JUMPDEST SWAP2 DUP3 ISZERO PUSH2 0x288E JUMPI PUSH2 0x25E6 PUSH2 0x25EC SWAP3 PUSH32 0xC9AD57538C87A56B42547BA3335109C64ED9619D5CF403928283E46967B80C44 SWAP8 CALLDATASIZE SWAP2 PUSH2 0x26C4 JUMP JUMPDEST POP POP POP POP POP POP JUMP JUMPDEST POP DUP5 DUP3 DUP2 RETURNDATASIZE DUP4 GT PUSH2 0x28BE JUMPI JUMPDEST PUSH2 0x28AC DUP2 DUP4 PUSH2 0x1D33 JUMP JUMPDEST DUP2 ADD SUB SLT PUSH2 0x802 JUMPI PUSH2 0x2857 SWAP2 MLOAD PUSH2 0x284D JUMP JUMPDEST POP RETURNDATASIZE PUSH2 0x28A2 JUMP JUMPDEST DUP8 MLOAD SWAP1 RETURNDATASIZE SWAP1 DUP3 RETURNDATACOPY RETURNDATASIZE SWAP1 REVERT JUMPDEST SWAP1 POP DUP8 MLOAD DUP2 DUP2 MSTORE ADDRESS PUSH1 0x4 DUP3 ADD MSTORE DUP8 DUP2 PUSH1 0x24 DUP2 DUP9 GAS STATICCALL SWAP1 DUP2 ISZERO PUSH2 0x2976 JUMPI DUP9 SWAP3 SWAP2 DUP6 SWAP2 DUP6 SWAP2 PUSH2 0x2940 JUMPI JUMPDEST POP SWAP1 PUSH2 0x2903 SWAP2 PUSH2 0x1CFC JUMP JUMPDEST DUP3 DUP2 PUSH2 0x2911 JUMPI JUMPDEST POP POP PUSH2 0x2823 JUMP JUMPDEST PUSH32 0x3648C0BF88F1BC1BFF753A51023E66EAFBF42F937066E3C6F888E8B8CBDCA680 SWAP2 DUP12 MLOAD SWAP1 DUP2 MSTORE LOG1 CODESIZE DUP3 PUSH2 0x290A JUMP JUMPDEST SWAP4 DUP1 SWAP3 POP DUP5 SWAP2 POP RETURNDATASIZE DUP4 GT PUSH2 0x296F JUMPI JUMPDEST PUSH2 0x2959 DUP2 DUP4 PUSH2 0x1D33 JUMP JUMPDEST DUP2 ADD SUB SLT PUSH2 0x802 JUMPI PUSH2 0x2903 DUP5 DUP10 SWAP4 MLOAD SWAP1 SWAP2 PUSH2 0x28F8 JUMP JUMPDEST POP RETURNDATASIZE PUSH2 0x294F JUMP JUMPDEST DUP10 MLOAD RETURNDATASIZE DUP6 DUP3 RETURNDATACOPY RETURNDATASIZE SWAP1 REVERT JUMPDEST PUSH2 0x298C SWAP1 SWAP5 SWAP2 SWAP5 PUSH2 0x1D09 JUMP JUMPDEST SWAP3 CODESIZE PUSH2 0x281D JUMP JUMPDEST SWAP1 SWAP4 POP DUP8 DUP2 DUP2 RETURNDATASIZE DUP4 GT PUSH2 0x29BB JUMPI JUMPDEST PUSH2 0x29AB DUP2 DUP4 PUSH2 0x1D33 JUMP JUMPDEST DUP2 ADD SUB SLT PUSH2 0x50C JUMPI MLOAD SWAP3 CODESIZE PUSH2 0x27D3 JUMP JUMPDEST POP RETURNDATASIZE PUSH2 0x29A1 JUMP JUMPDEST SWAP2 PUSH1 0x0 SWAP2 PUSH1 0x0 SWAP1 DUP2 JUMPDEST DUP2 DUP2 LT PUSH2 0x29DA JUMPI POP POP POP SWAP1 SWAP2 POP JUMP JUMPDEST PUSH2 0x29E5 DUP2 DUP4 DUP9 PUSH2 0x212B JUMP JUMPDEST CALLDATALOAD DUP1 DUP5 MSTORE PUSH1 0x20 PUSH1 0x9 DUP2 MSTORE PUSH1 0x40 PUSH1 0xFF DUP2 DUP8 KECCAK256 SLOAD AND ISZERO PUSH2 0x2BEE JUMPI DUP1 MLOAD PUSH4 0x133F7571 PUSH1 0xE3 SHL DUP2 MSTORE PUSH1 0x4 DUP1 DUP3 ADD DUP6 SWAP1 MSTORE SWAP4 PUSH2 0x180 SWAP3 PUSH1 0x24 SWAP3 PUSH20 0xEC12A9F9A09F50550686363766CC153D03C27B5E SWAP1 DUP6 DUP2 DUP7 DUP2 DUP6 GAS STATICCALL SWAP6 DUP7 ISZERO PUSH2 0x2BE4 JUMPI DUP12 SWAP7 PUSH2 0x2BB9 JUMPI JUMPDEST POP POP DUP2 MLOAD SWAP1 PUSH1 0x80 DUP3 ADD DUP3 DUP2 LT PUSH8 0xFFFFFFFFFFFFFFFF DUP3 GT OR PUSH2 0x2BA7 JUMPI SWAP1 DUP4 SWAP3 SWAP2 DUP4 MSTORE DUP5 DUP3 MSTORE DUP8 DUP3 ADD SWAP6 ADDRESS DUP8 MSTORE DUP4 DUP4 ADD SWAP1 PUSH1 0x1 PUSH1 0x1 PUSH1 0x80 SHL SUB DUP3 DUP2 DUP1 SWAP5 MSTORE PUSH1 0x60 DUP7 ADD SWAP3 DUP3 DUP5 MSTORE DUP8 MLOAD SWAP14 DUP15 SWAP8 PUSH4 0xFC6F7865 PUSH1 0xE0 SHL DUP10 MSTORE MLOAD SWAP1 DUP9 ADD MSTORE PUSH1 0x1 PUSH1 0xA0 SHL PUSH1 0x1 SWAP1 SUB DUP1 SWAP12 MLOAD AND SWAP1 DUP8 ADD MSTORE MLOAD AND PUSH1 0x44 DUP6 ADD MSTORE MLOAD AND PUSH1 0x64 DUP4 ADD MSTORE DUP2 DUP13 GAS SWAP3 PUSH1 0x84 SWAP4 CALL SWAP5 DUP6 DUP11 SWAP8 DUP12 SWAP8 PUSH2 0x2B6E JUMPI JUMPDEST POP PUSH2 0x2AEA JUMPI JUMPDEST POP POP POP POP POP POP POP PUSH2 0x2AE5 SWAP1 PUSH2 0x1CD7 JUMP JUMPDEST PUSH2 0x29CB JUMP JUMPDEST SWAP2 PUSH32 0xA54E6C2FC0861AA9C991B26891D71059D517983B9E84B91020F42609C452EB9D DUP3 PUSH2 0x2B59 SWAP9 SWAP7 SWAP5 DUP9 PUSH2 0x2AE5 SWAP12 SWAP16 SWAP10 SWAP8 SWAP6 MLOAD SWAP2 DUP10 DUP4 MSTORE DUP3 ADD MSTORE LOG2 DUP1 PUSH32 0x0 AND SWAP2 AND EQ PUSH1 0x0 EQ PUSH2 0x2B66 JUMPI POP SWAP1 PUSH2 0x1D55 JUMP JUMPDEST SWAP5 SWAP1 CODESIZE DUP1 DUP1 DUP1 DUP1 DUP1 PUSH2 0x2AD5 JUMP JUMPDEST SWAP1 POP SWAP1 PUSH2 0x1D55 JUMP JUMPDEST SWAP8 POP SWAP6 POP DUP2 DUP8 DUP2 RETURNDATASIZE DUP2 GT PUSH2 0x2BA0 JUMPI JUMPDEST PUSH2 0x2B87 DUP2 DUP4 PUSH2 0x1D33 JUMP JUMPDEST DUP2 ADD SUB SLT PUSH2 0x2B9C JUMPI DUP1 DUP8 MLOAD SWAP8 ADD MLOAD SWAP6 CODESIZE PUSH2 0x2ACF JUMP JUMPDEST DUP10 DUP1 REVERT JUMPDEST POP RETURNDATASIZE PUSH2 0x2B7D JUMP JUMPDEST PUSH4 0x4E487B71 PUSH1 0xE0 SHL DUP13 MSTORE PUSH1 0x41 DUP10 MSTORE DUP6 DUP13 REVERT JUMPDEST PUSH2 0x2BD0 SWAP3 SWAP7 POP DUP1 RETURNDATASIZE LT PUSH2 0x47F JUMPI PUSH2 0x45A DUP2 DUP4 PUSH2 0x1D33 JUMP JUMPDEST POP POP POP POP POP POP POP POP POP SWAP2 POP POP SWAP4 CODESIZE DUP1 PUSH2 0x2A44 JUMP JUMPDEST DUP4 MLOAD RETURNDATASIZE DUP14 DUP3 RETURNDATACOPY RETURNDATASIZE SWAP1 REVERT JUMPDEST POP POP POP PUSH2 0x2AE5 SWAP1 PUSH2 0x1CD7 JUMP JUMPDEST DUP2 DUP2 MUL SWAP3 SWAP2 DUP2 ISZERO SWAP2 DUP5 DIV EQ OR ISZERO PUSH2 0x1CE6 JUMPI JUMP JUMPDEST DUP1 MLOAD DUP3 LT ISZERO PUSH2 0x1C4F JUMPI PUSH1 0x20 SWAP2 PUSH1 0x5 SHL ADD ADD SWAP1 JUMP JUMPDEST PUSH2 0x2CB0 SWAP1 SWAP4 SWAP3 SWAP2 SWAP4 PUSH2 0x2CB5 PUSH2 0x2C8A PUSH2 0x2710 SWAP3 DUP4 PUSH2 0x2C40 PUSH1 0x4 SLOAD DUP4 PUSH2 0x2BFA JUMP JUMPDEST DIV SWAP1 PUSH1 0x1 DUP1 PUSH1 0xA0 SHL SUB PUSH32 0x0 AND PUSH1 0x0 MSTORE PUSH1 0xC PUSH1 0x20 MSTORE PUSH1 0x40 PUSH1 0x0 KECCAK256 PUSH2 0x2C83 DUP4 DUP3 SLOAD PUSH2 0x1D55 JUMP JUMPDEST SWAP1 SSTORE PUSH2 0x1CFC JUMP JUMPDEST DUP3 PUSH2 0x2C97 PUSH1 0x5 SLOAD DUP4 PUSH2 0x2BFA JUMP JUMPDEST DIV SWAP4 DUP5 SWAP4 PUSH2 0x2CA7 PUSH1 0x6 SLOAD DUP5 PUSH2 0x2BFA JUMP JUMPDEST DIV SWAP4 DUP5 SWAP3 PUSH2 0x1CFC JUMP JUMPDEST PUSH2 0x1CFC JUMP JUMPDEST SWAP2 DUP4 DUP2 PUSH2 0x309D JUMPI JUMPDEST SWAP1 POP DUP2 PUSH2 0x304B JUMPI JUMPDEST POP POP DUP1 ISZERO ISZERO DUP1 PUSH2 0x3041 JUMPI JUMPDEST PUSH2 0x2CDB JUMPI JUMPDEST POP POP SWAP1 POP JUMP JUMPDEST DUP4 MLOAD SWAP4 DUP5 ISZERO PUSH2 0x302B JUMPI PUSH1 0x0 JUMPDEST DUP2 MLOAD DUP2 LT ISZERO PUSH2 0x301D JUMPI PUSH2 0x2CFA DUP2 DUP4 PUSH2 0x2C0D JUMP JUMPDEST MLOAD PUSH1 0x0 MSTORE PUSH1 0xA PUSH1 0x20 MSTORE PUSH1 0xFF PUSH1 0x40 PUSH1 0x0 KECCAK256 SLOAD AND DUP1 PUSH2 0x3012 JUMPI JUMPDEST PUSH2 0x2D25 JUMPI JUMPDEST PUSH2 0x2D20 SWAP1 PUSH2 0x1CD7 JUMP JUMPDEST PUSH2 0x2CE7 JUMP JUMPDEST PUSH2 0x2D2F DUP2 DUP4 PUSH2 0x2C0D JUMP JUMPDEST MLOAD SWAP1 PUSH1 0x40 MLOAD PUSH4 0x133F7571 PUSH1 0xE3 SHL DUP2 MSTORE DUP3 PUSH1 0x4 DUP3 ADD MSTORE PUSH2 0x180 DUP2 PUSH1 0x24 DUP2 PUSH20 0xEC12A9F9A09F50550686363766CC153D03C27B5E GAS STATICCALL SWAP1 DUP2 ISZERO PUSH2 0x3006 JUMPI PUSH1 0x0 SWAP2 PUSH2 0x2FD9 JUMPI JUMPDEST POP PUSH32 0x0 PUSH1 0x1 PUSH1 0x1 PUSH1 0xA0 SHL SUB SWAP1 DUP2 AND SWAP2 AND EQ DUP1 ISZERO PUSH2 0x2FB2 JUMPI PUSH32 0x0 SWAP1 JUMPDEST ISZERO PUSH2 0x2F8B JUMPI PUSH32 0x0 SWAP1 JUMPDEST PUSH2 0x2E07 DUP10 DUP8 DIV PUSH1 0x1 PUSH1 0x1 PUSH1 0xA0 SHL SUB DUP4 AND PUSH2 0x1D9C JUMP JUMPDEST PUSH2 0x2E1C DUP10 DUP8 DIV PUSH1 0x1 PUSH1 0x1 PUSH1 0xA0 SHL SUB DUP5 AND PUSH2 0x1D9C JUMP JUMPDEST PUSH1 0x40 MLOAD DUP1 PUSH1 0xC0 DUP2 ADD LT PUSH8 0xFFFFFFFFFFFFFFFF PUSH1 0xC0 DUP4 ADD GT OR PUSH2 0x1D1D JUMPI PUSH1 0xC0 DUP2 ADD PUSH1 0x40 MSTORE DUP5 DUP2 MSTORE PUSH1 0x20 DUP2 ADD DUP11 DUP9 DIV DUP2 MSTORE PUSH1 0x40 DUP3 ADD SWAP1 DUP12 DUP10 DIV DUP3 MSTORE PUSH1 0x60 SWAP2 DUP3 DUP5 ADD PUSH1 0x0 DUP2 MSTORE PUSH1 0x80 DUP6 ADD SWAP2 PUSH1 0x0 DUP4 MSTORE PUSH1 0xA0 DUP7 ADD SWAP4 DUP14 DUP6 MSTORE PUSH1 0x40 MLOAD SWAP7 PUSH4 0x219F5D17 PUSH1 0xE0 SHL DUP9 MSTORE MLOAD PUSH1 0x4 DUP9 ADD MSTORE MLOAD PUSH1 0x24 DUP8 ADD MSTORE MLOAD PUSH1 0x44 DUP7 ADD MSTORE MLOAD PUSH1 0x64 DUP6 ADD MSTORE MLOAD PUSH1 0x84 DUP5 ADD MSTORE MLOAD PUSH1 0xA4 DUP4 ADD MSTORE DUP1 DUP3 PUSH1 0xC4 DUP2 PUSH1 0x0 PUSH20 0xEC12A9F9A09F50550686363766CC153D03C27B5E GAS CALL SWAP2 DUP3 SWAP2 PUSH1 0x0 SWAP4 PUSH2 0x2F40 JUMPI JUMPDEST POP POP SWAP2 PUSH2 0x2D20 SWAP6 PUSH2 0x2EF0 SWAP3 PUSH2 0x2EFE SWAP6 SWAP5 PUSH2 0x2F05 JUMPI JUMPDEST POP POP PUSH1 0x1 PUSH1 0x1 PUSH1 0xA0 SHL SUB AND PUSH2 0x1EA7 JUMP JUMPDEST PUSH1 0x1 PUSH1 0x1 PUSH1 0xA0 SHL SUB AND PUSH2 0x1EA7 JUMP JUMPDEST SWAP1 POP PUSH2 0x2D17 JUMP JUMPDEST PUSH1 0x20 PUSH32 0x9204F5F210613C88BBFEDBCF63911B917A440C100AFC438464FCA61B3D9E6CDD SWAP2 PUSH1 0x1 PUSH1 0x1 PUSH1 0x80 SHL SUB PUSH1 0x40 MLOAD SWAP2 AND DUP2 MSTORE LOG2 CODESIZE DUP1 PUSH2 0x2EE0 JUMP JUMPDEST SWAP1 DUP1 SWAP4 POP DUP2 SWAP6 SWAP5 SWAP3 SWAP6 RETURNDATASIZE DUP4 GT PUSH2 0x2F84 JUMPI JUMPDEST PUSH2 0x2F5B DUP2 DUP4 PUSH2 0x1D33 JUMP JUMPDEST DUP2 ADD SUB SLT PUSH2 0x802 JUMPI PUSH2 0x2D20 SWAP6 PUSH2 0x2EFE SWAP5 PUSH2 0x2F77 PUSH2 0x2EF0 SWAP5 PUSH2 0x215D JUMP JUMPDEST SWAP4 POP SWAP2 SWAP4 SWAP5 DUP2 SWAP8 POP PUSH2 0x2ECB JUMP JUMPDEST POP RETURNDATASIZE PUSH2 0x2F51 JUMP JUMPDEST PUSH32 0x0 SWAP1 PUSH2 0x2DF2 JUMP JUMPDEST PUSH32 0x0 SWAP1 PUSH2 0x2DCA JUMP JUMPDEST PUSH2 0x2FF4 SWAP2 POP PUSH2 0x180 RETURNDATASIZE PUSH2 0x180 GT PUSH2 0x47F JUMPI PUSH2 0x45A DUP2 DUP4 PUSH2 0x1D33 JUMP JUMPDEST POP POP POP POP POP POP POP POP POP SWAP2 POP POP CODESIZE PUSH2 0x2D71 JUMP JUMPDEST PUSH1 0x40 MLOAD RETURNDATASIZE PUSH1 0x0 DUP3 RETURNDATACOPY RETURNDATASIZE SWAP1 REVERT JUMPDEST POP DUP6 DUP4 DIV ISZERO ISZERO PUSH2 0x2D12 JUMP JUMPDEST POP POP POP POP SWAP1 POP DUP1 CODESIZE DUP1 PUSH2 0x2CD5 JUMP JUMPDEST PUSH4 0x4E487B71 PUSH1 0xE0 SHL PUSH1 0x0 MSTORE PUSH1 0x12 PUSH1 0x4 MSTORE PUSH1 0x24 PUSH1 0x0 REVERT JUMPDEST POP DUP4 MLOAD ISZERO ISZERO PUSH2 0x2CD0 JUMP JUMPDEST PUSH2 0x3096 SWAP2 PUSH32 0x0 PUSH32 0x0 PUSH2 0x30EF JUMP JUMPDEST CODESIZE DUP3 PUSH2 0x2CC5 JUMP JUMPDEST PUSH2 0x30E8 SWAP2 PUSH32 0x0 PUSH32 0x0 PUSH2 0x30EF JUMP JUMPDEST CODESIZE DUP4 PUSH2 0x2CBD JUMP JUMPDEST PUSH1 0x40 MLOAD PUSH4 0x95EA7B3 PUSH1 0xE0 SHL PUSH1 0x0 DUP2 DUP2 MSTORE PUSH20 0x91AD9E2E6E5ED44C1C66DB50E49A601F9F36CF6 PUSH1 0x4 MSTORE PUSH1 0x24 DUP7 SWAP1 MSTORE SWAP4 SWAP6 PUSH1 0x1 PUSH1 0x1 PUSH1 0xA0 SHL SUB SWAP1 SWAP4 AND SWAP5 SWAP4 SWAP1 SWAP2 SWAP1 PUSH1 0x20 SWAP1 PUSH1 0x44 DUP2 DUP1 DUP10 GAS CALL SWAP1 PUSH1 0x1 PUSH1 0x0 MLOAD EQ DUP3 AND ISZERO PUSH2 0x3419 JUMPI JUMPDEST PUSH1 0x40 MSTORE ISZERO PUSH2 0x3379 JUMPI JUMPDEST POP PUSH1 0x40 MLOAD SWAP1 PUSH2 0x100 DUP3 ADD DUP3 DUP2 LT PUSH8 0xFFFFFFFFFFFFFFFF DUP3 GT OR PUSH2 0x1D1D JUMPI PUSH1 0x40 SWAP1 DUP2 MSTORE DUP5 DUP4 MSTORE PUSH1 0x1 PUSH1 0x1 PUSH1 0xA0 SHL SUB DUP7 DUP2 AND PUSH1 0x20 DUP1 DUP7 ADD SWAP2 DUP3 MSTORE PUSH2 0xBB8 DUP7 DUP6 ADD SWAP1 DUP2 MSTORE ADDRESS PUSH1 0x60 DUP9 ADD SWAP1 DUP2 MSTORE PUSH1 0x80 DUP9 ADD SWAP7 DUP8 MSTORE PUSH1 0xA0 DUP9 ADD DUP10 DUP2 MSTORE PUSH1 0x0 PUSH1 0xC0 DUP11 ADD DUP2 DUP2 MSTORE PUSH1 0xE0 DUP12 ADD DUP3 DUP2 MSTORE SWAP9 MLOAD PUSH4 0x414BF389 PUSH1 0xE0 SHL DUP2 MSTORE SWAP11 MLOAD DUP9 AND PUSH1 0x4 DUP13 ADD MSTORE SWAP6 MLOAD DUP8 AND PUSH1 0x24 DUP12 ADD MSTORE SWAP3 MLOAD PUSH3 0xFFFFFF AND PUSH1 0x44 DUP11 ADD MSTORE SWAP1 MLOAD DUP6 AND PUSH1 0x64 DUP10 ADD MSTORE SWAP6 MLOAD PUSH1 0x84 DUP9 ADD MSTORE SWAP5 MLOAD PUSH1 0xA4 DUP8 ADD MSTORE SWAP1 MLOAD PUSH1 0xC4 DUP7 ADD MSTORE SWAP2 MLOAD AND PUSH1 0xE4 DUP5 ADD MSTORE SWAP1 DUP3 SWAP1 PUSH2 0x104 SWAP1 DUP3 SWAP1 PUSH20 0x91AD9E2E6E5ED44C1C66DB50E49A601F9F36CF6 GAS CALL PUSH1 0x0 SWAP2 DUP2 PUSH2 0x3345 JUMPI JUMPDEST POP PUSH2 0x32FF JUMPI POP RETURNDATASIZE ISZERO PUSH2 0x32F7 JUMPI RETURNDATASIZE SWAP3 PUSH8 0xFFFFFFFFFFFFFFFF DUP5 GT PUSH2 0x1D1D JUMPI PUSH1 0x40 MLOAD SWAP4 PUSH2 0x3265 PUSH1 0x1F DUP3 ADD PUSH1 0x1F NOT AND PUSH1 0x20 ADD DUP7 PUSH2 0x1D33 JUMP JUMPDEST DUP5 MSTORE RETURNDATASIZE PUSH1 0x0 PUSH1 0x20 DUP7 ADD RETURNDATACOPY JUMPDEST PUSH2 0x3279 DUP4 PUSH2 0x1F46 JUMP JUMPDEST PUSH1 0x40 MLOAD SWAP2 DUP3 MSTORE PUSH1 0x40 PUSH1 0x20 DUP4 ADD MSTORE DUP4 MLOAD SWAP4 DUP5 PUSH1 0x40 DUP5 ADD MSTORE PUSH1 0x0 JUMPDEST DUP6 DUP2 LT PUSH2 0x32E1 JUMPI POP POP SWAP1 PUSH1 0x60 DUP2 PUSH32 0x4A99E9308AF0D62ABB0E8DD29183F0FB3DAEAC398042972CA4A5F4C387DBD8AC SWAP4 PUSH1 0x0 DUP4 DUP9 DUP5 ADD ADD MSTORE PUSH1 0x1 DUP1 PUSH1 0xA0 SHL SUB AND SWAP6 PUSH1 0x1F DUP1 NOT SWAP2 ADD AND DUP2 ADD SUB ADD SWAP1 LOG3 JUMP JUMPDEST DUP1 PUSH1 0x20 DUP1 SWAP3 DUP5 ADD ADD MLOAD PUSH1 0x60 DUP3 DUP8 ADD ADD MSTORE ADD PUSH2 0x3292 JUMP JUMPDEST PUSH1 0x60 SWAP3 PUSH2 0x3270 JUMP JUMPDEST PUSH32 0xA078C4190ABE07940190EFFC1846BE0CCF03AD6007BC9E93F9697D0B460BEFBB SWAP2 SWAP4 PUSH1 0x40 SWAP2 PUSH2 0x332E DUP6 PUSH2 0x1F46 JUMP JUMPDEST DUP3 MLOAD SWAP6 DUP7 MSTORE PUSH1 0x20 DUP7 ADD MSTORE PUSH1 0x1 PUSH1 0x1 PUSH1 0xA0 SHL SUB AND SWAP4 LOG3 JUMP JUMPDEST SWAP1 SWAP2 PUSH1 0x20 DUP3 RETURNDATASIZE PUSH1 0x20 GT PUSH2 0x3371 JUMPI JUMPDEST DUP2 PUSH2 0x3360 PUSH1 0x20 SWAP4 DUP4 PUSH2 0x1D33 JUMP JUMPDEST DUP2 ADD SUB SLT PUSH2 0x490 JUMPI POP MLOAD SWAP1 CODESIZE PUSH2 0x3230 JUMP JUMPDEST RETURNDATASIZE SWAP2 POP PUSH2 0x3353 JUMP JUMPDEST PUSH2 0x3382 DUP5 PUSH2 0x202C JUMP JUMPDEST ISZERO PUSH2 0x3400 JUMPI PUSH1 0x20 PUSH1 0x0 PUSH1 0x40 MLOAD SWAP3 DUP2 MSTORE PUSH20 0x91AD9E2E6E5ED44C1C66DB50E49A601F9F36CF6 PUSH1 0x4 MSTORE DUP5 PUSH1 0x24 MSTORE PUSH1 0x44 DUP2 DUP1 DUP9 GAS CALL PUSH1 0x1 PUSH1 0x0 MLOAD EQ DUP2 AND ISZERO PUSH2 0x33E0 JUMPI JUMPDEST DUP2 PUSH1 0x40 MSTORE PUSH2 0x3150 JUMPI PUSH4 0x5274AFE7 PUSH1 0xE0 SHL DUP2 MSTORE PUSH1 0x4 DUP2 ADD DUP5 SWAP1 MSTORE PUSH1 0x24 SWAP1 REVERT JUMPDEST PUSH1 0x1 DUP2 ISZERO AND PUSH2 0x33F6 JUMPI DUP5 EXTCODESIZE ISZERO ISZERO RETURNDATASIZE ISZERO AND AND PUSH2 0x33C2 JUMP JUMPDEST POP RETURNDATASIZE PUSH1 0x0 DUP3 RETURNDATACOPY RETURNDATASIZE SWAP1 REVERT JUMPDEST PUSH1 0x40 MLOAD PUSH4 0x5274AFE7 PUSH1 0xE0 SHL DUP2 MSTORE PUSH1 0x4 DUP2 ADD DUP6 SWAP1 MSTORE PUSH1 0x24 SWAP1 REVERT JUMPDEST SWAP1 DUP6 EXTCODESIZE ISZERO ISZERO RETURNDATASIZE ISZERO AND AND SWAP1 PUSH2 0x3147 JUMP JUMPDEST PUSH1 0x40 MLOAD PUSH4 0xA9059CBB PUSH1 0xE0 SHL PUSH1 0x0 SWAP1 DUP2 MSTORE PUSH1 0x1 PUSH1 0x1 PUSH1 0xA0 SHL SUB SWAP4 DUP5 AND PUSH1 0x4 MSTORE PUSH1 0x24 SWAP5 SWAP1 SWAP5 MSTORE SWAP3 PUSH1 0x20 SWAP1 PUSH1 0x44 DUP2 DUP1 DUP6 GAS CALL PUSH1 0x1 PUSH1 0x0 MLOAD EQ DUP2 AND ISZERO PUSH2 0x3489 JUMPI JUMPDEST DUP4 PUSH1 0x40 MSTORE ISZERO PUSH2 0x3473 JUMPI POP POP POP JUMP JUMPDEST PUSH4 0x5274AFE7 PUSH1 0xE0 SHL DUP4 MSTORE AND PUSH1 0x4 DUP3 ADD MSTORE PUSH1 0x24 SWAP2 POP REVERT JUMPDEST PUSH1 0x1 DUP2 ISZERO AND PUSH2 0x349F JUMPI DUP2 EXTCODESIZE ISZERO ISZERO RETURNDATASIZE ISZERO AND AND PUSH2 0x3465 JUMP JUMPDEST DUP4 RETURNDATASIZE PUSH1 0x0 DUP3 RETURNDATACOPY RETURNDATASIZE SWAP1 REVERT INVALID LOG2 PUSH5 0x6970667358 0x22 SLT KECCAK256 0xBE 0xDB CREATE LOG3 0xC9 PUSH15 0x8D629EA7A15560ECDC3932E534F1FC 0xCF 0xE8 0xA9 SWAP9 DELEGATECALL 0x4D SWAP6 ADDRESS BLOCKHASH 0xCC 0x4D PUSH5 0x736F6C6343 STOP ADDMOD EQ STOP CALLER "},"methodIdentifiers":{"BTCH2O()":"acb47670","H2O()":"feaa524d","POSITION_MANAGER()":"1bea83fe","STAKING_CONTRACT()":"da19ddfb","SWAP_ROUTER()":"c6005893","TIME_TOKEN()":"22046088","UNISWAP_FACTORY()":"c74c0fac","WLD()":"de061d66","addOwner(address)":"7065cb48","addPosition(uint256)":"d2d6a872","btch2oShareBps()":"35e93277","claimStakingRewards(uint256)":"8fad2627","collectAll(uint256[],uint256)":"8d0b3c7c","collectFees(uint256[],uint256)":"c006ee2d","getConfig()":"c3f909d4","getManagedPositions()":"82f8fe78","getOwners()":"a0e67e2b","getPosition(uint256)":"eb02c301","getReserves()":"0902f1ac","getStakingInfo()":"b40cd21d","h2oShareBps()":"98fb86d3","inRange(uint256)":"40ec97c6","isManaged(uint256)":"55b6cce1","isOwner(address)":"2f54bf6e","lastReinvestAt()":"3cd57d61","managedPositions(uint256)":"8d95c2cf","ownerList(uint256)":"def79ab5","paused()":"5c975abb","pendingStakingReward()":"cb609064","primaryOwner()":"8e10be33","reinvestIntervalSecs()":"ce8021de","removeOwner(address)":"173825d9","removePosition(uint256)":"c0467422","reserve(address)":"e75179a4","reserveFeeBps()":"65db6579","setDistribution(uint256,uint256)":"f18dba26","setPaused(bool)":"16c38b3c","setReinvestInterval(uint256)":"10a135ca","setReserveFeeBps(uint256)":"4b41cb27","stakeTime(uint256)":"0a42f049","stakedTimeBalance()":"76d3fe8a","unstakeTime(uint256)":"616e1661","updateRanges(uint256[])":"d7759e6a","withdrawAll(address,address)":"09cae2c8","withdrawReserve(address,uint256,address)":"1d8d7c66"}}}}}