{
  "_format": "hh-sol-artifact-1",
  "contractName": "AutoReinvestBotV4",
  "sourceName": "contracts/AutoReinvestBotV4.sol",
  "abi": [
    {
      "inputs": [
        {
          "internalType": "address",
          "name": "_WLD",
          "type": "address"
        },
        {
          "internalType": "address",
          "name": "_H2O",
          "type": "address"
        },
        {
          "internalType": "address",
          "name": "_BTCH2O",
          "type": "address"
        }
      ],
      "stateMutability": "nonpayable",
      "type": "constructor"
    },
    {
      "inputs": [
        {
          "internalType": "address",
          "name": "owner",
          "type": "address"
        }
      ],
      "name": "OwnableInvalidOwner",
      "type": "error"
    },
    {
      "inputs": [
        {
          "internalType": "address",
          "name": "account",
          "type": "address"
        }
      ],
      "name": "OwnableUnauthorizedAccount",
      "type": "error"
    },
    {
      "inputs": [
        {
          "internalType": "address",
          "name": "token",
          "type": "address"
        }
      ],
      "name": "SafeERC20FailedOperation",
      "type": "error"
    },
    {
      "anonymous": false,
      "inputs": [
        {
          "indexed": false,
          "internalType": "uint256",
          "name": "id",
          "type": "uint256"
        },
        {
          "indexed": false,
          "internalType": "uint256",
          "name": "a0",
          "type": "uint256"
        },
        {
          "indexed": false,
          "internalType": "uint256",
          "name": "a1",
          "type": "uint256"
        }
      ],
      "name": "FeesCollected",
      "type": "event"
    },
    {
      "anonymous": false,
      "inputs": [
        {
          "indexed": true,
          "internalType": "address",
          "name": "previousOwner",
          "type": "address"
        },
        {
          "indexed": true,
          "internalType": "address",
          "name": "newOwner",
          "type": "address"
        }
      ],
      "name": "OwnershipTransferStarted",
      "type": "event"
    },
    {
      "anonymous": false,
      "inputs": [
        {
          "indexed": true,
          "internalType": "address",
          "name": "previousOwner",
          "type": "address"
        },
        {
          "indexed": true,
          "internalType": "address",
          "name": "newOwner",
          "type": "address"
        }
      ],
      "name": "OwnershipTransferred",
      "type": "event"
    },
    {
      "inputs": [],
      "name": "BTCH2O",
      "outputs": [
        {
          "internalType": "address",
          "name": "",
          "type": "address"
        }
      ],
      "stateMutability": "view",
      "type": "function"
    },
    {
      "inputs": [],
      "name": "H2O",
      "outputs": [
        {
          "internalType": "address",
          "name": "",
          "type": "address"
        }
      ],
      "stateMutability": "view",
      "type": "function"
    },
    {
      "inputs": [],
      "name": "POSITION_MANAGER",
      "outputs": [
        {
          "internalType": "address",
          "name": "",
          "type": "address"
        }
      ],
      "stateMutability": "view",
      "type": "function"
    },
    {
      "inputs": [],
      "name": "SWAP_ROUTER",
      "outputs": [
        {
          "internalType": "address",
          "name": "",
          "type": "address"
        }
      ],
      "stateMutability": "view",
      "type": "function"
    },
    {
      "inputs": [],
      "name": "UNISWAP_FACTORY",
      "outputs": [
        {
          "internalType": "address",
          "name": "",
          "type": "address"
        }
      ],
      "stateMutability": "view",
      "type": "function"
    },
    {
      "inputs": [],
      "name": "WLD",
      "outputs": [
        {
          "internalType": "address",
          "name": "",
          "type": "address"
        }
      ],
      "stateMutability": "view",
      "type": "function"
    },
    {
      "inputs": [],
      "name": "acceptOwnership",
      "outputs": [],
      "stateMutability": "nonpayable",
      "type": "function"
    },
    {
      "inputs": [
        {
          "internalType": "uint256",
          "name": "tokenId",
          "type": "uint256"
        }
      ],
      "name": "addPosition",
      "outputs": [],
      "stateMutability": "nonpayable",
      "type": "function"
    },
    {
      "inputs": [
        {
          "internalType": "uint256[]",
          "name": "tokenIds",
          "type": "uint256[]"
        },
        {
          "internalType": "uint256",
          "name": "deadline",
          "type": "uint256"
        }
      ],
      "name": "collectFees",
      "outputs": [],
      "stateMutability": "nonpayable",
      "type": "function"
    },
    {
      "inputs": [
        {
          "internalType": "uint256",
          "name": "",
          "type": "uint256"
        }
      ],
      "name": "inRange",
      "outputs": [
        {
          "internalType": "bool",
          "name": "",
          "type": "bool"
        }
      ],
      "stateMutability": "view",
      "type": "function"
    },
    {
      "inputs": [
        {
          "internalType": "uint256",
          "name": "",
          "type": "uint256"
        }
      ],
      "name": "isManaged",
      "outputs": [
        {
          "internalType": "bool",
          "name": "",
          "type": "bool"
        }
      ],
      "stateMutability": "view",
      "type": "function"
    },
    {
      "inputs": [
        {
          "internalType": "uint256",
          "name": "",
          "type": "uint256"
        }
      ],
      "name": "managedPositions",
      "outputs": [
        {
          "internalType": "uint256",
          "name": "",
          "type": "uint256"
        }
      ],
      "stateMutability": "view",
      "type": "function"
    },
    {
      "inputs": [],
      "name": "owner",
      "outputs": [
        {
          "internalType": "address",
          "name": "",
          "type": "address"
        }
      ],
      "stateMutability": "view",
      "type": "function"
    },
    {
      "inputs": [],
      "name": "pendingOwner",
      "outputs": [
        {
          "internalType": "address",
          "name": "",
          "type": "address"
        }
      ],
      "stateMutability": "view",
      "type": "function"
    },
    {
      "inputs": [],
      "name": "renounceOwnership",
      "outputs": [],
      "stateMutability": "nonpayable",
      "type": "function"
    },
    {
      "inputs": [
        {
          "internalType": "address",
          "name": "",
          "type": "address"
        }
      ],
      "name": "reserve",
      "outputs": [
        {
          "internalType": "uint256",
          "name": "",
          "type": "uint256"
        }
      ],
      "stateMutability": "view",
      "type": "function"
    },
    {
      "inputs": [
        {
          "internalType": "address",
          "name": "newOwner",
          "type": "address"
        }
      ],
      "name": "transferOwnership",
      "outputs": [],
      "stateMutability": "nonpayable",
      "type": "function"
    }
  ],
  "bytecode": "0x60e03461012957601f6113ae38819003918201601f19168301916001600160401b0383118484101761012e578084926060946040528339810103126101295761004781610144565b90610060604061005960208401610144565b9201610144565b9033156101105760018060a01b031992836001541660015560005493339085161760005560405193339060018060a01b03167f8be0079c531659141344cd1fd0a4f28419497f9722a3daafe3b4186f6b6457e0600080a360805260a05260c0526112559081610159823960805181818161020f0152818161062a015281816106af015281816107110152610a21015260a05181818160f0015261068e015260c0518181816106f00152610b390152f35b604051631e4fbdf760e01b815260006004820152602490fd5b600080fd5b634e487b7160e01b600052604160045260246000fd5b51906001600160a01b03821682036101295756fe608080604052600436101561001357600080fd5b60003560e01c9081631bea83fe14610d135750806340ec97c614610ce257806355b6cce114610cb1578063715018a614610c4c57806379ba509714610bc85780638d95c2cf14610b915780638da5cb5b14610b68578063acb4767014610b23578063c006ee2d1461059c578063c60058931461056d578063c74c0fac1461053e578063d2d6a8721461023e578063de061d66146101f9578063e30c3978146101d0578063e75179a414610192578063f2fde38b146101245763feaa524d146100da57600080fd5b3461011f57600036600319011261011f576040517f00000000000000000000000000000000000000000000000000000000000000006001600160a01b03168152602090f35b600080fd5b3461011f57602036600319011261011f576004356001600160a01b038181169182900361011f57610153610d8d565b816001600160601b0360a01b6001541617600155600054167f38d16b8cac22d99fc7c124b9cd0de2d3fa1faef420bfe791d8c362d765e22700600080a3005b3461011f57602036600319011261011f576004356001600160a01b0381169081900361011f5760005260046020526020604060002054604051908152f35b3461011f57600036600319011261011f576001546040516001600160a01b039091168152602090f35b3461011f57600036600319011261011f576040517f00000000000000000000000000000000000000000000000000000000000000006001600160a01b03168152602090f35b3461011f5760208060031936011261011f5760043561025b610d8d565b806000526002825260ff6040600020541661050757600554680100000000000000008110156104f1578060016102949201600555610d40565b81549060031b9083821b91600019901b1916179055806000526002825260406000209160ff19926001848254161790556040519063133f757160e31b8252826004830152610180808360248173ec12a9f9a09f50550686363766cc153d03c27b5e5afa92831561046157600080916000906000946000976104a7575b5050604051630b4c774160e11b81526001600160a01b039283166004820152928216602484015262ffffff166044830152908381606481737a5028bda40e7b173c278c5342087826455ea25a5afa801561046157829160009161046d575b5060e090600460405180948193633850c7bd861b8352165afa918215610461576000926103d9575b505060020b9060020b81121592836103ca575b5050600391926000525260ff60406000209283541691151516179055600080f35b60020b121591506003856103a9565b90915060e0823d8211610459575b816103f460e09383610da1565b8101031261011f5781519081160361011f5760c0610413848301610dd7565b9161042060408201610ea4565b5061042d60608201610ea4565b5061043a60808201610ea4565b5061044760a08201610ea4565b5001518015150361011f578680610396565b3d91506103e7565b6040513d6000823e3d90fd5b809250858092503d83116104a0575b6104868183610da1565b8101031261011f5760e061049a8392610dc3565b9061036e565b503d61047c565b925092505062ffffff94506104d19250803d106104ea575b6104c98183610da1565b810190610df9565b5050505050955096919290935091929593959089610310565b503d6104bf565b634e487b7160e01b600052604160045260246000fd5b60405162461bcd60e51b815260048101839052600f60248201526e105b1c9958591e481b585b9859d959608a1b6044820152606490fd5b3461011f57600036600319011261011f576020604051737a5028bda40e7b173c278c5342087826455ea25a8152f35b3461011f57600036600319011261011f57602060405173091ad9e2e6e5ed44c1c66db50e49a601f9f36cf68152f35b3461011f57604036600319011261011f5760043567ffffffffffffffff811161011f573660238201121561011f5767ffffffffffffffff81600401351161011f57366024826004013560051b8301011161011f576105f8610d8d565b60009060005b816004013581106108bc57508160011b828104600214831517156108a657606490049160018060a01b037f00000000000000000000000000000000000000000000000000000000000000001660005260046020526040600020610662848254610ed2565b9055828103928184116108a65714602883810290848204148217156108a6576106d390606460243591047f00000000000000000000000000000000000000000000000000000000000000007f0000000000000000000000000000000000000000000000000000000000000000610eff565b50601e8302928304601e1417156108a657610735602435606484047f00000000000000000000000000000000000000000000000000000000000000007f0000000000000000000000000000000000000000000000000000000000000000610eff565b5060005b8160040135811061074657005b61075881836004013560248501610ec2565b35600052600360205260ff6040600020541661077d575b61077890610eb3565b610739565b61078f81836004013560248501610ec2565b35906107a2836004013560648604610edf565b6107b3846004013560648704610edf565b90604051938460c081011067ffffffffffffffff60c0870111176104f15760c08501604052845260208401526040830152600060608301526000608083015260243560a083015273ec12a9f9a09f50550686363766cc153d03c27b5e3b1561011f5760a06040519263219f5d1760e01b84528051600485015260208101516024850152604081015160448501526060810151606485015260808101516084850152015160a483015260008260c4818373ec12a9f9a09f50550686363766cc153d03c27b5e5af180156104615761088b575b905061076f565b67ffffffffffffffff82116104f15761077891604052610884565b634e487b7160e01b600052601160045260246000fd5b916108cf83836004013560248501610ec2565b359081600052600260205260ff6040600020541615610af05760405163133f757160e31b8152600481018390526101809290838160248173ec12a9f9a09f50550686363766cc153d03c27b5e5afa93841561046157600094610ac5575b5050604051906080820182811067ffffffffffffffff8211176104f157604090815281835230602084019081526001600160801b038483018181526060808701838152855163fc6f786560e01b81529751600489015293516001600160a01b0316602488015290518216604487015291511660648501529083608481600073ec12a9f9a09f50550686363766cc153d03c27b5e5af191821561046157600093600093610a62575b50947fa54e6c2fc0861aa9c991b26891d71059d517983b9e84b91020f42609c452eb9d610a4f95949392610a5597604051908152856020820152846040820152a16001600160a01b039081167f000000000000000000000000000000000000000000000000000000000000000090911603610a5a575090610ed2565b92610eb3565b6105fe565b905090610ed2565b9250909392506040823d604011610abd575b81610a8160409383610da1565b8101031261011f5781516020909201519293919291907fa54e6c2fc0861aa9c991b26891d71059d517983b9e84b91020f42609c452eb9d6109d3565b3d9150610a74565b610adc929450803d106104ea576104c98183610da1565b50505050505050505091505091858061092c565b60405162461bcd60e51b815260206004820152600b60248201526a139bdd081b585b9859d95960aa1b6044820152606490fd5b3461011f57600036600319011261011f576040517f00000000000000000000000000000000000000000000000000000000000000006001600160a01b03168152602090f35b3461011f57600036600319011261011f576000546040516001600160a01b039091168152602090f35b3461011f57602036600319011261011f5760043560055481101561011f57610bba602091610d40565b90546040519160031b1c8152f35b3461011f57600036600319011261011f576001546001600160a01b033381831603610c34576001600160601b0360a01b8092166001556000549133908316176000553391167f8be0079c531659141344cd1fd0a4f28419497f9722a3daafe3b4186f6b6457e0600080a3005b60405163118cdaa760e01b8152336004820152602490fd5b3461011f57600036600319011261011f57610c65610d8d565b600180546001600160a01b0319908116909155600080549182168155906001600160a01b03167f8be0079c531659141344cd1fd0a4f28419497f9722a3daafe3b4186f6b6457e08280a3005b3461011f57602036600319011261011f576004356000526002602052602060ff604060002054166040519015158152f35b3461011f57602036600319011261011f576004356000526003602052602060ff604060002054166040519015158152f35b3461011f57600036600319011261011f578073ec12a9f9a09f50550686363766cc153d03c27b5e60209252f35b600554811015610d775760056000527f036b6384b5eca791c62761152d0c79bb0604c104a5fb6f4eb0703f3154bb3db00190600090565b634e487b7160e01b600052603260045260246000fd5b6000546001600160a01b03163303610c3457565b90601f8019910116810190811067ffffffffffffffff8211176104f157604052565b51906001600160a01b038216820361011f57565b51908160020b820361011f57565b51906001600160801b038216820361011f57565b91908261018091031261011f5781516001600160601b038116810361011f5791610e2560208201610dc3565b91610e3260408301610dc3565b91610e3f60608201610dc3565b91608082015162ffffff8116810361011f5791610e5e60a08201610dd7565b91610e6b60c08301610dd7565b91610e7860e08201610de5565b916101008201519161012081015191610ea1610160610e9a6101408501610de5565b9301610de5565b90565b519061ffff8216820361011f57565b60001981146108a65760010190565b9190811015610d775760051b0190565b919082018092116108a657565b8115610ee9570490565b634e487b7160e01b600052601260045260246000fd5b60405163095ea7b360e01b600081815273091ad9e2e6e5ed44c1c66db50e49a601f9f36cf660045260248190526001600160a01b03909316959392909190602090604481808a5af19060016000511482161561119f575b6040521561116b575b600060206040519183815273091ad9e2e6e5ed44c1c66db50e49a601f9f36cf660045286602452604481808a5af19060016000511482161561115c575b604052156110bc575b5060405193610100850185811067ffffffffffffffff8211176104f15760409081529085526001600160a01b039182166020808701918252610bb887840190815230606089019081526080890196875260a08901978852600060c08a0181815260e08b01828152965163414bf38960e01b81529a51881660048c01529451871660248b0152915162ffffff1660448a0152518516606489015294516084880152945160a48701525160c4860152511660e4840152829061010490829073091ad9e2e6e5ed44c1c66db50e49a601f9f36cf65af19081156104615760009161108a575090565b906020823d6020116110b4575b816110a460209383610da1565b810103126110b157505190565b80fd5b3d9150611097565b6110c5856111ae565b15611143576020600060405192815273091ad9e2e6e5ed44c1c66db50e49a601f9f36cf66004528560245260448180895af1600160005114811615611123575b81604052610fa557635274afe760e01b815260048101859052602490fd5b600181151661113957853b15153d151616611105565b503d6000823e3d90fd5b604051635274afe760e01b815260048101869052602490fd5b90863b15153d15161690610f9c565b611174856111ae565b1561114357611182856111ae565b610f5f57604051635274afe760e01b815260048101869052602490fd5b90863b15153d15161690610f56565b9060405160009263095ea7b360e01b845273091ad9e2e6e5ed44c1c66db50e49a601f9f36cf66004528360245260208460448180855af19360018151148516156111fa575b5050604052565b6001859395151661121557503b15153d1516169138806111f3565b84903d90823e3d90fdfea26469706673582212206cb4a15d2e61806b92fff059d4940312d1b1f111bfdb8bdda384e9192f4e7d4564736f6c63430008140033",
  "linkReferences": {},
  "deployedLinkReferences": {}
}