{
  "_format": "hh-sol-artifact-1",
  "contractName": "AutoReinvestBotV5",
  "sourceName": "contracts/AutoReinvestBotV5.sol",
  "abi": [
    {
      "inputs": [
        {
          "internalType": "address",
          "name": "_WLD",
          "type": "address"
        },
        {
          "internalType": "address",
          "name": "_H2O",
          "type": "address"
        },
        {
          "internalType": "address",
          "name": "_BTCH2O",
          "type": "address"
        }
      ],
      "stateMutability": "nonpayable",
      "type": "constructor"
    },
    {
      "inputs": [],
      "name": "ReentrancyGuardReentrantCall",
      "type": "error"
    },
    {
      "inputs": [
        {
          "internalType": "address",
          "name": "token",
          "type": "address"
        }
      ],
      "name": "SafeERC20FailedOperation",
      "type": "error"
    },
    {
      "anonymous": false,
      "inputs": [
        {
          "indexed": false,
          "internalType": "string",
          "name": "key",
          "type": "string"
        },
        {
          "indexed": false,
          "internalType": "uint256",
          "name": "value",
          "type": "uint256"
        }
      ],
      "name": "ConfigUpdated",
      "type": "event"
    },
    {
      "anonymous": false,
      "inputs": [
        {
          "indexed": true,
          "internalType": "uint256",
          "name": "tokenId",
          "type": "uint256"
        },
        {
          "indexed": false,
          "internalType": "uint256",
          "name": "amount0",
          "type": "uint256"
        },
        {
          "indexed": false,
          "internalType": "uint256",
          "name": "amount1",
          "type": "uint256"
        }
      ],
      "name": "FeesCollected",
      "type": "event"
    },
    {
      "anonymous": false,
      "inputs": [
        {
          "indexed": true,
          "internalType": "uint256",
          "name": "tokenId",
          "type": "uint256"
        },
        {
          "indexed": false,
          "internalType": "uint128",
          "name": "liquidity",
          "type": "uint128"
        }
      ],
      "name": "LiquidityAdded",
      "type": "event"
    },
    {
      "anonymous": false,
      "inputs": [
        {
          "indexed": true,
          "internalType": "address",
          "name": "owner",
          "type": "address"
        }
      ],
      "name": "OwnerAdded",
      "type": "event"
    },
    {
      "anonymous": false,
      "inputs": [
        {
          "indexed": true,
          "internalType": "address",
          "name": "owner",
          "type": "address"
        }
      ],
      "name": "OwnerRemoved",
      "type": "event"
    },
    {
      "anonymous": false,
      "inputs": [
        {
          "indexed": false,
          "internalType": "bool",
          "name": "isPaused",
          "type": "bool"
        }
      ],
      "name": "Paused",
      "type": "event"
    },
    {
      "anonymous": false,
      "inputs": [
        {
          "indexed": true,
          "internalType": "uint256",
          "name": "tokenId",
          "type": "uint256"
        }
      ],
      "name": "PositionAdded",
      "type": "event"
    },
    {
      "anonymous": false,
      "inputs": [
        {
          "indexed": true,
          "internalType": "uint256",
          "name": "tokenId",
          "type": "uint256"
        }
      ],
      "name": "PositionRemoved",
      "type": "event"
    },
    {
      "anonymous": false,
      "inputs": [
        {
          "indexed": false,
          "internalType": "uint256",
          "name": "timestamp",
          "type": "uint256"
        },
        {
          "indexed": false,
          "internalType": "uint256",
          "name": "totalWLD",
          "type": "uint256"
        }
      ],
      "name": "ReinvestCompleted",
      "type": "event"
    },
    {
      "anonymous": false,
      "inputs": [
        {
          "indexed": true,
          "internalType": "address",
          "name": "token",
          "type": "address"
        },
        {
          "indexed": true,
          "internalType": "address",
          "name": "to",
          "type": "address"
        },
        {
          "indexed": false,
          "internalType": "uint256",
          "name": "amount",
          "type": "uint256"
        }
      ],
      "name": "ReserveWithdrawn",
      "type": "event"
    },
    {
      "anonymous": false,
      "inputs": [
        {
          "indexed": true,
          "internalType": "address",
          "name": "tokenIn",
          "type": "address"
        },
        {
          "indexed": true,
          "internalType": "address",
          "name": "tokenOut",
          "type": "address"
        },
        {
          "indexed": false,
          "internalType": "uint256",
          "name": "amountIn",
          "type": "uint256"
        },
        {
          "indexed": false,
          "internalType": "uint256",
          "name": "amountOut",
          "type": "uint256"
        }
      ],
      "name": "Swapped",
      "type": "event"
    },
    {
      "inputs": [],
      "name": "BTCH2O",
      "outputs": [
        {
          "internalType": "address",
          "name": "",
          "type": "address"
        }
      ],
      "stateMutability": "view",
      "type": "function"
    },
    {
      "inputs": [],
      "name": "H2O",
      "outputs": [
        {
          "internalType": "address",
          "name": "",
          "type": "address"
        }
      ],
      "stateMutability": "view",
      "type": "function"
    },
    {
      "inputs": [],
      "name": "POSITION_MANAGER",
      "outputs": [
        {
          "internalType": "address",
          "name": "",
          "type": "address"
        }
      ],
      "stateMutability": "view",
      "type": "function"
    },
    {
      "inputs": [],
      "name": "SWAP_ROUTER",
      "outputs": [
        {
          "internalType": "address",
          "name": "",
          "type": "address"
        }
      ],
      "stateMutability": "view",
      "type": "function"
    },
    {
      "inputs": [],
      "name": "UNISWAP_FACTORY",
      "outputs": [
        {
          "internalType": "address",
          "name": "",
          "type": "address"
        }
      ],
      "stateMutability": "view",
      "type": "function"
    },
    {
      "inputs": [],
      "name": "WLD",
      "outputs": [
        {
          "internalType": "address",
          "name": "",
          "type": "address"
        }
      ],
      "stateMutability": "view",
      "type": "function"
    },
    {
      "inputs": [
        {
          "internalType": "address",
          "name": "newOwner",
          "type": "address"
        }
      ],
      "name": "addOwner",
      "outputs": [],
      "stateMutability": "nonpayable",
      "type": "function"
    },
    {
      "inputs": [
        {
          "internalType": "uint256",
          "name": "tokenId",
          "type": "uint256"
        }
      ],
      "name": "addPosition",
      "outputs": [],
      "stateMutability": "nonpayable",
      "type": "function"
    },
    {
      "inputs": [],
      "name": "btch2oShareBps",
      "outputs": [
        {
          "internalType": "uint256",
          "name": "",
          "type": "uint256"
        }
      ],
      "stateMutability": "view",
      "type": "function"
    },
    {
      "inputs": [
        {
          "internalType": "uint256[]",
          "name": "tokenIds",
          "type": "uint256[]"
        },
        {
          "internalType": "uint256",
          "name": "deadline",
          "type": "uint256"
        }
      ],
      "name": "collectFees",
      "outputs": [],
      "stateMutability": "nonpayable",
      "type": "function"
    },
    {
      "inputs": [],
      "name": "getConfig",
      "outputs": [
        {
          "internalType": "uint256",
          "name": "_slippageBps",
          "type": "uint256"
        },
        {
          "internalType": "uint256",
          "name": "_reinvestIntervalSecs",
          "type": "uint256"
        },
        {
          "internalType": "uint256",
          "name": "_reserveFeeBps",
          "type": "uint256"
        },
        {
          "internalType": "uint256",
          "name": "_h2oShareBps",
          "type": "uint256"
        },
        {
          "internalType": "uint256",
          "name": "_btch2oShareBps",
          "type": "uint256"
        },
        {
          "internalType": "bool",
          "name": "_paused",
          "type": "bool"
        },
        {
          "internalType": "uint256",
          "name": "_lastReinvestAt",
          "type": "uint256"
        }
      ],
      "stateMutability": "view",
      "type": "function"
    },
    {
      "inputs": [],
      "name": "getManagedPositions",
      "outputs": [
        {
          "internalType": "uint256[]",
          "name": "",
          "type": "uint256[]"
        }
      ],
      "stateMutability": "view",
      "type": "function"
    },
    {
      "inputs": [],
      "name": "getOwners",
      "outputs": [
        {
          "internalType": "address[]",
          "name": "",
          "type": "address[]"
        }
      ],
      "stateMutability": "view",
      "type": "function"
    },
    {
      "inputs": [
        {
          "internalType": "uint256",
          "name": "tokenId",
          "type": "uint256"
        }
      ],
      "name": "getPosition",
      "outputs": [
        {
          "internalType": "address",
          "name": "token0",
          "type": "address"
        },
        {
          "internalType": "address",
          "name": "token1",
          "type": "address"
        },
        {
          "internalType": "uint24",
          "name": "fee",
          "type": "uint24"
        },
        {
          "internalType": "int24",
          "name": "tickLower",
          "type": "int24"
        },
        {
          "internalType": "int24",
          "name": "tickUpper",
          "type": "int24"
        },
        {
          "internalType": "uint128",
          "name": "liquidity",
          "type": "uint128"
        },
        {
          "internalType": "uint128",
          "name": "tokensOwed0",
          "type": "uint128"
        },
        {
          "internalType": "uint128",
          "name": "tokensOwed1",
          "type": "uint128"
        },
        {
          "internalType": "bool",
          "name": "managed",
          "type": "bool"
        },
        {
          "internalType": "bool",
          "name": "isInRange",
          "type": "bool"
        }
      ],
      "stateMutability": "view",
      "type": "function"
    },
    {
      "inputs": [],
      "name": "getReserves",
      "outputs": [
        {
          "internalType": "uint256",
          "name": "wldReserve",
          "type": "uint256"
        },
        {
          "internalType": "uint256",
          "name": "h2oReserve",
          "type": "uint256"
        },
        {
          "internalType": "uint256",
          "name": "btch2oReserve",
          "type": "uint256"
        }
      ],
      "stateMutability": "view",
      "type": "function"
    },
    {
      "inputs": [],
      "name": "h2oShareBps",
      "outputs": [
        {
          "internalType": "uint256",
          "name": "",
          "type": "uint256"
        }
      ],
      "stateMutability": "view",
      "type": "function"
    },
    {
      "inputs": [
        {
          "internalType": "uint256",
          "name": "",
          "type": "uint256"
        }
      ],
      "name": "inRange",
      "outputs": [
        {
          "internalType": "bool",
          "name": "",
          "type": "bool"
        }
      ],
      "stateMutability": "view",
      "type": "function"
    },
    {
      "inputs": [
        {
          "internalType": "uint256",
          "name": "",
          "type": "uint256"
        }
      ],
      "name": "isManaged",
      "outputs": [
        {
          "internalType": "bool",
          "name": "",
          "type": "bool"
        }
      ],
      "stateMutability": "view",
      "type": "function"
    },
    {
      "inputs": [
        {
          "internalType": "address",
          "name": "",
          "type": "address"
        }
      ],
      "name": "isOwner",
      "outputs": [
        {
          "internalType": "bool",
          "name": "",
          "type": "bool"
        }
      ],
      "stateMutability": "view",
      "type": "function"
    },
    {
      "inputs": [],
      "name": "lastReinvestAt",
      "outputs": [
        {
          "internalType": "uint256",
          "name": "",
          "type": "uint256"
        }
      ],
      "stateMutability": "view",
      "type": "function"
    },
    {
      "inputs": [
        {
          "internalType": "uint256",
          "name": "",
          "type": "uint256"
        }
      ],
      "name": "managedPositions",
      "outputs": [
        {
          "internalType": "uint256",
          "name": "",
          "type": "uint256"
        }
      ],
      "stateMutability": "view",
      "type": "function"
    },
    {
      "inputs": [
        {
          "internalType": "uint256",
          "name": "",
          "type": "uint256"
        }
      ],
      "name": "ownerList",
      "outputs": [
        {
          "internalType": "address",
          "name": "",
          "type": "address"
        }
      ],
      "stateMutability": "view",
      "type": "function"
    },
    {
      "inputs": [],
      "name": "paused",
      "outputs": [
        {
          "internalType": "bool",
          "name": "",
          "type": "bool"
        }
      ],
      "stateMutability": "view",
      "type": "function"
    },
    {
      "inputs": [],
      "name": "primaryOwner",
      "outputs": [
        {
          "internalType": "address",
          "name": "",
          "type": "address"
        }
      ],
      "stateMutability": "view",
      "type": "function"
    },
    {
      "inputs": [],
      "name": "reinvestIntervalSecs",
      "outputs": [
        {
          "internalType": "uint256",
          "name": "",
          "type": "uint256"
        }
      ],
      "stateMutability": "view",
      "type": "function"
    },
    {
      "inputs": [
        {
          "internalType": "address",
          "name": "owner",
          "type": "address"
        }
      ],
      "name": "removeOwner",
      "outputs": [],
      "stateMutability": "nonpayable",
      "type": "function"
    },
    {
      "inputs": [
        {
          "internalType": "uint256",
          "name": "tokenId",
          "type": "uint256"
        }
      ],
      "name": "removePosition",
      "outputs": [],
      "stateMutability": "nonpayable",
      "type": "function"
    },
    {
      "inputs": [
        {
          "internalType": "address",
          "name": "",
          "type": "address"
        }
      ],
      "name": "reserve",
      "outputs": [
        {
          "internalType": "uint256",
          "name": "",
          "type": "uint256"
        }
      ],
      "stateMutability": "view",
      "type": "function"
    },
    {
      "inputs": [],
      "name": "reserveFeeBps",
      "outputs": [
        {
          "internalType": "uint256",
          "name": "",
          "type": "uint256"
        }
      ],
      "stateMutability": "view",
      "type": "function"
    },
    {
      "inputs": [
        {
          "internalType": "uint256",
          "name": "_h2oShareBps",
          "type": "uint256"
        },
        {
          "internalType": "uint256",
          "name": "_btch2oShareBps",
          "type": "uint256"
        }
      ],
      "name": "setDistribution",
      "outputs": [],
      "stateMutability": "nonpayable",
      "type": "function"
    },
    {
      "inputs": [
        {
          "internalType": "bool",
          "name": "_paused",
          "type": "bool"
        }
      ],
      "name": "setPaused",
      "outputs": [],
      "stateMutability": "nonpayable",
      "type": "function"
    },
    {
      "inputs": [
        {
          "internalType": "uint256",
          "name": "secs",
          "type": "uint256"
        }
      ],
      "name": "setReinvestInterval",
      "outputs": [],
      "stateMutability": "nonpayable",
      "type": "function"
    },
    {
      "inputs": [
        {
          "internalType": "uint256",
          "name": "bps",
          "type": "uint256"
        }
      ],
      "name": "setReserveFeeBps",
      "outputs": [],
      "stateMutability": "nonpayable",
      "type": "function"
    },
    {
      "inputs": [
        {
          "internalType": "uint256",
          "name": "bps",
          "type": "uint256"
        }
      ],
      "name": "setSlippage",
      "outputs": [],
      "stateMutability": "nonpayable",
      "type": "function"
    },
    {
      "inputs": [],
      "name": "slippageBps",
      "outputs": [
        {
          "internalType": "uint256",
          "name": "",
          "type": "uint256"
        }
      ],
      "stateMutability": "view",
      "type": "function"
    },
    {
      "inputs": [
        {
          "internalType": "uint256[]",
          "name": "tokenIds",
          "type": "uint256[]"
        }
      ],
      "name": "updateRanges",
      "outputs": [],
      "stateMutability": "nonpayable",
      "type": "function"
    },
    {
      "inputs": [
        {
          "internalType": "address",
          "name": "token",
          "type": "address"
        },
        {
          "internalType": "address",
          "name": "to",
          "type": "address"
        }
      ],
      "name": "withdrawAll",
      "outputs": [],
      "stateMutability": "nonpayable",
      "type": "function"
    },
    {
      "inputs": [
        {
          "internalType": "address",
          "name": "token",
          "type": "address"
        },
        {
          "internalType": "uint256",
          "name": "amount",
          "type": "uint256"
        },
        {
          "internalType": "address",
          "name": "to",
          "type": "address"
        }
      ],
      "name": "withdrawReserve",
      "outputs": [],
      "stateMutability": "nonpayable",
      "type": "function"
    }
  ],
  "bytecode": "0x60e034620001e557601f62002a1f38819003918201601f19168301916001600160401b03831184841017620001ea57808492606094604052833981010312620001e5576200004d8162000200565b906200006a6040620000626020840162000200565b920162000200565b9160017f9b779b17422d0df92223018b32b4d1fa46e071723d6817e2486d003becc55f005560805260a05260c05260018060a01b03196000903381835416178255338252600160205260408220600160ff1982541617905560025468010000000000000000811015620001d1576001810180600255811015620001bd57600283527f405787fa12a823e0f2b7631cc41b3ba8828b3321ca811111fa75cd3aa3bb5ace0180549091163317905560035561012c60045560c8600555610fa0600655610bb860075560405161280990816200021682396080518181816105700152818161150401528181611ad501528181611c4001528181611c6901528181611e9001528181611f3201528181611f850152612106015260a0518181816101da0152818161153401528181611c8a01528181611e6f0152611f64015260c051818181610a600152818161155d0152611f110152f35b634e487b7160e01b83526032600452602483fd5b634e487b7160e01b83526041600452602483fd5b600080fd5b634e487b7160e01b600052604160045260246000fd5b51906001600160a01b0382168203620001e55756fe608060408181526004918236101561001657600080fd5b600092833560e01c9182630902f1ac146114e35750816309cae2c8146113c057816310a135ca1461131757816316c38b3c146112a6578163173825d9146110ce5781631bea83fe1461109f5781631d8d7c6614610fae5781632f54bf6e14610f7057816335e9327714610f515781633cd57d6114610f3257816340ec97c614610f055781634b41cb2714610e6057816355b6cce114610e33578163578c71d914610e145781635c975abb14610df057816365db657914610dd15781637065cb4814610c8757816382f8fe7814610bd45781638d95c2cf14610b9b5781638e10be3314610b7357816398fb86d314610b54578163a0e67e2b14610a8f578163acb4767014610a4b578163c006ee2d1461096f578163c046742214610822578163c3f909d4146107cb578163c60058931461079c578163c74c0fac1461076d578163ce8021de1461074f578163d2d6a87214610644578163d7759e6a1461059f578163de061d661461055b578163def79ab51461051a578163e75179a4146104e2578163eb02c301146103a1578163f0fa55a9146102f9578163f18dba261461020d575063feaa524d146101c757600080fd5b34610209578160031936011261020957517f00000000000000000000000000000000000000000000000000000000000000006001600160a01b03168152602090f35b5080fd5b83915034610209578260031936011261020957803560243591338452600160205261023d60ff868620541661165e565b61271061024a8484611703565b116102c157508360809282849360065581600755825190838252600b848301526a68326f536861726542707360a81b606083015260208201526000805160206127b4833981519152948591a1600e8251928084528301526d62746368326f536861726542707360901b60608301526020820152a180f35b606490602086519162461bcd60e51b8352820152601260248201527153686172657320657863656564203130302560701b6044820152fd5b90503461039d57602036600319011261039d57803590338452600160205261032660ff848620541661165e565b612710821161036f57506000805160206127b48339815191529181608092600355600b8251928084528301526a736c69707061676542707360a81b60608301526020820152a180f35b606490602084519162461bcd60e51b835282015260086024820152674d6178203130302560c01b6044820152fd5b8280fd5b8284346104df5760203660031901126104df578235908183519463133f757160e31b8652850152610180808560248173ec12a9f9a09f50550686363766cc153d03c27b5e5afa80156104d5576101409583948496859086918793889589988a98610482575b50509062ffffff918952600a60205260ff8381818c2054169a600b6020522054169983519b60018060a01b038092168d521660208c0152169089015260020b606088015260020b60808701526001600160801b03928380921660a08801521660c08601521660e084015215156101008301521515610120820152f35b9550955096505097505062ffffff95506104b19250803d106104ce575b6104a981836116cb565b810190611790565b979e989d909b979a509298509296939593949392508e9050610406565b503d61049f565b84513d84823e3d90fd5b80fd5b5050346102095760203660031901126102095760209181906001600160a01b0361050a61158e565b168152600d845220549051908152f35b90503461039d57602036600319011261039d5735916002548310156104df57506105456020926115a9565b905491519160018060a01b039160031b1c168152f35b505034610209578160031936011261020957517f00000000000000000000000000000000000000000000000000000000000000006001600160a01b03168152602090f35b9190503461039d57602091826003193601126106405780359067ffffffffffffffff821161063c576105d39136910161162d565b913385526001845260ff906105ec82828820541661165e565b855b8481106105f9578680f35b8061060861061e92878761174a565b358852600a875283838920541661062357611699565b6105ee565b61063761063182888861174a565b3561184f565b611699565b8480fd5b8380fd5b9190503461039d57602036600319011261039d57813591338452600160205261067260ff838620541661165e565b828452600a60205260ff828520541661071b57600c5490600160401b8210156107085750826106aa8260016106c39401600c556115f6565b90919082549060031b91821b91600019901b1916179055565b818352600a6020528220805460ff191660011790556106e18161184f565b7f3d0a2b1c6f8e72f333688e33b7fc1767f042d33eaef1d3b5db5968567033e91f8280a280f35b634e487b7160e01b855260419052602484fd5b6020606492519162461bcd60e51b8352820152600f60248201526e105b1c9958591e481b585b9859d959608a1b6044820152fd5b90503461039d578260031936011261039d5760209250549051908152f35b50503461020957816003193601126102095760209051737a5028bda40e7b173c278c5342087826455ea25a8152f35b5050346102095781600319360112610209576020905173091ad9e2e6e5ed44c1c66db50e49a601f9f36cf68152f35b9190503461039d578260031936011261039d5760e092506003549154906005546006546007549160ff6008541693600954958151978852602088015286015260608501526080840152151560a083015260c0820152f35b90503461039d57602036600319011261039d579081359182913385526001908160205261085460ff828820541661165e565b838652600a60205261086b60ff8288205416611710565b838652600a6020528520805460ff1916905584815b6108ae575b85847f8dab17171ceb83acca6e0d86e9c8b6d3f2eec3a1ec6a5a2f9a3f1b7e17ad10358280a280f35b600c805480831015610968576108c3836115f6565b969054600397881b1c146108e95750506108df91929350611699565b9083929181610880565b925092906000199283810190811161095557906106aa61090b610917936115f6565b905490881b1c916115f6565b8254908115610942575081019261092d846115f6565b81939154921b1b191690555580388080610885565b634e487b7160e01b875260319052602486fd5b634e487b7160e01b885260118352602488fd5b5050610885565b90503461039d578160031936011261039d57803567ffffffffffffffff81116106405761099f903690830161162d565b909133855260016020526109b860ff858720541661165e565b60ff60085416610a13577f9b779b17422d0df92223018b32b4d1fa46e071723d6817e2486d003becc55f00936002855414610a06576002855585600186610a026024358789611a9e565b5580f35b51633ee5aeb560e01b8152fd5b606490602085519162461bcd60e51b8352820152601260248201527110dbdb9d1c9858dd081a5cc81c185d5cd95960721b6044820152fd5b505034610209578160031936011261020957517f00000000000000000000000000000000000000000000000000000000000000006001600160a01b03168152602090f35b8284346104df57806003193601126104df579080519182906002549182855260208095018093600284527f405787fa12a823e0f2b7631cc41b3ba8828b3321ca811111fa75cd3aa3bb5ace90845b818110610b375750505081610af39103826116cb565b83519485948186019282875251809352850193925b828110610b1757505050500390f35b83516001600160a01b031685528695509381019392810192600101610b08565b82546001600160a01b031684529288019260019283019201610add565b5050346102095781600319360112610209576020906006549051908152f35b505034610209578160031936011261020957905490516001600160a01b039091168152602090f35b90503461039d57602036600319011261039d573591600c548310156104df5750610bc66020926115f6565b91905490519160031b1c8152f35b8284346104df57806003193601126104df57908051918290600c549182855260208095018093600c84527fdf6966c971051c3d54ec59162606531493a51404a002842f56009d7e5cf4a8c790845b818110610c735750505081610c389103826116cb565b83519485948186019282875251809352850193925b828110610c5c57505050500390f35b835185528695509381019392810192600101610c4d565b825484529288019260019283019201610c22565b838334610209576020908160031936011261039d57610ca461158e565b9033845260018352610cbb60ff828620541661165e565b6001600160a01b038216928315610da0578385526001815260ff8286205416610d6e57600190848652528320600160ff19825416179055600254600160401b811015610d5b5790610d15826001610d3494016002556115a9565b90919082549060031b9160018060a01b03809116831b921b1916179055565b7f994a936646fe87ffe4f1e469d3d6aa417d6b855598397f323de5b449f765f0c38280a280f35b634e487b7160e01b845260418552602484fd5b8590606492519162461bcd60e51b8352820152600d60248201526c20b63932b0b23c9037bbb732b960991b6044820152fd5b8590606492519162461bcd60e51b8352820152600c60248201526b5a65726f206164647265737360a01b6044820152fd5b5050346102095781600319360112610209576020906005549051908152f35b50503461020957816003193601126102095760209060ff6008541690519015158152f35b5050346102095781600319360112610209576020906003549051908152f35b90503461039d57602036600319011261039d578160209360ff92358152600a855220541690519015158152f35b90503461039d57602036600319011261039d578035903384526001602052610e8d60ff848620541661165e565b6107d08211610ed857506000805160206127b48339815191529181608092600555600d8251928084528301526c7265736572766546656542707360981b60608301526020820152a180f35b606490602084519162461bcd60e51b835282015260076024820152664d61782032302560c81b6044820152fd5b90503461039d57602036600319011261039d578160209360ff92358152600b855220541690519015158152f35b5050346102095781600319360112610209576020906009549051908152f35b5050346102095781600319360112610209576020906007549051908152f35b5050346102095760203660031901126102095760209160ff9082906001600160a01b03610f9b61158e565b1681526001855220541690519015158152f35b90503461039d57606036600319011261039d57610fc961158e565b6001600160a01b03604435818116946024359390929086830361109b573388526001602052610ffd60ff858a20541661165e565b1693848752600d602052838388205410611061575091602091611059827fde13184e8cbb6eccbcecfc796bf8820e5ffde0534c01b4fabed4b05982964a4495878a52600d8652838a206110518382546116be565b905587612732565b51908152a380f35b606490602084519162461bcd60e51b83528201526014602482015273496e73756666696369656e74207265736572766560601b6044820152fd5b8780fd5b5050346102095781600319360112610209576020905173ec12a9f9a09f50550686363766cc153d03c27b5e8152f35b90503461039d57602036600319011261039d576110e961158e565b83546001600160a01b039081169290913384900361126e57821692831461122b578285526001938460205261112360ff828820541661165e565b83865260208590528520805460ff1916905584845b611166575b85847f58619076adf5bb0943d100ef88d52d7c3fd691b19d3a9071b555b651fbf418da8280a280f35b6002805480831015611224579084918661117f856115a9565b949054600395861b1c16146111a05750505061119a90611699565b84611138565b9290949391959650600019928381019081116112115790610d15856111c76111d4946115a9565b9054908a1b1c16916115a9565b83549081156111fe575001926111e9846115a9565b81939154921b1b19169055558038808061113d565b634e487b7160e01b885260319052602487fd5b634e487b7160e01b895260118352602489fd5b505061113d565b606490602085519162461bcd60e51b8352820152601b60248201527f43616e6e6f742072656d6f7665207072696d617279206f776e657200000000006044820152fd5b845162461bcd60e51b8152602081840152601260248201527127b7363c90383934b6b0b93c9037bbb732b960711b6044820152606490fd5b90503461039d57602036600319011261039d57359081151580920361039d577f0e2fb031ee032dc02d8011dc50b816eb450cf856abd8261680dac74f72165bd2916020913385526001835261130060ff828720541661165e565b60ff196008541660ff83161760085551908152a180f35b90503461039d57602036600319011261039d57803590338452600160205261134460ff848620541661165e565b603c82106113935791816080926000805160206127b483398151915294556014825192808452830152737265696e76657374496e74657276616c5365637360601b60608301526020820152a180f35b606490602084519162461bcd60e51b835282015260076024820152664d696e2036307360c81b6044820152fd5b90503461039d578160031936011261039d576113da61158e565b6001600160a01b03602435818116949093918585036114df573387526020936001855261140c60ff848a20541661165e565b16938151926370a0823160e01b845230818501528484602481895afa9384156114d55788946114a6575b50831561146d575090611059837fde13184e8cbb6eccbcecfc796bf8820e5ffde0534c01b4fabed4b05982964a4495949387612732565b825162461bcd60e51b815290810185905260136024820152724e6f7468696e6720746f20776974686472617760681b6044820152606490fd5b9093508481813d83116114ce575b6114be81836116cb565b8101031261109b57519238611436565b503d6114b4565b83513d8a823e3d90fd5b8680fd5b8490843461039d578260031936011261039d579160609260018060a01b03807f0000000000000000000000000000000000000000000000000000000000000000168352600d602052818084205493827f000000000000000000000000000000000000000000000000000000000000000016815281812054927f000000000000000000000000000000000000000000000000000000000000000016815220549284526020840152820152f35b600435906001600160a01b03821682036115a457565b600080fd5b6002548110156115e05760026000527f405787fa12a823e0f2b7631cc41b3ba8828b3321ca811111fa75cd3aa3bb5ace0190600090565b634e487b7160e01b600052603260045260246000fd5b600c548110156115e057600c6000527fdf6966c971051c3d54ec59162606531493a51404a002842f56009d7e5cf4a8c70190600090565b9181601f840112156115a45782359167ffffffffffffffff83116115a4576020808501948460051b0101116115a457565b1561166557565b60405162461bcd60e51b815260206004820152600c60248201526b2737ba1030b71037bbb732b960a11b6044820152606490fd5b60001981146116a85760010190565b634e487b7160e01b600052601160045260246000fd5b919082039182116116a857565b90601f8019910116810190811067ffffffffffffffff8211176116ed57604052565b634e487b7160e01b600052604160045260246000fd5b919082018092116116a857565b1561171757565b60405162461bcd60e51b815260206004820152600b60248201526a139bdd081b585b9859d95960aa1b6044820152606490fd5b91908110156115e05760051b0190565b51906001600160a01b03821682036115a457565b51908160020b82036115a457565b51906001600160801b03821682036115a457565b9190826101809103126115a45781516bffffffffffffffffffffffff811681036115a457916117c16020820161175a565b916117ce6040830161175a565b916117db6060820161175a565b91608082015162ffffff811681036115a457916117fa60a0820161176e565b9161180760c0830161176e565b9161181460e0820161177c565b91610100820151916101208101519161183d610160611836610140850161177c565b930161177c565b90565b519061ffff821682036115a457565b6040805163133f757160e31b81526004810183905261018092838260248173ec12a9f9a09f50550686363766cc153d03c27b5e5afa938415611a80576000928390849085938698611a46575b50508551630b4c774160e11b81526001600160a01b039586166004820152918516602483015262ffffff166044820152602093908481606481737a5028bda40e7b173c278c5342087826455ea25a5afa908115611a0457908291600091611a0f575b5016908161190f575b50505050505050565b60e0600492875193848092633850c7bd851b82525afa908115611a045760009161197f575b50905060020b9060020b8112159485611970575b505090600b91600052526000209060ff80198354169115151617905538808080808080611906565b60020b12159350600b38611948565b60e0833d82116119fc575b8161199760e093836116cb565b81010312610209578251908116036104df5760c06119b686840161176e565b926119c2888201611840565b506119cf60608201611840565b506119dc60808201611840565b506119e960a08201611840565b500151801515036104df57508038611934565b3d915061198a565b86513d6000823e3d90fd5b91508582813d8311611a3f575b611a2681836116cb565b810103126104df5750611a39829161175a565b386118fd565b503d611a1c565b9250925050611a6892955062ffffff9350803d106104ce576104a981836116cb565b5050505050945097945091949091969296903861189b565b83513d6000823e3d90fd5b818102929181159184041417156116a857565b600092835b838110611fb757508315611fb157611b3b92612710611b40611b1582611acb6005548a611a8b565b0460018060a01b037f000000000000000000000000000000000000000000000000000000000000000016600052600d6020526040600020611b0d828254611703565b9055886116be565b82611b2260065483611a8b565b04968793611b3260075484611a8b565b049384926116be565b6116be565b948381611f5e575b905081611f0b575b505083151580611f02575b611b9a575b5050505060407fc9ad57538c87a56b42547ba3335109c64ed9619d5cf403928283e46967b80c4491426009558151904282526020820152a1565b8015611eec5760005b818110611bb05750611b60565b611bbb81838661174a565b35600052600b60205260ff6040600020541680611ee1575b611be6575b611be190611699565b611ba3565b611bf181838661174a565b3560405163133f757160e31b81528160048201526101808160248173ec12a9f9a09f50550686363766cc153d03c27b5e5afa908115611e6157600091611eb4575b506001600160a01b039081167f000000000000000000000000000000000000000000000000000000000000000090911603611e6d577f00000000000000000000000000000000000000000000000000000000000000007f00000000000000000000000000000000000000000000000000000000000000005b611cbf8589046001600160a01b0384166124cd565b611cd48589046001600160a01b0383166124cd565b604051918260c081011067ffffffffffffffff60c0850111176116ed5760c0830160405283835260208301868a04815260408401878b048152606085016000815260808601916000835260a08701938b85526040519763219f5d1760e01b89525160048901525160248801525160448701525160648601525160848501525160a484015260608360c481600073ec12a9f9a09f50550686363766cc153d03c27b5e5af1928315611e6157600093611dee575b50611be19493927f9204f5f210613c88bbfedbcf63911b917a440c100afc438464fca61b3d9e6cdd92602092611dd79190611dc9906001600160a01b03166125d7565b6001600160a01b03166125d7565b6001600160801b0360405191168152a29050611bd8565b90926060823d606011611e59575b81611e09606093836116cb565b810103126104df5750611be1949392611dd77f9204f5f210613c88bbfedbcf63911b917a440c100afc438464fca61b3d9e6cdd93611dc9611e4b60209561177c565b969798505093505090611d86565b3d9150611dfc565b6040513d6000823e3d90fd5b7f00000000000000000000000000000000000000000000000000000000000000007f0000000000000000000000000000000000000000000000000000000000000000611caa565b611ecf91506101803d610180116104ce576104a981836116cb565b50505050505050505091505038611c32565b508185041515611bd3565b634e487b7160e01b600052601260045260246000fd5b50801515611b5b565b611f56917f00000000000000000000000000000000000000000000000000000000000000007f00000000000000000000000000000000000000000000000000000000000000006121f2565b503882611b50565b611fa9917f00000000000000000000000000000000000000000000000000000000000000007f00000000000000000000000000000000000000000000000000000000000000006121f2565b503883611b48565b50505050565b93611fc385858561174a565b35806000526020600a8152604091611fe160ff846000205416611710565b825163133f757160e31b8152600480820183905293610180929160249073ec12a9f9a09f50550686363766cc153d03c27b5e9085818481855afa9586156121e7576000966121bc575b50508251916080830183811067ffffffffffffffff8211176121a8578452848352308784019081526001600160801b0384860181815260608601828152875163fc6f786560e01b815296519b87019b909b5291516001600160a01b0316928501929092525181166044840152965190961660648201529481908690815a608492600091f193841561219d576000958695612147575b50917fa54e6c2fc0861aa9c991b26891d71059d517983b9e84b91020f42609c452eb9d82869461213a99976121349997955191888352820152a26001600160a01b039081167f00000000000000000000000000000000000000000000000000000000000000009091160361213f575090611703565b94611699565b611aa3565b905090611703565b959094508186813d8311612196575b61216081836116cb565b810103126104df5750845194840151937fa54e6c2fc0861aa9c991b26891d71059d517983b9e84b91020f42609c452eb9d6120bf565b503d612156565b50513d6000823e3d90fd5b50634e487b7160e01b600090815260418952fd5b6121d3929650803d106104ce576104a981836116cb565b50505050505050505091505093388061202a565b84513d6000823e3d90fd5b93929190600091604091825163095ea7b360e01b8552602073091ad9e2e6e5ed44c1c66db50e49a601f9f36cf698896004528460245260018060a01b03169560448180895af1906001600051148216156124be575b84521561243e575b60035460008161240b57505060005b835191610100830183811067ffffffffffffffff8211176116ed5785528583526001600160a01b039081166020808501828152610bb88689019081523060608801908152608088019b8c5260a0880189815260c08901978852600060e08a018181528c5163414bf38960e01b81529a51891660048c01529451881660248b0152925162ffffff1660448a01529051861660648901529a516084880152995160a4870152935160c4860152925190911660e48401529582906101049082908b5af1908115611a80576000916123d9575b5080966020600085519263095ea7b360e01b82526004528060245260448180895af1906001600051148216156123ca575b845215612396575b825191825260208201527fa078c4190abe07940190effc1846be0ccf03ad6007bc9e93f9697d0b460befbb9190a3565b61239f84612676565b156123b2576123ad84612676565b612366575b8251635274afe760e01b815260048101859052602490fd5b90853b15153d1516169061235e565b906020823d602011612403575b816123f3602093836116cb565b810103126104df5750513861232d565b3d91506123e6565b6127109182039082821161242a57506124249084611a8b565b0461225e565b634e487b7160e01b81526011600452602490fd5b61244784612676565b156123b2576000602084519163095ea7b360e01b8152896004528460245260448180895af160016000511481161561249e575b81855215612488575061224f565b635274afe760e01b815260048101859052602490fd5b60018115166124b457853b15153d15161661247a565b503d6000823e3d90fd5b90853b15153d15161690612247565b60006040519263095ea7b360e01b93848352602073ec12a9f9a09f50550686363766cc153d03c27b5e93846004528360245260448180885af1906001600051148216156125c8575b604052156125235750505050565b61252c836126e7565b156125a7579060209160009160405195835260045260245260448180855af1600160005114811615612587575b8260405215612569578080611fb1565b635274afe760e01b82526001600160a01b0316600482015260249150fd5b600181151661259d57813b15153d151616612559565b823d6000823e3d90fd5b604051635274afe760e01b81526001600160a01b0384166004820152602490fd5b90843b15153d15161690612515565b600060206040519163095ea7b360e01b815273ec12a9f9a09f50550686363766cc153d03c27b5e6004528060245260448180865af190600160005114821615612667575b604052156126265750565b61262f816126e7565b156126455761263d816126e7565b156126455750565b604051635274afe760e01b81526001600160a01b039091166004820152602490fd5b90823b15153d1516169061261b565b9060405160009263095ea7b360e01b845273091ad9e2e6e5ed44c1c66db50e49a601f9f36cf66004528360245260208460448180855af19360018151148516156126c2575b5050604052565b600185939515166126dd57503b15153d1516169138806126bb565b84903d90823e3d90fd5b9060405160009263095ea7b360e01b845273ec12a9f9a09f50550686363766cc153d03c27b5e6004528360245260208460448180855af19360018151148516156126c2575050604052565b60405163a9059cbb60e01b60009081526001600160a01b039384166004526024949094529260209060448180855af1600160005114811615612793575b836040521561277d57505050565b635274afe760e01b835216600482015260249150fd5b60018115166127a957813b15153d15161661276f565b833d6000823e3d90fdfe12c9dccd129ff783f1c8228eacdfa8e334ddecb7ec5c9a79ec662a4aed3d012aa2646970667358221220b5e950a74f5bd11b2e265b5b539b9f8911a513c74232b7046b2b052bc1e41ea064736f6c63430008140033",
  "linkReferences": {},
  "deployedLinkReferences": {}
}