{
  "_format": "hh-sol-artifact-1",
  "contractName": "AutoReinvestBotV5",
  "sourceName": "contracts/AutoReinvestBotV5.sol",
  "abi": [
    {
      "inputs": [
        {
          "internalType": "address",
          "name": "_WLD",
          "type": "address"
        },
        {
          "internalType": "address",
          "name": "_H2O",
          "type": "address"
        },
        {
          "internalType": "address",
          "name": "_BTCH2O",
          "type": "address"
        },
        {
          "internalType": "address",
          "name": "_timeToken",
          "type": "address"
        },
        {
          "internalType": "address",
          "name": "_stakingContract",
          "type": "address"
        }
      ],
      "stateMutability": "nonpayable",
      "type": "constructor"
    },
    {
      "inputs": [],
      "name": "ReentrancyGuardReentrantCall",
      "type": "error"
    },
    {
      "inputs": [
        {
          "internalType": "address",
          "name": "token",
          "type": "address"
        }
      ],
      "name": "SafeERC20FailedOperation",
      "type": "error"
    },
    {
      "anonymous": false,
      "inputs": [
        {
          "indexed": false,
          "internalType": "string",
          "name": "key",
          "type": "string"
        },
        {
          "indexed": false,
          "internalType": "uint256",
          "name": "value",
          "type": "uint256"
        }
      ],
      "name": "ConfigUpdated",
      "type": "event"
    },
    {
      "anonymous": false,
      "inputs": [
        {
          "indexed": false,
          "internalType": "bool",
          "name": "isPaused",
          "type": "bool"
        }
      ],
      "name": "ContractPaused",
      "type": "event"
    },
    {
      "anonymous": false,
      "inputs": [
        {
          "indexed": true,
          "internalType": "uint256",
          "name": "tokenId",
          "type": "uint256"
        },
        {
          "indexed": false,
          "internalType": "uint256",
          "name": "amount0",
          "type": "uint256"
        },
        {
          "indexed": false,
          "internalType": "uint256",
          "name": "amount1",
          "type": "uint256"
        }
      ],
      "name": "FeesCollected",
      "type": "event"
    },
    {
      "anonymous": false,
      "inputs": [
        {
          "indexed": true,
          "internalType": "uint256",
          "name": "tokenId",
          "type": "uint256"
        },
        {
          "indexed": false,
          "internalType": "uint128",
          "name": "liquidity",
          "type": "uint128"
        }
      ],
      "name": "LiquidityAdded",
      "type": "event"
    },
    {
      "anonymous": false,
      "inputs": [
        {
          "indexed": true,
          "internalType": "address",
          "name": "owner",
          "type": "address"
        }
      ],
      "name": "OwnerAdded",
      "type": "event"
    },
    {
      "anonymous": false,
      "inputs": [
        {
          "indexed": true,
          "internalType": "address",
          "name": "owner",
          "type": "address"
        }
      ],
      "name": "OwnerRemoved",
      "type": "event"
    },
    {
      "anonymous": false,
      "inputs": [
        {
          "indexed": true,
          "internalType": "uint256",
          "name": "tokenId",
          "type": "uint256"
        }
      ],
      "name": "PositionAdded",
      "type": "event"
    },
    {
      "anonymous": false,
      "inputs": [
        {
          "indexed": true,
          "internalType": "uint256",
          "name": "tokenId",
          "type": "uint256"
        }
      ],
      "name": "PositionRemoved",
      "type": "event"
    },
    {
      "anonymous": false,
      "inputs": [
        {
          "indexed": false,
          "internalType": "uint256",
          "name": "timestamp",
          "type": "uint256"
        },
        {
          "indexed": false,
          "internalType": "uint256",
          "name": "totalWLD",
          "type": "uint256"
        }
      ],
      "name": "ReinvestCompleted",
      "type": "event"
    },
    {
      "anonymous": false,
      "inputs": [
        {
          "indexed": true,
          "internalType": "address",
          "name": "token",
          "type": "address"
        },
        {
          "indexed": true,
          "internalType": "address",
          "name": "to",
          "type": "address"
        },
        {
          "indexed": false,
          "internalType": "uint256",
          "name": "amount",
          "type": "uint256"
        }
      ],
      "name": "ReserveWithdrawn",
      "type": "event"
    },
    {
      "anonymous": false,
      "inputs": [
        {
          "indexed": false,
          "internalType": "uint256",
          "name": "wldAmount",
          "type": "uint256"
        }
      ],
      "name": "StakingRewardClaimed",
      "type": "event"
    },
    {
      "anonymous": false,
      "inputs": [
        {
          "indexed": true,
          "internalType": "address",
          "name": "tokenIn",
          "type": "address"
        },
        {
          "indexed": true,
          "internalType": "address",
          "name": "tokenOut",
          "type": "address"
        },
        {
          "indexed": false,
          "internalType": "uint256",
          "name": "amountIn",
          "type": "uint256"
        },
        {
          "indexed": false,
          "internalType": "bytes",
          "name": "reason",
          "type": "bytes"
        }
      ],
      "name": "SwapFailed",
      "type": "event"
    },
    {
      "anonymous": false,
      "inputs": [
        {
          "indexed": true,
          "internalType": "address",
          "name": "tokenIn",
          "type": "address"
        },
        {
          "indexed": true,
          "internalType": "address",
          "name": "tokenOut",
          "type": "address"
        },
        {
          "indexed": false,
          "internalType": "uint256",
          "name": "amountIn",
          "type": "uint256"
        },
        {
          "indexed": false,
          "internalType": "uint256",
          "name": "amountOut",
          "type": "uint256"
        }
      ],
      "name": "Swapped",
      "type": "event"
    },
    {
      "anonymous": false,
      "inputs": [
        {
          "indexed": false,
          "internalType": "uint256",
          "name": "amount",
          "type": "uint256"
        }
      ],
      "name": "TimeStaked",
      "type": "event"
    },
    {
      "anonymous": false,
      "inputs": [
        {
          "indexed": false,
          "internalType": "uint256",
          "name": "amount",
          "type": "uint256"
        }
      ],
      "name": "TimeUnstaked",
      "type": "event"
    },
    {
      "inputs": [],
      "name": "BTCH2O",
      "outputs": [
        {
          "internalType": "address",
          "name": "",
          "type": "address"
        }
      ],
      "stateMutability": "view",
      "type": "function"
    },
    {
      "inputs": [],
      "name": "H2O",
      "outputs": [
        {
          "internalType": "address",
          "name": "",
          "type": "address"
        }
      ],
      "stateMutability": "view",
      "type": "function"
    },
    {
      "inputs": [],
      "name": "POSITION_MANAGER",
      "outputs": [
        {
          "internalType": "address",
          "name": "",
          "type": "address"
        }
      ],
      "stateMutability": "view",
      "type": "function"
    },
    {
      "inputs": [],
      "name": "STAKING_CONTRACT",
      "outputs": [
        {
          "internalType": "address",
          "name": "",
          "type": "address"
        }
      ],
      "stateMutability": "view",
      "type": "function"
    },
    {
      "inputs": [],
      "name": "SWAP_ROUTER",
      "outputs": [
        {
          "internalType": "address",
          "name": "",
          "type": "address"
        }
      ],
      "stateMutability": "view",
      "type": "function"
    },
    {
      "inputs": [],
      "name": "TIME_TOKEN",
      "outputs": [
        {
          "internalType": "address",
          "name": "",
          "type": "address"
        }
      ],
      "stateMutability": "view",
      "type": "function"
    },
    {
      "inputs": [],
      "name": "UNISWAP_FACTORY",
      "outputs": [
        {
          "internalType": "address",
          "name": "",
          "type": "address"
        }
      ],
      "stateMutability": "view",
      "type": "function"
    },
    {
      "inputs": [],
      "name": "WLD",
      "outputs": [
        {
          "internalType": "address",
          "name": "",
          "type": "address"
        }
      ],
      "stateMutability": "view",
      "type": "function"
    },
    {
      "inputs": [
        {
          "internalType": "address",
          "name": "newOwner",
          "type": "address"
        }
      ],
      "name": "addOwner",
      "outputs": [],
      "stateMutability": "nonpayable",
      "type": "function"
    },
    {
      "inputs": [
        {
          "internalType": "uint256",
          "name": "tokenId",
          "type": "uint256"
        }
      ],
      "name": "addPosition",
      "outputs": [],
      "stateMutability": "nonpayable",
      "type": "function"
    },
    {
      "inputs": [],
      "name": "btch2oShareBps",
      "outputs": [
        {
          "internalType": "uint256",
          "name": "",
          "type": "uint256"
        }
      ],
      "stateMutability": "view",
      "type": "function"
    },
    {
      "inputs": [
        {
          "internalType": "uint256",
          "name": "deadline",
          "type": "uint256"
        }
      ],
      "name": "claimStakingRewards",
      "outputs": [],
      "stateMutability": "nonpayable",
      "type": "function"
    },
    {
      "inputs": [
        {
          "internalType": "uint256[]",
          "name": "tokenIds",
          "type": "uint256[]"
        },
        {
          "internalType": "uint256",
          "name": "deadline",
          "type": "uint256"
        }
      ],
      "name": "collectAll",
      "outputs": [],
      "stateMutability": "nonpayable",
      "type": "function"
    },
    {
      "inputs": [
        {
          "internalType": "uint256[]",
          "name": "tokenIds",
          "type": "uint256[]"
        },
        {
          "internalType": "uint256",
          "name": "deadline",
          "type": "uint256"
        }
      ],
      "name": "collectFees",
      "outputs": [],
      "stateMutability": "nonpayable",
      "type": "function"
    },
    {
      "inputs": [],
      "name": "getConfig",
      "outputs": [
        {
          "internalType": "uint256",
          "name": "_reinvestIntervalSecs",
          "type": "uint256"
        },
        {
          "internalType": "uint256",
          "name": "_reserveFeeBps",
          "type": "uint256"
        },
        {
          "internalType": "uint256",
          "name": "_h2oShareBps",
          "type": "uint256"
        },
        {
          "internalType": "uint256",
          "name": "_btch2oShareBps",
          "type": "uint256"
        },
        {
          "internalType": "bool",
          "name": "_paused",
          "type": "bool"
        },
        {
          "internalType": "uint256",
          "name": "_lastReinvestAt",
          "type": "uint256"
        }
      ],
      "stateMutability": "view",
      "type": "function"
    },
    {
      "inputs": [],
      "name": "getManagedPositions",
      "outputs": [
        {
          "internalType": "uint256[]",
          "name": "",
          "type": "uint256[]"
        }
      ],
      "stateMutability": "view",
      "type": "function"
    },
    {
      "inputs": [],
      "name": "getOwners",
      "outputs": [
        {
          "internalType": "address[]",
          "name": "",
          "type": "address[]"
        }
      ],
      "stateMutability": "view",
      "type": "function"
    },
    {
      "inputs": [
        {
          "internalType": "uint256",
          "name": "tokenId",
          "type": "uint256"
        }
      ],
      "name": "getPosition",
      "outputs": [
        {
          "internalType": "address",
          "name": "token0",
          "type": "address"
        },
        {
          "internalType": "address",
          "name": "token1",
          "type": "address"
        },
        {
          "internalType": "uint24",
          "name": "fee",
          "type": "uint24"
        },
        {
          "internalType": "int24",
          "name": "tickLower",
          "type": "int24"
        },
        {
          "internalType": "int24",
          "name": "tickUpper",
          "type": "int24"
        },
        {
          "internalType": "uint128",
          "name": "liquidity",
          "type": "uint128"
        },
        {
          "internalType": "uint128",
          "name": "tokensOwed0",
          "type": "uint128"
        },
        {
          "internalType": "uint128",
          "name": "tokensOwed1",
          "type": "uint128"
        },
        {
          "internalType": "bool",
          "name": "managed",
          "type": "bool"
        },
        {
          "internalType": "bool",
          "name": "isInRange",
          "type": "bool"
        }
      ],
      "stateMutability": "view",
      "type": "function"
    },
    {
      "inputs": [],
      "name": "getReserves",
      "outputs": [
        {
          "internalType": "uint256",
          "name": "wldReserve",
          "type": "uint256"
        },
        {
          "internalType": "uint256",
          "name": "h2oReserve",
          "type": "uint256"
        },
        {
          "internalType": "uint256",
          "name": "btch2oReserve",
          "type": "uint256"
        }
      ],
      "stateMutability": "view",
      "type": "function"
    },
    {
      "inputs": [],
      "name": "getStakingInfo",
      "outputs": [
        {
          "internalType": "uint256",
          "name": "stakedTime",
          "type": "uint256"
        },
        {
          "internalType": "uint256",
          "name": "pendingWLD",
          "type": "uint256"
        },
        {
          "internalType": "uint256",
          "name": "totalStakedInContract",
          "type": "uint256"
        }
      ],
      "stateMutability": "view",
      "type": "function"
    },
    {
      "inputs": [],
      "name": "h2oShareBps",
      "outputs": [
        {
          "internalType": "uint256",
          "name": "",
          "type": "uint256"
        }
      ],
      "stateMutability": "view",
      "type": "function"
    },
    {
      "inputs": [
        {
          "internalType": "uint256",
          "name": "",
          "type": "uint256"
        }
      ],
      "name": "inRange",
      "outputs": [
        {
          "internalType": "bool",
          "name": "",
          "type": "bool"
        }
      ],
      "stateMutability": "view",
      "type": "function"
    },
    {
      "inputs": [
        {
          "internalType": "uint256",
          "name": "",
          "type": "uint256"
        }
      ],
      "name": "isManaged",
      "outputs": [
        {
          "internalType": "bool",
          "name": "",
          "type": "bool"
        }
      ],
      "stateMutability": "view",
      "type": "function"
    },
    {
      "inputs": [
        {
          "internalType": "address",
          "name": "",
          "type": "address"
        }
      ],
      "name": "isOwner",
      "outputs": [
        {
          "internalType": "bool",
          "name": "",
          "type": "bool"
        }
      ],
      "stateMutability": "view",
      "type": "function"
    },
    {
      "inputs": [],
      "name": "lastReinvestAt",
      "outputs": [
        {
          "internalType": "uint256",
          "name": "",
          "type": "uint256"
        }
      ],
      "stateMutability": "view",
      "type": "function"
    },
    {
      "inputs": [
        {
          "internalType": "uint256",
          "name": "",
          "type": "uint256"
        }
      ],
      "name": "managedPositions",
      "outputs": [
        {
          "internalType": "uint256",
          "name": "",
          "type": "uint256"
        }
      ],
      "stateMutability": "view",
      "type": "function"
    },
    {
      "inputs": [
        {
          "internalType": "uint256",
          "name": "",
          "type": "uint256"
        }
      ],
      "name": "ownerList",
      "outputs": [
        {
          "internalType": "address",
          "name": "",
          "type": "address"
        }
      ],
      "stateMutability": "view",
      "type": "function"
    },
    {
      "inputs": [],
      "name": "paused",
      "outputs": [
        {
          "internalType": "bool",
          "name": "",
          "type": "bool"
        }
      ],
      "stateMutability": "view",
      "type": "function"
    },
    {
      "inputs": [],
      "name": "pendingStakingReward",
      "outputs": [
        {
          "internalType": "uint256",
          "name": "",
          "type": "uint256"
        }
      ],
      "stateMutability": "view",
      "type": "function"
    },
    {
      "inputs": [],
      "name": "primaryOwner",
      "outputs": [
        {
          "internalType": "address",
          "name": "",
          "type": "address"
        }
      ],
      "stateMutability": "view",
      "type": "function"
    },
    {
      "inputs": [],
      "name": "reinvestIntervalSecs",
      "outputs": [
        {
          "internalType": "uint256",
          "name": "",
          "type": "uint256"
        }
      ],
      "stateMutability": "view",
      "type": "function"
    },
    {
      "inputs": [
        {
          "internalType": "address",
          "name": "owner",
          "type": "address"
        }
      ],
      "name": "removeOwner",
      "outputs": [],
      "stateMutability": "nonpayable",
      "type": "function"
    },
    {
      "inputs": [
        {
          "internalType": "uint256",
          "name": "tokenId",
          "type": "uint256"
        }
      ],
      "name": "removePosition",
      "outputs": [],
      "stateMutability": "nonpayable",
      "type": "function"
    },
    {
      "inputs": [
        {
          "internalType": "address",
          "name": "",
          "type": "address"
        }
      ],
      "name": "reserve",
      "outputs": [
        {
          "internalType": "uint256",
          "name": "",
          "type": "uint256"
        }
      ],
      "stateMutability": "view",
      "type": "function"
    },
    {
      "inputs": [],
      "name": "reserveFeeBps",
      "outputs": [
        {
          "internalType": "uint256",
          "name": "",
          "type": "uint256"
        }
      ],
      "stateMutability": "view",
      "type": "function"
    },
    {
      "inputs": [
        {
          "internalType": "uint256",
          "name": "_h2oShareBps",
          "type": "uint256"
        },
        {
          "internalType": "uint256",
          "name": "_btch2oShareBps",
          "type": "uint256"
        }
      ],
      "name": "setDistribution",
      "outputs": [],
      "stateMutability": "nonpayable",
      "type": "function"
    },
    {
      "inputs": [
        {
          "internalType": "bool",
          "name": "_paused",
          "type": "bool"
        }
      ],
      "name": "setPaused",
      "outputs": [],
      "stateMutability": "nonpayable",
      "type": "function"
    },
    {
      "inputs": [
        {
          "internalType": "uint256",
          "name": "secs",
          "type": "uint256"
        }
      ],
      "name": "setReinvestInterval",
      "outputs": [],
      "stateMutability": "nonpayable",
      "type": "function"
    },
    {
      "inputs": [
        {
          "internalType": "uint256",
          "name": "bps",
          "type": "uint256"
        }
      ],
      "name": "setReserveFeeBps",
      "outputs": [],
      "stateMutability": "nonpayable",
      "type": "function"
    },
    {
      "inputs": [
        {
          "internalType": "uint256",
          "name": "amount",
          "type": "uint256"
        }
      ],
      "name": "stakeTime",
      "outputs": [],
      "stateMutability": "nonpayable",
      "type": "function"
    },
    {
      "inputs": [],
      "name": "stakedTimeBalance",
      "outputs": [
        {
          "internalType": "uint256",
          "name": "",
          "type": "uint256"
        }
      ],
      "stateMutability": "view",
      "type": "function"
    },
    {
      "inputs": [
        {
          "internalType": "uint256",
          "name": "amount",
          "type": "uint256"
        }
      ],
      "name": "unstakeTime",
      "outputs": [],
      "stateMutability": "nonpayable",
      "type": "function"
    },
    {
      "inputs": [
        {
          "internalType": "uint256[]",
          "name": "tokenIds",
          "type": "uint256[]"
        }
      ],
      "name": "updateRanges",
      "outputs": [],
      "stateMutability": "nonpayable",
      "type": "function"
    },
    {
      "inputs": [
        {
          "internalType": "address",
          "name": "token",
          "type": "address"
        },
        {
          "internalType": "address",
          "name": "to",
          "type": "address"
        }
      ],
      "name": "withdrawAll",
      "outputs": [],
      "stateMutability": "nonpayable",
      "type": "function"
    },
    {
      "inputs": [
        {
          "internalType": "address",
          "name": "token",
          "type": "address"
        },
        {
          "internalType": "uint256",
          "name": "amount",
          "type": "uint256"
        },
        {
          "internalType": "address",
          "name": "to",
          "type": "address"
        }
      ],
      "name": "withdrawReserve",
      "outputs": [],
      "stateMutability": "nonpayable",
      "type": "function"
    }
  ],
  "bytecode": "0x610120346200025f57601f6200376f38819003918201601f19168301916001600160401b03831184841017620002645780849260a0946040528339810103126200025f576200004e816200027a565b906200005d602082016200027a565b6200006b604083016200027a565b9062000088608062000080606086016200027a565b94016200027a565b9360017f9b779b17422d0df92223018b32b4d1fa46e071723d6817e2486d003becc55f005560805260a05260c05260e05261010090815260018060a01b031960003382825416178155338152600160205260408120600160ff1982541617905560025490680100000000000000008210156200024b5760018201806002558210156200023757600290527f405787fa12a823e0f2b7631cc41b3ba8828b3321ca811111fa75cd3aa3bb5ace0180549091163317905561012c60035560c8600455610fa0600555610bb86006556040516134df918262000290833960805182818161052501528181611b0a015281816124cf0152818161279801528181612b2801528181612c4b01528181612d7401528181612da901528181612f8d0152818161307201526130c4015260a05182818161022701528181611b3901528181612dd101528181612fb401526130a3015260c051828181610c4e01528181611b620152613051015260e05182818161131401526117e30152518181816105690152818161079501528181610ad801528181610ec9015281816110ad015281816117ad0152818161250d01526127d60152f35b634e487b7160e01b81526032600452602490fd5b634e487b7160e01b81526041600452602490fd5b600080fd5b634e487b7160e01b600052604160045260246000fd5b51906001600160a01b03821682036200025f5756fe608060408181526004918236101561001657600080fd5b600092833560e01c9182630902f1ac14611ae65750816309cae2c8146119bf5781630a42f0491461176557816310a135ca146116a857816316c38b3c14611637578163173825d91461145f5781631bea83fe146114305781631d8d7c661461134357816322046088146112ff5781632f54bf6e146112c157816335e93277146112a25781633cd57d611461128357816340ec97c6146112565781634b41cb27146111a157816355b6cce1146111745781635c975abb14611150578163616e16611461107157816365db6579146110535781637065cb4814610f0957816376d3fe8a14610e9b57816382f8fe7814610e415781638d0b3c7c14610e0c5781638d95c2cf14610dd35781638e10be3314610dab5781638fad262714610d6157816398fb86d314610d42578163a0e67e2b14610c7d578163acb4767014610c39578163b40cd21d14610ab3578163c006ee2d14610a41578163c0467422146108c7578163c3f909d414610878578163c600589314610849578163c74c0fac1461081a578163cb60906414610767578163ce8021de14610748578163d2d6a8721461063d578163d7759e6a14610598578163da19ddfb14610554578163de061d6614610510578163def79ab5146104cb578163e75179a414610493578163eb02c30114610352578163f18dba261461025a575063feaa524d1461021457600080fd5b34610256578160031936011261025657517f00000000000000000000000000000000000000000000000000000000000000006001600160a01b03168152602090f35b5080fd5b83915034610256578260031936011261025657803560243591338452600160205261028a60ff8686205416611c9c565b6127106102978484611d55565b1161032057508360809282849360055581600655825190838252600b848301526a68326f536861726542707360a81b606083015260208201527f12c9dccd129ff783f1c8228eacdfa8e334ddecb7ec5c9a79ec662a4aed3d012a948591a1600e8251928084528301526d62746368326f536861726542707360901b60608301526020820152a180f35b606490602086519162461bcd60e51b8352820152600c60248201526b45786365656473203130302560a01b6044820152fd5b828434610490576020366003190112610490578235908183519463133f757160e31b8652850152610180808560248173ec12a9f9a09f50550686363766cc153d03c27b5e5afa8015610486576101409583948496859086918793889589988a98610433575b50509062ffffff918952600960205260ff8381818c2054169a600a6020522054169983519b60018060a01b038092168d521660208c0152169089015260020b606088015260020b60808701526001600160801b03928380921660a08801521660c08601521660e084015215156101008301521515610120820152f35b9550955096505097505062ffffff95506104629250803d1061047f575b61045a8183611d33565b810190612171565b979e989d909b979a509298509296939593949392508e90506103b7565b503d610450565b84513d84823e3d90fd5b80fd5b5050346102565760203660031901126102565760209181906001600160a01b036104bb611b9e565b168152600c845220549051908152f35b90503461050c57602036600319011261050c57359160025483101561049057506104f6602092611c18565b905491519160018060a01b039160031b1c168152f35b8280fd5b505034610256578160031936011261025657517f00000000000000000000000000000000000000000000000000000000000000006001600160a01b03168152602090f35b505034610256578160031936011261025657517f00000000000000000000000000000000000000000000000000000000000000006001600160a01b03168152602090f35b9190503461050c57602091826003193601126106395780359067ffffffffffffffff8211610635576105cc91369101611bb4565b913385526001845260ff906105e5828288205416611c9c565b855b8481106105f2578680f35b8061060161061792878761212b565b3588526009875283838920541661061c57611cd7565b6105e7565b61063061062a82888861212b565b35612230565b611cd7565b8480fd5b8380fd5b9190503461050c57602036600319011261050c57813591338452600160205261066b60ff8386205416611c9c565b828452600960205260ff828520541661071457600b5490600160401b8210156107015750826106a38260016106bc9401600b55611c65565b90919082549060031b91821b91600019901b1916179055565b81835260096020528220805460ff191660011790556106da81612230565b7f3d0a2b1c6f8e72f333688e33b7fc1767f042d33eaef1d3b5db5968567033e91f8280a280f35b634e487b7160e01b855260419052602484fd5b6020606492519162461bcd60e51b8352820152600f60248201526e105b1c9958591e481b585b9859d959608a1b6044820152fd5b5050346102565781600319360112610256576020906003549051908152f35b8383346102565781600319360112610256578051633111b0d160e21b815230938101939093526020836024817f00000000000000000000000000000000000000000000000000000000000000006001600160a01b03165afa91821561080f57916107d6575b6020925051908152f35b90506020823d8211610807575b816107f060209383611d33565b810103126108025760209151906107cc565b600080fd5b3d91506107e3565b9051903d90823e3d90fd5b50503461025657816003193601126102565760209051737a5028bda40e7b173c278c5342087826455ea25a8152f35b5050346102565781600319360112610256576020905173091ad9e2e6e5ed44c1c66db50e49a601f9f36cf68152f35b9190503461050c578260031936011261050c5760c092506003549154906005546006549060ff6007541692600854948151968752602087015285015260608401521515608083015260a0820152f35b90503461050c57602036600319011261050c57803591338452600190816020526108f660ff8287205416611c9c565b838552600960205260ff818620541615610a115783855260096020528420805460ff1916905582919084815b610950575b85847f8dab17171ceb83acca6e0d86e9c8b6d3f2eec3a1ec6a5a2f9a3f1b7e17ad10358280a280f35b600b805480831015610a0a5761096583611c65565b969054600397881b1c1461098b57505061098191929350611cd7565b9083929181610922565b92509290600019928381019081116109f757906106a36109ad6109b993611c65565b905490881b1c91611c65565b82549081156109e457508101926109cf84611c65565b81939154921b1b191690555580388080610927565b634e487b7160e01b875260319052602486fd5b634e487b7160e01b885260118352602488fd5b5050610927565b5162461bcd60e51b8152602081840152600b60248201526a139bdd081b585b9859d95960aa1b6044820152606490fd5b50503461025657610a70610a8c9160ff610a5a36611be5565b9491929093338852600160205287205416611c9c565b610a7f60ff600754161561246c565b610a87612682565b61271b565b60017f9b779b17422d0df92223018b32b4d1fa46e071723d6817e2486d003becc55f005580f35b90503461050c578260031936011261050c578151636021726760e01b815230828201527f00000000000000000000000000000000000000000000000000000000000000006001600160a01b031693909260208085602481895afa948515610c2d578395610bfe575b508151633111b0d160e21b81523085820152958187602481845afa968715610bf1578497610bc2575b5081908351958680926340bd8e6960e11b82525afa928315610bb75792610b85575b50519283526020830193909352506040810191909152606090f35b0390f35b90915082813d8311610bb0575b610b9c8183611d33565b8101031261080257610b8191519038610b66565b503d610b92565b8251903d90823e3d90fd5b9096508181813d8311610bea575b610bda8183611d33565b8101031261080257519581610b44565b503d610bd0565b50505051903d90823e3d90fd5b9080955081813d8311610c26575b610c168183611d33565b8101031261080257519338610b1b565b503d610c0c565b505051903d90823e3d90fd5b505034610256578160031936011261025657517f00000000000000000000000000000000000000000000000000000000000000006001600160a01b03168152602090f35b8284346104905780600319360112610490579080519182906002549182855260208095018093600284527f405787fa12a823e0f2b7631cc41b3ba8828b3321ca811111fa75cd3aa3bb5ace90845b818110610d255750505081610ce1910382611d33565b83519485948186019282875251809352850193925b828110610d0557505050500390f35b83516001600160a01b031685528695509381019392810192600101610cf6565b82546001600160a01b031684529288019260019283019201610ccb565b5050346102565781600319360112610256576020906005549051908152f35b90503461050c57602036600319011261050c57610d8e60ff610a8c93338652600160205285205416611c9c565b610d9d60ff600754161561246c565b610da5612682565b356124ad565b505034610256578160031936011261025657905490516001600160a01b039091168152602090f35b90503461050c57602036600319011261050c573591600b548310156104905750610dfe602092611c65565b91905490519160031b1c8152f35b50503461025657610e25610a8c9160ff610a5a36611be5565b610e3460ff600754161561246c565b610e3c612682565b612771565b505034610256578160031936011261025657610e5b6120bc565b815192839260208080860192818752855180945286019401925b828110610e8457505050500390f35b835185528695509381019392810192600101610e75565b8383346102565781600319360112610256578051636021726760e01b815230938101939093526020836024817f00000000000000000000000000000000000000000000000000000000000000006001600160a01b03165afa91821561080f57916107d6576020925051908152f35b838334610256576020908160031936011261050c57610f26611b9e565b9033845260018352610f3d60ff8286205416611c9c565b6001600160a01b038216928315611022578385526001815260ff8286205416610ff057600190848652528320600160ff19825416179055600254600160401b811015610fdd5790610f97826001610fb69401600255611c18565b90919082549060031b9160018060a01b03809116831b921b1916179055565b7f994a936646fe87ffe4f1e469d3d6aa417d6b855598397f323de5b449f765f0c38280a280f35b634e487b7160e01b845260418552602484fd5b8590606492519162461bcd60e51b8352820152600d60248201526c20b63932b0b23c9037bbb732b960991b6044820152fd5b8590606492519162461bcd60e51b8352820152600c60248201526b5a65726f206164647265737360a01b6044820152fd5b90503461050c578260031936011261050c5760209250549051908152f35b9190503461050c57602036600319011261050c578282359233825260016020526110a060ff8484205416611c9c565b6110ab841515611d62565b7f00000000000000000000000000000000000000000000000000000000000000006001600160a01b031690813b1561050c57846024849283875195869485936305c2fbcf60e31b85528401525af1801561114657611132575b507fe349d50c3ab0b3bf3b1ae799a3cd33b2993be0c809d854d8dd5c13ed6acd74976020848451908152a180f35b61113b90611d09565b61050c578238611104565b83513d84823e3d90fd5b50503461025657816003193601126102565760209060ff6007541690519015158152f35b90503461050c57602036600319011261050c578160209360ff923581526009855220541690519015158152f35b90503461050c57602036600319011261050c5780359033845260016020526111ce60ff8486205416611c9c565b6107d082116112295791816080927f12c9dccd129ff783f1c8228eacdfa8e334ddecb7ec5c9a79ec662a4aed3d012a9455600d8251928084528301526c7265736572766546656542707360981b60608301526020820152a180f35b606490602084519162461bcd60e51b835282015260076024820152664d61782032302560c81b6044820152fd5b90503461050c57602036600319011261050c578160209360ff92358152600a855220541690519015158152f35b5050346102565781600319360112610256576020906008549051908152f35b5050346102565781600319360112610256576020906006549051908152f35b5050346102565760203660031901126102565760209160ff9082906001600160a01b036112ec611b9e565b1681526001855220541690519015158152f35b505034610256578160031936011261025657517f00000000000000000000000000000000000000000000000000000000000000006001600160a01b03168152602090f35b90503461050c57606036600319011261050c5761135e611b9e565b6001600160a01b03604435818116946024359390929086830361080257338852600160205261139260ff858a205416611c9c565b1693848752600c6020528383882054106113f65750916020916113ee827fde13184e8cbb6eccbcecfc796bf8820e5ffde0534c01b4fabed4b05982964a4495878a52600c8652838a206113e6838254611cfc565b905587613428565b51908152a380f35b606490602084519162461bcd60e51b83528201526014602482015273496e73756666696369656e74207265736572766560601b6044820152fd5b5050346102565781600319360112610256576020905173ec12a9f9a09f50550686363766cc153d03c27b5e8152f35b90503461050c57602036600319011261050c5761147a611b9e565b83546001600160a01b03908116929091338490036115ff5782169283146115bc57828552600193846020526114b460ff8288205416611c9c565b83865260208590528520805460ff1916905584845b6114f7575b85847f58619076adf5bb0943d100ef88d52d7c3fd691b19d3a9071b555b651fbf418da8280a280f35b60028054808310156115b5579084918661151085611c18565b949054600395861b1c16146115315750505061152b90611cd7565b846114c9565b9290949391959650600019928381019081116115a25790610f978561155861156594611c18565b9054908a1b1c1691611c18565b835490811561158f5750019261157a84611c18565b81939154921b1b1916905555803880806114ce565b634e487b7160e01b885260319052602487fd5b634e487b7160e01b895260118352602489fd5b50506114ce565b606490602085519162461bcd60e51b8352820152601b60248201527f43616e6e6f742072656d6f7665207072696d617279206f776e657200000000006044820152fd5b845162461bcd60e51b8152602081840152601260248201527127b7363c90383934b6b0b93c9037bbb732b960711b6044820152606490fd5b90503461050c57602036600319011261050c57359081151580920361050c577f752d7e161ff5146f80e3820893176eb40532811e5e20400dfdde57455213706a916020913385526001835261169160ff8287205416611c9c565b60ff196007541660ff83161760075551908152a180f35b90503461050c57602036600319011261050c5780359033845260016020526116d560ff8486205416611c9c565b603c821061173857507f12c9dccd129ff783f1c8228eacdfa8e334ddecb7ec5c9a79ec662a4aed3d012a91816080926003556014825192808452830152737265696e76657374496e74657276616c5365637360601b60608301526020820152a180f35b606490602084519162461bcd60e51b835282015260076024820152664d696e2036307360c81b6044820152fd5b838334610256576020908160031936011261050c578335903384526001835261179360ff8286205416611c9c565b61179e821515611d62565b805163095ea7b360e01b8086527f00000000000000000000000000000000000000000000000000000000000000006001600160a01b03818116808a52602487815299947f00000000000000000000000000000000000000000000000000000000000000009092169391888a60448180895af19060018b51148216156119b0575b875215611928575b803b1561192457855163534a7e1d60e11b815285810188905289818c8183865af1801561191a57611907575b50879060009087519382528652808b5260448180875af1906001600051148216156118f8575b8552156118ad575b867f38d8c3e304a8001683d048dcc3e1b148be830f6035082131e02a42d24f683dce87878751908152a180f35b6118b78183612077565b156118e4576118c69082612077565b156118d15780611880565b86925191635274afe760e01b8352820152fd5b5086925191635274afe760e01b8352820152fd5b90833b15153d15161690611878565b9861191389929a611d09565b9890611852565b87513d8c823e3d90fd5b8880fd5b6119328385612077565b15611999578551828a52818652878b52888a60448180895af160018b511481161561197a575b818852156119665750611826565b635274afe760e01b81528581018590528a90fd5b600181151661199057853b15153d151616611958565b503d8a823e3d90fd5b50509251635274afe760e01b815291820152859150fd5b90853b15153d1516169061181e565b90503461050c578160031936011261050c576119d9611b9e565b6001600160a01b0360243581811694909391858503611ae25733875260209360018552611a0b60ff848a205416611c9c565b16938151926370a0823160e01b845230818501528484602481895afa938415611ad8578894611aa5575b508315611a6c5750906113ee837fde13184e8cbb6eccbcecfc796bf8820e5ffde0534c01b4fabed4b05982964a4495949387613428565b825162461bcd60e51b815290810185905260136024820152724e6f7468696e6720746f20776974686472617760681b6044820152606490fd5b9093508481813d8311611ad1575b611abd8183611d33565b81010312611acd57519238611a35565b8780fd5b503d611ab3565b83513d8a823e3d90fd5b8680fd5b8490843461050c578260031936011261050c578192610b819160018060a01b0390817f0000000000000000000000000000000000000000000000000000000000000000168352600c6020528083205492827f000000000000000000000000000000000000000000000000000000000000000016815281812054927f0000000000000000000000000000000000000000000000000000000000000000168152205491846040919493926060820195825260208201520152565b600435906001600160a01b038216820361080257565b9181601f840112156108025782359167ffffffffffffffff8311610802576020808501948460051b01011161080257565b6040600319820112610802576004359067ffffffffffffffff821161080257611c1091600401611bb4565b909160243590565b600254811015611c4f5760026000527f405787fa12a823e0f2b7631cc41b3ba8828b3321ca811111fa75cd3aa3bb5ace0190600090565b634e487b7160e01b600052603260045260246000fd5b600b54811015611c4f57600b6000527f0175b7a638427703f0dbe7bb9bbf987a2551717b34e79f33b5b1008d1fa01db90190600090565b15611ca357565b60405162461bcd60e51b815260206004820152600c60248201526b2737ba1030b71037bbb732b960a11b6044820152606490fd5b6000198114611ce65760010190565b634e487b7160e01b600052601160045260246000fd5b91908203918211611ce657565b67ffffffffffffffff8111611d1d57604052565b634e487b7160e01b600052604160045260246000fd5b90601f8019910116810190811067ffffffffffffffff821117611d1d57604052565b91908201809211611ce657565b15611d6957565b60405162461bcd60e51b815260206004820152600b60248201526a16995c9bc8185b5bdd5b9d60aa1b6044820152606490fd5b60006040519263095ea7b360e01b93848352602073ec12a9f9a09f50550686363766cc153d03c27b5e93846004528360245260448180885af190600160005114821615611e98575b60405215611df3575b50505050565b611dfc83611fbb565b15611e77579060209160009160405195835260045260245260448180855af1600160005114811615611e57575b8260405215611e39578080611ded565b635274afe760e01b82526001600160a01b0316600482015260249150fd5b6001811516611e6d57813b15153d151616611e29565b823d6000823e3d90fd5b604051635274afe760e01b81526001600160a01b0384166004820152602490fd5b90843b15153d15161690611de4565b600060206040519163095ea7b360e01b815273ec12a9f9a09f50550686363766cc153d03c27b5e6004528060245260448180865af190600160005114821615611f37575b60405215611ef65750565b611eff81611fbb565b15611f1557611f0d81611fbb565b15611f155750565b604051635274afe760e01b81526001600160a01b039091166004820152602490fd5b90823b15153d15161690611eeb565b600060206040519163095ea7b360e01b815273091ad9e2e6e5ed44c1c66db50e49a601f9f36cf66004528060245260448180865af190600160005114821615611fac575b60405215611f955750565b611f9e8161202c565b15611f1557611f0d8161202c565b90823b15153d15161690611f8a565b9060405160009263095ea7b360e01b845273ec12a9f9a09f50550686363766cc153d03c27b5e6004528360245260208460448180855af1936001815114851615612007575b5050604052565b6001859395151661202257503b15153d151616913880612000565b84903d90823e3d90fd5b9060405160009263095ea7b360e01b845273091ad9e2e6e5ed44c1c66db50e49a601f9f36cf66004528360245260208460448180855af1936001815114851615612007575050604052565b60405163095ea7b360e01b60009081526001600160a01b0390931660045260248390529192919060208460448180855af1936001815114851615612007575050604052565b60405190600b548083528260209182820190600b6000527f0175b7a638427703f0dbe7bb9bbf987a2551717b34e79f33b5b1008d1fa01db9936000905b8282106121115750505061210f92500383611d33565b565b8554845260019586019588955093810193909101906120f9565b9190811015611c4f5760051b0190565b51906001600160a01b038216820361080257565b51908160020b820361080257565b51906001600160801b038216820361080257565b9190826101809103126108025781516bffffffffffffffffffffffff8116810361080257916121a26020820161213b565b916121af6040830161213b565b916121bc6060820161213b565b91608082015162ffffff8116810361080257916121db60a0820161214f565b916121e860c0830161214f565b916121f560e0820161215d565b91610100820151916101208101519161221e610160612217610140850161215d565b930161215d565b90565b519061ffff8216820361080257565b6040805163133f757160e31b81526004810183905261018092838260248173ec12a9f9a09f50550686363766cc153d03c27b5e5afa938415612461576000928390849085938698612427575b50508551630b4c774160e11b81526001600160a01b039586166004820152918516602483015262ffffff166044820152602093908481606481737a5028bda40e7b173c278c5342087826455ea25a5afa9081156123e5579082916000916123f0575b501690816122f0575b50505050505050565b60e0600492875193848092633850c7bd851b82525afa9081156123e557600091612360575b50905060020b9060020b8112159485612351575b505090600a91600052526000209060ff801983541691151516179055388080808080806122e7565b60020b12159350600a38612329565b60e0833d82116123dd575b8161237860e09383611d33565b81010312610256578251908116036104905760c061239786840161214f565b926123a3888201612221565b506123b060608201612221565b506123bd60808201612221565b506123ca60a08201612221565b5001518015150361049057508038612315565b3d915061236b565b86513d6000823e3d90fd5b91508582813d8311612420575b6124078183611d33565b81010312610490575061241a829161213b565b386122de565b503d6123fd565b925092505061244992955062ffffff9350803d1061047f5761045a8183611d33565b5050505050945097945091949091969296903861227c565b83513d6000823e3d90fd5b1561247357565b60405162461bcd60e51b815260206004820152601260248201527110dbdb9d1c9858dd081a5cc81c185d5cd95960721b6044820152606490fd5b604080516370a0823160e01b8082523060048301526020916001600160a01b037f00000000000000000000000000000000000000000000000000000000000000008116926000918584602481885afa938415612678578394612649575b507f000000000000000000000000000000000000000000000000000000000000000016803b1561050c578280916004895180948193636fb01c6f60e01b83525af19081612636575b506125605750505050505050565b8490602487518096819382523060048301525afa90811561262b57906125fc575b61258b9250611cfc565b8015611ded576125ec7fc9ad57538c87a56b42547ba3335109c64ed9619d5cf403928283e46967b80c44947f3648c0bf88f1bc1bff753a51023e66eafbf42f937066e3c6f888e8b8cbdca680848651858152a16125e66120bc565b83612c21565b42600855825191428352820152a1565b508282813d8311612624575b6126128183611d33565b810103126108025761258b9151612581565b503d612608565b8551903d90823e3d90fd5b61264290939193611d09565b9138612552565b9093508581813d8311612671575b6126618183611d33565b8101031261050c5751923861250a565b503d612657565b87513d85823e3d90fd5b7f9b779b17422d0df92223018b32b4d1fa46e071723d6817e2486d003becc55f0060028154146126b25760029055565b604051633ee5aeb560e01b8152600490fd5b90929167ffffffffffffffff8411611d1d578360051b60405192602080946126ee82850182611d33565b809781520191810192831161080257905b82821061270c5750505050565b813581529083019083016126ff565b61272582826129c2565b908115611ded577fc9ad57538c87a56b42547ba3335109c64ed9619d5cf403928283e46967b80c44936125e661275f9260409536916126c4565b426008558151904282526020820152a1565b604080516370a0823160e01b80825230600483015293949193602093916001600160a01b037f00000000000000000000000000000000000000000000000000000000000000008116926000918784602481885afa938415612976578394612993575b507f000000000000000000000000000000000000000000000000000000000000000016803b1561050c57908280899360048c5180948193636fb01c6f60e01b83525af19081612980575b506128d0575b61282d8a876129c2565b50602489518096819382523060048301525afa9081156128c55790612896575b6128579250611cfc565b91821561288e576125e66125ec927fc9ad57538c87a56b42547ba3335109c64ed9619d5cf403928283e46967b80c449736916126c4565b505050505050565b508482813d83116128be575b6128ac8183611d33565b8101031261080257612857915161284d565b503d6128a2565b8751903d90823e3d90fd5b905087518181523060048201528781602481885afa9081156129765788929185918591612940575b509061290391611cfc565b8281612911575b5050612823565b7f3648c0bf88f1bc1bff753a51023e66eafbf42f937066e3c6f888e8b8cbdca680918b51908152a1388261290a565b938092508491503d831161296f575b6129598183611d33565b81010312610802576129038489935190916128f8565b503d61294f565b89513d85823e3d90fd5b61298c90949194611d09565b923861281d565b9093508781813d83116129bb575b6129ab8183611d33565b8101031261050c575192386127d3565b503d6129a1565b91600091600090815b8181106129da57505050909150565b6129e581838861212b565b35808452602060098152604060ff818720541615612bee57805163133f757160e31b81526004808201859052936101809260249273ec12a9f9a09f50550686363766cc153d03c27b5e9085818681855afa958615612be4578b96612bb9575b50508151906080820182811067ffffffffffffffff821117612ba75790839291835284825287820195308752838301906001600160801b038281809452606086019282845287519d8e9763fc6f786560e01b89525190880152600160a01b60019003809b5116908701525116604485015251166064830152818c5a92608493f194858a978b97612b6e575b50612aea575b50505050505050612ae590611cd7565b6129cb565b917fa54e6c2fc0861aa9c991b26891d71059d517983b9e84b91020f42609c452eb9d82612b5998969488612ae59b9f9997955191898352820152a2807f000000000000000000000000000000000000000000000000000000000000000016911614600014612b66575090611d55565b9490388080808080612ad5565b905090611d55565b975095508187813d8111612ba0575b612b878183611d33565b81010312612b9c578087519701519538612acf565b8980fd5b503d612b7d565b634e487b7160e01b8c5260418952858cfd5b612bd0929650803d1061047f5761045a8183611d33565b505050505050505050915050933880612a44565b83513d8d823e3d90fd5b505050612ae590611cd7565b81810292918115918404141715611ce657565b8051821015611c4f5760209160051b010190565b612cb09093929193612cb5612c8a6127109283612c4060045483612bfa565b049060018060a01b037f000000000000000000000000000000000000000000000000000000000000000016600052600c6020526040600020612c83838254611d55565b9055611cfc565b82612c9760055483612bfa565b04938493612ca760065484612bfa565b04938492611cfc565b611cfc565b91838161309d575b90508161304b575b505080151580613041575b612cdb575b50509050565b835193841561302b5760005b815181101561301d57612cfa8183612c0d565b51600052600a60205260ff6040600020541680613012575b612d25575b612d2090611cd7565b612ce7565b612d2f8183612c0d565b519060405163133f757160e31b81528260048201526101808160248173ec12a9f9a09f50550686363766cc153d03c27b5e5afa90811561300657600091612fd9575b507f00000000000000000000000000000000000000000000000000000000000000006001600160a01b039081169116148015612fb2577f0000000000000000000000000000000000000000000000000000000000000000905b15612f8b577f0000000000000000000000000000000000000000000000000000000000000000905b612e078987046001600160a01b038316611d9c565b612e1c8987046001600160a01b038416611d9c565b6040518060c081011067ffffffffffffffff60c083011117611d1d5760c08101604052848152602081018a8804815260408201908b890482526060918284016000815260808501916000835260a08601938d85526040519663219f5d1760e01b88525160048801525160248701525160448601525160648501525160848401525160a4830152808260c481600073ec12a9f9a09f50550686363766cc153d03c27b5e5af1918291600093612f40575b505091612d2095612ef092612efe9594612f05575b50506001600160a01b0316611ea7565b6001600160a01b0316611ea7565b9050612d17565b60207f9204f5f210613c88bbfedbcf63911b917a440c100afc438464fca61b3d9e6cdd916001600160801b0360405191168152a23880612ee0565b9080935081959492953d8311612f84575b612f5b8183611d33565b8101031261080257612d2095612efe94612f77612ef09461215d565b9350919394819750612ecb565b503d612f51565b7f000000000000000000000000000000000000000000000000000000000000000090612df2565b7f000000000000000000000000000000000000000000000000000000000000000090612dca565b612ff491506101803d6101801161047f5761045a8183611d33565b50505050505050505091505038612d71565b6040513d6000823e3d90fd5b508583041515612d12565b505050509050803880612cd5565b634e487b7160e01b600052601260045260246000fd5b5083511515612cd0565b613096917f00000000000000000000000000000000000000000000000000000000000000007f00000000000000000000000000000000000000000000000000000000000000006130ef565b3882612cc5565b6130e8917f00000000000000000000000000000000000000000000000000000000000000007f00000000000000000000000000000000000000000000000000000000000000006130ef565b3883612cbd565b60405163095ea7b360e01b600081815273091ad9e2e6e5ed44c1c66db50e49a601f9f36cf6600452602486905293956001600160a01b03909316949390919060209060448180895af190600160005114821615613419575b60405215613379575b5060405190610100820182811067ffffffffffffffff821117611d1d5760409081528483526001600160a01b038681166020808601918252610bb886850190815230606088019081526080880196875260a08801898152600060c08a0181815260e08b01828152985163414bf38960e01b81529a51881660048c01529551871660248b0152925162ffffff1660448a015290518516606489015295516084880152945160a4870152905160c486015291511660e484015290829061010490829073091ad9e2e6e5ed44c1c66db50e49a601f9f36cf65af160009181613345575b506132ff57503d156132f7573d9267ffffffffffffffff8411611d1d5760405193613265601f8201601f191660200186611d33565b84523d6000602086013e5b61327983611f46565b6040519182526040602083015283519384604084015260005b8581106132e1575050906060817f4a99e9308af0d62abb0e8dd29183f0fb3daeac398042972ca4a5f4c387dbd8ac93600083888401015260018060a01b031695601f80199101168101030190a3565b8060208092840101516060828701015201613292565b606092613270565b7fa078c4190abe07940190effc1846be0ccf03ad6007bc9e93f9697d0b460befbb919360409161332e85611f46565b825195865260208601526001600160a01b031693a3565b90916020823d602011613371575b8161336060209383611d33565b810103126104905750519038613230565b3d9150613353565b6133828461202c565b15613400576020600060405192815273091ad9e2e6e5ed44c1c66db50e49a601f9f36cf66004528460245260448180885af16001600051148116156133e0575b8160405261315057635274afe760e01b815260048101849052602490fd5b60018115166133f657843b15153d1516166133c2565b503d6000823e3d90fd5b604051635274afe760e01b815260048101859052602490fd5b90853b15153d15161690613147565b60405163a9059cbb60e01b60009081526001600160a01b039384166004526024949094529260209060448180855af1600160005114811615613489575b836040521561347357505050565b635274afe760e01b835216600482015260249150fd5b600181151661349f57813b15153d151616613465565b833d6000823e3d90fdfea2646970667358221220bedbf0a3c96e8d629ea7a15560ecdc3932e534f1fccfe8a998f44d953040cc4d64736f6c63430008140033",
  "linkReferences": {},
  "deployedLinkReferences": {}
}